{
  "abi": [
    {
      "inputs": [],
      "stateMutability": "nonpayable",
      "type": "constructor"
    },
    {
      "inputs": [],
      "name": "BlockHashNotValidatedInCache",
      "type": "error"
    },
    {
      "inputs": [],
      "name": "BlockHashWitnessNotRecent",
      "type": "error"
    },
    {
      "inputs": [],
      "name": "BlockMerkleRootDoesNotMatchProof",
      "type": "error"
    },
    {
      "inputs": [],
      "name": "CannotFulfillIfNotActive",
      "type": "error"
    },
    {
      "inputs": [],
      "name": "CannotRefundBeforeDeadline",
      "type": "error"
    },
    {
      "inputs": [],
      "name": "CannotRefundIfNotActive",
      "type": "error"
    },
    {
      "inputs": [],
      "name": "ClaimedMMRDoesNotMatchRecent",
      "type": "error"
    },
    {
      "inputs": [],
      "name": "ContractIsFrozen",
      "type": "error"
    },
    {
      "inputs": [],
      "name": "HistoricalMMRKeccakDoesNotMatchProof",
      "type": "error"
    },
    {
      "inputs": [],
      "name": "KeccakQueryResponseDoesNotMatchProof",
      "type": "error"
    },
    {
      "inputs": [],
      "name": "MMREndBlockNotRecent",
      "type": "error"
    },
    {
      "inputs": [],
      "name": "MMRProofVerificationFailed",
      "type": "error"
    },
    {
      "inputs": [],
      "name": "NotProverRole",
      "type": "error"
    },
    {
      "inputs": [],
      "name": "PriceNotPaid",
      "type": "error"
    },
    {
      "inputs": [],
      "name": "PriceTooHigh",
      "type": "error"
    },
    {
      "inputs": [],
      "name": "ProofVerificationFailed",
      "type": "error"
    },
    {
      "inputs": [],
      "name": "QueryNotInactive",
      "type": "error"
    },
    {
      "anonymous": false,
      "inputs": [
        {
          "indexed": false,
          "internalType": "address",
          "name": "previousAdmin",
          "type": "address"
        },
        {
          "indexed": false,
          "internalType": "address",
          "name": "newAdmin",
          "type": "address"
        }
      ],
      "name": "AdminChanged",
      "type": "event"
    },
    {
      "anonymous": false,
      "inputs": [
        {
          "indexed": true,
          "internalType": "address",
          "name": "beacon",
          "type": "address"
        }
      ],
      "name": "BeaconUpgraded",
      "type": "event"
    },
    {
      "anonymous": false,
      "inputs": [],
      "name": "FreezeAll",
      "type": "event"
    },
    {
      "anonymous": false,
      "inputs": [
        {
          "indexed": false,
          "internalType": "uint8",
          "name": "version",
          "type": "uint8"
        }
      ],
      "name": "Initialized",
      "type": "event"
    },
    {
      "anonymous": false,
      "inputs": [
        {
          "indexed": false,
          "internalType": "enum IAxiomExperimentalTx.AxiomQueryType",
          "name": "queryType",
          "type": "uint8"
        },
        {
          "indexed": false,
          "internalType": "bytes32",
          "name": "keccakResponse",
          "type": "bytes32"
        }
      ],
      "name": "KeccakResultEvent",
      "type": "event"
    },
    {
      "anonymous": false,
      "inputs": [
        {
          "indexed": false,
          "internalType": "enum IAxiomExperimentalTx.AxiomQueryType",
          "name": "queryType",
          "type": "uint8"
        },
        {
          "indexed": false,
          "internalType": "bytes32",
          "name": "poseidonResponse",
          "type": "bytes32"
        }
      ],
      "name": "PoseidonResultEvent",
      "type": "event"
    },
    {
      "anonymous": false,
      "inputs": [
        {
          "indexed": false,
          "internalType": "enum IAxiomExperimentalTx.AxiomQueryType",
          "name": "queryType",
          "type": "uint8"
        },
        {
          "indexed": false,
          "internalType": "bytes32",
          "name": "keccakQueryResponse",
          "type": "bytes32"
        },
        {
          "indexed": false,
          "internalType": "uint256",
          "name": "payment",
          "type": "uint256"
        },
        {
          "indexed": false,
          "internalType": "address",
          "name": "prover",
          "type": "address"
        }
      ],
      "name": "QueryFulfilled",
      "type": "event"
    },
    {
      "anonymous": false,
      "inputs": [
        {
          "indexed": false,
          "internalType": "bytes32",
          "name": "keccakQueryResponse",
          "type": "bytes32"
        },
        {
          "indexed": false,
          "internalType": "uint256",
          "name": "payment",
          "type": "uint256"
        },
        {
          "indexed": false,
          "internalType": "uint32",
          "name": "deadlineBlockNumber",
          "type": "uint32"
        },
        {
          "indexed": false,
          "internalType": "address",
          "name": "refundee",
          "type": "address"
        },
        {
          "indexed": false,
          "internalType": "bytes32",
          "name": "ipfsHash",
          "type": "bytes32"
        }
      ],
      "name": "QueryInitiatedOffchain",
      "type": "event"
    },
    {
      "anonymous": false,
      "inputs": [
        {
          "indexed": false,
          "internalType": "enum IAxiomExperimentalTx.AxiomQueryType",
          "name": "queryType",
          "type": "uint8"
        },
        {
          "indexed": false,
          "internalType": "bytes32",
          "name": "keccakQueryResponse",
          "type": "bytes32"
        },
        {
          "indexed": false,
          "internalType": "uint256",
          "name": "payment",
          "type": "uint256"
        },
        {
          "indexed": false,
          "internalType": "uint32",
          "name": "deadlineBlockNumber",
          "type": "uint32"
        },
        {
          "indexed": false,
          "internalType": "address",
          "name": "refundee",
          "type": "address"
        }
      ],
      "name": "QueryRefunded",
      "type": "event"
    },
    {
      "anonymous": false,
      "inputs": [
        {
          "indexed": false,
          "internalType": "bytes32",
          "name": "keccakResponse",
          "type": "bytes32"
        },
        {
          "indexed": false,
          "internalType": "uint256",
          "name": "payment",
          "type": "uint256"
        },
        {
          "indexed": false,
          "internalType": "uint32",
          "name": "deadlineBlockNumber",
          "type": "uint32"
        },
        {
          "indexed": false,
          "internalType": "address",
          "name": "refundee",
          "type": "address"
        },
        {
          "indexed": false,
          "internalType": "bytes32",
          "name": "queryHash",
          "type": "bytes32"
        }
      ],
      "name": "ReceiptQueryInitiatedOnchain",
      "type": "event"
    },
    {
      "anonymous": false,
      "inputs": [
        {
          "indexed": true,
          "internalType": "bytes32",
          "name": "role",
          "type": "bytes32"
        },
        {
          "indexed": true,
          "internalType": "bytes32",
          "name": "previousAdminRole",
          "type": "bytes32"
        },
        {
          "indexed": true,
          "internalType": "bytes32",
          "name": "newAdminRole",
          "type": "bytes32"
        }
      ],
      "name": "RoleAdminChanged",
      "type": "event"
    },
    {
      "anonymous": false,
      "inputs": [
        {
          "indexed": true,
          "internalType": "bytes32",
          "name": "role",
          "type": "bytes32"
        },
        {
          "indexed": true,
          "internalType": "address",
          "name": "account",
          "type": "address"
        },
        {
          "indexed": true,
          "internalType": "address",
          "name": "sender",
          "type": "address"
        }
      ],
      "name": "RoleGranted",
      "type": "event"
    },
    {
      "anonymous": false,
      "inputs": [
        {
          "indexed": true,
          "internalType": "bytes32",
          "name": "role",
          "type": "bytes32"
        },
        {
          "indexed": true,
          "internalType": "address",
          "name": "account",
          "type": "address"
        },
        {
          "indexed": true,
          "internalType": "address",
          "name": "sender",
          "type": "address"
        }
      ],
      "name": "RoleRevoked",
      "type": "event"
    },
    {
      "anonymous": false,
      "inputs": [
        {
          "indexed": false,
          "internalType": "bytes32",
          "name": "keccakResponse",
          "type": "bytes32"
        },
        {
          "indexed": false,
          "internalType": "uint256",
          "name": "payment",
          "type": "uint256"
        },
        {
          "indexed": false,
          "internalType": "uint32",
          "name": "deadlineBlockNumber",
          "type": "uint32"
        },
        {
          "indexed": false,
          "internalType": "address",
          "name": "refundee",
          "type": "address"
        },
        {
          "indexed": false,
          "internalType": "bytes32",
          "name": "queryHash",
          "type": "bytes32"
        }
      ],
      "name": "TxQueryInitiatedOnchain",
      "type": "event"
    },
    {
      "anonymous": false,
      "inputs": [],
      "name": "UnfreezeAll",
      "type": "event"
    },
    {
      "anonymous": false,
      "inputs": [
        {
          "indexed": false,
          "internalType": "address",
          "name": "newAddress",
          "type": "address"
        }
      ],
      "name": "UpdateAxiomAddress",
      "type": "event"
    },
    {
      "anonymous": false,
      "inputs": [
        {
          "indexed": false,
          "internalType": "address",
          "name": "newAddress",
          "type": "address"
        }
      ],
      "name": "UpdateMMRVerifierAddress",
      "type": "event"
    },
    {
      "anonymous": false,
      "inputs": [
        {
          "indexed": false,
          "internalType": "uint256",
          "name": "maxQueryPrice",
          "type": "uint256"
        }
      ],
      "name": "UpdateMaxQueryPrice",
      "type": "event"
    },
    {
      "anonymous": false,
      "inputs": [
        {
          "indexed": false,
          "internalType": "uint256",
          "name": "minQueryPrice",
          "type": "uint256"
        }
      ],
      "name": "UpdateMinQueryPrice",
      "type": "event"
    },
    {
      "anonymous": false,
      "inputs": [
        {
          "indexed": false,
          "internalType": "uint32",
          "name": "queryDeadlineInterval",
          "type": "uint32"
        }
      ],
      "name": "UpdateQueryDeadlineInterval",
      "type": "event"
    },
    {
      "anonymous": false,
      "inputs": [
        {
          "indexed": true,
          "internalType": "address",
          "name": "implementation",
          "type": "address"
        }
      ],
      "name": "Upgraded",
      "type": "event"
    },
    {
      "inputs": [],
      "name": "DEFAULT_ADMIN_ROLE",
      "outputs": [
        {
          "internalType": "bytes32",
          "name": "",
          "type": "bytes32"
        }
      ],
      "stateMutability": "view",
      "type": "function"
    },
    {
      "inputs": [],
      "name": "GUARDIAN_ROLE",
      "outputs": [
        {
          "internalType": "bytes32",
          "name": "",
          "type": "bytes32"
        }
      ],
      "stateMutability": "view",
      "type": "function"
    },
    {
      "inputs": [],
      "name": "PROVER_ROLE",
      "outputs": [
        {
          "internalType": "bytes32",
          "name": "",
          "type": "bytes32"
        }
      ],
      "stateMutability": "view",
      "type": "function"
    },
    {
      "inputs": [],
      "name": "TIMELOCK_ROLE",
      "outputs": [
        {
          "internalType": "bytes32",
          "name": "",
          "type": "bytes32"
        }
      ],
      "stateMutability": "view",
      "type": "function"
    },
    {
      "inputs": [
        {
          "internalType": "bytes32",
          "name": "keccakReceiptResponse",
          "type": "bytes32"
        },
        {
          "components": [
            {
              "internalType": "uint32",
              "name": "blockNumber",
              "type": "uint32"
            },
            {
              "internalType": "uint32",
              "name": "txIdx",
              "type": "uint32"
            },
            {
              "internalType": "uint8",
              "name": "fieldIdx",
              "type": "uint8"
            },
            {
              "internalType": "uint8",
              "name": "logIdx",
              "type": "uint8"
            },
            {
              "internalType": "bytes",
              "name": "value",
              "type": "bytes"
            },
            {
              "internalType": "uint32",
              "name": "leafIdx",
              "type": "uint32"
            },
            {
              "internalType": "bytes32[3]",
              "name": "proof",
              "type": "bytes32[3]"
            }
          ],
          "internalType": "struct IAxiomExperimentalTx.ReceiptResponse[]",
          "name": "receiptResponses",
          "type": "tuple[]"
        }
      ],
      "name": "areOnlyReceiptsValid",
      "outputs": [
        {
          "internalType": "bool",
          "name": "",
          "type": "bool"
        }
      ],
      "stateMutability": "view",
      "type": "function"
    },
    {
      "inputs": [
        {
          "internalType": "bytes32",
          "name": "keccakTxResponse",
          "type": "bytes32"
        },
        {
          "internalType": "bytes32",
          "name": "keccakReceiptResponse",
          "type": "bytes32"
        },
        {
          "components": [
            {
              "internalType": "uint32",
              "name": "blockNumber",
              "type": "uint32"
            },
            {
              "internalType": "uint8",
              "name": "txType",
              "type": "uint8"
            },
            {
              "internalType": "uint32",
              "name": "txIdx",
              "type": "uint32"
            },
            {
              "internalType": "uint8",
              "name": "fieldIdx",
              "type": "uint8"
            },
            {
              "internalType": "bytes",
              "name": "value",
              "type": "bytes"
            },
            {
              "internalType": "uint32",
              "name": "leafIdx",
              "type": "uint32"
            },
            {
              "internalType": "bytes32[3]",
              "name": "proof",
              "type": "bytes32[3]"
            }
          ],
          "internalType": "struct IAxiomExperimentalTx.TxResponse[]",
          "name": "txResponses",
          "type": "tuple[]"
        },
        {
          "components": [
            {
              "internalType": "uint32",
              "name": "blockNumber",
              "type": "uint32"
            },
            {
              "internalType": "uint32",
              "name": "txIdx",
              "type": "uint32"
            },
            {
              "internalType": "uint8",
              "name": "fieldIdx",
              "type": "uint8"
            },
            {
              "internalType": "uint8",
              "name": "logIdx",
              "type": "uint8"
            },
            {
              "internalType": "bytes",
              "name": "value",
              "type": "bytes"
            },
            {
              "internalType": "uint32",
              "name": "leafIdx",
              "type": "uint32"
            },
            {
              "internalType": "bytes32[3]",
              "name": "proof",
              "type": "bytes32[3]"
            }
          ],
          "internalType": "struct IAxiomExperimentalTx.ReceiptResponse[]",
          "name": "receiptResponses",
          "type": "tuple[]"
        }
      ],
      "name": "areTxReceiptsValid",
      "outputs": [
        {
          "internalType": "bool",
          "name": "",
          "type": "bool"
        }
      ],
      "stateMutability": "view",
      "type": "function"
    },
    {
      "inputs": [],
      "name": "axiomAddress",
      "outputs": [
        {
          "internalType": "address",
          "name": "",
          "type": "address"
        }
      ],
      "stateMutability": "view",
      "type": "function"
    },
    {
      "inputs": [
        {
          "internalType": "bytes32",
          "name": "keccakQueryResponse",
          "type": "bytes32"
        },
        {
          "internalType": "enum IAxiomExperimentalTx.AxiomQueryType",
          "name": "queryType",
          "type": "uint8"
        }
      ],
      "name": "collectRefund",
      "outputs": [],
      "stateMutability": "nonpayable",
      "type": "function"
    },
    {
      "inputs": [],
      "name": "freezeAll",
      "outputs": [],
      "stateMutability": "nonpayable",
      "type": "function"
    },
    {
      "inputs": [],
      "name": "frozen",
      "outputs": [
        {
          "internalType": "bool",
          "name": "",
          "type": "bool"
        }
      ],
      "stateMutability": "view",
      "type": "function"
    },
    {
      "inputs": [
        {
          "internalType": "bytes32",
          "name": "keccakQueryResponse",
          "type": "bytes32"
        },
        {
          "internalType": "address payable",
          "name": "payee",
          "type": "address"
        },
        {
          "internalType": "uint32",
          "name": "mmrIdx",
          "type": "uint32"
        },
        {
          "components": [
            {
              "internalType": "bytes32",
              "name": "prevHash",
              "type": "bytes32"
            },
            {
              "internalType": "bytes32",
              "name": "root",
              "type": "bytes32"
            },
            {
              "internalType": "uint32",
              "name": "numFinal",
              "type": "uint32"
            },
            {
              "internalType": "uint32",
              "name": "startBlockNumber",
              "type": "uint32"
            },
            {
              "internalType": "bytes32[10]",
              "name": "recentMMRPeaks",
              "type": "bytes32[10]"
            },
            {
              "internalType": "bytes32[10]",
              "name": "mmrComplementOrPeaks",
              "type": "bytes32[10]"
            }
          ],
          "internalType": "struct IAxiomExperimentalTx.RecentMMRWitness",
          "name": "mmrWitness",
          "type": "tuple"
        },
        {
          "internalType": "bytes",
          "name": "proof",
          "type": "bytes"
        },
        {
          "internalType": "enum IAxiomExperimentalTx.AxiomQueryType",
          "name": "queryType",
          "type": "uint8"
        }
      ],
      "name": "fulfillQueryVsMMR",
      "outputs": [],
      "stateMutability": "nonpayable",
      "type": "function"
    },
    {
      "inputs": [
        {
          "internalType": "bytes32",
          "name": "role",
          "type": "bytes32"
        }
      ],
      "name": "getRoleAdmin",
      "outputs": [
        {
          "internalType": "bytes32",
          "name": "",
          "type": "bytes32"
        }
      ],
      "stateMutability": "view",
      "type": "function"
    },
    {
      "inputs": [
        {
          "internalType": "bytes32",
          "name": "role",
          "type": "bytes32"
        },
        {
          "internalType": "address",
          "name": "account",
          "type": "address"
        }
      ],
      "name": "grantRole",
      "outputs": [],
      "stateMutability": "nonpayable",
      "type": "function"
    },
    {
      "inputs": [
        {
          "internalType": "bytes32",
          "name": "role",
          "type": "bytes32"
        },
        {
          "internalType": "address",
          "name": "account",
          "type": "address"
        }
      ],
      "name": "hasRole",
      "outputs": [
        {
          "internalType": "bool",
          "name": "",
          "type": "bool"
        }
      ],
      "stateMutability": "view",
      "type": "function"
    },
    {
      "inputs": [
        {
          "internalType": "address",
          "name": "_axiomAddress",
          "type": "address"
        },
        {
          "internalType": "uint256",
          "name": "_minQueryPrice",
          "type": "uint256"
        },
        {
          "internalType": "uint256",
          "name": "_maxQueryPrice",
          "type": "uint256"
        },
        {
          "internalType": "uint32",
          "name": "_queryDeadlineInterval",
          "type": "uint32"
        },
        {
          "internalType": "address",
          "name": "timelock",
          "type": "address"
        },
        {
          "internalType": "address",
          "name": "guardian",
          "type": "address"
        },
        {
          "internalType": "address",
          "name": "prover",
          "type": "address"
        }
      ],
      "name": "initialize",
      "outputs": [],
      "stateMutability": "nonpayable",
      "type": "function"
    },
    {
      "inputs": [
        {
          "internalType": "enum IAxiomExperimentalTx.AxiomQueryType",
          "name": "queryType",
          "type": "uint8"
        },
        {
          "internalType": "bytes32",
          "name": "keccakResponse",
          "type": "bytes32"
        }
      ],
      "name": "isKeccakResultValid",
      "outputs": [
        {
          "internalType": "bool",
          "name": "",
          "type": "bool"
        }
      ],
      "stateMutability": "view",
      "type": "function"
    },
    {
      "inputs": [],
      "name": "maxQueryPrice",
      "outputs": [
        {
          "internalType": "uint256",
          "name": "",
          "type": "uint256"
        }
      ],
      "stateMutability": "view",
      "type": "function"
    },
    {
      "inputs": [],
      "name": "minQueryPrice",
      "outputs": [
        {
          "internalType": "uint256",
          "name": "",
          "type": "uint256"
        }
      ],
      "stateMutability": "view",
      "type": "function"
    },
    {
      "inputs": [],
      "name": "proxiableUUID",
      "outputs": [
        {
          "internalType": "bytes32",
          "name": "",
          "type": "bytes32"
        }
      ],
      "stateMutability": "view",
      "type": "function"
    },
    {
      "inputs": [
        {
          "internalType": "enum IAxiomExperimentalTx.AxiomQueryType",
          "name": "",
          "type": "uint8"
        },
        {
          "internalType": "bytes32",
          "name": "",
          "type": "bytes32"
        }
      ],
      "name": "queries",
      "outputs": [
        {
          "internalType": "uint256",
          "name": "payment",
          "type": "uint256"
        },
        {
          "internalType": "enum IAxiomExperimentalTx.AxiomQueryState",
          "name": "state",
          "type": "uint8"
        },
        {
          "internalType": "uint32",
          "name": "deadlineBlockNumber",
          "type": "uint32"
        },
        {
          "internalType": "address payable",
          "name": "refundee",
          "type": "address"
        }
      ],
      "stateMutability": "view",
      "type": "function"
    },
    {
      "inputs": [],
      "name": "queryDeadlineInterval",
      "outputs": [
        {
          "internalType": "uint32",
          "name": "",
          "type": "uint32"
        }
      ],
      "stateMutability": "view",
      "type": "function"
    },
    {
      "inputs": [
        {
          "internalType": "bytes32",
          "name": "role",
          "type": "bytes32"
        },
        {
          "internalType": "address",
          "name": "account",
          "type": "address"
        }
      ],
      "name": "renounceRole",
      "outputs": [],
      "stateMutability": "nonpayable",
      "type": "function"
    },
    {
      "inputs": [
        {
          "internalType": "bytes32",
          "name": "role",
          "type": "bytes32"
        },
        {
          "internalType": "address",
          "name": "account",
          "type": "address"
        }
      ],
      "name": "revokeRole",
      "outputs": [],
      "stateMutability": "nonpayable",
      "type": "function"
    },
    {
      "inputs": [
        {
          "internalType": "bytes32",
          "name": "keccakResponse",
          "type": "bytes32"
        },
        {
          "internalType": "address payable",
          "name": "refundee",
          "type": "address"
        },
        {
          "internalType": "bytes",
          "name": "query",
          "type": "bytes"
        }
      ],
      "name": "sendOnlyReceiptsQuery",
      "outputs": [],
      "stateMutability": "payable",
      "type": "function"
    },
    {
      "inputs": [
        {
          "internalType": "bytes32",
          "name": "keccakResponse",
          "type": "bytes32"
        },
        {
          "internalType": "address payable",
          "name": "refundee",
          "type": "address"
        },
        {
          "internalType": "bytes",
          "name": "query",
          "type": "bytes"
        }
      ],
      "name": "sendTxReceiptsQuery",
      "outputs": [],
      "stateMutability": "payable",
      "type": "function"
    },
    {
      "inputs": [
        {
          "internalType": "bytes4",
          "name": "interfaceId",
          "type": "bytes4"
        }
      ],
      "name": "supportsInterface",
      "outputs": [
        {
          "internalType": "bool",
          "name": "",
          "type": "bool"
        }
      ],
      "stateMutability": "view",
      "type": "function"
    },
    {
      "inputs": [],
      "name": "unfreezeAll",
      "outputs": [],
      "stateMutability": "nonpayable",
      "type": "function"
    },
    {
      "inputs": [
        {
          "internalType": "address",
          "name": "_axiomAddress",
          "type": "address"
        }
      ],
      "name": "updateAxiomAddress",
      "outputs": [],
      "stateMutability": "nonpayable",
      "type": "function"
    },
    {
      "inputs": [
        {
          "internalType": "uint256",
          "name": "_maxQueryPrice",
          "type": "uint256"
        }
      ],
      "name": "updateMaxQueryPrice",
      "outputs": [],
      "stateMutability": "nonpayable",
      "type": "function"
    },
    {
      "inputs": [
        {
          "internalType": "uint256",
          "name": "_minQueryPrice",
          "type": "uint256"
        }
      ],
      "name": "updateMinQueryPrice",
      "outputs": [],
      "stateMutability": "nonpayable",
      "type": "function"
    },
    {
      "inputs": [
        {
          "internalType": "uint32",
          "name": "_queryDeadlineInterval",
          "type": "uint32"
        }
      ],
      "name": "updateQueryDeadlineInterval",
      "outputs": [],
      "stateMutability": "nonpayable",
      "type": "function"
    },
    {
      "inputs": [
        {
          "internalType": "address",
          "name": "newImplementation",
          "type": "address"
        }
      ],
      "name": "upgradeTo",
      "outputs": [],
      "stateMutability": "nonpayable",
      "type": "function"
    },
    {
      "inputs": [
        {
          "internalType": "address",
          "name": "newImplementation",
          "type": "address"
        },
        {
          "internalType": "bytes",
          "name": "data",
          "type": "bytes"
        }
      ],
      "name": "upgradeToAndCall",
      "outputs": [],
      "stateMutability": "payable",
      "type": "function"
    },
    {
      "inputs": [
        {
          "internalType": "enum IAxiomExperimentalTx.AxiomQueryType",
          "name": "",
          "type": "uint8"
        },
        {
          "internalType": "bytes32",
          "name": "",
          "type": "bytes32"
        }
      ],
      "name": "verifiedKeccakResults",
      "outputs": [
        {
          "internalType": "bool",
          "name": "",
          "type": "bool"
        }
      ],
      "stateMutability": "view",
      "type": "function"
    },
    {
      "inputs": [
        {
          "internalType": "uint32",
          "name": "mmrIdx",
          "type": "uint32"
        },
        {
          "components": [
            {
              "internalType": "bytes32",
              "name": "prevHash",
              "type": "bytes32"
            },
            {
              "internalType": "bytes32",
              "name": "root",
              "type": "bytes32"
            },
            {
              "internalType": "uint32",
              "name": "numFinal",
              "type": "uint32"
            },
            {
              "internalType": "uint32",
              "name": "startBlockNumber",
              "type": "uint32"
            },
            {
              "internalType": "bytes32[10]",
              "name": "recentMMRPeaks",
              "type": "bytes32[10]"
            },
            {
              "internalType": "bytes32[10]",
              "name": "mmrComplementOrPeaks",
              "type": "bytes32[10]"
            }
          ],
          "internalType": "struct IAxiomExperimentalTx.RecentMMRWitness",
          "name": "mmrWitness",
          "type": "tuple"
        },
        {
          "internalType": "bytes",
          "name": "proof",
          "type": "bytes"
        },
        {
          "internalType": "enum IAxiomExperimentalTx.AxiomQueryType",
          "name": "queryType",
          "type": "uint8"
        }
      ],
      "name": "verifyResultVsMMR",
      "outputs": [],
      "stateMutability": "nonpayable",
      "type": "function"
    }
  ],
  "bytecode": {
    "object": "0x60a0604052306080523480156200001557600080fd5b506200002062000026565b62000164565b600054610100900460ff161562000074576040517f08c379a00000000000000000000000000000000000000000000000000000000081526004016200006b90620000ec565b60405180910390fd5b60005460ff9081161015620000ea57600080547fffffffffffffffffffffffffffffffffffffffffffffffffffffffffffffff001660ff9081179091556040517f7f26b83ff96e1f2b6a682f133852f6798a09c465da95921460cefb384740249891620000e19162000154565b60405180910390a15b565b602080825281016200014e81602781527f496e697469616c697a61626c653a20636f6e747261637420697320696e69746960208201527f616c697a696e6700000000000000000000000000000000000000000000000000604082015260600190565b92915050565b60ff82168152602081016200014e565b60805161590a6200019c600039600081816109360152818161099001528181610e9101528181610eeb0152611443015261590a6000f3fe6080604052600436106102345760003560e01c806366c5c4a011610138578063a122cb89116100b0578063d547741f1161007f578063dc9a4ef611610064578063dc9a4ef6146106f5578063df7e2e2d14610729578063f288a2e21461074057600080fd5b8063d547741f146106b5578063d77de079146106d557600080fd5b8063a122cb8914610649578063a217fddf14610669578063b1d401cd1461067e578063d4ffc3c51461069557600080fd5b806379ce04681161010757806391d14854116100ec57806391d14854146105ce57806399464c8914610621578063a0b7657c1461063657600080fd5b806379ce0468146105835780638e0d272a146105ae57600080fd5b806366c5c4a0146104ae5780636a1f78df146104c3578063774a623414610543578063798da01a1461056357600080fd5b80633659cfe6116101cb5780634f1ef2861161019a578063528bad371161017f578063528bad371461043e57806352d1902d14610479578063601b6e0f1461048e57600080fd5b80634f1ef2861461040b57806350c0d2d81461041e57600080fd5b80633659cfe61461037c57806337185d1f1461039c5780634549d820146103d8578063462b0b13146103f857600080fd5b8063248a9ca311610207578063248a9ca3146102cb57806324ea54f4146103085780632f2ff15d1461033c57806336568abe1461035c57600080fd5b806301f8fca41461023957806301ffc9a71461025b578063054f7d9c146102915780632303049e146102ab575b600080fd5b34801561024557600080fd5b506102596102543660046141f8565b610774565b005b34801561026757600080fd5b5061027b610276366004614254565b6107e0565b604051610288919061427f565b60405180910390f35b34801561029d57600080fd5b5060975461027b9060ff1681565b3480156102b757600080fd5b5061027b6102c63660046142a5565b61083c565b3480156102d757600080fd5b506102fb6102e63660046141f8565b60009081526065602052604090206001015490565b60405161028891906142e8565b34801561031457600080fd5b506102fb7f55435dd261a4b9b3364963f7738a7a662ad9c84396d64be3365284bb7f0a504181565b34801561034857600080fd5b50610259610357366004614328565b61088f565b34801561036857600080fd5b50610259610377366004614328565b6108b9565b34801561038857600080fd5b5061025961039736600461435b565b61091f565b3480156103a857600080fd5b5061027b6103b73660046142a5565b61012560209081526000928352604080842090915290825290205460ff1681565b3480156103e457600080fd5b506102596103f336600461437c565b610a78565b610259610406366004614401565b610d71565b6102596104193660046145bf565b610e7a565b34801561042a57600080fd5b50610259610439366004614624565b610fc0565b34801561044a57600080fd5b506101245461046c9073ffffffffffffffffffffffffffffffffffffffff1681565b60405161028891906146cc565b34801561048557600080fd5b506102fb611429565b34801561049a57600080fd5b506102596104a93660046146f6565b6114bf565b3480156104ba57600080fd5b506102596119be565b3480156104cf57600080fd5b506105336104de3660046142a5565b6101296020908152600092835260408084209091529082529020805460019091015460ff811690610100810463ffffffff169065010000000000900473ffffffffffffffffffffffffffffffffffffffff1684565b60405161028894939291906147fe565b34801561054f57600080fd5b5061025961055e36600461435b565b611a3c565b34801561056f57600080fd5b5061025961057e3660046141f8565b611ad7565b34801561058f57600080fd5b50610128546105a19063ffffffff1681565b6040516102889190614833565b3480156105ba57600080fd5b5061027b6105c936600461488c565b611b37565b3480156105da57600080fd5b5061027b6105e9366004614328565b600091825260656020908152604080842073ffffffffffffffffffffffffffffffffffffffff93909316845291905290205460ff1690565b34801561062d57600080fd5b50610259611fe5565b610259610644366004614401565b612066565b34801561065557600080fd5b5061027b61066436600461492e565b6120f5565b34801561067557600080fd5b506102fb600081565b34801561068a57600080fd5b506102fb6101265481565b3480156106a157600080fd5b506102596106b036600461498a565b612332565b3480156106c157600080fd5b506102596106d0366004614328565b612407565b3480156106e157600080fd5b506102596106f0366004614a11565b61242c565b34801561070157600080fd5b506102fb7f60044782a422109ac08a415e44260ad5d3bad63d96ebe1fac0363399642ee3f281565b34801561073557600080fd5b506102fb6101275481565b34801561074c57600080fd5b506102fb7ff66846415d2bf9eabda9e84793ff9c0ea96d87f50fc41e66aa16469c6a442f0581565b7ff66846415d2bf9eabda9e84793ff9c0ea96d87f50fc41e66aa16469c6a442f0561079e816124b7565b6101278290556040517f45ceffba6cdfd80ac24dded71e7dc1a0e3620f2a2a1433f2c38e0e68acef2a00906107d49084906142e8565b60405180910390a15050565b60007fffffffff0000000000000000000000000000000000000000000000000000000082167f461ad6780000000000000000000000000000000000000000000000000000000014806108365750610836826124c1565b92915050565b6000610125600084600181111561085557610855614795565b600181111561086657610866614795565b81526020808201929092526040908101600090812085825290925290205460ff16905092915050565b6000828152606560205260409020600101546108aa816124b7565b6108b48383612558565b505050565b73ffffffffffffffffffffffffffffffffffffffff81163314610911576040517f08c379a000000000000000000000000000000000000000000000000000000000815260040161090890614a8f565b60405180910390fd5b61091b828261264c565b5050565b73ffffffffffffffffffffffffffffffffffffffff7f000000000000000000000000000000000000000000000000000000000000000016300361098e576040517f08c379a000000000000000000000000000000000000000000000000000000000815260040161090890614af9565b7f000000000000000000000000000000000000000000000000000000000000000073ffffffffffffffffffffffffffffffffffffffff16610a037f360894a13ba1a3210667c828492db98dca3e2076cc3735a920a3ca505d382bbc5473ffffffffffffffffffffffffffffffffffffffff1690565b73ffffffffffffffffffffffffffffffffffffffff1614610a50576040517f08c379a000000000000000000000000000000000000000000000000000000000815260040161090890614b63565b610a5981612707565b60408051600080825260208201909252610a7591839190612731565b50565b60006101296000836001811115610a9157610a91614795565b6001811115610aa257610aa2614795565b8152602080820192909252604090810160009081208682528352819020815160808101909252805482526001810154919290919083019060ff166002811115610aed57610aed614795565b6002811115610afe57610afe614795565b8152600191820154610100810463ffffffff16602083015265010000000000900473ffffffffffffffffffffffffffffffffffffffff1660409091015290915081602001516002811115610b5457610b54614795565b14610b8b576040517f5f158cf700000000000000000000000000000000000000000000000000000000815260040160405180910390fd5b806040015163ffffffff164311610bce576040517f6d542c0d00000000000000000000000000000000000000000000000000000000815260040160405180910390fd5b604080516080810182526000808252602082018190529181018290526060810182905290819061012990856001811115610c0a57610c0a614795565b6001811115610c1b57610c1b614795565b81526020808201929092526040908101600090812088825283522082518155908201516001808301805490917fffffffffffffffffffffffffffffffffffffffffffffffffffffffffffffff0090911690836002811115610c7e57610c7e614795565b0217905550604082015160019190910180546060938401517fffffffffffffff000000000000000000000000000000000000000000000000ff90911661010063ffffffff948516027fffffffffffffff0000000000000000000000000000000000000000ffffffffff16176501000000000073ffffffffffffffffffffffffffffffffffffffff9283160217909155845192850151610d209391169161288416565b7f183f545d36b5f2ab70fd54bc201a3ddfdb07f3142332930b958c70c91aa139d38385846000015185604001518660600151604051610d63959493929190614bfd565b60405180910390a150505050565b610d79612961565b61012654341015610db6576040517fde43553100000000000000000000000000000000000000000000000000000000815260040160405180910390fd5b61012754341115610df3576040517f24fe119200000000000000000000000000000000000000000000000000000000815260040160405180910390fd5b610e0060018534866129a0565b60008282604051610e12929190614c52565b604051908190039020610128549091507f1fed6e69eaad90e958a1b7d76945990b60a30f6f6fcdea81c75cbeff9672e0e39086903490610e589063ffffffff1643614c8e565b8785604051610e6b959493929190614cae565b60405180910390a15050505050565b73ffffffffffffffffffffffffffffffffffffffff7f0000000000000000000000000000000000000000000000000000000000000000163003610ee9576040517f08c379a000000000000000000000000000000000000000000000000000000000815260040161090890614af9565b7f000000000000000000000000000000000000000000000000000000000000000073ffffffffffffffffffffffffffffffffffffffff16610f5e7f360894a13ba1a3210667c828492db98dca3e2076cc3735a920a3ca505d382bbc5473ffffffffffffffffffffffffffffffffffffffff1690565b73ffffffffffffffffffffffffffffffffffffffff1614610fab576040517f08c379a000000000000000000000000000000000000000000000000000000000815260040161090890614b63565b610fb482612707565b61091b82826001612731565b600054610100900460ff1615808015610fe05750600054600160ff909116105b80610ffa5750303b158015610ffa575060005460ff166001145b611030576040517f08c379a000000000000000000000000000000000000000000000000000000000815260040161090890614d4a565b600080547fffffffffffffffffffffffffffffffffffffffffffffffffffffffffffffff00166001179055801561108e57600080547fffffffffffffffffffffffffffffffffffffffffffffffffffffffffffff00ff166101001790555b611096612baf565b61109e612bf0565b73ffffffffffffffffffffffffffffffffffffffff88166110eb576040517f08c379a000000000000000000000000000000000000000000000000000000000815260040161090890614db4565b73ffffffffffffffffffffffffffffffffffffffff8416611138576040517f08c379a000000000000000000000000000000000000000000000000000000000815260040161090890614e1e565b73ffffffffffffffffffffffffffffffffffffffff8316611185576040517f08c379a000000000000000000000000000000000000000000000000000000000815260040161090890614e88565b73ffffffffffffffffffffffffffffffffffffffff82166111d2576040517f08c379a000000000000000000000000000000000000000000000000000000000815260040161090890614ef2565b61012480547fffffffffffffffffffffffff00000000000000000000000000000000000000001673ffffffffffffffffffffffffffffffffffffffff8a161790556040517f4f58839d9075210378ad47340fc23fab81e060f9fb13f00151841b25bc23d4b790611243908a906146cc565b60405180910390a161012687905561012786905561012880547fffffffffffffffffffffffffffffffffffffffffffffffffffffffff000000001663ffffffff87161790556040517f65bd598c7e893131b1f10bd7e7db583b9af90196f90525922c85b1c2fcc29860906112b89089906142e8565b60405180910390a17f45ceffba6cdfd80ac24dded71e7dc1a0e3620f2a2a1433f2c38e0e68acef2a00866040516112ef91906142e8565b60405180910390a17f266d22101c27a330937ff06442e5289e92a84a449d22bb001c03789f7774b628856040516113269190614833565b60405180910390a16113587f60044782a422109ac08a415e44260ad5d3bad63d96ebe1fac0363399642ee3f283612558565b611363600085612558565b61138d7ff66846415d2bf9eabda9e84793ff9c0ea96d87f50fc41e66aa16469c6a442f0585612558565b6113b77f55435dd261a4b9b3364963f7738a7a662ad9c84396d64be3365284bb7f0a504184612558565b801561141f57600080547fffffffffffffffffffffffffffffffffffffffffffffffffffffffffffff00ff1690556040517f7f26b83ff96e1f2b6a682f133852f6798a09c465da95921460cefb38474024989061141690600190614f16565b60405180910390a15b5050505050505050565b60003073ffffffffffffffffffffffffffffffffffffffff7f0000000000000000000000000000000000000000000000000000000000000000161461149a576040517f08c379a000000000000000000000000000000000000000000000000000000000815260040161090890614f7e565b507f360894a13ba1a3210667c828492db98dca3e2076cc3735a920a3ca505d382bbc90565b600080527f16d6d09ad43c2e13327e8e85b0f16a19ef2e63b72c391bfd77d21c5d499021856020527fdf4fae2a9d03ddefae2c9e431bd1ae49d400972b66abd41187abff73623b3c4b5460ff16158015611540575061153e7f60044782a422109ac08a415e44260ad5d3bad63d96ebe1fac0363399642ee3f2336105e9565b155b15611577576040517f6692e47700000000000000000000000000000000000000000000000000000000815260040160405180910390fd5b61157f612961565b6001610129600083600181111561159857611598614795565b60018111156115a9576115a9614795565b8152602080820192909252604090810160009081208b825290925290206001015460ff1660028111156115de576115de614795565b14611615576040517ff8c22cf100000000000000000000000000000000000000000000000000000000815260040160405180910390fd5b60006116248686868686612c5b565b905087811461165f576040517fc496ba3d00000000000000000000000000000000000000000000000000000000815260040160405180910390fd5b60006040518060800160405280610129600086600181111561168357611683614795565b600181111561169457611694614795565b8152602080820192909252604090810160009081208e8252835220548252016002815260200161012960008660018111156116d1576116d1614795565b60018111156116e2576116e2614795565b815260200190815260200160002060008c815260200190815260200160002060010160019054906101000a900463ffffffff1663ffffffff168152602001610129600086600181111561173757611737614795565b600181111561174857611748614795565b815260200190815260200160002060008c815260200190815260200160002060010160059054906101000a900473ffffffffffffffffffffffffffffffffffffffff1673ffffffffffffffffffffffffffffffffffffffff1681525090508061012960008560018111156117be576117be614795565b60018111156117cf576117cf614795565b8152602080820192909252604090810160009081208d825283522082518155908201516001808301805490917fffffffffffffffffffffffffffffffffffffffffffffffffffffffffffffff009091169083600281111561183257611832614795565b021790555060408201516001918201805460609094015173ffffffffffffffffffffffffffffffffffffffff1665010000000000027fffffffffffffff0000000000000000000000000000000000000000ffffffffff63ffffffff90931661010002929092167fffffffffffffff000000000000000000000000000000000000000000000000ff909416939093171790915561192c906101299060009086908111156118e0576118e0614795565b60018111156118f1576118f1614795565b8152602080820192909252604090810160009081208d825290925290205473ffffffffffffffffffffffffffffffffffffffff8a1690612884565b7f7662d1f1b7cdcf8f1ef7d60f5d067659c70038cd15b5576b3a3a2c5ec59c2a1b838a610129600087600181111561196657611966614795565b600181111561197757611977614795565b815260200190815260200160002060008d8152602001908152602001600020600001548b6040516119ab9493929190614f8e565b60405180910390a1505050505050505050565b7f55435dd261a4b9b3364963f7738a7a662ad9c84396d64be3365284bb7f0a50416119e8816124b7565b609780547fffffffffffffffffffffffffffffffffffffffffffffffffffffffffffffff001690556040517fe6fdbf73945dd61794a752b9181ea29f77170a7b1ffd37e0a7ff9d2c6f7258b990600090a150565b7ff66846415d2bf9eabda9e84793ff9c0ea96d87f50fc41e66aa16469c6a442f05611a66816124b7565b61012480547fffffffffffffffffffffffff00000000000000000000000000000000000000001673ffffffffffffffffffffffffffffffffffffffff84161790556040517f4f58839d9075210378ad47340fc23fab81e060f9fb13f00151841b25bc23d4b7906107d49084906146cc565b7ff66846415d2bf9eabda9e84793ff9c0ea96d87f50fc41e66aa16469c6a442f05611b01816124b7565b6101268290556040517f65bd598c7e893131b1f10bd7e7db583b9af90196f90525922c85b1c2fcc29860906107d49084906142e8565b6000808787604051602001611b4d929190614fc3565b604080517fffffffffffffffffffffffffffffffffffffffffffffffffffffffffffffffe0818403018152918152815160209283012060008181527f5ec30c221e24967285681315edacd44d4c48b63575b81c7c3bfc1ef91e6a940690935291205490915060ff16611bc3576000915050611fdb565b60005b63ffffffff8116861115611ddf57600087878363ffffffff16818110611bee57611bee614fe9565b9050602002810190611c009190615018565b611c0e906020810190614a11565b88888463ffffffff16818110611c2657611c26614fe9565b9050602002810190611c389190615018565b611c4990604081019060200161506e565b89898563ffffffff16818110611c6157611c61614fe9565b9050602002810190611c739190615018565b611c84906060810190604001614a11565b8a8a8663ffffffff16818110611c9c57611c9c614fe9565b9050602002810190611cae9190615018565b611cbf90608081019060600161506e565b8b8b8763ffffffff16818110611cd757611cd7614fe9565b9050602002810190611ce99190615018565b611cf790608081019061508f565b604051602001611d0c9695949392919061513f565b604051602081830303815290604052805190602001209050611dbc8a828a8a8663ffffffff16818110611d4157611d41614fe9565b9050602002810190611d539190615018565b6040805160608181019092529160c0019060039083908390808284376000920191909152508d91508c905063ffffffff8816818110611d9457611d94614fe9565b9050602002810190611da69190615018565b611db79060c081019060a001614a11565b6137d3565b611dcc5760009350505050611fdb565b5080611dd781615198565b915050611bc6565b5060005b63ffffffff8116841115611fd457600085858363ffffffff16818110611e0b57611e0b614fe9565b9050602002810190611e1d9190615018565b611e2b906020810190614a11565b86868463ffffffff16818110611e4357611e43614fe9565b9050602002810190611e559190615018565b611e66906040810190602001614a11565b87878563ffffffff16818110611e7e57611e7e614fe9565b9050602002810190611e909190615018565b611ea190606081019060400161506e565b88888663ffffffff16818110611eb957611eb9614fe9565b9050602002810190611ecb9190615018565b611edc90608081019060600161506e565b89898763ffffffff16818110611ef457611ef4614fe9565b9050602002810190611f069190615018565b611f1490608081019061508f565b604051602001611f29969594939291906151d6565b604051602081830303815290604052805190602001209050611fb1898288888663ffffffff16818110611f5e57611f5e614fe9565b9050602002810190611f709190615018565b6040805160608181019092529160c0019060039083908390808284376000920191909152508b91508a905063ffffffff8816818110611d9457611d94614fe9565b611fc15760009350505050611fdb565b5080611fcc81615198565b915050611de3565b5060019150505b9695505050505050565b7f55435dd261a4b9b3364963f7738a7a662ad9c84396d64be3365284bb7f0a504161200f816124b7565b609780547fffffffffffffffffffffffffffffffffffffffffffffffffffffffffffffff001660011790556040517f61340a1b154d5d21d259a74bf95379201799b9d12cc6509bb46cb56dc281df5590600090a150565b61206e612961565b610126543410156120ab576040517fde43553100000000000000000000000000000000000000000000000000000000815260040160405180910390fd5b610127543411156120e8576040517f24fe119200000000000000000000000000000000000000000000000000000000815260040160405180910390fd5b610e0060008534866129a0565b60008381527ffb5118a5556b2b637cbef3929456821b1cfe26cb2877389cd61f1f5c6db87845602052604081205460ff166121325750600061232b565b60005b63ffffffff811683111561232557600084848363ffffffff1681811061215d5761215d614fe9565b905060200281019061216f9190615018565b61217d906020810190614a11565b85858463ffffffff1681811061219557612195614fe9565b90506020028101906121a79190615018565b6121b8906040810190602001614a11565b86868563ffffffff168181106121d0576121d0614fe9565b90506020028101906121e29190615018565b6121f390606081019060400161506e565b87878663ffffffff1681811061220b5761220b614fe9565b905060200281019061221d9190615018565b61222e90608081019060600161506e565b88888763ffffffff1681811061224657612246614fe9565b90506020028101906122589190615018565b61226690608081019061508f565b60405160200161227b969594939291906151d6565b604051602081830303815290604052805190602001209050612303868287878663ffffffff168181106122b0576122b0614fe9565b90506020028101906122c29190615018565b6040805160608181019092529160c0019060039083908390808284376000920191909152508a915089905063ffffffff8816818110611d9457611d94614fe9565b6123125760009250505061232b565b508061231d81615198565b915050612135565b50600190505b9392505050565b600080527f16d6d09ad43c2e13327e8e85b0f16a19ef2e63b72c391bfd77d21c5d499021856020527fdf4fae2a9d03ddefae2c9e431bd1ae49d400972b66abd41187abff73623b3c4b5460ff161580156123b357506123b17f60044782a422109ac08a415e44260ad5d3bad63d96ebe1fac0363399642ee3f2336105e9565b155b156123ea576040517f6692e47700000000000000000000000000000000000000000000000000000000815260040160405180910390fd5b6123f2612961565b6123ff8585858585612c5b565b505050505050565b600082815260656020526040902060010154612422816124b7565b6108b4838361264c565b7ff66846415d2bf9eabda9e84793ff9c0ea96d87f50fc41e66aa16469c6a442f05612456816124b7565b61012880547fffffffffffffffffffffffffffffffffffffffffffffffffffffffff000000001663ffffffff84161790556040517f266d22101c27a330937ff06442e5289e92a84a449d22bb001c03789f7774b628906107d4908490614833565b610a7581336138af565b60007fffffffff0000000000000000000000000000000000000000000000000000000082167f7965db0b00000000000000000000000000000000000000000000000000000000148061083657507f01ffc9a7000000000000000000000000000000000000000000000000000000007fffffffff00000000000000000000000000000000000000000000000000000000831614610836565b600082815260656020908152604080832073ffffffffffffffffffffffffffffffffffffffff8516845290915290205460ff1661091b57600082815260656020908152604080832073ffffffffffffffffffffffffffffffffffffffff85168452909152902080547fffffffffffffffffffffffffffffffffffffffffffffffffffffffffffffff001660011790556125ee3390565b73ffffffffffffffffffffffffffffffffffffffff168173ffffffffffffffffffffffffffffffffffffffff16837f2f8788117e7eff1d82e926ec794901d17c78024a50270940304540a733656f0d60405160405180910390a45050565b600082815260656020908152604080832073ffffffffffffffffffffffffffffffffffffffff8516845290915290205460ff161561091b57600082815260656020908152604080832073ffffffffffffffffffffffffffffffffffffffff8516808552925280832080547fffffffffffffffffffffffffffffffffffffffffffffffffffffffffffffff0016905551339285917ff6391f5c32d9c69d2a47ea670b442974b53935d1edc7fd64eb21e047a839171b9190a45050565b7ff66846415d2bf9eabda9e84793ff9c0ea96d87f50fc41e66aa16469c6a442f0561091b816124b7565b7f4910fdfa16fed3260ed0e7147f7cc6da11a60208b5b9406d12a635614ffd91435460ff1615612764576108b483613969565b8273ffffffffffffffffffffffffffffffffffffffff166352d1902d6040518163ffffffff1660e01b8152600401602060405180830381865afa9250505080156127e9575060408051601f3d9081017fffffffffffffffffffffffffffffffffffffffffffffffffffffffffffffffe01682019092526127e69181019061521d565b60015b61281f576040517f08c379a000000000000000000000000000000000000000000000000000000000815260040161090890615298565b7f360894a13ba1a3210667c828492db98dca3e2076cc3735a920a3ca505d382bbc8114612878576040517f08c379a000000000000000000000000000000000000000000000000000000000815260040161090890615302565b506108b4838383613a1d565b804710156128be576040517f08c379a000000000000000000000000000000000000000000000000000000000815260040161090890615349565b60008273ffffffffffffffffffffffffffffffffffffffff16826040516128e490615359565b60006040518083038185875af1925050503d8060008114612921576040519150601f19603f3d011682016040523d82523d6000602084013e612926565b606091505b50509050806108b4576040517f08c379a0000000000000000000000000000000000000000000000000000000008152600401610908906153be565b60975460ff161561299e576040517f379dfc6300000000000000000000000000000000000000000000000000000000815260040160405180910390fd5b565b600061012960008660018111156129b9576129b9614795565b60018111156129ca576129ca614795565b81526020808201929092526040908101600090812087825290925290206001015460ff1660028111156129ff576129ff614795565b14612a36576040517f96e41fe900000000000000000000000000000000000000000000000000000000815260040160405180910390fd5b604080516080810182528381526001602082015261012854600092820190612a649063ffffffff1643614c8e565b63ffffffff1681526020018373ffffffffffffffffffffffffffffffffffffffff168152509050806101296000876001811115612aa357612aa3614795565b6001811115612ab457612ab4614795565b81526020808201929092526040908101600090812088825283522082518155908201516001808301805490917fffffffffffffffffffffffffffffffffffffffffffffffffffffffffffffff0090911690836002811115612b1757612b17614795565b021790555060408201516001909101805460609093015173ffffffffffffffffffffffffffffffffffffffff1665010000000000027fffffffffffffff0000000000000000000000000000000000000000ffffffffff63ffffffff90931661010002929092167fffffffffffffff000000000000000000000000000000000000000000000000ff909316929092171790555050505050565b600054610100900460ff1661299e576040517f08c379a000000000000000000000000000000000000000000000000000000000815260040161090890615428565b600054610100900460ff16612c31576040517f08c379a000000000000000000000000000000000000000000000000000000000815260040161090890615428565b609780547fffffffffffffffffffffffffffffffffffffffffffffffffffffffffffffff00169055565b6000612c65612961565b600863ffffffff871610612c7857600080fd5b6040805160c081018252600080825260208201819052918101829052606081018290526080810182905260a0810182905290836001811115612cbc57612cbc614795565b03612cd257612ccb8585613a48565b9050612cdf565b612cdc8585613bb2565b90505b6080810151610124546040517f074144d600000000000000000000000000000000000000000000000000000000815273ffffffffffffffffffffffffffffffffffffffff9091169063074144d690612d3b908b90600401615453565b602060405180830381865afa158015612d58573d6000803e3d6000fd5b505050506040513d601f19601f82011682018060405250810190612d7c919061521d565b14612db3576040517fd9fcd6a100000000000000000000000000000000000000000000000000000000815260040160405180910390fd5b6101245460009073ffffffffffffffffffffffffffffffffffffffff1663c6ca4753612de560808a0160608b01614a11565b6040518263ffffffff1660e01b8152600401612e019190614833565b602060405180830381865afa158015612e1e573d6000803e3d6000fd5b505050506040513d601f19601f82011682018060405250810190612e42919061521d565b905086356020880135612e5b60608a0160408b01614a11565b604051602001612e6d93929190615461565b604051602081830303815290604052805190602001208114612e8e57600080fd5b5085608001604051602001612ea391906154ae565b604051602081830303815290604052805190602001208160a0015114612ec857600080fd5b6000805b600a8163ffffffff161015612f2a5760006080890163ffffffff8316600a8110612ef857612ef8614fe9565b602002013514612f1857612f15600163ffffffff83161b83614c8e565b91505b80612f2281615198565b915050612ecc565b5060008163ffffffff16118015612f5c5750612f4c6060880160408901614a11565b63ffffffff168163ffffffff1611155b15612fdb576000612fc288608001600a806020026040519081016040528092919082600a60200280828437600092019190915250506040805161014081810190925291506101c08c0190600a908390839080828437600092019190915250613cb7915050565b50905080886020013514612fd557600080fd5b506136d5565b612feb6060880160408901614a11565b63ffffffff168163ffffffff1611156136d557438161301060808a0160608b01614a11565b61301a9190614c8e565b63ffffffff161115613058576040517ff5b1753900000000000000000000000000000000000000000000000000000000815260040160405180910390fd5b613064610100436154c4565b6130746060890160408a01614a11565b61308460808a0160608b01614a11565b61308e9190614c8e565b63ffffffff1610156130cc576040517f7df2555400000000000000000000000000000000000000000000000000000000815260040160405180910390fd5b60408051610140808201835260008083527fad3228b676f7d3cd4284a5443f17f1962b36e491b30a40b2405849e597ba5fb560208401527fb4c11951957c6f8f642c4af61cd6b24640fec6dc7fc607ee8206a99e92410d30838501527f21ddb9a356815c3fac1026b6dec5df3124afbadb485c9ba5a3e3398a04b7ba8560608401527fe58769b32a1beaf1ea27375a44095a0d1fb664ce2dd358e7fcbfb78c26a1934460808401527f0eb01ebfc9ed27500cd4dfc979272d1f0913cc9f66540d7e8005811109e1cf2d60a08401527f887c22bd8750d34016ac3c66b5ff102dacdd73f6b014e710b51e8022af9a196860c08401527fffd70157e48063fc33c97a050f7f640233bf646cc98d9524c6b92bcf3ab56f8360e08401527f9867cc5f7f196b93bae1e27e6320742445d290f2263827498b54fec539f756af6101008401527fcefad4e508c098b9a7e1d8feb19955fb02ba9675585078710969d3440f5054e061012084015283518083019094529192829161326991906101c08d0190600a908390839080828437600092019190915250869150613cb79050565b909250905063ffffffff811661328560608c0160408d01614a11565b63ffffffff161461329557600080fd5b818a60200135146132a557600080fd5b50600091506132bc90506060890160408a01614a11565b6132c690836154d7565b63ffffffff1667ffffffffffffffff8111156132e4576132e461446f565b60405190808252806020026020018201604052801561330d578160200160208202803683370190505b50905060005b61332360608a0160408b01614a11565b61332d90846154d7565b63ffffffff168163ffffffff1610156133b1578061335160608b0160408c01614a11565b61336160808c0160608d01614a11565b61336b9190614c8e565b6133759190614c8e565b63ffffffff1640828263ffffffff168151811061339457613394614fe9565b6020908102919091010152806133a981615198565b915050613313565b5060006133c460608a0160408b01614a11565b6133ce90846154d7565b90506000805b63ffffffff8316156136d05763ffffffff82166133f760608d0160408e01614a11565b63ffffffff16901c600116905060005b60026134138386614c8e565b61341d9190615526565b63ffffffff168163ffffffff1610156135a5576000808363ffffffff166001036134dd5763ffffffff8316156134885786600161345b856002615544565b61346591906154d7565b63ffffffff168151811061347b5761347b614fe9565b60200260200101516134aa565b8d6101c0018563ffffffff16600a81106134a4576134a4614fe9565b60200201355b9150866134b8846002615544565b63ffffffff16815181106134ce576134ce614fe9565b60200260200101519050613543565b866134e9846002615544565b63ffffffff16815181106134ff576134ff614fe9565b60200260200101519150868360026135179190615544565b613522906001614c8e565b63ffffffff168151811061353857613538614fe9565b602002602001015190505b8181604051602001613556929190614fc3565b60405160208183030381529060405280519060200120878463ffffffff168151811061358457613584614fe9565b6020026020010181815250505050808061359d90615198565b915050613407565b5060026135b28285614c8e565b6135bc919061556e565b63ffffffff1660010361364f578a6080018263ffffffff16600a81106135e4576135e4614fe9565b6020020135846135f56001866154d7565b63ffffffff168151811061360b5761360b614fe9565b60200260200101511461364a576040517f84cca32b00000000000000000000000000000000000000000000000000000000815260040160405180910390fd5b6136a6565b8a6080018263ffffffff16600a811061366a5761366a614fe9565b6020020135156136a6576040517f84cca32b00000000000000000000000000000000000000000000000000000000815260040160405180910390fd5b6136b1826001614c8e565b915060026136bf8285614c8e565b6136c99190615526565b92506133d4565b505050505b600060018560018111156136eb576136eb614795565b036136fb5750606082015161372c565b60208084015160608501516040516137139301614fc3565b6040516020818303038152906040528051906020012090505b6001610125600087600181111561374557613745614795565b600181111561375657613756614795565b8152602001908152602001600020600083815260200190815260200160002060006101000a81548160ff0219169083151502179055507fe23ee42009c44c3a1ad1550f1bc09ac28a507609a2e6a767f3ed98bc4246df2685826040516137bd92919061558c565b60405180910390a1925050505b95945050505050565b600083815b60038163ffffffff1610156138a357600163ffffffff8581169083161c166000036138495781858263ffffffff166003811061381657613816614fe9565b602002015160405160200161382c929190614fc3565b604051602081830303815290604052805190602001209150613891565b848163ffffffff166003811061386157613861614fe9565b602002015182604051602001613878929190614fc3565b6040516020818303038152906040528051906020012091505b8061389b81615198565b9150506137d8565b50909414949350505050565b600082815260656020908152604080832073ffffffffffffffffffffffffffffffffffffffff8516845290915290205460ff1661091b576138ef81613e2e565b6138fa836020613e4d565b60405160200161390b9291906155ed565b604080517fffffffffffffffffffffffffffffffffffffffffffffffffffffffffffffffe0818403018152908290527f08c379a0000000000000000000000000000000000000000000000000000000008252610908916004016156a1565b73ffffffffffffffffffffffffffffffffffffffff81163b6139b7576040517f08c379a00000000000000000000000000000000000000000000000000000000081526004016109089061570c565b7f360894a13ba1a3210667c828492db98dca3e2076cc3735a920a3ca505d382bbc80547fffffffffffffffffffffffff00000000000000000000000000000000000000001673ffffffffffffffffffffffffffffffffffffffff92909216919091179055565b613a2683614060565b600082511180613a335750805b156108b457613a4283836140ad565b50505050565b6040805160c08082018352600080835260208301819052828401819052606083018190526080830181905260a083015282519081019092529080613a926101a0610180868861571c565b613a9b9161574c565b8152602001613ab06101e06101c0868861571c565b613ab99161574c565b6080613acb6101c06101a0888a61571c565b613ad49161574c565b901b178152602001613aec6102006101e0868861571c565b613af59161574c565b8152602001613b0a610240610220868861571c565b613b139161574c565b6080613b25610220610200888a61571c565b613b2e9161574c565b901b178152602001613b46610280610260868861571c565b613b4f9161574c565b6080613b61610260610240888a61571c565b613b6a9161574c565b901b178152602001613b826102c06102a0868861571c565b613b8b9161574c565b6080613b9d6102a0610280888a61571c565b613ba69161574c565b901b1790529392505050565b6040805160c0808201835260008083526020808401829052838501829052606084018290526080840182905260a084018290528451928301855281835282015290918101613c066101a0610180868861571c565b613c0f9161574c565b8152602001613c246101e06101c0868861571c565b613c2d9161574c565b6080613c3f6101c06101a0888a61571c565b613c489161574c565b901b178152602001613c60610220610200868861571c565b613c699161574c565b6080613c7b6102006101e0888a61571c565b613c849161574c565b901b178152602001613c9c610260610240868861571c565b613ca59161574c565b6080613b9d610240610220888a61571c565b60008080805b600a8163ffffffff161015613e255781158015613cf7575060008663ffffffff8316600a8110613cef57613cef614fe9565b602002015114155b15613d2057848163ffffffff16600a8110613d1457613d14614fe9565b60200201519350600191505b8115613e135760008663ffffffff8316600a8110613d4057613d40614fe9565b602002015114613dcb57858163ffffffff16600a8110613d6257613d62614fe9565b602002015184604051602001613d79929190614fc3565b604080517fffffffffffffffffffffffffffffffffffffffffffffffffffffffffffffffe081840301815291905280516020909101209350613dc4600163ffffffff83161b84614c8e565b9250613e13565b83858263ffffffff16600a8110613de457613de4614fe9565b6020020151604051602001613dfa929190614fc3565b6040516020818303038152906040528051906020012093505b80613e1d81615198565b915050613cbd565b50509250929050565b606061083673ffffffffffffffffffffffffffffffffffffffff831660145b60606000613e5c836002615795565b613e679060026157ad565b67ffffffffffffffff811115613e7f57613e7f61446f565b6040519080825280601f01601f191660200182016040528015613ea9576020820181803683370190505b5090507f300000000000000000000000000000000000000000000000000000000000000081600081518110613ee057613ee0614fe9565b60200101907effffffffffffffffffffffffffffffffffffffffffffffffffffffffffffff1916908160001a9053507f780000000000000000000000000000000000000000000000000000000000000081600181518110613f4357613f43614fe9565b60200101907effffffffffffffffffffffffffffffffffffffffffffffffffffffffffffff1916908160001a9053506000613f7f846002615795565b613f8a9060016157ad565b90505b6001811115614027577f303132333435363738396162636465660000000000000000000000000000000085600f1660108110613fcb57613fcb614fe9565b1a60f81b828281518110613fe157613fe1614fe9565b60200101907effffffffffffffffffffffffffffffffffffffffffffffffffffffffffffff1916908160001a90535060049490941c93614020816157c0565b9050613f8d565b50831561232b576040517f08c379a000000000000000000000000000000000000000000000000000000000815260040161090890615827565b61406981613969565b60405173ffffffffffffffffffffffffffffffffffffffff8216907fbc7cd75a20ee27fd9adebab32041f755214dbc6bffa90cc0225b39da2e5c2d3b90600090a250565b606073ffffffffffffffffffffffffffffffffffffffff83163b6140fd576040517f08c379a000000000000000000000000000000000000000000000000000000000815260040161090890615891565b6000808473ffffffffffffffffffffffffffffffffffffffff168460405161412591906158a1565b600060405180830381855af49150503d8060008114614160576040519150601f19603f3d011682016040523d82523d6000602084013e614165565b606091505b50915091506137ca82826040518060600160405280602781526020016158ae602791396060831561419757508161232b565b61232b83838151156141ac5781518083602001fd5b806040517f08c379a000000000000000000000000000000000000000000000000000000000815260040161090891906156a1565b805b8114610a7557600080fd5b8035610836816141e0565b60006020828403121561420d5761420d600080fd5b600061421984846141ed565b949350505050565b7fffffffff0000000000000000000000000000000000000000000000000000000081166141e2565b803561083681614221565b60006020828403121561426957614269600080fd5b60006142198484614249565b8015155b82525050565b602081016108368284614275565b60028110610a7557600080fd5b80356108368161428d565b600080604083850312156142bb576142bb600080fd5b60006142c7858561429a565b92505060206142d8858286016141ed565b9150509250929050565b80614279565b6020810161083682846142e2565b600073ffffffffffffffffffffffffffffffffffffffff8216610836565b6141e2816142f6565b803561083681614314565b6000806040838503121561433e5761433e600080fd5b600061434a85856141ed565b92505060206142d88582860161431d565b60006020828403121561437057614370600080fd5b6000614219848461431d565b6000806040838503121561439257614392600080fd5b600061439e85856141ed565b92505060206142d88582860161429a565b60008083601f8401126143c4576143c4600080fd5b50813567ffffffffffffffff8111156143df576143df600080fd5b6020830191508360018202830111156143fa576143fa600080fd5b9250929050565b6000806000806060858703121561441a5761441a600080fd5b600061442687876141ed565b94505060206144378782880161431d565b935050604085013567ffffffffffffffff81111561445757614457600080fd5b614463878288016143af565b95989497509550505050565b7f4e487b7100000000000000000000000000000000000000000000000000000000600052604160045260246000fd5b7fffffffffffffffffffffffffffffffffffffffffffffffffffffffffffffffe0601f830116810181811067ffffffffffffffff821117156144e2576144e261446f565b6040525050565b60006144f460405190565b9050614500828261449e565b919050565b600067ffffffffffffffff82111561451f5761451f61446f565b7fffffffffffffffffffffffffffffffffffffffffffffffffffffffffffffffe0601f83011660200192915050565b82818337506000910152565b600061456d61456884614505565b6144e9565b90508281526020810184848401111561458857614588600080fd5b61459384828561454e565b509392505050565b600082601f8301126145af576145af600080fd5b813561421984826020860161455a565b600080604083850312156145d5576145d5600080fd5b60006145e1858561431d565b925050602083013567ffffffffffffffff81111561460157614601600080fd5b6142d88582860161459b565b63ffffffff81166141e2565b80356108368161460d565b600080600080600080600060e0888a03121561464257614642600080fd5b600061464e8a8a61431d565b975050602061465f8a828b016141ed565b96505060406146708a828b016141ed565b95505060606146818a828b01614619565b94505060806146928a828b0161431d565b93505060a06146a38a828b0161431d565b92505060c06146b48a828b0161431d565b91505092959891949750929550565b614279816142f6565b6020810161083682846146c3565b600061030082840312156146f0576146f0600080fd5b50919050565b60008060008060008060006103a0888a03121561471557614715600080fd5b60006147218a8a6141ed565b97505060206147328a828b0161431d565b96505060406147438a828b01614619565b95505060606147548a828b016146da565b94505061036088013567ffffffffffffffff81111561477557614775600080fd5b6147818a828b016143af565b93509350506103806146b48a828b0161429a565b7f4e487b7100000000000000000000000000000000000000000000000000000000600052602160045260246000fd5b60038110610a7557610a75614795565b80614500816147c4565b6000610836826147d4565b614279816147de565b63ffffffff8116614279565b6080810161480c82876142e2565b61481960208301866147e9565b61482660408301856147f2565b6137ca60608301846146c3565b6020810161083682846147f2565b60008083601f84011261485657614856600080fd5b50813567ffffffffffffffff81111561487157614871600080fd5b6020830191508360208202830111156143fa576143fa600080fd5b600080600080600080608087890312156148a8576148a8600080fd5b60006148b489896141ed565b96505060206148c589828a016141ed565b955050604087013567ffffffffffffffff8111156148e5576148e5600080fd5b6148f189828a01614841565b9450945050606087013567ffffffffffffffff81111561491357614913600080fd5b61491f89828a01614841565b92509250509295509295509295565b60008060006040848603121561494657614946600080fd5b600061495286866141ed565b935050602084013567ffffffffffffffff81111561497257614972600080fd5b61497e86828701614841565b92509250509250925092565b600080600080600061036086880312156149a6576149a6600080fd5b60006149b28888614619565b95505060206149c3888289016146da565b94505061032086013567ffffffffffffffff8111156149e4576149e4600080fd5b6149f0888289016143af565b9350935050610340614a048882890161429a565b9150509295509295909350565b600060208284031215614a2657614a26600080fd5b60006142198484614619565b602f81526000602082017f416363657373436f6e74726f6c3a2063616e206f6e6c792072656e6f756e636581527f20726f6c657320666f722073656c660000000000000000000000000000000000602082015291505b5060400190565b6020808252810161083681614a32565b602c81526000602082017f46756e6374696f6e206d7573742062652063616c6c6564207468726f7567682081527f64656c656761746563616c6c000000000000000000000000000000000000000060208201529150614a88565b6020808252810161083681614a9f565b602c81526000602082017f46756e6374696f6e206d7573742062652063616c6c6564207468726f7567682081527f6163746976652070726f7879000000000000000000000000000000000000000060208201529150614a88565b6020808252810161083681614b09565b60028110610a7557610a75614795565b8061450081614b73565b600061083682614b83565b61427981614b8d565b600061083673ffffffffffffffffffffffffffffffffffffffff8316614bc5565b90565b73ffffffffffffffffffffffffffffffffffffffff1690565b600061083682614ba1565b600061083682614bde565b61427981614be9565b60a08101614c0b8288614b98565b614c1860208301876142e2565b614c2560408301866142e2565b614c3260608301856147f2565b611fdb6080830184614bf4565b6000614c4c83858461454e565b50500190565b6000614219828486614c3f565b7f4e487b7100000000000000000000000000000000000000000000000000000000600052601160045260246000fd5b63ffffffff91821691908116908282019081111561083657610836614c5f565b60a08101614cbc82886142e2565b614cc960208301876142e2565b614cd660408301866147f2565b614ce36060830185614bf4565b611fdb60808301846142e2565b602e81526000602082017f496e697469616c697a61626c653a20636f6e747261637420697320616c72656181527f647920696e697469616c697a656400000000000000000000000000000000000060208201529150614a88565b6020808252810161083681614cf0565b602381526000602082017f4178696f6d563151756572793a204178696f6d2061646472657373206973207a81527f65726f000000000000000000000000000000000000000000000000000000000060208201529150614a88565b6020808252810161083681614d5a565b602681526000602082017f4178696f6d563151756572793a2074696d656c6f636b2061646472657373206981527f73207a65726f000000000000000000000000000000000000000000000000000060208201529150614a88565b6020808252810161083681614dc4565b602681526000602082017f4178696f6d563151756572793a20677561726469616e2061646472657373206981527f73207a65726f000000000000000000000000000000000000000000000000000060208201529150614a88565b6020808252810161083681614e2e565b602481526000602082017f4178696f6d563151756572793a2070726f76657220616464726573732069732081527f7a65726f0000000000000000000000000000000000000000000000000000000060208201529150614a88565b6020808252810161083681614e98565b600060ff8216610836565b61427981614f02565b602081016108368284614f0d565b603881526000602082017f555550535570677261646561626c653a206d757374206e6f742062652063616c81527f6c6564207468726f7567682064656c656761746563616c6c000000000000000060208201529150614a88565b6020808252810161083681614f24565b60808101614f9c8287614b98565b614fa960208301866142e2565b614fb660408301856142e2565b6137ca6060830184614bf4565b6000614fcf82856142e2565b602082019150614fdf82846142e2565b5060200192915050565b7f4e487b7100000000000000000000000000000000000000000000000000000000600052603260045260246000fd5b600082357ffffffffffffffffffffffffffffffffffffffffffffffffffffffffffffffee13684900301811261505057615050600080fd5b9190910192915050565b60ff81166141e2565b80356108368161505a565b60006020828403121561508357615083600080fd5b60006142198484615063565b60008083357fffffffffffffffffffffffffffffffffffffffffffffffffffffffffffffffe1368590030181126150c8576150c8600080fd5b80840192508235915067ffffffffffffffff8211156150e9576150e9600080fd5b60208301925060018202360383131561510457615104600080fd5b509250929050565b60006108368260e01b90565b61427963ffffffff821661510c565b60006108368260f81b90565b61427960ff8216615127565b600061514b8289615118565b60048201915061515b8288615133565b60018201915061516b8287615118565b60048201915061517b8286615133565b60018201915061518c828486614c3f565b98975050505050505050565b63ffffffff1660007fffffffffffffffffffffffffffffffffffffffffffffffffffffffff0000000182016151cf576151cf614c5f565b5060010190565b60006151e28289615118565b6004820191506151f28288615118565b6004820191506152028287615133565b60018201915061517b8286615133565b8051610836816141e0565b60006020828403121561523257615232600080fd5b60006142198484615212565b602e81526000602082017f45524331393637557067726164653a206e657720696d706c656d656e7461746981527f6f6e206973206e6f74205555505300000000000000000000000000000000000060208201529150614a88565b602080825281016108368161523e565b602981526000602082017f45524331393637557067726164653a20756e737570706f727465642070726f7881527f6961626c6555554944000000000000000000000000000000000000000000000060208201529150614a88565b60208082528101610836816152a8565b601d81526000602082017f416464726573733a20696e73756666696369656e742062616c616e6365000000815291505b5060200190565b6020808252810161083681615312565b600061083682614bc2565b603a81526000602082017f416464726573733a20756e61626c6520746f2073656e642076616c75652c207281527f6563697069656e74206d6179206861766520726576657274656400000000000060208201529150614a88565b6020808252810161083681615364565b602b81526000602082017f496e697469616c697a61626c653a20636f6e7472616374206973206e6f74206981527f6e697469616c697a696e6700000000000000000000000000000000000000000060208201529150614a88565b60208082528101610836816153ce565b6000610836614bc263ffffffff841681565b61427981615438565b60208101610836828461544a565b600061546d82866142e2565b60208201915061547d82856142e2565b60208201915061548d8284615118565b506004019392505050565b82818337505050565b61091b6101408383615498565b60006154ba82846154a1565b5061014001919050565b8181038181111561083657610836614c5f565b63ffffffff91821691908116908282039081111561083657610836614c5f565b7f4e487b7100000000000000000000000000000000000000000000000000000000600052601260045260246000fd5b63ffffffff918216911660008261553f5761553f6154f7565b500490565b63ffffffff91821691908116908282029081169081811461556757615567614c5f565b5092915050565b63ffffffff9182169116600082615587576155876154f7565b500690565b6040810161559a8285614b98565b61232b60208301846142e2565b60005b838110156155c25781810151838201526020016155aa565b50506000910152565b60006155d5825190565b6155e38185602086016155a7565b9290920192915050565b7f416363657373436f6e74726f6c3a206163636f756e74200000000000000000008152601701600061561f82856155cb565b7f206973206d697373696e6720726f6c65200000000000000000000000000000008152601101915061421982846155cb565b600061565b825190565b8084526020840193506156728185602086016155a7565b601f017fffffffffffffffffffffffffffffffffffffffffffffffffffffffffffffffe0169290920192915050565b6020808252810161232b8184615651565b602d81526000602082017f455243313936373a206e657720696d706c656d656e746174696f6e206973206e81527f6f74206120636f6e74726163740000000000000000000000000000000000000060208201529150614a88565b60208082528101610836816156b2565b6000808585111561572f5761572f600080fd5b8386111561573f5761573f600080fd5b5050820193919092039150565b80358282602082101561578d576157887fffffffffffffffffffffffffffffffffffffffffffffffffffffffffffffffff836020036008021b90565b831692505b505092915050565b81810280821583820485141761556757615567614c5f565b8082018082111561083657610836614c5f565b6000816157cf576157cf614c5f565b507fffffffffffffffffffffffffffffffffffffffffffffffffffffffffffffffff0190565b60208082527f537472696e67733a20686578206c656e67746820696e73756666696369656e7491019081526000615342565b60208082528101610836816157f5565b602681526000602082017f416464726573733a2064656c65676174652063616c6c20746f206e6f6e2d636f81527f6e7472616374000000000000000000000000000000000000000000000000000060208201529150614a88565b6020808252810161083681615837565b600061232b82846155cb56fe416464726573733a206c6f772d6c6576656c2064656c65676174652063616c6c206661696c6564a2646970667358221220dc867918e28db807d95c4e93adc98842243dfb5c9268fb5aeae1e631fcc0effd64736f6c63430008130033",
    "linkReferences": {}
  },
  "methodIdentifiers": {
    "DEFAULT_ADMIN_ROLE()": "a217fddf",
    "GUARDIAN_ROLE()": "24ea54f4",
    "PROVER_ROLE()": "dc9a4ef6",
    "TIMELOCK_ROLE()": "f288a2e2",
    "areOnlyReceiptsValid(bytes32,(uint32,uint32,uint8,uint8,bytes,uint32,bytes32[3])[])": "a122cb89",
    "areTxReceiptsValid(bytes32,bytes32,(uint32,uint8,uint32,uint8,bytes,uint32,bytes32[3])[],(uint32,uint32,uint8,uint8,bytes,uint32,bytes32[3])[])": "8e0d272a",
    "axiomAddress()": "528bad37",
    "collectRefund(bytes32,uint8)": "4549d820",
    "freezeAll()": "99464c89",
    "frozen()": "054f7d9c",
    "fulfillQueryVsMMR(bytes32,address,uint32,(bytes32,bytes32,uint32,uint32,bytes32[10],bytes32[10]),bytes,uint8)": "601b6e0f",
    "getRoleAdmin(bytes32)": "248a9ca3",
    "grantRole(bytes32,address)": "2f2ff15d",
    "hasRole(bytes32,address)": "91d14854",
    "initialize(address,uint256,uint256,uint32,address,address,address)": "50c0d2d8",
    "isKeccakResultValid(uint8,bytes32)": "2303049e",
    "maxQueryPrice()": "df7e2e2d",
    "minQueryPrice()": "b1d401cd",
    "proxiableUUID()": "52d1902d",
    "queries(uint8,bytes32)": "6a1f78df",
    "queryDeadlineInterval()": "79ce0468",
    "renounceRole(bytes32,address)": "36568abe",
    "revokeRole(bytes32,address)": "d547741f",
    "sendOnlyReceiptsQuery(bytes32,address,bytes)": "462b0b13",
    "sendTxReceiptsQuery(bytes32,address,bytes)": "a0b7657c",
    "supportsInterface(bytes4)": "01ffc9a7",
    "unfreezeAll()": "66c5c4a0",
    "updateAxiomAddress(address)": "774a6234",
    "updateMaxQueryPrice(uint256)": "01f8fca4",
    "updateMinQueryPrice(uint256)": "798da01a",
    "updateQueryDeadlineInterval(uint32)": "d77de079",
    "upgradeTo(address)": "3659cfe6",
    "upgradeToAndCall(address,bytes)": "4f1ef286",
    "verifiedKeccakResults(uint8,bytes32)": "37185d1f",
    "verifyResultVsMMR(uint32,(bytes32,bytes32,uint32,uint32,bytes32[10],bytes32[10]),bytes,uint8)": "d4ffc3c5"
  },
  "id": 8
}