{
  "abi": [
    {
      "inputs": [],
      "stateMutability": "nonpayable",
      "type": "constructor"
    },
    {
      "inputs": [],
      "name": "CallbackExtraDataHashDoesNotMatch",
      "type": "error"
    },
    {
      "inputs": [],
      "name": "CannotFulfillIfNotActive",
      "type": "error"
    },
    {
      "inputs": [],
      "name": "CannotRefundBeforeDeadline",
      "type": "error"
    },
    {
      "inputs": [],
      "name": "CannotRefundIfNotActive",
      "type": "error"
    },
    {
      "inputs": [],
      "name": "ComputeResultsHashDoesNotMatch",
      "type": "error"
    },
    {
      "inputs": [],
      "name": "ContractIsFrozen",
      "type": "error"
    },
    {
      "inputs": [],
      "name": "NotProverRole",
      "type": "error"
    },
    {
      "inputs": [],
      "name": "ProofPayeeDoesNotMatchPayee",
      "type": "error"
    },
    {
      "inputs": [],
      "name": "ProofVerificationFailed",
      "type": "error"
    },
    {
      "inputs": [],
      "name": "QueryHashDoesNotMatchProof",
      "type": "error"
    },
    {
      "inputs": [],
      "name": "QueryNotInactive",
      "type": "error"
    },
    {
      "inputs": [],
      "name": "QuerySchemaDoesNotMatchProof",
      "type": "error"
    },
    {
      "inputs": [],
      "name": "SourceChainIdDoesNotMatch",
      "type": "error"
    },
    {
      "anonymous": false,
      "inputs": [
        {
          "indexed": false,
          "internalType": "address",
          "name": "previousAdmin",
          "type": "address"
        },
        {
          "indexed": false,
          "internalType": "address",
          "name": "newAdmin",
          "type": "address"
        }
      ],
      "name": "AdminChanged",
      "type": "event"
    },
    {
      "anonymous": false,
      "inputs": [
        {
          "indexed": true,
          "internalType": "address",
          "name": "beacon",
          "type": "address"
        }
      ],
      "name": "BeaconUpgraded",
      "type": "event"
    },
    {
      "anonymous": false,
      "inputs": [],
      "name": "FreezeAll",
      "type": "event"
    },
    {
      "anonymous": false,
      "inputs": [
        {
          "indexed": false,
          "internalType": "uint8",
          "name": "version",
          "type": "uint8"
        }
      ],
      "name": "Initialized",
      "type": "event"
    },
    {
      "anonymous": false,
      "inputs": [
        {
          "indexed": true,
          "internalType": "bytes32",
          "name": "queryHash",
          "type": "bytes32"
        }
      ],
      "name": "OffchainQueryFulfilled",
      "type": "event"
    },
    {
      "anonymous": false,
      "inputs": [
        {
          "indexed": true,
          "internalType": "bytes32",
          "name": "queryHash",
          "type": "bytes32"
        },
        {
          "indexed": false,
          "internalType": "address",
          "name": "payee",
          "type": "address"
        }
      ],
      "name": "QueryFulfilled",
      "type": "event"
    },
    {
      "anonymous": false,
      "inputs": [
        {
          "indexed": true,
          "internalType": "bytes32",
          "name": "queryHash",
          "type": "bytes32"
        },
        {
          "indexed": false,
          "internalType": "uint32",
          "name": "deadlineBlockNumber",
          "type": "uint32"
        },
        {
          "indexed": false,
          "internalType": "bytes32",
          "name": "ipfsHash",
          "type": "bytes32"
        },
        {
          "indexed": false,
          "internalType": "uint64",
          "name": "maxFeePerGas",
          "type": "uint64"
        },
        {
          "indexed": false,
          "internalType": "uint32",
          "name": "callbackGasLimit",
          "type": "uint32"
        }
      ],
      "name": "QueryInitiatedOffchain",
      "type": "event"
    },
    {
      "anonymous": false,
      "inputs": [
        {
          "indexed": true,
          "internalType": "bytes32",
          "name": "queryHash",
          "type": "bytes32"
        },
        {
          "indexed": false,
          "internalType": "uint32",
          "name": "deadlineBlockNumber",
          "type": "uint32"
        },
        {
          "indexed": false,
          "internalType": "uint64",
          "name": "maxFeePerGas",
          "type": "uint64"
        },
        {
          "indexed": false,
          "internalType": "uint32",
          "name": "callbackGasLimit",
          "type": "uint32"
        }
      ],
      "name": "QueryInitiatedOnchain",
      "type": "event"
    },
    {
      "anonymous": false,
      "inputs": [
        {
          "indexed": true,
          "internalType": "bytes32",
          "name": "queryHash",
          "type": "bytes32"
        }
      ],
      "name": "QueryRefunded",
      "type": "event"
    },
    {
      "anonymous": false,
      "inputs": [
        {
          "indexed": true,
          "internalType": "bytes32",
          "name": "role",
          "type": "bytes32"
        },
        {
          "indexed": true,
          "internalType": "bytes32",
          "name": "previousAdminRole",
          "type": "bytes32"
        },
        {
          "indexed": true,
          "internalType": "bytes32",
          "name": "newAdminRole",
          "type": "bytes32"
        }
      ],
      "name": "RoleAdminChanged",
      "type": "event"
    },
    {
      "anonymous": false,
      "inputs": [
        {
          "indexed": true,
          "internalType": "bytes32",
          "name": "role",
          "type": "bytes32"
        },
        {
          "indexed": true,
          "internalType": "address",
          "name": "account",
          "type": "address"
        },
        {
          "indexed": true,
          "internalType": "address",
          "name": "sender",
          "type": "address"
        }
      ],
      "name": "RoleGranted",
      "type": "event"
    },
    {
      "anonymous": false,
      "inputs": [
        {
          "indexed": true,
          "internalType": "bytes32",
          "name": "role",
          "type": "bytes32"
        },
        {
          "indexed": true,
          "internalType": "address",
          "name": "account",
          "type": "address"
        },
        {
          "indexed": true,
          "internalType": "address",
          "name": "sender",
          "type": "address"
        }
      ],
      "name": "RoleRevoked",
      "type": "event"
    },
    {
      "anonymous": false,
      "inputs": [],
      "name": "UnfreezeAll",
      "type": "event"
    },
    {
      "anonymous": false,
      "inputs": [
        {
          "indexed": false,
          "internalType": "address",
          "name": "newAddress",
          "type": "address"
        }
      ],
      "name": "UpdateAxiomFeeStoreAddress",
      "type": "event"
    },
    {
      "anonymous": false,
      "inputs": [
        {
          "indexed": false,
          "internalType": "address",
          "name": "newAddress",
          "type": "address"
        }
      ],
      "name": "UpdateAxiomHeaderVerifierAddress",
      "type": "event"
    },
    {
      "anonymous": false,
      "inputs": [
        {
          "indexed": false,
          "internalType": "address",
          "name": "newAddress",
          "type": "address"
        }
      ],
      "name": "UpdateAxiomProverAddress",
      "type": "event"
    },
    {
      "anonymous": false,
      "inputs": [
        {
          "indexed": false,
          "internalType": "address",
          "name": "newAddress",
          "type": "address"
        }
      ],
      "name": "UpdateAxiomResultStoreAddress",
      "type": "event"
    },
    {
      "anonymous": false,
      "inputs": [
        {
          "indexed": false,
          "internalType": "uint32",
          "name": "newQueryDeadlineInterval",
          "type": "uint32"
        }
      ],
      "name": "UpdateQueryDeadlineInterval",
      "type": "event"
    },
    {
      "anonymous": false,
      "inputs": [
        {
          "indexed": false,
          "internalType": "address",
          "name": "newAddress",
          "type": "address"
        }
      ],
      "name": "UpdateVerifierAddress",
      "type": "event"
    },
    {
      "anonymous": false,
      "inputs": [
        {
          "indexed": true,
          "internalType": "address",
          "name": "implementation",
          "type": "address"
        }
      ],
      "name": "Upgraded",
      "type": "event"
    },
    {
      "inputs": [],
      "name": "DEFAULT_ADMIN_ROLE",
      "outputs": [
        {
          "internalType": "bytes32",
          "name": "",
          "type": "bytes32"
        }
      ],
      "stateMutability": "view",
      "type": "function"
    },
    {
      "inputs": [],
      "name": "GUARDIAN_ROLE",
      "outputs": [
        {
          "internalType": "bytes32",
          "name": "",
          "type": "bytes32"
        }
      ],
      "stateMutability": "view",
      "type": "function"
    },
    {
      "inputs": [],
      "name": "PROVER_ROLE",
      "outputs": [
        {
          "internalType": "bytes32",
          "name": "",
          "type": "bytes32"
        }
      ],
      "stateMutability": "view",
      "type": "function"
    },
    {
      "inputs": [],
      "name": "TIMELOCK_ROLE",
      "outputs": [
        {
          "internalType": "bytes32",
          "name": "",
          "type": "bytes32"
        }
      ],
      "stateMutability": "view",
      "type": "function"
    },
    {
      "inputs": [],
      "name": "axiomFeeStoreAddress",
      "outputs": [
        {
          "internalType": "address",
          "name": "",
          "type": "address"
        }
      ],
      "stateMutability": "view",
      "type": "function"
    },
    {
      "inputs": [],
      "name": "axiomHeaderVerifierAddress",
      "outputs": [
        {
          "internalType": "address",
          "name": "",
          "type": "address"
        }
      ],
      "stateMutability": "view",
      "type": "function"
    },
    {
      "inputs": [],
      "name": "axiomProverAddress",
      "outputs": [
        {
          "internalType": "address",
          "name": "",
          "type": "address"
        }
      ],
      "stateMutability": "view",
      "type": "function"
    },
    {
      "inputs": [],
      "name": "axiomResultStoreAddress",
      "outputs": [
        {
          "internalType": "address",
          "name": "",
          "type": "address"
        }
      ],
      "stateMutability": "view",
      "type": "function"
    },
    {
      "inputs": [],
      "name": "freezeAll",
      "outputs": [],
      "stateMutability": "nonpayable",
      "type": "function"
    },
    {
      "inputs": [],
      "name": "frozen",
      "outputs": [
        {
          "internalType": "bool",
          "name": "",
          "type": "bool"
        }
      ],
      "stateMutability": "view",
      "type": "function"
    },
    {
      "inputs": [
        {
          "components": [
            {
              "internalType": "bytes32",
              "name": "prevHash",
              "type": "bytes32"
            },
            {
              "internalType": "bytes32",
              "name": "root",
              "type": "bytes32"
            },
            {
              "internalType": "uint32",
              "name": "numFinal",
              "type": "uint32"
            },
            {
              "internalType": "uint32",
              "name": "startBlockNumber",
              "type": "uint32"
            },
            {
              "internalType": "bytes32[10]",
              "name": "recentMMRPeaks",
              "type": "bytes32[10]"
            },
            {
              "internalType": "bytes32[10]",
              "name": "mmrComplementOrPeaks",
              "type": "bytes32[10]"
            },
            {
              "internalType": "uint32",
              "name": "mmrIdx",
              "type": "uint32"
            }
          ],
          "internalType": "struct IAxiomV2HeaderVerifier.RecentMMRWitness",
          "name": "mmrWitness",
          "type": "tuple"
        },
        {
          "internalType": "bytes32[]",
          "name": "computeResults",
          "type": "bytes32[]"
        },
        {
          "internalType": "bytes",
          "name": "proof",
          "type": "bytes"
        },
        {
          "components": [
            {
              "internalType": "address",
              "name": "callbackAddr",
              "type": "address"
            },
            {
              "internalType": "bytes4",
              "name": "callbackFunctionSelector",
              "type": "bytes4"
            },
            {
              "internalType": "uint8",
              "name": "resultLen",
              "type": "uint8"
            },
            {
              "internalType": "bytes",
              "name": "callbackExtraData",
              "type": "bytes"
            }
          ],
          "internalType": "struct IAxiomV2Query.AxiomV2Callback",
          "name": "callback",
          "type": "tuple"
        }
      ],
      "name": "fulfillOffchainQuery",
      "outputs": [],
      "stateMutability": "nonpayable",
      "type": "function"
    },
    {
      "inputs": [
        {
          "internalType": "address",
          "name": "payee",
          "type": "address"
        },
        {
          "components": [
            {
              "internalType": "bytes32",
              "name": "prevHash",
              "type": "bytes32"
            },
            {
              "internalType": "bytes32",
              "name": "root",
              "type": "bytes32"
            },
            {
              "internalType": "uint32",
              "name": "numFinal",
              "type": "uint32"
            },
            {
              "internalType": "uint32",
              "name": "startBlockNumber",
              "type": "uint32"
            },
            {
              "internalType": "bytes32[10]",
              "name": "recentMMRPeaks",
              "type": "bytes32[10]"
            },
            {
              "internalType": "bytes32[10]",
              "name": "mmrComplementOrPeaks",
              "type": "bytes32[10]"
            },
            {
              "internalType": "uint32",
              "name": "mmrIdx",
              "type": "uint32"
            }
          ],
          "internalType": "struct IAxiomV2HeaderVerifier.RecentMMRWitness",
          "name": "mmrWitness",
          "type": "tuple"
        },
        {
          "internalType": "bytes32[]",
          "name": "computeResults",
          "type": "bytes32[]"
        },
        {
          "internalType": "bytes",
          "name": "proof",
          "type": "bytes"
        },
        {
          "internalType": "bytes",
          "name": "callbackExtraData",
          "type": "bytes"
        }
      ],
      "name": "fulfillQuery",
      "outputs": [],
      "stateMutability": "nonpayable",
      "type": "function"
    },
    {
      "inputs": [
        {
          "internalType": "bytes32",
          "name": "role",
          "type": "bytes32"
        }
      ],
      "name": "getRoleAdmin",
      "outputs": [
        {
          "internalType": "bytes32",
          "name": "",
          "type": "bytes32"
        }
      ],
      "stateMutability": "view",
      "type": "function"
    },
    {
      "inputs": [
        {
          "internalType": "bytes32",
          "name": "role",
          "type": "bytes32"
        },
        {
          "internalType": "address",
          "name": "account",
          "type": "address"
        }
      ],
      "name": "grantRole",
      "outputs": [],
      "stateMutability": "nonpayable",
      "type": "function"
    },
    {
      "inputs": [
        {
          "internalType": "bytes32",
          "name": "role",
          "type": "bytes32"
        },
        {
          "internalType": "address",
          "name": "account",
          "type": "address"
        }
      ],
      "name": "hasRole",
      "outputs": [
        {
          "internalType": "bool",
          "name": "",
          "type": "bool"
        }
      ],
      "stateMutability": "view",
      "type": "function"
    },
    {
      "inputs": [
        {
          "internalType": "address",
          "name": "_axiomHeaderVerifierAddress",
          "type": "address"
        },
        {
          "internalType": "address",
          "name": "_verifierAddress",
          "type": "address"
        },
        {
          "internalType": "address",
          "name": "_axiomProverAddress",
          "type": "address"
        },
        {
          "internalType": "address",
          "name": "_axiomResultStoreAddress",
          "type": "address"
        },
        {
          "internalType": "address",
          "name": "_axiomFeeStoreAddress",
          "type": "address"
        },
        {
          "internalType": "uint32",
          "name": "_queryDeadlineInterval",
          "type": "uint32"
        },
        {
          "internalType": "address",
          "name": "timelock",
          "type": "address"
        },
        {
          "internalType": "address",
          "name": "guardian",
          "type": "address"
        }
      ],
      "name": "initialize",
      "outputs": [],
      "stateMutability": "nonpayable",
      "type": "function"
    },
    {
      "inputs": [],
      "name": "proxiableUUID",
      "outputs": [
        {
          "internalType": "bytes32",
          "name": "",
          "type": "bytes32"
        }
      ],
      "stateMutability": "view",
      "type": "function"
    },
    {
      "inputs": [
        {
          "internalType": "bytes32",
          "name": "",
          "type": "bytes32"
        }
      ],
      "name": "queries",
      "outputs": [
        {
          "internalType": "enum IAxiomV2Query.AxiomQueryState",
          "name": "state",
          "type": "uint8"
        },
        {
          "internalType": "uint32",
          "name": "deadlineBlockNumber",
          "type": "uint32"
        },
        {
          "internalType": "bytes32",
          "name": "querySchema",
          "type": "bytes32"
        },
        {
          "internalType": "uint8",
          "name": "resultLen",
          "type": "uint8"
        },
        {
          "internalType": "address",
          "name": "callbackAddr",
          "type": "address"
        },
        {
          "internalType": "bytes4",
          "name": "callbackFunctionSelector",
          "type": "bytes4"
        },
        {
          "internalType": "bytes32",
          "name": "callbackExtraDataHash",
          "type": "bytes32"
        }
      ],
      "stateMutability": "view",
      "type": "function"
    },
    {
      "inputs": [],
      "name": "queryDeadlineInterval",
      "outputs": [
        {
          "internalType": "uint32",
          "name": "",
          "type": "uint32"
        }
      ],
      "stateMutability": "view",
      "type": "function"
    },
    {
      "inputs": [
        {
          "internalType": "bytes32",
          "name": "queryHash",
          "type": "bytes32"
        }
      ],
      "name": "refundQuery",
      "outputs": [],
      "stateMutability": "nonpayable",
      "type": "function"
    },
    {
      "inputs": [
        {
          "internalType": "bytes32",
          "name": "role",
          "type": "bytes32"
        },
        {
          "internalType": "address",
          "name": "account",
          "type": "address"
        }
      ],
      "name": "renounceRole",
      "outputs": [],
      "stateMutability": "nonpayable",
      "type": "function"
    },
    {
      "inputs": [
        {
          "internalType": "bytes32",
          "name": "role",
          "type": "bytes32"
        },
        {
          "internalType": "address",
          "name": "account",
          "type": "address"
        }
      ],
      "name": "revokeRole",
      "outputs": [],
      "stateMutability": "nonpayable",
      "type": "function"
    },
    {
      "inputs": [
        {
          "internalType": "bytes32",
          "name": "queryHash",
          "type": "bytes32"
        },
        {
          "internalType": "bytes32",
          "name": "querySchema",
          "type": "bytes32"
        },
        {
          "internalType": "bytes32",
          "name": "ipfsHash",
          "type": "bytes32"
        },
        {
          "components": [
            {
              "internalType": "address",
              "name": "callbackAddr",
              "type": "address"
            },
            {
              "internalType": "bytes4",
              "name": "callbackFunctionSelector",
              "type": "bytes4"
            },
            {
              "internalType": "uint8",
              "name": "resultLen",
              "type": "uint8"
            },
            {
              "internalType": "bytes",
              "name": "callbackExtraData",
              "type": "bytes"
            }
          ],
          "internalType": "struct IAxiomV2Query.AxiomV2Callback",
          "name": "callback",
          "type": "tuple"
        },
        {
          "internalType": "uint64",
          "name": "maxFeePerGas",
          "type": "uint64"
        },
        {
          "internalType": "uint32",
          "name": "callbackGasLimit",
          "type": "uint32"
        }
      ],
      "name": "sendOffchainQuery",
      "outputs": [],
      "stateMutability": "payable",
      "type": "function"
    },
    {
      "inputs": [
        {
          "internalType": "uint32",
          "name": "sourceChainId",
          "type": "uint32"
        },
        {
          "internalType": "bytes32",
          "name": "dataQueryHash",
          "type": "bytes32"
        },
        {
          "components": [
            {
              "internalType": "uint8",
              "name": "k",
              "type": "uint8"
            },
            {
              "internalType": "uint256",
              "name": "omega",
              "type": "uint256"
            },
            {
              "internalType": "bytes32[10]",
              "name": "vkey",
              "type": "bytes32[10]"
            },
            {
              "internalType": "bytes32[10]",
              "name": "computeProof",
              "type": "bytes32[10]"
            }
          ],
          "internalType": "struct IAxiomV2Query.AxiomV2ComputeQuery",
          "name": "computeQuery",
          "type": "tuple"
        },
        {
          "components": [
            {
              "internalType": "address",
              "name": "callbackAddr",
              "type": "address"
            },
            {
              "internalType": "bytes4",
              "name": "callbackFunctionSelector",
              "type": "bytes4"
            },
            {
              "internalType": "uint8",
              "name": "resultLen",
              "type": "uint8"
            },
            {
              "internalType": "bytes",
              "name": "callbackExtraData",
              "type": "bytes"
            }
          ],
          "internalType": "struct IAxiomV2Query.AxiomV2Callback",
          "name": "callback",
          "type": "tuple"
        },
        {
          "internalType": "uint64",
          "name": "maxFeePerGas",
          "type": "uint64"
        },
        {
          "internalType": "uint32",
          "name": "callbackGasLimit",
          "type": "uint32"
        },
        {
          "internalType": "bytes",
          "name": "dataQuery",
          "type": "bytes"
        }
      ],
      "name": "sendQuery",
      "outputs": [],
      "stateMutability": "payable",
      "type": "function"
    },
    {
      "inputs": [
        {
          "internalType": "bytes4",
          "name": "interfaceId",
          "type": "bytes4"
        }
      ],
      "name": "supportsInterface",
      "outputs": [
        {
          "internalType": "bool",
          "name": "",
          "type": "bool"
        }
      ],
      "stateMutability": "view",
      "type": "function"
    },
    {
      "inputs": [],
      "name": "unfreezeAll",
      "outputs": [],
      "stateMutability": "nonpayable",
      "type": "function"
    },
    {
      "inputs": [
        {
          "internalType": "address",
          "name": "_axiomFeeStoreAddress",
          "type": "address"
        }
      ],
      "name": "updateAxiomFeeStore",
      "outputs": [],
      "stateMutability": "nonpayable",
      "type": "function"
    },
    {
      "inputs": [
        {
          "internalType": "address",
          "name": "_axiomHeaderVerifierAddress",
          "type": "address"
        }
      ],
      "name": "updateAxiomHeaderVerifierAddress",
      "outputs": [],
      "stateMutability": "nonpayable",
      "type": "function"
    },
    {
      "inputs": [
        {
          "internalType": "address",
          "name": "_axiomProverAddress",
          "type": "address"
        }
      ],
      "name": "updateAxiomProverAddress",
      "outputs": [],
      "stateMutability": "nonpayable",
      "type": "function"
    },
    {
      "inputs": [
        {
          "internalType": "address",
          "name": "_verifierAddress",
          "type": "address"
        }
      ],
      "name": "updateVerifierAddress",
      "outputs": [],
      "stateMutability": "nonpayable",
      "type": "function"
    },
    {
      "inputs": [
        {
          "internalType": "address",
          "name": "newImplementation",
          "type": "address"
        }
      ],
      "name": "upgradeTo",
      "outputs": [],
      "stateMutability": "nonpayable",
      "type": "function"
    },
    {
      "inputs": [
        {
          "internalType": "address",
          "name": "newImplementation",
          "type": "address"
        },
        {
          "internalType": "bytes",
          "name": "data",
          "type": "bytes"
        }
      ],
      "name": "upgradeToAndCall",
      "outputs": [],
      "stateMutability": "payable",
      "type": "function"
    },
    {
      "inputs": [],
      "name": "verifierAddress",
      "outputs": [
        {
          "internalType": "address",
          "name": "",
          "type": "address"
        }
      ],
      "stateMutability": "view",
      "type": "function"
    },
    {
      "inputs": [
        {
          "components": [
            {
              "internalType": "bytes32",
              "name": "prevHash",
              "type": "bytes32"
            },
            {
              "internalType": "bytes32",
              "name": "root",
              "type": "bytes32"
            },
            {
              "internalType": "uint32",
              "name": "numFinal",
              "type": "uint32"
            },
            {
              "internalType": "uint32",
              "name": "startBlockNumber",
              "type": "uint32"
            },
            {
              "internalType": "bytes32[10]",
              "name": "recentMMRPeaks",
              "type": "bytes32[10]"
            },
            {
              "internalType": "bytes32[10]",
              "name": "mmrComplementOrPeaks",
              "type": "bytes32[10]"
            },
            {
              "internalType": "uint32",
              "name": "mmrIdx",
              "type": "uint32"
            }
          ],
          "internalType": "struct IAxiomV2HeaderVerifier.RecentMMRWitness",
          "name": "mmrWitness",
          "type": "tuple"
        },
        {
          "internalType": "bytes",
          "name": "proof",
          "type": "bytes"
        }
      ],
      "name": "verifyAndWriteResult",
      "outputs": [],
      "stateMutability": "nonpayable",
      "type": "function"
    }
  ],
  "bytecode": {
    "object": "0x60a0604052306080523480156200001557600080fd5b506200002062000026565b62000164565b600054610100900460ff161562000074576040517f08c379a00000000000000000000000000000000000000000000000000000000081526004016200006b90620000ec565b60405180910390fd5b60005460ff9081161015620000ea57600080547fffffffffffffffffffffffffffffffffffffffffffffffffffffffffffffff001660ff9081179091556040517f7f26b83ff96e1f2b6a682f133852f6798a09c465da95921460cefb384740249891620000e19162000154565b60405180910390a15b565b602080825281016200014e81602781527f496e697469616c697a61626c653a20636f6e747261637420697320696e69746960208201527f616c697a696e6700000000000000000000000000000000000000000000000000604082015260600190565b92915050565b60ff82168152602081016200014e565b60805161501e6200019c60003960008181610b0201528181610b5c01528181610c5b01528181610cb50152610da4015261501e6000f3fe6080604052600436106102195760003560e01c806379ce04681161011d578063beaa0ebd116100b0578063dc9a4ef61161007f578063e2069efe11610064578063e2069efe1461073a578063ec837c1e1461075a578063f288a2e21461076d57600080fd5b8063dc9a4ef6146106e6578063e166cdbd1461071a57600080fd5b8063beaa0ebd1461064a578063c15dcf4014610678578063d3046ea614610698578063d547741f146106c657600080fd5b806399464c89116100ec57806399464c89146105d2578063a217fddf146105e7578063a660c031146105fc578063b6ed03881461061c57600080fd5b806379ce0468146104fc578063898091e01461053f5780638a8cc0ec1461055f57806391d148541461057f57600080fd5b80632f2ff15d116101b0578063469b23621161017f57806352d1902d1161016457806352d1902d146104b257806366c5c4a0146104c7578063736f1618146104dc57600080fd5b8063469b2362146104715780634f1ef2861461049f57600080fd5b80632f2ff15d146103f15780633237c2fd1461041157806336568abe146104315780633659cfe61461045157600080fd5b806321608139116101ec57806321608139146102cb57806321dfb600146102de578063248a9ca31461038057806324ea54f4146103bd57600080fd5b806301ffc9a71461021e578063054f7d9c1461025457806307c11e791461026e57806318bdffbb14610290575b600080fd5b34801561022a57600080fd5b5061023e61023936600461370c565b6107a1565b60405161024b919061373f565b60405180910390f35b34801561026057600080fd5b5060975461023e9060ff1681565b34801561027a57600080fd5b5061028e61028936600461377f565b6107fd565b005b34801561029c57600080fd5b50610125546102be9073ffffffffffffffffffffffffffffffffffffffff1681565b60405161024b91906137a9565b61028e6102d9366004613815565b6108a4565b3480156102ea57600080fd5b5061036d6102f93660046138ba565b61012960205260009081526040902080546001820154600283015460039093015460ff808416946101009485900463ffffffff16949181169291810473ffffffffffffffffffffffffffffffffffffffff1691750100000000000000000000000000000000000000000090910460e01b9087565b60405161024b9796959493929190613980565b34801561038c57600080fd5b506103b061039b3660046138ba565b60009081526065602052604090206001015490565b60405161024b91906139e8565b3480156103c957600080fd5b506103b07f55435dd261a4b9b3364963f7738a7a662ad9c84396d64be3365284bb7f0a504181565b3480156103fd57600080fd5b5061028e61040c3660046139f6565b6109c0565b34801561041d57600080fd5b5061028e61042c36600461377f565b6109ea565b34801561043d57600080fd5b5061028e61044c3660046139f6565b610a85565b34801561045d57600080fd5b5061028e61046c36600461377f565b610aeb565b34801561047d57600080fd5b50610124546102be9073ffffffffffffffffffffffffffffffffffffffff1681565b61028e6104ad366004613b7e565b610c44565b3480156104be57600080fd5b506103b0610d8a565b3480156104d357600080fd5b5061028e610e20565b3480156104e857600080fd5b5061028e6104f736600461377f565b610e9e565b34801561050857600080fd5b50610128546105329074010000000000000000000000000000000000000000900463ffffffff1681565b60405161024b9190613bcc565b34801561054b57600080fd5b5061028e61055a366004613c42565b610f39565b34801561056b57600080fd5b5061028e61057a366004613ca0565b610f80565b34801561058b57600080fd5b5061023e61059a3660046139f6565b600091825260656020908152604080842073ffffffffffffffffffffffffffffffffffffffff93909316845291905290205460ff1690565b3480156105de57600080fd5b5061028e6115a4565b3480156105f357600080fd5b506103b0600081565b34801561060857600080fd5b5061028e610617366004613d9e565b611625565b34801561062857600080fd5b50610126546102be9073ffffffffffffffffffffffffffffffffffffffff1681565b34801561065657600080fd5b50610128546102be9073ffffffffffffffffffffffffffffffffffffffff1681565b34801561068457600080fd5b5061028e6106933660046138ba565b611b51565b3480156106a457600080fd5b50610127546102be9073ffffffffffffffffffffffffffffffffffffffff1681565b3480156106d257600080fd5b5061028e6106e13660046139f6565b611ef1565b3480156106f257600080fd5b506103b07f60044782a422109ac08a415e44260ad5d3bad63d96ebe1fac0363399642ee3f281565b34801561072657600080fd5b5061028e61073536600461377f565b611f16565b34801561074657600080fd5b5061028e610755366004613e78565b611fb1565b61028e610768366004613f42565b612221565b34801561077957600080fd5b506103b07ff66846415d2bf9eabda9e84793ff9c0ea96d87f50fc41e66aa16469c6a442f0581565b60007fffffffff0000000000000000000000000000000000000000000000000000000082167fc158fd480000000000000000000000000000000000000000000000000000000014806107f757506107f7826123f4565b92915050565b7ff66846415d2bf9eabda9e84793ff9c0ea96d87f50fc41e66aa16469c6a442f056108278161248b565b61012880547fffffffffffffffffffffffff00000000000000000000000000000000000000001673ffffffffffffffffffffffffffffffffffffffff84161790556040517fd5916ec2c920845feddd056ebbee86209587bfb0d0d72341eb4a022fd98c218d906108989084906137a9565b60405180910390a15050565b6108ac612495565b610128546040517ff340fa0100000000000000000000000000000000000000000000000000000000815273ffffffffffffffffffffffffffffffffffffffff9091169063f340fa019034906109059033906004016137a9565b6000604051808303818588803b15801561091e57600080fd5b505af1158015610932573d6000803e3d6000fd5b505050505061094d868685610946906140a3565b85856124d4565b6101285486907fb765869aef79ab0ae7505358156a36b5fd069b1d2c8064bc7459aca55cbdc12e9061099d9074010000000000000000000000000000000000000000900463ffffffff16436140de565b8685856040516109b0949392919061410e565b60405180910390a2505050505050565b6000828152606560205260409020600101546109db8161248b565b6109e583836127e9565b505050565b7ff66846415d2bf9eabda9e84793ff9c0ea96d87f50fc41e66aa16469c6a442f05610a148161248b565b61012480547fffffffffffffffffffffffff00000000000000000000000000000000000000001673ffffffffffffffffffffffffffffffffffffffff84161790556040517f75bcc4f3a8eeec60c22df746d7f53083c892df4b1e07b2be152f117df8f353f7906108989084906137a9565b73ffffffffffffffffffffffffffffffffffffffff81163314610add576040517f08c379a0000000000000000000000000000000000000000000000000000000008152600401610ad4906141a0565b60405180910390fd5b610ae782826128dd565b5050565b73ffffffffffffffffffffffffffffffffffffffff7f0000000000000000000000000000000000000000000000000000000000000000163003610b5a576040517f08c379a0000000000000000000000000000000000000000000000000000000008152600401610ad49061420a565b7f000000000000000000000000000000000000000000000000000000000000000073ffffffffffffffffffffffffffffffffffffffff16610bcf7f360894a13ba1a3210667c828492db98dca3e2076cc3735a920a3ca505d382bbc5473ffffffffffffffffffffffffffffffffffffffff1690565b73ffffffffffffffffffffffffffffffffffffffff1614610c1c576040517f08c379a0000000000000000000000000000000000000000000000000000000008152600401610ad490614274565b610c2581612998565b60408051600080825260208201909252610c41918391906129c2565b50565b73ffffffffffffffffffffffffffffffffffffffff7f0000000000000000000000000000000000000000000000000000000000000000163003610cb3576040517f08c379a0000000000000000000000000000000000000000000000000000000008152600401610ad49061420a565b7f000000000000000000000000000000000000000000000000000000000000000073ffffffffffffffffffffffffffffffffffffffff16610d287f360894a13ba1a3210667c828492db98dca3e2076cc3735a920a3ca505d382bbc5473ffffffffffffffffffffffffffffffffffffffff1690565b73ffffffffffffffffffffffffffffffffffffffff1614610d75576040517f08c379a0000000000000000000000000000000000000000000000000000000008152600401610ad490614274565b610d7e82612998565b610ae7828260016129c2565b60003073ffffffffffffffffffffffffffffffffffffffff7f00000000000000000000000000000000000000000000000000000000000000001614610dfb576040517f08c379a0000000000000000000000000000000000000000000000000000000008152600401610ad4906142de565b507f360894a13ba1a3210667c828492db98dca3e2076cc3735a920a3ca505d382bbc90565b7f55435dd261a4b9b3364963f7738a7a662ad9c84396d64be3365284bb7f0a5041610e4a8161248b565b609780547fffffffffffffffffffffffffffffffffffffffffffffffffffffffffffffff001690556040517fe6fdbf73945dd61794a752b9181ea29f77170a7b1ffd37e0a7ff9d2c6f7258b990600090a150565b7ff66846415d2bf9eabda9e84793ff9c0ea96d87f50fc41e66aa16469c6a442f05610ec88161248b565b61012580547fffffffffffffffffffffffff00000000000000000000000000000000000000001673ffffffffffffffffffffffffffffffffffffffff84161790556040517fe6e1c2bf73bb6cc1c20546306996ac2050af3e2cfc8d64d3173c7ef0ce549519906108989084906137a9565b7f60044782a422109ac08a415e44260ad5d3bad63d96ebe1fac0363399642ee3f2610f638161248b565b610f6b612495565b610f76848484612b15565b5050505050505050565b600054610100900460ff1615808015610fa05750600054600160ff909116105b80610fba5750303b158015610fba575060005460ff166001145b610ff0576040517f08c379a0000000000000000000000000000000000000000000000000000000008152600401610ad490614348565b600080547fffffffffffffffffffffffffffffffffffffffffffffffffffffffffffffff00166001179055801561104e57600080547fffffffffffffffffffffffffffffffffffffffffffffffffffffffffffff00ff166101001790555b611056612e58565b61105e612e99565b73ffffffffffffffffffffffffffffffffffffffff89166110ab576040517f08c379a0000000000000000000000000000000000000000000000000000000008152600401610ad4906143b2565b73ffffffffffffffffffffffffffffffffffffffff88166110f8576040517f08c379a0000000000000000000000000000000000000000000000000000000008152600401610ad49061441c565b73ffffffffffffffffffffffffffffffffffffffff8716611145576040517f08c379a0000000000000000000000000000000000000000000000000000000008152600401610ad490614486565b73ffffffffffffffffffffffffffffffffffffffff8616611192576040517f08c379a0000000000000000000000000000000000000000000000000000000008152600401610ad4906144f0565b73ffffffffffffffffffffffffffffffffffffffff85166111df576040517f08c379a0000000000000000000000000000000000000000000000000000000008152600401610ad49061455a565b73ffffffffffffffffffffffffffffffffffffffff831661122c576040517f08c379a0000000000000000000000000000000000000000000000000000000008152600401610ad4906145c4565b73ffffffffffffffffffffffffffffffffffffffff8216611279576040517f08c379a0000000000000000000000000000000000000000000000000000000008152600401610ad49061462e565b61012480547fffffffffffffffffffffffff000000000000000000000000000000000000000090811673ffffffffffffffffffffffffffffffffffffffff8c811691909117909255610125805482168b8416179055610126805482168a84161790556101278054821689841617905561012880549091169187169190911790556040517f75bcc4f3a8eeec60c22df746d7f53083c892df4b1e07b2be152f117df8f353f790611329908b906137a9565b60405180910390a17fe6e1c2bf73bb6cc1c20546306996ac2050af3e2cfc8d64d3173c7ef0ce5495198860405161136091906137a9565b60405180910390a17f0b93934b7edc78aefca2346fce453b27091f670d5d0d27a235a500c5d4813d5d8760405161139791906137a9565b60405180910390a17fa38376a1d553c24d4e7d7ae03562d267dc74246db411d00789b674d260625d7f866040516113ce91906137a9565b60405180910390a17fd5916ec2c920845feddd056ebbee86209587bfb0d0d72341eb4a022fd98c218d8560405161140591906137a9565b60405180910390a161012880547fffffffffffffffff00000000ffffffffffffffffffffffffffffffffffffffff167401000000000000000000000000000000000000000063ffffffff8716021790556040517f266d22101c27a330937ff06442e5289e92a84a449d22bb001c03789f7774b62890611485908690613bcc565b60405180910390a1610126546114d2907f60044782a422109ac08a415e44260ad5d3bad63d96ebe1fac0363399642ee3f29073ffffffffffffffffffffffffffffffffffffffff166127e9565b6114dd6000846127e9565b6115077ff66846415d2bf9eabda9e84793ff9c0ea96d87f50fc41e66aa16469c6a442f05846127e9565b6115317f55435dd261a4b9b3364963f7738a7a662ad9c84396d64be3365284bb7f0a5041836127e9565b801561159957600080547fffffffffffffffffffffffffffffffffffffffffffffffffffffffffffff00ff1690556040517f7f26b83ff96e1f2b6a682f133852f6798a09c465da95921460cefb38474024989061159090600190614652565b60405180910390a15b505050505050505050565b7f55435dd261a4b9b3364963f7738a7a662ad9c84396d64be3365284bb7f0a50416115ce8161248b565b609780547fffffffffffffffffffffffffffffffffffffffffffffffffffffffffffffff001660011790556040517f61340a1b154d5d21d259a74bf95379201799b9d12cc6509bb46cb56dc281df5590600090a150565b7f60044782a422109ac08a415e44260ad5d3bad63d96ebe1fac0363399642ee3f261164f8161248b565b611657612495565b6000806000806116688c8a8a612b15565b9296509094509250905060016000848152610129602052604090205460ff166002811115611698576116986138db565b146116cf576040517ff8c22cf100000000000000000000000000000000000000000000000000000000815260040160405180910390fd5b60008381526101296020526040902060010154821461171a576040517f6b8899b400000000000000000000000000000000000000000000000000000000815260040160405180910390fd5b60006117296005828d8f614660565b60405160200161173a9291906146e9565b60405160208183030381529060405280519060200120905080821461178b576040517f921c328700000000000000000000000000000000000000000000000000000000815260040160405180910390fd5b50868660405161179c929190614703565b6040518091039020610129600085815260200190815260200160002060030154146117f3576040517f292485e600000000000000000000000000000000000000000000000000000000815260040160405180910390fd5b8c73ffffffffffffffffffffffffffffffffffffffff168473ffffffffffffffffffffffffffffffffffffffff1614611858576040517f8f75496200000000000000000000000000000000000000000000000000000000815260040160405180910390fd5b6000838152610129602052604090208054600291907fffffffffffffffffffffffffffffffffffffffffffffffffffffffffffffff0016600183021790555061012860009054906101000a900473ffffffffffffffffffffffffffffffffffffffff1673ffffffffffffffffffffffffffffffffffffffff16631bbdcfd3848f6040518363ffffffff1660e01b81526004016118f5929190614710565b600060405180830381600087803b15801561190f57600080fd5b505af1158015611923573d6000803e3d6000fd5b50505050827f7d75c70e29cbe8fa8f30d34dc1e421fce569f086fa6e2985816ad3cfa03e86a98e60405161195791906137a9565b60405180910390a260008381526101296020526040902060020154610100900473ffffffffffffffffffffffffffffffffffffffff1615611b42576000610129600085815260200190815260200160002060020160009054906101000a900460ff169050610129600085815260200190815260200160002060020160019054906101000a900473ffffffffffffffffffffffffffffffffffffffff1673ffffffffffffffffffffffffffffffffffffffff16610129600086815260200190815260200160002060020160159054906101000a900460e01b6101296000878152602001908152602001600020600101548e8e6000908660ff1692611a5c93929190614660565b8c8c604051602401611a72959493929190614780565b604080517fffffffffffffffffffffffffffffffffffffffffffffffffffffffffffffffe08184030181529181526020820180517bffffffffffffffffffffffffffffffffffffffffffffffffffffffff167fffffffff00000000000000000000000000000000000000000000000000000000909416939093179092529051611afb9190614807565b6000604051808303816000865af19150503d8060008114611b38576040519150601f19603f3d011682016040523d82523d6000602084013e611b3d565b606091505b505050505b50505050505050505050505050565b611b59612495565b60008181526101296020526040808220815160e081019092528054829060ff166002811115611b8a57611b8a6138db565b6002811115611b9b57611b9b6138db565b815281546101009081900463ffffffff1660208301526001808401546040840152600284015460ff8116606085015291820473ffffffffffffffffffffffffffffffffffffffff166080840152750100000000000000000000000000000000000000000090910460e01b7fffffffff000000000000000000000000000000000000000000000000000000001660a083015260039092015460c09091015290915081516002811115611c4e57611c4e6138db565b14611c85576040517f5f158cf700000000000000000000000000000000000000000000000000000000815260040160405180910390fd5b806020015163ffffffff164311611cc8576040517f6d542c0d00000000000000000000000000000000000000000000000000000000815260040160405180910390fd5b6040805160e08101825260008082526020808301829052828401829052606083018290526080830182905260a0830182905260c08301829052858252610129905291909120815181548392919082907fffffffffffffffffffffffffffffffffffffffffffffffffffffffffffffff00166001836002811115611d4d57611d4d6138db565b0217905550602082015181547fffffffffffffffffffffffffffffffffffffffffffffffffffffff00000000ff1661010063ffffffff909216820217825560408084015160018401556060840151600284018054608087015160a088015160ff9094167fffffffffffffffffffffff0000000000000000000000000000000000000000009092169190911773ffffffffffffffffffffffffffffffffffffffff918216909502949094177fffffffffffffff00000000ffffffffffffffffffffffffffffffffffffffffff16750100000000000000000000000000000000000000000060e09390931c9290920291909117905560c0909301516003909201919091556101285491517f7249fbb6000000000000000000000000000000000000000000000000000000008152911690637249fbb690611e8f9086906004016139e8565b600060405180830381600087803b158015611ea957600080fd5b505af1158015611ebd573d6000803e3d6000fd5b50506040518592507f1923b26db8236a215e02d277919450f65fa53365f004d2b955263220e91036799150600090a2505050565b600082815260656020526040902060010154611f0c8161248b565b6109e583836128dd565b7ff66846415d2bf9eabda9e84793ff9c0ea96d87f50fc41e66aa16469c6a442f05611f408161248b565b61012680547fffffffffffffffffffffffff00000000000000000000000000000000000000001673ffffffffffffffffffffffffffffffffffffffff84161790556040517f0b93934b7edc78aefca2346fce453b27091f670d5d0d27a235a500c5d4813d5d906108989084906137a9565b7f60044782a422109ac08a415e44260ad5d3bad63d96ebe1fac0363399642ee3f2611fdb8161248b565b611fe3612495565b600080600080611ff48b8989612b15565b92965090945092509050600061200d6005828c8e614660565b60405160200161201e9291906146e9565b60405160208183030381529060405280519060200120905080821461206f576040517f921c328700000000000000000000000000000000000000000000000000000000815260040160405180910390fd5b5060405183907f3dfddd8dc9e35222679030ce268e6c609a765196274087e9e7b52d8aa8efec0b90600090a260006120aa602088018861377f565b73ffffffffffffffffffffffffffffffffffffffff16146122145760006120d76060880160408901614813565b90506120e6602088018861377f565b73ffffffffffffffffffffffffffffffffffffffff1661210c6040890160208a0161370c565b848d8d6000908660ff169261212393929190614660565b61213060608d018d614834565b604051602401612144959493929190614780565b604080517fffffffffffffffffffffffffffffffffffffffffffffffffffffffffffffffe08184030181529181526020820180517bffffffffffffffffffffffffffffffffffffffffffffffffffffffff167fffffffff000000000000000000000000000000000000000000000000000000009094169390931790925290516121cd9190614807565b6000604051808303816000865af19150503d806000811461220a576040519150601f19603f3d011682016040523d82523d6000602084013e61220f565b606091505b505050505b5050505050505050505050565b612229612495565b610128546040517ff340fa0100000000000000000000000000000000000000000000000000000000815273ffffffffffffffffffffffffffffffffffffffff9091169063f340fa019034906122829033906004016137a9565b6000604051808303818588803b15801561229b57600080fd5b505af11580156122af573d6000803e3d6000fd5b5060009350600292508b91508a90506122cb60208b018b614813565b8a602001358b6040018c610180016040516020016122ef97969594939291906148f1565b604080517fffffffffffffffffffffffffffffffffffffffffffffffffffffffffffffffe08184030181529190528051602091820120915060009061233690890189614813565b8860200135896040016040516020016123519392919061496e565b60405160208183030381529060405280519060200120905061237f828289612378906140a3565b89896124d4565b6101285482907f8039ed5c4465b459f0e6ac4412fc8d1718ebd061c4ca051e40fb969dee08499a906123cf9074010000000000000000000000000000000000000000900463ffffffff16436140de565b88886040516123e0939291906149a6565b60405180910390a250505050505050505050565b60007fffffffff0000000000000000000000000000000000000000000000000000000082167f7965db0b0000000000000000000000000000000000000000000000000000000014806107f757507f01ffc9a7000000000000000000000000000000000000000000000000000000007fffffffff000000000000000000000000000000000000000000000000000000008316146107f7565b610c418133612f04565b60975460ff16156124d2576040517f379dfc6300000000000000000000000000000000000000000000000000000000815260040160405180910390fd5b565b6000858152610129602052604081205460ff1660028111156124f8576124f86138db565b1461252f576040517f96e41fe900000000000000000000000000000000000000000000000000000000815260040160405180910390fd5b600061253b8383612fbe565b610128546040517f1fa3e05500000000000000000000000000000000000000000000000000000000815291925073ffffffffffffffffffffffffffffffffffffffff1690631fa3e055906125979033908a9086906004016149ce565b600060405180830381600087803b1580156125b157600080fd5b505af11580156125c5573d6000803e3d6000fd5b5050505060006040518060e00160405280600160028111156125e9576125e96138db565b81526101285460209091019061261d9074010000000000000000000000000000000000000000900463ffffffff16436140de565b63ffffffff168152602080820189905260408881015160ff1681840152885173ffffffffffffffffffffffffffffffffffffffff16606080850191909152898301517fffffffff0000000000000000000000000000000000000000000000000000000016608085015289015180519083012060a09093019290925260008a81526101299091522081518154929350839282907fffffffffffffffffffffffffffffffffffffffffffffffffffffffffffffff001660018360028111156126e5576126e56138db565b0217905550602082015181547fffffffffffffffffffffffffffffffffffffffffffffffffffffff00000000ff1661010063ffffffff9092168202178255604083015160018301556060830151600283018054608086015160a087015160ff9094167fffffffffffffffffffffff0000000000000000000000000000000000000000009092169190911773ffffffffffffffffffffffffffffffffffffffff909116909302929092177fffffffffffffff00000000ffffffffffffffffffffffffffffffffffffffffff16750100000000000000000000000000000000000000000060e09290921c9190910217905560c09091015160039091015550505050505050565b600082815260656020908152604080832073ffffffffffffffffffffffffffffffffffffffff8516845290915290205460ff16610ae757600082815260656020908152604080832073ffffffffffffffffffffffffffffffffffffffff85168452909152902080547fffffffffffffffffffffffffffffffffffffffffffffffffffffffffffffff0016600117905561287f3390565b73ffffffffffffffffffffffffffffffffffffffff168173ffffffffffffffffffffffffffffffffffffffff16837f2f8788117e7eff1d82e926ec794901d17c78024a50270940304540a733656f0d60405160405180910390a45050565b600082815260656020908152604080832073ffffffffffffffffffffffffffffffffffffffff8516845290915290205460ff1615610ae757600082815260656020908152604080832073ffffffffffffffffffffffffffffffffffffffff8516808552925280832080547fffffffffffffffffffffffffffffffffffffffffffffffffffffffffffffff0016905551339285917ff6391f5c32d9c69d2a47ea670b442974b53935d1edc7fd64eb21e047a839171b9190a45050565b7ff66846415d2bf9eabda9e84793ff9c0ea96d87f50fc41e66aa16469c6a442f05610ae78161248b565b7f4910fdfa16fed3260ed0e7147f7cc6da11a60208b5b9406d12a635614ffd91435460ff16156129f5576109e583613000565b8273ffffffffffffffffffffffffffffffffffffffff166352d1902d6040518163ffffffff1660e01b8152600401602060405180830381865afa925050508015612a7a575060408051601f3d9081017fffffffffffffffffffffffffffffffffffffffffffffffffffffffffffffffe0168201909252612a7791810190614a01565b60015b612ab0576040517f08c379a0000000000000000000000000000000000000000000000000000000008152600401610ad490614a7c565b7f360894a13ba1a3210667c828492db98dca3e2076cc3735a920a3ca505d382bbc8114612b09576040517f08c379a0000000000000000000000000000000000000000000000000000000008152600401610ad490614ae6565b506109e58383836130b4565b6000806000806000612b2787876130df565b6101245460e08201516101008301516040517ff1340da300000000000000000000000000000000000000000000000000000000815293945073ffffffffffffffffffffffffffffffffffffffff9092169263f1340da392612b8d92918d90600401614bc1565b600060405180830381600087803b158015612ba757600080fd5b505af1158015612bbb573d6000803e3d6000fd5b5050505061012460009054906101000a900473ffffffffffffffffffffffffffffffffffffffff1673ffffffffffffffffffffffffffffffffffffffff1663fe428ed36040518163ffffffff1660e01b8152600401602060405180830381865afa158015612c2d573d6000803e3d6000fd5b505050506040513d601f19601f82011682018060405250810190612c519190614bf5565b63ffffffff16816000015163ffffffff1614612c99576040517f0db21db600000000000000000000000000000000000000000000000000000000815260040160405180910390fd5b6101255460405160009173ffffffffffffffffffffffffffffffffffffffff1690612cc7908a908a90614703565b6000604051808303816000865af19150503d8060008114612d04576040519150601f19603f3d011682016040523d82523d6000602084013e612d09565b606091505b5050905080612d44576040517fd611c31800000000000000000000000000000000000000000000000000000000815260040160405180910390fd5b60008260000151836020015184604001518560600151604051602001612d6d9493929190614c16565b604080517fffffffffffffffffffffffffffffffffffffffffffffffffffffffffffffffe08184030181529082905280516020909101206101275460808601517fd18b7db500000000000000000000000000000000000000000000000000000000845291935073ffffffffffffffffffffffffffffffffffffffff169163d18b7db591612dfe918590600401614c5e565b600060405180830381600087803b158015612e1857600080fd5b505af1158015612e2c573d6000803e3d6000fd5b505050508260c0015183608001518460a001518560600151965096509650965050505093509350935093565b600054610100900460ff166124d2576040517f08c379a0000000000000000000000000000000000000000000000000000000008152600401610ad490614cd3565b600054610100900460ff16612eda576040517f08c379a0000000000000000000000000000000000000000000000000000000008152600401610ad490614cd3565b609780547fffffffffffffffffffffffffffffffffffffffffffffffffffffffffffffff00169055565b600082815260656020908152604080832073ffffffffffffffffffffffffffffffffffffffff8516845290915290205460ff16610ae757612f4481613312565b612f4f836020613331565b604051602001612f60929190614ce3565b604080517fffffffffffffffffffffffffffffffffffffffffffffffffffffffffffffffe0818403018152908290527f08c379a0000000000000000000000000000000000000000000000000000000008252610ad491600401614d93565b60006611c37937e08000612fdb6207a12063ffffffff8516614da4565b612fef9067ffffffffffffffff8616614db7565b612ff99190614da4565b9392505050565b73ffffffffffffffffffffffffffffffffffffffff81163b61304e576040517f08c379a0000000000000000000000000000000000000000000000000000000008152600401610ad490614e30565b7f360894a13ba1a3210667c828492db98dca3e2076cc3735a920a3ca505d382bbc80547fffffffffffffffffffffffff00000000000000000000000000000000000000001673ffffffffffffffffffffffffffffffffffffffff92909216919091179055565b6130bd83613544565b6000825111806130ca5750805b156109e5576130d98383613591565b50505050565b604080516101208082018352600080835260208301819052828401819052606083018190526080830181905260a0830181905260c0830181905260e08301819052610100830152825190810190925290806131406101a06101808688614e40565b61314991614e70565b63ffffffff1681526020016131646101e06101c08688614e40565b61316d91614e70565b608061317f6101c06101a0888a614e40565b61318891614e70565b901b1781526020016131a06102006101e08688614e40565b6131a991614e70565b81526020016131be6102406102208688614e40565b6131c791614e70565b60806131d9610220610200888a614e40565b6131e291614e70565b901b1781526020016131fa6102806102608688614e40565b61320391614e70565b6080613215610260610240888a614e40565b61321e91614e70565b901b1781526020016132366102c06102a08688614e40565b61323f91614e70565b60806132516102a0610280888a614e40565b61325a91614e70565b901b1781526020016132726102e06102c08688614e40565b61327b91614e70565b73ffffffffffffffffffffffffffffffffffffffff1681526020016132a66103206103008688614e40565b6132af91614e70565b60806132c16103006102e0888a614e40565b6132ca91614e70565b901b1781526020016132e26103606103408688614e40565b6132eb91614e70565b60806132fd610340610320888a614e40565b61330691614e70565b901b1790529392505050565b60606107f773ffffffffffffffffffffffffffffffffffffffff831660145b60606000613340836002614db7565b61334b906002614da4565b67ffffffffffffffff81111561336357613363613a33565b6040519080825280601f01601f19166020018201604052801561338d576020820181803683370190505b5090507f3000000000000000000000000000000000000000000000000000000000000000816000815181106133c4576133c4614eb9565b60200101907effffffffffffffffffffffffffffffffffffffffffffffffffffffffffffff1916908160001a9053507f78000000000000000000000000000000000000000000000000000000000000008160018151811061342757613427614eb9565b60200101907effffffffffffffffffffffffffffffffffffffffffffffffffffffffffffff1916908160001a9053506000613463846002614db7565b61346e906001614da4565b90505b600181111561350b577f303132333435363738396162636465660000000000000000000000000000000085600f16601081106134af576134af614eb9565b1a60f81b8282815181106134c5576134c5614eb9565b60200101907effffffffffffffffffffffffffffffffffffffffffffffffffffffffffffff1916908160001a90535060049490941c9361350481614ee8565b9050613471565b508315612ff9576040517f08c379a0000000000000000000000000000000000000000000000000000000008152600401610ad490614f1d565b61354d81613000565b60405173ffffffffffffffffffffffffffffffffffffffff8216907fbc7cd75a20ee27fd9adebab32041f755214dbc6bffa90cc0225b39da2e5c2d3b90600090a250565b606073ffffffffffffffffffffffffffffffffffffffff83163b6135e1576040517f08c379a0000000000000000000000000000000000000000000000000000000008152600401610ad490614fb1565b6000808473ffffffffffffffffffffffffffffffffffffffff16846040516136099190614807565b600060405180830381855af49150503d8060008114613644576040519150601f19603f3d011682016040523d82523d6000602084013e613649565b606091505b50915091506136718282604051806060016040528060278152602001614fc26027913961367a565b95945050505050565b60608315613689575081612ff9565b612ff9838381511561369e5781518083602001fd5b806040517f08c379a0000000000000000000000000000000000000000000000000000000008152600401610ad49190614d93565b7fffffffff0000000000000000000000000000000000000000000000000000000081165b8114610c4157600080fd5b80356107f7816136d2565b60006020828403121561372157613721600080fd5b600061372d8484613701565b949350505050565b8015155b82525050565b602081016107f78284613735565b600073ffffffffffffffffffffffffffffffffffffffff82166107f7565b6136f68161374d565b80356107f78161376b565b60006020828403121561379457613794600080fd5b600061372d8484613774565b6137398161374d565b602081016107f782846137a0565b806136f6565b80356107f7816137b7565b6000608082840312156137dd576137dd600080fd5b50919050565b67ffffffffffffffff81166136f6565b80356107f7816137e3565b63ffffffff81166136f6565b80356107f7816137fe565b60008060008060008060c0878903121561383157613831600080fd5b600061383d89896137bd565b965050602061384e89828a016137bd565b955050604061385f89828a016137bd565b945050606087013567ffffffffffffffff81111561387f5761387f600080fd5b61388b89828a016137c8565b935050608061389c89828a016137f3565b92505060a06138ad89828a0161380a565b9150509295509295509295565b6000602082840312156138cf576138cf600080fd5b600061372d84846137bd565b7f4e487b7100000000000000000000000000000000000000000000000000000000600052602160045260246000fd5b60038110610c4157610c416138db565b806139248161390a565b919050565b60006107f78261391a565b61373981613929565b63ffffffff8116613739565b80613739565b60ff8116613739565b7fffffffff000000000000000000000000000000000000000000000000000000008116613739565b60e0810161398e828a613934565b61399b602083018961393d565b6139a86040830188613949565b6139b5606083018761394f565b6139c260808301866137a0565b6139cf60a0830185613958565b6139dc60c0830184613949565b98975050505050505050565b602081016107f78284613949565b60008060408385031215613a0c57613a0c600080fd5b6000613a1885856137bd565b9250506020613a2985828601613774565b9150509250929050565b7f4e487b7100000000000000000000000000000000000000000000000000000000600052604160045260246000fd5b7fffffffffffffffffffffffffffffffffffffffffffffffffffffffffffffffe0601f830116810181811067ffffffffffffffff82111715613aa657613aa6613a33565b6040525050565b6000613ab860405190565b90506139248282613a62565b600067ffffffffffffffff821115613ade57613ade613a33565b7fffffffffffffffffffffffffffffffffffffffffffffffffffffffffffffffe0601f83011660200192915050565b82818337506000910152565b6000613b2c613b2784613ac4565b613aad565b905082815260208101848484011115613b4757613b47600080fd5b613b52848285613b0d565b509392505050565b600082601f830112613b6e57613b6e600080fd5b813561372d848260208601613b19565b60008060408385031215613b9457613b94600080fd5b6000613ba08585613774565b925050602083013567ffffffffffffffff811115613bc057613bc0600080fd5b613a2985828601613b5a565b602081016107f7828461393d565b600061032082840312156137dd576137dd600080fd5b60008083601f840112613c0557613c05600080fd5b50813567ffffffffffffffff811115613c2057613c20600080fd5b602083019150836001820283011115613c3b57613c3b600080fd5b9250929050565b60008060006103408486031215613c5b57613c5b600080fd5b6000613c678686613bda565b93505061032084013567ffffffffffffffff811115613c8857613c88600080fd5b613c9486828701613bf0565b92509250509250925092565b600080600080600080600080610100898b031215613cc057613cc0600080fd5b6000613ccc8b8b613774565b9850506020613cdd8b828c01613774565b9750506040613cee8b828c01613774565b9650506060613cff8b828c01613774565b9550506080613d108b828c01613774565b94505060a0613d218b828c0161380a565b93505060c0613d328b828c01613774565b92505060e0613d438b828c01613774565b9150509295985092959890939650565b60008083601f840112613d6857613d68600080fd5b50813567ffffffffffffffff811115613d8357613d83600080fd5b602083019150836020820283011115613c3b57613c3b600080fd5b6000806000806000806000806103a0898b031215613dbe57613dbe600080fd5b6000613dca8b8b613774565b9850506020613ddb8b828c01613bda565b97505061034089013567ffffffffffffffff811115613dfc57613dfc600080fd5b613e088b828c01613d53565b965096505061036089013567ffffffffffffffff811115613e2b57613e2b600080fd5b613e378b828c01613bf0565b945094505061038089013567ffffffffffffffff811115613e5a57613e5a600080fd5b613e668b828c01613bf0565b92509250509295985092959890939650565b6000806000806000806103808789031215613e9557613e95600080fd5b6000613ea18989613bda565b96505061032087013567ffffffffffffffff811115613ec257613ec2600080fd5b613ece89828a01613d53565b955095505061034087013567ffffffffffffffff811115613ef157613ef1600080fd5b613efd89828a01613bf0565b935093505061036087013567ffffffffffffffff811115613f2057613f20600080fd5b6138ad89828a016137c8565b60006102c082840312156137dd576137dd600080fd5b600080600080600080600080610380898b031215613f6257613f62600080fd5b6000613f6e8b8b61380a565b9850506020613f7f8b828c016137bd565b9750506040613f908b828c01613f2c565b96505061030089013567ffffffffffffffff811115613fb157613fb1600080fd5b613fbd8b828c016137c8565b955050610320613fcf8b828c016137f3565b945050610340613fe18b828c0161380a565b93505061036089013567ffffffffffffffff811115613e5a57613e5a600080fd5b60ff81166136f6565b80356107f781614002565b60006080828403121561402b5761402b600080fd5b6140356080613aad565b905060006140438484613774565b825250602061405484848301613701565b60208301525060406140688482850161400b565b604083015250606082013567ffffffffffffffff81111561408b5761408b600080fd5b61409784828501613b5a565b60608301525092915050565b60006107f73683614016565b7f4e487b7100000000000000000000000000000000000000000000000000000000600052601160045260246000fd5b63ffffffff9182169190811690828201908111156107f7576107f76140af565b67ffffffffffffffff8116613739565b6080810161411c828761393d565b6141296020830186613949565b61413660408301856140fe565b613671606083018461393d565b602f81526000602082017f416363657373436f6e74726f6c3a2063616e206f6e6c792072656e6f756e636581527f20726f6c657320666f722073656c660000000000000000000000000000000000602082015291505b5060400190565b602080825281016107f781614143565b602c81526000602082017f46756e6374696f6e206d7573742062652063616c6c6564207468726f7567682081527f64656c656761746563616c6c000000000000000000000000000000000000000060208201529150614199565b602080825281016107f7816141b0565b602c81526000602082017f46756e6374696f6e206d7573742062652063616c6c6564207468726f7567682081527f6163746976652070726f7879000000000000000000000000000000000000000060208201529150614199565b602080825281016107f78161421a565b603881526000602082017f555550535570677261646561626c653a206d757374206e6f742062652063616c81527f6c6564207468726f7567682064656c656761746563616c6c000000000000000060208201529150614199565b602080825281016107f781614284565b602e81526000602082017f496e697469616c697a61626c653a20636f6e747261637420697320616c72656181527f647920696e697469616c697a656400000000000000000000000000000000000060208201529150614199565b602080825281016107f7816142ee565b603381526000602082017f4178696f6d563251756572793a204178696f6d2068656164657220766572696681527f6965722061646472657373206973207a65726f0000000000000000000000000060208201529150614199565b602080825281016107f781614358565b602681526000602082017f4178696f6d563251756572793a2076657269666965722061646472657373206981527f73207a65726f000000000000000000000000000000000000000000000000000060208201529150614199565b602080825281016107f7816143c2565b602981526000602082017f4178696f6d563251756572793a206178696f6d50726f7665722061646472657381527f73206973207a65726f000000000000000000000000000000000000000000000060208201529150614199565b602080825281016107f78161442c565b602e81526000602082017f4178696f6d563251756572793a206178696f6d526573756c7453746f7265206181527f646472657373206973207a65726f00000000000000000000000000000000000060208201529150614199565b602080825281016107f781614496565b603281526000602082017f4178696f6d563251756572793a206178696f6d46656553746f7265416464726581527f73732061646472657373206973207a65726f000000000000000000000000000060208201529150614199565b602080825281016107f781614500565b602681526000602082017f4178696f6d563251756572793a2074696d656c6f636b2061646472657373206981527f73207a65726f000000000000000000000000000000000000000000000000000060208201529150614199565b602080825281016107f78161456a565b602681526000602082017f4178696f6d563251756572793a20677561726469616e2061646472657373206981527f73207a65726f000000000000000000000000000000000000000000000000000060208201529150614199565b602080825281016107f7816145d4565b600060ff82166107f7565b6137398161463e565b602081016107f78284614649565b6000808585111561467357614673600080fd5b8386111561468357614683600080fd5b5050602083020193919092039150565b82818337505050565b6000835b93507f07ffffffffffffffffffffffffffffffffffffffffffffffffffffffffffffff8311156146d2576146d2600080fd5b6020830292506146e3838584614693565b50500190565b600061372d82848661469c565b60006146e3838584613b0d565b600061372d8284866146f6565b6040810161471e8285613949565b612ff960208301846137a0565b8183526000602084016146a0565b818352600060208401935061474f838584613b0d565b7fffffffffffffffffffffffffffffffffffffffffffffffffffffffffffffffe0601f8401165b9093019392505050565b6060810161478e8288613949565b81810360208301526147a181868861472b565b905081810360408301526147b6818486614739565b979650505050505050565b60005b838110156147dc5781810151838201526020016147c4565b50506000910152565b60006147ef825190565b6147fd8185602086016147c1565b9290920192915050565b6000612ff982846147e5565b60006020828403121561482857614828600080fd5b600061372d848461400b565b60008083357fffffffffffffffffffffffffffffffffffffffffffffffffffffffffffffffe13685900301811261486d5761486d600080fd5b80840192508235915067ffffffffffffffff82111561488e5761488e600080fd5b6020830192506001820236038313156148a9576148a9600080fd5b509250929050565b60006107f78260f81b90565b61373960ff82166148b1565b60006107f78260e01b90565b61373963ffffffff82166148c9565b610ae76101408383614693565b60006148fd828a6148bd565b60018201915061490d82896148d5565b60048201915061491d8288613949565b60208201915061492d82876148bd565b60018201915061493d8286613949565b60208201915061494d82856148e4565b6101408201915061495e82846148e4565b5061014001979650505050505050565b600061497a82866148bd565b60018201915061498a8285613949565b60208201915061499a82846148e4565b50610140019392505050565b606081016149b4828661393d565b6149c160208301856140fe565b61372d604083018461393d565b606081016149dc82866137a0565b6149e96020830185613949565b61372d6040830184613949565b80516107f7816137b7565b600060208284031215614a1657614a16600080fd5b600061372d84846149f6565b602e81526000602082017f45524331393637557067726164653a206e657720696d706c656d656e7461746981527f6f6e206973206e6f74205555505300000000000000000000000000000000000060208201529150614199565b602080825281016107f781614a22565b602981526000602082017f45524331393637557067726164653a20756e737570706f727465642070726f7881527f6961626c6555554944000000000000000000000000000000000000000000000060208201529150614199565b602080825281016107f781614a8c565b6000612ff960208401846137bd565b6000612ff9602084018461380a565b6103208201614b238280614af6565b614b2d8482613949565b50614b3b6020830183614af6565b614b486020850182613949565b50614b566040830183614b05565b614b63604085018261393d565b50614b716060830183614b05565b614b7e606085018261393d565b5060808201614b9060808501826148e4565b506101c08201614ba46101c08501826148e4565b50614bb3610300830183614b05565b6130d961030085018261393d565b6103608101614bd08286613949565b614bdd6020830185613949565b61372d6040830184614b14565b80516107f7816137fe565b600060208284031215614c0a57614c0a600080fd5b600061372d8484614bea565b6000614c2282876148d5565b600482019150614c328286613949565b602082019150614c428285613949565b602082019150614c528284613949565b50602001949350505050565b60408101614c6c8285613949565b612ff96020830184613949565b602b81526000602082017f496e697469616c697a61626c653a20636f6e7472616374206973206e6f74206981527f6e697469616c697a696e6700000000000000000000000000000000000000000060208201529150614199565b602080825281016107f781614c79565b7f416363657373436f6e74726f6c3a206163636f756e742000000000000000000081526017016000614d1582856147e5565b7f206973206d697373696e6720726f6c65200000000000000000000000000000008152601101915061372d82846147e5565b6000614d51825190565b808452602084019350614d688185602086016147c1565b7fffffffffffffffffffffffffffffffffffffffffffffffffffffffffffffffe0601f820116614776565b60208082528101612ff98184614d47565b808201808211156107f7576107f76140af565b818102808215838204851417614dcf57614dcf6140af565b5092915050565b602d81526000602082017f455243313936373a206e657720696d706c656d656e746174696f6e206973206e81527f6f74206120636f6e74726163740000000000000000000000000000000000000060208201529150614199565b602080825281016107f781614dd6565b60008085851115614e5357614e53600080fd5b83861115614e6357614e63600080fd5b5050820193919092039150565b803582826020821015614eb157614eac7fffffffffffffffffffffffffffffffffffffffffffffffffffffffffffffffff836020036008021b90565b831692505b505092915050565b7f4e487b7100000000000000000000000000000000000000000000000000000000600052603260045260246000fd5b600081614ef757614ef76140af565b507fffffffffffffffffffffffffffffffffffffffffffffffffffffffffffffffff0190565b60208082528181019081527f537472696e67733a20686578206c656e67746820696e73756666696369656e746040830152606082016107f7565b602681526000602082017f416464726573733a2064656c65676174652063616c6c20746f206e6f6e2d636f81527f6e7472616374000000000000000000000000000000000000000000000000000060208201529150614199565b602080825281016107f781614f5756fe416464726573733a206c6f772d6c6576656c2064656c65676174652063616c6c206661696c6564a26469706673582212206aa2c3ab2994b0f2f530dd27e70e2421914bf56d64889843275e4a081b43f18964736f6c63430008130033",
    "linkReferences": {}
  },
  "methodIdentifiers": {
    "DEFAULT_ADMIN_ROLE()": "a217fddf",
    "GUARDIAN_ROLE()": "24ea54f4",
    "PROVER_ROLE()": "dc9a4ef6",
    "TIMELOCK_ROLE()": "f288a2e2",
    "axiomFeeStoreAddress()": "beaa0ebd",
    "axiomHeaderVerifierAddress()": "469b2362",
    "axiomProverAddress()": "b6ed0388",
    "axiomResultStoreAddress()": "d3046ea6",
    "freezeAll()": "99464c89",
    "frozen()": "054f7d9c",
    "fulfillOffchainQuery((bytes32,bytes32,uint32,uint32,bytes32[10],bytes32[10],uint32),bytes32[],bytes,(address,bytes4,uint8,bytes))": "e2069efe",
    "fulfillQuery(address,(bytes32,bytes32,uint32,uint32,bytes32[10],bytes32[10],uint32),bytes32[],bytes,bytes)": "a660c031",
    "getRoleAdmin(bytes32)": "248a9ca3",
    "grantRole(bytes32,address)": "2f2ff15d",
    "hasRole(bytes32,address)": "91d14854",
    "initialize(address,address,address,address,address,uint32,address,address)": "8a8cc0ec",
    "proxiableUUID()": "52d1902d",
    "queries(bytes32)": "21dfb600",
    "queryDeadlineInterval()": "79ce0468",
    "refundQuery(bytes32)": "c15dcf40",
    "renounceRole(bytes32,address)": "36568abe",
    "revokeRole(bytes32,address)": "d547741f",
    "sendOffchainQuery(bytes32,bytes32,bytes32,(address,bytes4,uint8,bytes),uint64,uint32)": "21608139",
    "sendQuery(uint32,bytes32,(uint8,uint256,bytes32[10],bytes32[10]),(address,bytes4,uint8,bytes),uint64,uint32,bytes)": "ec837c1e",
    "supportsInterface(bytes4)": "01ffc9a7",
    "unfreezeAll()": "66c5c4a0",
    "updateAxiomFeeStore(address)": "07c11e79",
    "updateAxiomHeaderVerifierAddress(address)": "3237c2fd",
    "updateAxiomProverAddress(address)": "e166cdbd",
    "updateVerifierAddress(address)": "736f1618",
    "upgradeTo(address)": "3659cfe6",
    "upgradeToAndCall(address,bytes)": "4f1ef286",
    "verifierAddress()": "18bdffbb",
    "verifyAndWriteResult((bytes32,bytes32,uint32,uint32,bytes32[10],bytes32[10],uint32),bytes)": "898091e0"
  },
  "id": 10
}