{
  "abi": [
    {
      "inputs": [],
      "stateMutability": "nonpayable",
      "type": "constructor"
    },
    {
      "inputs": [],
      "name": "BlockHashNotValidatedInCache",
      "type": "error"
    },
    {
      "inputs": [],
      "name": "BlockHashWitnessNotRecent",
      "type": "error"
    },
    {
      "inputs": [],
      "name": "BlockMerkleRootDoesNotMatchProof",
      "type": "error"
    },
    {
      "inputs": [],
      "name": "CannotFulfillIfNotActive",
      "type": "error"
    },
    {
      "inputs": [],
      "name": "CannotRefundBeforeDeadline",
      "type": "error"
    },
    {
      "inputs": [],
      "name": "CannotRefundIfNotActive",
      "type": "error"
    },
    {
      "inputs": [],
      "name": "ClaimedMMRDoesNotMatchRecent",
      "type": "error"
    },
    {
      "inputs": [],
      "name": "ContractIsFrozen",
      "type": "error"
    },
    {
      "inputs": [],
      "name": "HistoricalMMRKeccakDoesNotMatchProof",
      "type": "error"
    },
    {
      "inputs": [],
      "name": "KeccakQueryResponseDoesNotMatchProof",
      "type": "error"
    },
    {
      "inputs": [],
      "name": "MMREndBlockNotRecent",
      "type": "error"
    },
    {
      "inputs": [],
      "name": "MMRProofVerificationFailed",
      "type": "error"
    },
    {
      "inputs": [],
      "name": "NotProverRole",
      "type": "error"
    },
    {
      "inputs": [],
      "name": "PriceNotPaid",
      "type": "error"
    },
    {
      "inputs": [],
      "name": "PriceTooHigh",
      "type": "error"
    },
    {
      "inputs": [],
      "name": "ProofVerificationFailed",
      "type": "error"
    },
    {
      "inputs": [],
      "name": "QueryNotInactive",
      "type": "error"
    },
    {
      "anonymous": false,
      "inputs": [
        {
          "indexed": false,
          "internalType": "address",
          "name": "previousAdmin",
          "type": "address"
        },
        {
          "indexed": false,
          "internalType": "address",
          "name": "newAdmin",
          "type": "address"
        }
      ],
      "name": "AdminChanged",
      "type": "event"
    },
    {
      "anonymous": false,
      "inputs": [
        {
          "indexed": true,
          "internalType": "address",
          "name": "beacon",
          "type": "address"
        }
      ],
      "name": "BeaconUpgraded",
      "type": "event"
    },
    {
      "anonymous": false,
      "inputs": [],
      "name": "FreezeAll",
      "type": "event"
    },
    {
      "anonymous": false,
      "inputs": [
        {
          "indexed": false,
          "internalType": "uint8",
          "name": "version",
          "type": "uint8"
        }
      ],
      "name": "Initialized",
      "type": "event"
    },
    {
      "anonymous": false,
      "inputs": [
        {
          "indexed": false,
          "internalType": "bytes32",
          "name": "keccakBlockResponse",
          "type": "bytes32"
        },
        {
          "indexed": false,
          "internalType": "bytes32",
          "name": "keccakAccountResponse",
          "type": "bytes32"
        },
        {
          "indexed": false,
          "internalType": "bytes32",
          "name": "keccakStorageResponse",
          "type": "bytes32"
        }
      ],
      "name": "KeccakResultEvent",
      "type": "event"
    },
    {
      "anonymous": false,
      "inputs": [
        {
          "indexed": false,
          "internalType": "bytes32",
          "name": "poseidonBlockResponse",
          "type": "bytes32"
        },
        {
          "indexed": false,
          "internalType": "bytes32",
          "name": "poseidonAccountResponse",
          "type": "bytes32"
        },
        {
          "indexed": false,
          "internalType": "bytes32",
          "name": "poseidonStorageResponse",
          "type": "bytes32"
        }
      ],
      "name": "PoseidonResultEvent",
      "type": "event"
    },
    {
      "anonymous": false,
      "inputs": [
        {
          "indexed": false,
          "internalType": "bytes32",
          "name": "keccakQueryResponse",
          "type": "bytes32"
        },
        {
          "indexed": false,
          "internalType": "uint256",
          "name": "payment",
          "type": "uint256"
        },
        {
          "indexed": false,
          "internalType": "address",
          "name": "prover",
          "type": "address"
        }
      ],
      "name": "QueryFulfilled",
      "type": "event"
    },
    {
      "anonymous": false,
      "inputs": [
        {
          "indexed": false,
          "internalType": "bytes32",
          "name": "keccakQueryResponse",
          "type": "bytes32"
        },
        {
          "indexed": false,
          "internalType": "uint256",
          "name": "payment",
          "type": "uint256"
        },
        {
          "indexed": false,
          "internalType": "uint32",
          "name": "deadlineBlockNumber",
          "type": "uint32"
        },
        {
          "indexed": false,
          "internalType": "address",
          "name": "refundee",
          "type": "address"
        },
        {
          "indexed": false,
          "internalType": "bytes32",
          "name": "ipfsHash",
          "type": "bytes32"
        }
      ],
      "name": "QueryInitiatedOffchain",
      "type": "event"
    },
    {
      "anonymous": false,
      "inputs": [
        {
          "indexed": false,
          "internalType": "bytes32",
          "name": "keccakQueryResponse",
          "type": "bytes32"
        },
        {
          "indexed": false,
          "internalType": "uint256",
          "name": "payment",
          "type": "uint256"
        },
        {
          "indexed": false,
          "internalType": "uint32",
          "name": "deadlineBlockNumber",
          "type": "uint32"
        },
        {
          "indexed": false,
          "internalType": "address",
          "name": "refundee",
          "type": "address"
        },
        {
          "indexed": false,
          "internalType": "bytes32",
          "name": "queryHash",
          "type": "bytes32"
        }
      ],
      "name": "QueryInitiatedOnchain",
      "type": "event"
    },
    {
      "anonymous": false,
      "inputs": [
        {
          "indexed": false,
          "internalType": "bytes32",
          "name": "keccakQueryResponse",
          "type": "bytes32"
        },
        {
          "indexed": false,
          "internalType": "uint256",
          "name": "payment",
          "type": "uint256"
        },
        {
          "indexed": false,
          "internalType": "uint32",
          "name": "deadlineBlockNumber",
          "type": "uint32"
        },
        {
          "indexed": false,
          "internalType": "address",
          "name": "refundee",
          "type": "address"
        }
      ],
      "name": "QueryRefunded",
      "type": "event"
    },
    {
      "anonymous": false,
      "inputs": [
        {
          "indexed": true,
          "internalType": "bytes32",
          "name": "role",
          "type": "bytes32"
        },
        {
          "indexed": true,
          "internalType": "bytes32",
          "name": "previousAdminRole",
          "type": "bytes32"
        },
        {
          "indexed": true,
          "internalType": "bytes32",
          "name": "newAdminRole",
          "type": "bytes32"
        }
      ],
      "name": "RoleAdminChanged",
      "type": "event"
    },
    {
      "anonymous": false,
      "inputs": [
        {
          "indexed": true,
          "internalType": "bytes32",
          "name": "role",
          "type": "bytes32"
        },
        {
          "indexed": true,
          "internalType": "address",
          "name": "account",
          "type": "address"
        },
        {
          "indexed": true,
          "internalType": "address",
          "name": "sender",
          "type": "address"
        }
      ],
      "name": "RoleGranted",
      "type": "event"
    },
    {
      "anonymous": false,
      "inputs": [
        {
          "indexed": true,
          "internalType": "bytes32",
          "name": "role",
          "type": "bytes32"
        },
        {
          "indexed": true,
          "internalType": "address",
          "name": "account",
          "type": "address"
        },
        {
          "indexed": true,
          "internalType": "address",
          "name": "sender",
          "type": "address"
        }
      ],
      "name": "RoleRevoked",
      "type": "event"
    },
    {
      "anonymous": false,
      "inputs": [],
      "name": "UnfreezeAll",
      "type": "event"
    },
    {
      "anonymous": false,
      "inputs": [
        {
          "indexed": false,
          "internalType": "address",
          "name": "newAddress",
          "type": "address"
        }
      ],
      "name": "UpdateAxiomAddress",
      "type": "event"
    },
    {
      "anonymous": false,
      "inputs": [
        {
          "indexed": false,
          "internalType": "address",
          "name": "newAddress",
          "type": "address"
        }
      ],
      "name": "UpdateMMRVerifierAddress",
      "type": "event"
    },
    {
      "anonymous": false,
      "inputs": [
        {
          "indexed": false,
          "internalType": "uint256",
          "name": "maxQueryPrice",
          "type": "uint256"
        }
      ],
      "name": "UpdateMaxQueryPrice",
      "type": "event"
    },
    {
      "anonymous": false,
      "inputs": [
        {
          "indexed": false,
          "internalType": "uint256",
          "name": "minQueryPrice",
          "type": "uint256"
        }
      ],
      "name": "UpdateMinQueryPrice",
      "type": "event"
    },
    {
      "anonymous": false,
      "inputs": [
        {
          "indexed": false,
          "internalType": "uint32",
          "name": "queryDeadlineInterval",
          "type": "uint32"
        }
      ],
      "name": "UpdateQueryDeadlineInterval",
      "type": "event"
    },
    {
      "anonymous": false,
      "inputs": [
        {
          "indexed": true,
          "internalType": "address",
          "name": "implementation",
          "type": "address"
        }
      ],
      "name": "Upgraded",
      "type": "event"
    },
    {
      "inputs": [],
      "name": "DEFAULT_ADMIN_ROLE",
      "outputs": [
        {
          "internalType": "bytes32",
          "name": "",
          "type": "bytes32"
        }
      ],
      "stateMutability": "view",
      "type": "function"
    },
    {
      "inputs": [],
      "name": "GUARDIAN_ROLE",
      "outputs": [
        {
          "internalType": "bytes32",
          "name": "",
          "type": "bytes32"
        }
      ],
      "stateMutability": "view",
      "type": "function"
    },
    {
      "inputs": [],
      "name": "PROVER_ROLE",
      "outputs": [
        {
          "internalType": "bytes32",
          "name": "",
          "type": "bytes32"
        }
      ],
      "stateMutability": "view",
      "type": "function"
    },
    {
      "inputs": [],
      "name": "TIMELOCK_ROLE",
      "outputs": [
        {
          "internalType": "bytes32",
          "name": "",
          "type": "bytes32"
        }
      ],
      "stateMutability": "view",
      "type": "function"
    },
    {
      "inputs": [
        {
          "internalType": "bytes32",
          "name": "keccakBlockResponse",
          "type": "bytes32"
        },
        {
          "internalType": "bytes32",
          "name": "keccakAccountResponse",
          "type": "bytes32"
        },
        {
          "internalType": "bytes32",
          "name": "keccakStorageResponse",
          "type": "bytes32"
        },
        {
          "components": [
            {
              "internalType": "uint32",
              "name": "blockNumber",
              "type": "uint32"
            },
            {
              "internalType": "bytes32",
              "name": "blockHash",
              "type": "bytes32"
            },
            {
              "internalType": "uint32",
              "name": "leafIdx",
              "type": "uint32"
            },
            {
              "internalType": "bytes32[6]",
              "name": "proof",
              "type": "bytes32[6]"
            }
          ],
          "internalType": "struct IAxiomV1Query.BlockResponse[]",
          "name": "blockResponses",
          "type": "tuple[]"
        },
        {
          "components": [
            {
              "internalType": "uint32",
              "name": "blockNumber",
              "type": "uint32"
            },
            {
              "internalType": "address",
              "name": "addr",
              "type": "address"
            },
            {
              "internalType": "uint64",
              "name": "nonce",
              "type": "uint64"
            },
            {
              "internalType": "uint96",
              "name": "balance",
              "type": "uint96"
            },
            {
              "internalType": "bytes32",
              "name": "storageRoot",
              "type": "bytes32"
            },
            {
              "internalType": "bytes32",
              "name": "codeHash",
              "type": "bytes32"
            },
            {
              "internalType": "uint32",
              "name": "leafIdx",
              "type": "uint32"
            },
            {
              "internalType": "bytes32[6]",
              "name": "proof",
              "type": "bytes32[6]"
            }
          ],
          "internalType": "struct IAxiomV1Query.AccountResponse[]",
          "name": "accountResponses",
          "type": "tuple[]"
        },
        {
          "components": [
            {
              "internalType": "uint32",
              "name": "blockNumber",
              "type": "uint32"
            },
            {
              "internalType": "address",
              "name": "addr",
              "type": "address"
            },
            {
              "internalType": "uint256",
              "name": "slot",
              "type": "uint256"
            },
            {
              "internalType": "uint256",
              "name": "value",
              "type": "uint256"
            },
            {
              "internalType": "uint32",
              "name": "leafIdx",
              "type": "uint32"
            },
            {
              "internalType": "bytes32[6]",
              "name": "proof",
              "type": "bytes32[6]"
            }
          ],
          "internalType": "struct IAxiomV1Query.StorageResponse[]",
          "name": "storageResponses",
          "type": "tuple[]"
        }
      ],
      "name": "areResponsesValid",
      "outputs": [
        {
          "internalType": "bool",
          "name": "",
          "type": "bool"
        }
      ],
      "stateMutability": "view",
      "type": "function"
    },
    {
      "inputs": [],
      "name": "axiomAddress",
      "outputs": [
        {
          "internalType": "address",
          "name": "",
          "type": "address"
        }
      ],
      "stateMutability": "view",
      "type": "function"
    },
    {
      "inputs": [
        {
          "internalType": "bytes32",
          "name": "keccakQueryResponse",
          "type": "bytes32"
        }
      ],
      "name": "collectRefund",
      "outputs": [],
      "stateMutability": "nonpayable",
      "type": "function"
    },
    {
      "inputs": [],
      "name": "freezeAll",
      "outputs": [],
      "stateMutability": "nonpayable",
      "type": "function"
    },
    {
      "inputs": [],
      "name": "frozen",
      "outputs": [
        {
          "internalType": "bool",
          "name": "",
          "type": "bool"
        }
      ],
      "stateMutability": "view",
      "type": "function"
    },
    {
      "inputs": [
        {
          "internalType": "bytes32",
          "name": "keccakQueryResponse",
          "type": "bytes32"
        },
        {
          "internalType": "address payable",
          "name": "payee",
          "type": "address"
        },
        {
          "internalType": "uint32",
          "name": "mmrIdx",
          "type": "uint32"
        },
        {
          "components": [
            {
              "internalType": "bytes32",
              "name": "prevHash",
              "type": "bytes32"
            },
            {
              "internalType": "bytes32",
              "name": "root",
              "type": "bytes32"
            },
            {
              "internalType": "uint32",
              "name": "numFinal",
              "type": "uint32"
            },
            {
              "internalType": "uint32",
              "name": "startBlockNumber",
              "type": "uint32"
            },
            {
              "internalType": "bytes32[10]",
              "name": "recentMMRPeaks",
              "type": "bytes32[10]"
            },
            {
              "internalType": "bytes32[10]",
              "name": "mmrComplementOrPeaks",
              "type": "bytes32[10]"
            }
          ],
          "internalType": "struct IAxiomV1Query.RecentMMRWitness",
          "name": "mmrWitness",
          "type": "tuple"
        },
        {
          "internalType": "bytes",
          "name": "proof",
          "type": "bytes"
        }
      ],
      "name": "fulfillQueryVsMMR",
      "outputs": [],
      "stateMutability": "nonpayable",
      "type": "function"
    },
    {
      "inputs": [
        {
          "internalType": "bytes32",
          "name": "role",
          "type": "bytes32"
        }
      ],
      "name": "getRoleAdmin",
      "outputs": [
        {
          "internalType": "bytes32",
          "name": "",
          "type": "bytes32"
        }
      ],
      "stateMutability": "view",
      "type": "function"
    },
    {
      "inputs": [
        {
          "internalType": "bytes32",
          "name": "role",
          "type": "bytes32"
        },
        {
          "internalType": "address",
          "name": "account",
          "type": "address"
        }
      ],
      "name": "grantRole",
      "outputs": [],
      "stateMutability": "nonpayable",
      "type": "function"
    },
    {
      "inputs": [
        {
          "internalType": "bytes32",
          "name": "role",
          "type": "bytes32"
        },
        {
          "internalType": "address",
          "name": "account",
          "type": "address"
        }
      ],
      "name": "hasRole",
      "outputs": [
        {
          "internalType": "bool",
          "name": "",
          "type": "bool"
        }
      ],
      "stateMutability": "view",
      "type": "function"
    },
    {
      "inputs": [
        {
          "internalType": "address",
          "name": "_axiomAddress",
          "type": "address"
        },
        {
          "internalType": "address",
          "name": "_mmrVerifierAddress",
          "type": "address"
        },
        {
          "internalType": "uint256",
          "name": "_minQueryPrice",
          "type": "uint256"
        },
        {
          "internalType": "uint256",
          "name": "_maxQueryPrice",
          "type": "uint256"
        },
        {
          "internalType": "uint32",
          "name": "_queryDeadlineInterval",
          "type": "uint32"
        },
        {
          "internalType": "address",
          "name": "timelock",
          "type": "address"
        },
        {
          "internalType": "address",
          "name": "guardian",
          "type": "address"
        }
      ],
      "name": "initialize",
      "outputs": [],
      "stateMutability": "nonpayable",
      "type": "function"
    },
    {
      "inputs": [
        {
          "internalType": "bytes32",
          "name": "keccakBlockResponse",
          "type": "bytes32"
        },
        {
          "internalType": "bytes32",
          "name": "keccakAccountResponse",
          "type": "bytes32"
        },
        {
          "internalType": "bytes32",
          "name": "keccakStorageResponse",
          "type": "bytes32"
        }
      ],
      "name": "isKeccakResultValid",
      "outputs": [
        {
          "internalType": "bool",
          "name": "",
          "type": "bool"
        }
      ],
      "stateMutability": "view",
      "type": "function"
    },
    {
      "inputs": [
        {
          "internalType": "bytes32",
          "name": "poseidonBlockResponse",
          "type": "bytes32"
        },
        {
          "internalType": "bytes32",
          "name": "poseidonAccountResponse",
          "type": "bytes32"
        },
        {
          "internalType": "bytes32",
          "name": "poseidonStorageResponse",
          "type": "bytes32"
        }
      ],
      "name": "isPoseidonResultValid",
      "outputs": [
        {
          "internalType": "bool",
          "name": "",
          "type": "bool"
        }
      ],
      "stateMutability": "view",
      "type": "function"
    },
    {
      "inputs": [],
      "name": "maxQueryPrice",
      "outputs": [
        {
          "internalType": "uint256",
          "name": "",
          "type": "uint256"
        }
      ],
      "stateMutability": "view",
      "type": "function"
    },
    {
      "inputs": [],
      "name": "minQueryPrice",
      "outputs": [
        {
          "internalType": "uint256",
          "name": "",
          "type": "uint256"
        }
      ],
      "stateMutability": "view",
      "type": "function"
    },
    {
      "inputs": [],
      "name": "mmrVerifierAddress",
      "outputs": [
        {
          "internalType": "address",
          "name": "",
          "type": "address"
        }
      ],
      "stateMutability": "view",
      "type": "function"
    },
    {
      "inputs": [],
      "name": "proxiableUUID",
      "outputs": [
        {
          "internalType": "bytes32",
          "name": "",
          "type": "bytes32"
        }
      ],
      "stateMutability": "view",
      "type": "function"
    },
    {
      "inputs": [
        {
          "internalType": "bytes32",
          "name": "",
          "type": "bytes32"
        }
      ],
      "name": "queries",
      "outputs": [
        {
          "internalType": "uint256",
          "name": "payment",
          "type": "uint256"
        },
        {
          "internalType": "enum IAxiomV1Query.AxiomQueryState",
          "name": "state",
          "type": "uint8"
        },
        {
          "internalType": "uint32",
          "name": "deadlineBlockNumber",
          "type": "uint32"
        },
        {
          "internalType": "address payable",
          "name": "refundee",
          "type": "address"
        }
      ],
      "stateMutability": "view",
      "type": "function"
    },
    {
      "inputs": [],
      "name": "queryDeadlineInterval",
      "outputs": [
        {
          "internalType": "uint32",
          "name": "",
          "type": "uint32"
        }
      ],
      "stateMutability": "view",
      "type": "function"
    },
    {
      "inputs": [
        {
          "internalType": "bytes32",
          "name": "role",
          "type": "bytes32"
        },
        {
          "internalType": "address",
          "name": "account",
          "type": "address"
        }
      ],
      "name": "renounceRole",
      "outputs": [],
      "stateMutability": "nonpayable",
      "type": "function"
    },
    {
      "inputs": [
        {
          "internalType": "bytes32",
          "name": "role",
          "type": "bytes32"
        },
        {
          "internalType": "address",
          "name": "account",
          "type": "address"
        }
      ],
      "name": "revokeRole",
      "outputs": [],
      "stateMutability": "nonpayable",
      "type": "function"
    },
    {
      "inputs": [
        {
          "internalType": "bytes32",
          "name": "keccakQueryResponse",
          "type": "bytes32"
        },
        {
          "internalType": "address payable",
          "name": "refundee",
          "type": "address"
        },
        {
          "internalType": "bytes32",
          "name": "ipfsHash",
          "type": "bytes32"
        }
      ],
      "name": "sendOffchainQuery",
      "outputs": [],
      "stateMutability": "payable",
      "type": "function"
    },
    {
      "inputs": [
        {
          "internalType": "bytes32",
          "name": "keccakQueryResponse",
          "type": "bytes32"
        },
        {
          "internalType": "address payable",
          "name": "refundee",
          "type": "address"
        },
        {
          "internalType": "bytes",
          "name": "query",
          "type": "bytes"
        }
      ],
      "name": "sendQuery",
      "outputs": [],
      "stateMutability": "payable",
      "type": "function"
    },
    {
      "inputs": [
        {
          "internalType": "bytes4",
          "name": "interfaceId",
          "type": "bytes4"
        }
      ],
      "name": "supportsInterface",
      "outputs": [
        {
          "internalType": "bool",
          "name": "",
          "type": "bool"
        }
      ],
      "stateMutability": "view",
      "type": "function"
    },
    {
      "inputs": [],
      "name": "unfreezeAll",
      "outputs": [],
      "stateMutability": "nonpayable",
      "type": "function"
    },
    {
      "inputs": [
        {
          "internalType": "address",
          "name": "_axiomAddress",
          "type": "address"
        }
      ],
      "name": "updateAxiomAddress",
      "outputs": [],
      "stateMutability": "nonpayable",
      "type": "function"
    },
    {
      "inputs": [
        {
          "internalType": "address",
          "name": "_mmrVerifierAddress",
          "type": "address"
        }
      ],
      "name": "updateMMRVerifierAddress",
      "outputs": [],
      "stateMutability": "nonpayable",
      "type": "function"
    },
    {
      "inputs": [
        {
          "internalType": "uint256",
          "name": "_maxQueryPrice",
          "type": "uint256"
        }
      ],
      "name": "updateMaxQueryPrice",
      "outputs": [],
      "stateMutability": "nonpayable",
      "type": "function"
    },
    {
      "inputs": [
        {
          "internalType": "uint256",
          "name": "_minQueryPrice",
          "type": "uint256"
        }
      ],
      "name": "updateMinQueryPrice",
      "outputs": [],
      "stateMutability": "nonpayable",
      "type": "function"
    },
    {
      "inputs": [
        {
          "internalType": "uint32",
          "name": "_queryDeadlineInterval",
          "type": "uint32"
        }
      ],
      "name": "updateQueryDeadlineInterval",
      "outputs": [],
      "stateMutability": "nonpayable",
      "type": "function"
    },
    {
      "inputs": [
        {
          "internalType": "address",
          "name": "newImplementation",
          "type": "address"
        }
      ],
      "name": "upgradeTo",
      "outputs": [],
      "stateMutability": "nonpayable",
      "type": "function"
    },
    {
      "inputs": [
        {
          "internalType": "address",
          "name": "newImplementation",
          "type": "address"
        },
        {
          "internalType": "bytes",
          "name": "data",
          "type": "bytes"
        }
      ],
      "name": "upgradeToAndCall",
      "outputs": [],
      "stateMutability": "payable",
      "type": "function"
    },
    {
      "inputs": [
        {
          "internalType": "bytes32",
          "name": "",
          "type": "bytes32"
        }
      ],
      "name": "verifiedKeccakResults",
      "outputs": [
        {
          "internalType": "bool",
          "name": "",
          "type": "bool"
        }
      ],
      "stateMutability": "view",
      "type": "function"
    },
    {
      "inputs": [
        {
          "internalType": "bytes32",
          "name": "",
          "type": "bytes32"
        }
      ],
      "name": "verifiedPoseidonResults",
      "outputs": [
        {
          "internalType": "bool",
          "name": "",
          "type": "bool"
        }
      ],
      "stateMutability": "view",
      "type": "function"
    },
    {
      "inputs": [
        {
          "internalType": "uint32",
          "name": "mmrIdx",
          "type": "uint32"
        },
        {
          "components": [
            {
              "internalType": "bytes32",
              "name": "prevHash",
              "type": "bytes32"
            },
            {
              "internalType": "bytes32",
              "name": "root",
              "type": "bytes32"
            },
            {
              "internalType": "uint32",
              "name": "numFinal",
              "type": "uint32"
            },
            {
              "internalType": "uint32",
              "name": "startBlockNumber",
              "type": "uint32"
            },
            {
              "internalType": "bytes32[10]",
              "name": "recentMMRPeaks",
              "type": "bytes32[10]"
            },
            {
              "internalType": "bytes32[10]",
              "name": "mmrComplementOrPeaks",
              "type": "bytes32[10]"
            }
          ],
          "internalType": "struct IAxiomV1Query.RecentMMRWitness",
          "name": "mmrWitness",
          "type": "tuple"
        },
        {
          "internalType": "bytes",
          "name": "proof",
          "type": "bytes"
        }
      ],
      "name": "verifyResultVsMMR",
      "outputs": [],
      "stateMutability": "nonpayable",
      "type": "function"
    }
  ],
  "bytecode": {
    "object": "0x60a0604052306080523480156200001557600080fd5b506200002062000026565b62000164565b600054610100900460ff161562000074576040517f08c379a00000000000000000000000000000000000000000000000000000000081526004016200006b90620000ec565b60405180910390fd5b60005460ff9081161015620000ea57600080547fffffffffffffffffffffffffffffffffffffffffffffffffffffffffffffff001660ff9081179091556040517f7f26b83ff96e1f2b6a682f133852f6798a09c465da95921460cefb384740249891620000e19162000154565b60405180910390a15b565b602080825281016200014e81602781527f496e697469616c697a61626c653a20636f6e747261637420697320696e69746960208201527f616c697a696e6700000000000000000000000000000000000000000000000000604082015260600190565b92915050565b60ff82168152602081016200014e565b60805161579b6200019c60003960008181610aa401528181610afe01528181610bfd01528181610c570152610d46015261579b6000f3fe6080604052600436106102855760003560e01c8063774a623411610153578063a217fddf116100cb578063d77de0791161007f578063df7e2e2d11610064578063df7e2e2d146107b2578063e741ad80146107c9578063f288a2e2146107fa57600080fd5b8063d77de0791461075e578063dc9a4ef61461077e57600080fd5b8063b691943f116100b0578063b691943f146106f0578063d35a584414610710578063d547741f1461073e57600080fd5b8063a217fddf146106c4578063b1d401cd146106d957600080fd5b8063898b8a1a1161012257806391d148541161010757806391d14854146106495780639755b1fc1461069c57806399464c89146106af57600080fd5b8063898b8a1a146106095780638b4acf281461062957600080fd5b8063774a62341461057e578063798da01a1461059e57806379ce0468146105be578063878bab8c146105e957600080fd5b80633659cfe6116102015780635eac0e23116101b557806366c5c4a01161019a57806366c5c4a0146105295780636ec59b3f1461053e57806375a09b091461055e57600080fd5b80635eac0e23146104d85780636439e9d41461050957600080fd5b8063528bad37116101e6578063528bad371461046857806352d1902d146104a3578063560aa8cd146104b857600080fd5b80633659cfe6146104355780634f1ef2861461045557600080fd5b8063248a9ca3116102585780632f2ff15d1161023d5780632f2ff15d146103e257806332c4cda21461040257806336568abe1461041557600080fd5b8063248a9ca31461037157806324ea54f4146103ae57600080fd5b806301f8fca41461028a57806301ffc9a7146102ac578063054f7d9c146102e257806321dfb600146102fc575b600080fd5b34801561029657600080fd5b506102aa6102a536600461402b565b61082e565b005b3480156102b857600080fd5b506102cc6102c736600461407f565b61089a565b6040516102d991906140aa565b60405180910390f35b3480156102ee57600080fd5b506097546102cc9060ff1681565b34801561030857600080fd5b5061036161031736600461402b565b61012b602052600090815260409020805460019091015460ff811690610100810463ffffffff169065010000000000900473ffffffffffffffffffffffffffffffffffffffff1684565b6040516102d99493929190614153565b34801561037d57600080fd5b506103a161038c36600461402b565b60009081526065602052604090206001015490565b6040516102d99190614188565b3480156103ba57600080fd5b506103a17f55435dd261a4b9b3364963f7738a7a662ad9c84396d64be3365284bb7f0a504181565b3480156103ee57600080fd5b506102aa6103fd3660046141aa565b6108f6565b6102aa610410366004614239565b610920565b34801561042157600080fd5b506102aa6104303660046141aa565b610a27565b34801561044157600080fd5b506102aa6104503660046142a7565b610a8d565b6102aa610463366004614413565b610be6565b34801561047457600080fd5b50610124546104969073ffffffffffffffffffffffffffffffffffffffff1681565b6040516102d99190614461565b3480156104af57600080fd5b506103a1610d2c565b3480156104c457600080fd5b506102cc6104d336600461446f565b610dc2565b3480156104e457600080fd5b506102cc6104f336600461402b565b6101266020526000908152604090205460ff1681565b34801561051557600080fd5b506102cc6105243660046145a3565b610e2f565b34801561053557600080fd5b506102aa611384565b34801561054a57600080fd5b506102aa6105593660046142a7565b611402565b34801561056a57600080fd5b506102aa6105793660046146bf565b61149d565b34801561058a57600080fd5b506102aa6105993660046142a7565b611578565b3480156105aa57600080fd5b506102aa6105b936600461402b565b611613565b3480156105ca57600080fd5b5061012a546105dc9063ffffffff1681565b6040516102d99190614717565b3480156105f557600080fd5b506102aa610604366004614725565b611673565b34801561061557600080fd5b506102cc61062436600461446f565b6119a5565b34801561063557600080fd5b506102aa61064436600461402b565b6119c1565b34801561065557600080fd5b506102cc6106643660046141aa565b600091825260656020908152604080842073ffffffffffffffffffffffffffffffffffffffff93909316845291905290205460ff1690565b6102aa6106aa3660046147bd565b611c4a565b3480156106bb57600080fd5b506102aa611d24565b3480156106d057600080fd5b506103a1600081565b3480156106e557600080fd5b506103a16101285481565b3480156106fc57600080fd5b506102aa61070b3660046147f2565b611da5565b34801561071c57600080fd5b50610125546104969073ffffffffffffffffffffffffffffffffffffffff1681565b34801561074a57600080fd5b506102aa6107593660046141aa565b612252565b34801561076a57600080fd5b506102aa610779366004614891565b612277565b34801561078a57600080fd5b506103a17f60044782a422109ac08a415e44260ad5d3bad63d96ebe1fac0363399642ee3f281565b3480156107be57600080fd5b506103a16101295481565b3480156107d557600080fd5b506102cc6107e436600461402b565b6101276020526000908152604090205460ff1681565b34801561080657600080fd5b506103a17ff66846415d2bf9eabda9e84793ff9c0ea96d87f50fc41e66aa16469c6a442f0581565b7ff66846415d2bf9eabda9e84793ff9c0ea96d87f50fc41e66aa16469c6a442f0561085881612302565b6101298290556040517f45ceffba6cdfd80ac24dded71e7dc1a0e3620f2a2a1433f2c38e0e68acef2a009061088e908490614188565b60405180910390a15050565b60007fffffffff0000000000000000000000000000000000000000000000000000000082167fff7a5d530000000000000000000000000000000000000000000000000000000014806108f057506108f08261230c565b92915050565b60008281526065602052604090206001015461091181612302565b61091b83836123a3565b505050565b610928612497565b61012854341015610965576040517fde43553100000000000000000000000000000000000000000000000000000000815260040160405180910390fd5b610129543411156109a2576040517f24fe119200000000000000000000000000000000000000000000000000000000815260040160405180910390fd5b6109ad8434856124d6565b600082826040516109bf9291906148c5565b60405190819003902061012a549091507f51bc40919d53d6a0750201d2087c589a09286b4e9f320919d04ad4545ced4abb9086903490610a059063ffffffff1643614901565b8785604051610a1895949392919061497d565b60405180910390a15050505050565b73ffffffffffffffffffffffffffffffffffffffff81163314610a7f576040517f08c379a0000000000000000000000000000000000000000000000000000000008152600401610a7690614a26565b60405180910390fd5b610a898282612679565b5050565b73ffffffffffffffffffffffffffffffffffffffff7f0000000000000000000000000000000000000000000000000000000000000000163003610afc576040517f08c379a0000000000000000000000000000000000000000000000000000000008152600401610a7690614a90565b7f000000000000000000000000000000000000000000000000000000000000000073ffffffffffffffffffffffffffffffffffffffff16610b717f360894a13ba1a3210667c828492db98dca3e2076cc3735a920a3ca505d382bbc5473ffffffffffffffffffffffffffffffffffffffff1690565b73ffffffffffffffffffffffffffffffffffffffff1614610bbe576040517f08c379a0000000000000000000000000000000000000000000000000000000008152600401610a7690614afa565b610bc781612734565b60408051600080825260208201909252610be39183919061275e565b50565b73ffffffffffffffffffffffffffffffffffffffff7f0000000000000000000000000000000000000000000000000000000000000000163003610c55576040517f08c379a0000000000000000000000000000000000000000000000000000000008152600401610a7690614a90565b7f000000000000000000000000000000000000000000000000000000000000000073ffffffffffffffffffffffffffffffffffffffff16610cca7f360894a13ba1a3210667c828492db98dca3e2076cc3735a920a3ca505d382bbc5473ffffffffffffffffffffffffffffffffffffffff1690565b73ffffffffffffffffffffffffffffffffffffffff1614610d17576040517f08c379a0000000000000000000000000000000000000000000000000000000008152600401610a7690614afa565b610d2082612734565b610a898282600161275e565b60003073ffffffffffffffffffffffffffffffffffffffff7f00000000000000000000000000000000000000000000000000000000000000001614610d9d576040517f08c379a0000000000000000000000000000000000000000000000000000000008152600401610a7690614b64565b507f360894a13ba1a3210667c828492db98dca3e2076cc3735a920a3ca505d382bbc90565b60006101266000858585604051602001610dde93929190614b74565b604080517fffffffffffffffffffffffffffffffffffffffffffffffffffffffffffffffe08184030181529181528151602092830120835290820192909252016000205460ff1690505b9392505050565b600061012660008b8b8b604051602001610e4b93929190614b74565b604080517fffffffffffffffffffffffffffffffffffffffffffffffffffffffffffffffe08184030181529181528151602092830120835290820192909252016000205460ff16610e9e57506000611377565b60005b63ffffffff8116871115610fd557600088888363ffffffff16818110610ec957610ec9614bab565b905061012002016020013589898463ffffffff16818110610eec57610eec614bab565b610f03926020610120909202019081019150614891565b604051602001610f14929190614bf5565b604051602081830303815290604052805190602001209050610fb38c828b8b8663ffffffff16818110610f4957610f49614bab565b9050610120020160600160068060200260405190810160405280929190826006602002808284376000920191909152508e91508d905063ffffffff8816818110610f9557610f95614bab565b905061012002016040016020810190610fae9190614891565b6128b1565b610fc257600092505050611377565b5080610fcd81614c1b565b915050610ea1565b5060005b63ffffffff81168511156111e857600086868363ffffffff1681811061100157611001614bab565b6110189260206101a0909202019081019150614891565b87878463ffffffff1681811061103057611030614bab565b90506101a00201602001602081019061104991906142a7565b88888563ffffffff1681811061106157611061614bab565b90506101a00201604001602081019061107a9190614c74565b89898663ffffffff1681811061109257611092614bab565b90506101a0020160600160208101906110ab9190614cb4565b8a8a8763ffffffff168181106110c3576110c3614bab565b90506101a00201608001358b8b8863ffffffff168181106110e6576110e6614bab565b90506101a0020160a001356040516020016111049493929190614d17565b6040516020818303038152906040528051906020012060405160200161112c93929190614d87565b6040516020818303038152906040528051906020012090506111c68b8289898663ffffffff1681811061116157611161614bab565b90506101a0020160e00160068060200260405190810160405280929190826006602002808284376000920191909152508c91508b905063ffffffff88168181106111ad576111ad614bab565b90506101a0020160c0016020810190610fae9190614891565b6111d557600092505050611377565b50806111e081614c1b565b915050610fd9565b5060005b63ffffffff811683111561137157600084848363ffffffff1681811061121457611214614bab565b61122b926020610160909202019081019150614891565b85858463ffffffff1681811061124357611243614bab565b90506101600201602001602081019061125c91906142a7565b86868563ffffffff1681811061127457611274614bab565b905061016002016040013587878663ffffffff1681811061129757611297614bab565b90506101600201606001356040516020016112b59493929190614db3565b60405160208183030381529060405280519060200120905061134f8a8287878663ffffffff168181106112ea576112ea614bab565b9050610160020160a00160068060200260405190810160405280929190826006602002808284376000920191909152508a915089905063ffffffff881681811061133657611336614bab565b905061016002016080016020810190610fae9190614891565b61135e57600092505050611377565b508061136981614c1b565b9150506111ec565b50600190505b9998505050505050505050565b7f55435dd261a4b9b3364963f7738a7a662ad9c84396d64be3365284bb7f0a50416113ae81612302565b609780547fffffffffffffffffffffffffffffffffffffffffffffffffffffffffffffff001690556040517fe6fdbf73945dd61794a752b9181ea29f77170a7b1ffd37e0a7ff9d2c6f7258b990600090a150565b7ff66846415d2bf9eabda9e84793ff9c0ea96d87f50fc41e66aa16469c6a442f0561142c81612302565b61012580547fffffffffffffffffffffffff00000000000000000000000000000000000000001673ffffffffffffffffffffffffffffffffffffffff84161790556040517f5dcffe9bbb6912962f7ffcea27f330f6aba5de77d262086624d5be74b849fd109061088e908490614461565b600080527f16d6d09ad43c2e13327e8e85b0f16a19ef2e63b72c391bfd77d21c5d499021856020527fdf4fae2a9d03ddefae2c9e431bd1ae49d400972b66abd41187abff73623b3c4b5460ff1615801561152657503360009081527f16d6d09ad43c2e13327e8e85b0f16a19ef2e63b72c391bfd77d21c5d49902185602052604090205460ff16155b1561155d576040517f6692e47700000000000000000000000000000000000000000000000000000000815260040160405180910390fd5b611565612497565b6115718484848461298f565b5050505050565b7ff66846415d2bf9eabda9e84793ff9c0ea96d87f50fc41e66aa16469c6a442f056115a281612302565b61012480547fffffffffffffffffffffffff00000000000000000000000000000000000000001673ffffffffffffffffffffffffffffffffffffffff84161790556040517f4f58839d9075210378ad47340fc23fab81e060f9fb13f00151841b25bc23d4b79061088e908490614461565b7ff66846415d2bf9eabda9e84793ff9c0ea96d87f50fc41e66aa16469c6a442f0561163d81612302565b6101288290556040517f65bd598c7e893131b1f10bd7e7db583b9af90196f90525922c85b1c2fcc298609061088e908490614188565b600080527f16d6d09ad43c2e13327e8e85b0f16a19ef2e63b72c391bfd77d21c5d499021856020527fdf4fae2a9d03ddefae2c9e431bd1ae49d400972b66abd41187abff73623b3c4b5460ff161580156116fc57503360009081527f16d6d09ad43c2e13327e8e85b0f16a19ef2e63b72c391bfd77d21c5d49902185602052604090205460ff16155b15611733576040517f6692e47700000000000000000000000000000000000000000000000000000000815260040160405180910390fd5b61173b612497565b6001600087815261012b602052604090206001015460ff166002811115611764576117646140be565b1461179b576040517ff8c22cf100000000000000000000000000000000000000000000000000000000815260040160405180910390fd5b60006117a98585858561298f565b90508681146117e4576040517fc496ba3d00000000000000000000000000000000000000000000000000000000815260040160405180910390fd5b60408051608081018252600089815261012b60209081529281205482529181016002815260008a815261012b602081815260408084206001808201805463ffffffff610100820416868a015273ffffffffffffffffffffffffffffffffffffffff650100000000008204169490980193909352948f9052928252855183559085015194955085949193919290917fffffffffffffffffffffffffffffffffffffffffffffffffffffffffffffff0016908360028111156118a6576118a66140be565b021790555060408281015160019290920180546060909401517fffffffffffffff000000000000000000000000000000000000000000000000ff90941661010063ffffffff948516027fffffffffffffff0000000000000000000000000000000000000000ffffffffff16176501000000000073ffffffffffffffffffffffffffffffffffffffff9586160217905560008b815261012b602052205461194f928a16916135e716565b600088815261012b6020526040908190205490517f662c835a3bf2a9618618ac34dfe8d5a12be89da82c8423c97b00ba7c658ba68c91611993918b91908b90614ddf565b60405180910390a15050505050505050565b60006101276000858585604051602001610dde93929190614b74565b600081815261012b60209081526040808320815160808101909252805482526001810154919290919083019060ff166002811115611a0157611a016140be565b6002811115611a1257611a126140be565b8152600191820154610100810463ffffffff16602083015265010000000000900473ffffffffffffffffffffffffffffffffffffffff1660409091015290915081602001516002811115611a6857611a686140be565b14611a9f576040517f5f158cf700000000000000000000000000000000000000000000000000000000815260040160405180910390fd5b806040015163ffffffff164311611ae2576040517f6d542c0d00000000000000000000000000000000000000000000000000000000815260040160405180910390fd5b60408051608081018252600080825260208083018281528385018390526060840183905286835261012b90915292902081518155915160018084018054939485949093927fffffffffffffffffffffffffffffffffffffffffffffffffffffffffffffff0090911690836002811115611b5d57611b5d6140be565b0217905550604082015160019190910180546060938401517fffffffffffffff000000000000000000000000000000000000000000000000ff90911661010063ffffffff948516027fffffffffffffff0000000000000000000000000000000000000000ffffffffff16176501000000000073ffffffffffffffffffffffffffffffffffffffff9283160217909155845192850151611bff939116916135e716565b8151604080840151606085015191517f38c89cadb339d1bffb61715406f1b242b77f304ef7759730c0094c14c1017f7f93611c3d9388939192614e07565b60405180910390a1505050565b611c52612497565b61012854341015611c8f576040517fde43553100000000000000000000000000000000000000000000000000000000815260040160405180910390fd5b61012954341115611ccc576040517f24fe119200000000000000000000000000000000000000000000000000000000815260040160405180910390fd5b611cd78334846124d6565b61012a547fea3db7d163ac581226b9faa5f9e5e5efe400bfb1b8a365db5c3e7cbff6d2984d9084903490611d119063ffffffff1643614901565b8585604051611c3d95949392919061497d565b7f55435dd261a4b9b3364963f7738a7a662ad9c84396d64be3365284bb7f0a5041611d4e81612302565b609780547fffffffffffffffffffffffffffffffffffffffffffffffffffffffffffffff001660011790556040517f61340a1b154d5d21d259a74bf95379201799b9d12cc6509bb46cb56dc281df5590600090a150565b600054610100900460ff1615808015611dc55750600054600160ff909116105b80611ddf5750303b158015611ddf575060005460ff166001145b611e15576040517f08c379a0000000000000000000000000000000000000000000000000000000008152600401610a7690614e96565b600080547fffffffffffffffffffffffffffffffffffffffffffffffffffffffffffffff001660011790558015611e7357600080547fffffffffffffffffffffffffffffffffffffffffffffffffffffffffffff00ff166101001790555b611e7b6136c4565b611e83613705565b73ffffffffffffffffffffffffffffffffffffffff8816611ed0576040517f08c379a0000000000000000000000000000000000000000000000000000000008152600401610a7690614f00565b73ffffffffffffffffffffffffffffffffffffffff8716611f1d576040517f08c379a0000000000000000000000000000000000000000000000000000000008152600401610a7690614f6a565b73ffffffffffffffffffffffffffffffffffffffff8316611f6a576040517f08c379a0000000000000000000000000000000000000000000000000000000008152600401610a7690614fd4565b73ffffffffffffffffffffffffffffffffffffffff8216611fb7576040517f08c379a0000000000000000000000000000000000000000000000000000000008152600401610a769061503e565b610124805473ffffffffffffffffffffffffffffffffffffffff808b167fffffffffffffffffffffffff0000000000000000000000000000000000000000928316179092556101258054928a16929091169190911790556040517f4f58839d9075210378ad47340fc23fab81e060f9fb13f00151841b25bc23d4b79061203e908a90614461565b60405180910390a17f5dcffe9bbb6912962f7ffcea27f330f6aba5de77d262086624d5be74b849fd10876040516120759190614461565b60405180910390a161012886905561012985905561012a80547fffffffffffffffffffffffffffffffffffffffffffffffffffffffff000000001663ffffffff86161790556040517f65bd598c7e893131b1f10bd7e7db583b9af90196f90525922c85b1c2fcc29860906120ea908890614188565b60405180910390a17f45ceffba6cdfd80ac24dded71e7dc1a0e3620f2a2a1433f2c38e0e68acef2a00856040516121219190614188565b60405180910390a17f266d22101c27a330937ff06442e5289e92a84a449d22bb001c03789f7774b628846040516121589190614717565b60405180910390a161218a7f60044782a422109ac08a415e44260ad5d3bad63d96ebe1fac0363399642ee3f2336123a3565b6121956000846123a3565b6121bf7ff66846415d2bf9eabda9e84793ff9c0ea96d87f50fc41e66aa16469c6a442f05846123a3565b6121e97f55435dd261a4b9b3364963f7738a7a662ad9c84396d64be3365284bb7f0a5041836123a3565b801561224857600080547fffffffffffffffffffffffffffffffffffffffffffffffffffffffffffff00ff1690556040517f7f26b83ff96e1f2b6a682f133852f6798a09c465da95921460cefb38474024989061199390600190615062565b5050505050505050565b60008281526065602052604090206001015461226d81612302565b61091b8383612679565b7ff66846415d2bf9eabda9e84793ff9c0ea96d87f50fc41e66aa16469c6a442f056122a181612302565b61012a80547fffffffffffffffffffffffffffffffffffffffffffffffffffffffff000000001663ffffffff84161790556040517f266d22101c27a330937ff06442e5289e92a84a449d22bb001c03789f7774b6289061088e908490614717565b610be38133613770565b60007fffffffff0000000000000000000000000000000000000000000000000000000082167f7965db0b0000000000000000000000000000000000000000000000000000000014806108f057507f01ffc9a7000000000000000000000000000000000000000000000000000000007fffffffff000000000000000000000000000000000000000000000000000000008316146108f0565b600082815260656020908152604080832073ffffffffffffffffffffffffffffffffffffffff8516845290915290205460ff16610a8957600082815260656020908152604080832073ffffffffffffffffffffffffffffffffffffffff85168452909152902080547fffffffffffffffffffffffffffffffffffffffffffffffffffffffffffffff001660011790556124393390565b73ffffffffffffffffffffffffffffffffffffffff168173ffffffffffffffffffffffffffffffffffffffff16837f2f8788117e7eff1d82e926ec794901d17c78024a50270940304540a733656f0d60405160405180910390a45050565b60975460ff16156124d4576040517f379dfc6300000000000000000000000000000000000000000000000000000000815260040160405180910390fd5b565b600083815261012b602052604081206001015460ff1660028111156124fd576124fd6140be565b14612534576040517f96e41fe900000000000000000000000000000000000000000000000000000000815260040160405180910390fd5b604080516080810182528381526001602082015261012a546000928201906125629063ffffffff1643614901565b63ffffffff16815273ffffffffffffffffffffffffffffffffffffffff8416602091820152600086815261012b825260409020825181559082015160018083018054949550859490917fffffffffffffffffffffffffffffffffffffffffffffffffffffffffffffff00909116908360028111156125e2576125e26140be565b021790555060408201516001909101805460609093015173ffffffffffffffffffffffffffffffffffffffff1665010000000000027fffffffffffffff0000000000000000000000000000000000000000ffffffffff63ffffffff90931661010002929092167fffffffffffffff000000000000000000000000000000000000000000000000ff9093169290921717905550505050565b600082815260656020908152604080832073ffffffffffffffffffffffffffffffffffffffff8516845290915290205460ff1615610a8957600082815260656020908152604080832073ffffffffffffffffffffffffffffffffffffffff8516808552925280832080547fffffffffffffffffffffffffffffffffffffffffffffffffffffffffffffff0016905551339285917ff6391f5c32d9c69d2a47ea670b442974b53935d1edc7fd64eb21e047a839171b9190a45050565b7ff66846415d2bf9eabda9e84793ff9c0ea96d87f50fc41e66aa16469c6a442f05610a8981612302565b7f4910fdfa16fed3260ed0e7147f7cc6da11a60208b5b9406d12a635614ffd91435460ff16156127915761091b8361382a565b8273ffffffffffffffffffffffffffffffffffffffff166352d1902d6040518163ffffffff1660e01b8152600401602060405180830381865afa925050508015612816575060408051601f3d9081017fffffffffffffffffffffffffffffffffffffffffffffffffffffffffffffffe01682019092526128139181019061507b565b60015b61284c576040517f08c379a0000000000000000000000000000000000000000000000000000000008152600401610a76906150f6565b7f360894a13ba1a3210667c828492db98dca3e2076cc3735a920a3ca505d382bbc81146128a5576040517f08c379a0000000000000000000000000000000000000000000000000000000008152600401610a7690615160565b5061091b8383836138de565b600083815b60068163ffffffff16101561298157600163ffffffff8581169083161c166000036129275781858263ffffffff16600681106128f4576128f4614bab565b602002015160405160200161290a929190615170565b60405160208183030381529060405280519060200120915061296f565b848163ffffffff166006811061293f5761293f614bab565b602002015182604051602001612956929190615170565b6040516020818303038152906040528051906020012091505b8061297981614c1b565b9150506128b6565b50851490505b949350505050565b6000612999612497565b600863ffffffff8616106129ac57600080fd5b60006129b88484613909565b60c0810151610124546040517f074144d6000000000000000000000000000000000000000000000000000000008152929350909173ffffffffffffffffffffffffffffffffffffffff9091169063074144d690612a19908a906004016151b1565b602060405180830381865afa158015612a36573d6000803e3d6000fd5b505050506040513d601f19601f82011682018060405250810190612a5a919061507b565b14612a91576040517fd9fcd6a100000000000000000000000000000000000000000000000000000000815260040160405180910390fd5b6101245460009073ffffffffffffffffffffffffffffffffffffffff1663c6ca4753612ac36080890160608a01614891565b6040518263ffffffff1660e01b8152600401612adf9190614717565b602060405180830381865afa158015612afc573d6000803e3d6000fd5b505050506040513d601f19601f82011682018060405250810190612b20919061507b565b905085356020870135612b396060890160408a01614891565b604051602001612b4b939291906151bf565b604051602081830303815290604052805190602001208114612b6c57600080fd5b5084608001604051602001612b81919061520c565b604051602081830303815290604052805190602001208160e0015114612ba657600080fd5b6000805b600a8163ffffffff161015612c085760006080880163ffffffff8316600a8110612bd657612bd6614bab565b602002013514612bf657612bf3600163ffffffff83161b83614901565b91505b80612c0081614c1b565b915050612baa565b5060008163ffffffff16118015612c3a5750612c2a6060870160408801614891565b63ffffffff168163ffffffff1611155b15612cb9576000612ca087608001600a806020026040519081016040528092919082600a60200280828437600092019190915250506040805161014081810190925291506101c08b0190600a908390839080828437600092019190915250613adc915050565b50905080876020013514612cb357600080fd5b506133b4565b612cc96060870160408801614891565b63ffffffff168163ffffffff1611156133b4574381612cee6080890160608a01614891565b612cf89190614901565b63ffffffff161115612d36576040517ff5b1753900000000000000000000000000000000000000000000000000000000815260040160405180910390fd5b612d4261010043615222565b612d526060880160408901614891565b612d626080890160608a01614891565b612d6c9190614901565b63ffffffff161015612daa576040517f7df2555400000000000000000000000000000000000000000000000000000000815260040160405180910390fd5b60408051610140808201835260008083527fad3228b676f7d3cd4284a5443f17f1962b36e491b30a40b2405849e597ba5fb560208401527fb4c11951957c6f8f642c4af61cd6b24640fec6dc7fc607ee8206a99e92410d30838501527f21ddb9a356815c3fac1026b6dec5df3124afbadb485c9ba5a3e3398a04b7ba8560608401527fe58769b32a1beaf1ea27375a44095a0d1fb664ce2dd358e7fcbfb78c26a1934460808401527f0eb01ebfc9ed27500cd4dfc979272d1f0913cc9f66540d7e8005811109e1cf2d60a08401527f887c22bd8750d34016ac3c66b5ff102dacdd73f6b014e710b51e8022af9a196860c08401527fffd70157e48063fc33c97a050f7f640233bf646cc98d9524c6b92bcf3ab56f8360e08401527f9867cc5f7f196b93bae1e27e6320742445d290f2263827498b54fec539f756af6101008401527fcefad4e508c098b9a7e1d8feb19955fb02ba9675585078710969d3440f5054e0610120840152835180830190945291928291612f4791906101c08c0190600a908390839080828437600092019190915250869150613adc9050565b909250905063ffffffff8116612f6360608b0160408c01614891565b63ffffffff1614612f7357600080fd5b81896020013514612f8357600080fd5b6000612f9560608b0160408c01614891565b612f9f9086615235565b63ffffffff1667ffffffffffffffff811115612fbd57612fbd6142c8565b604051908082528060200260200182016040528015612fe6578160200160208202803683370190505b50905060005b612ffc60608c0160408d01614891565b6130069087615235565b63ffffffff168163ffffffff16101561308a578061302a60608d0160408e01614891565b61303a60808e0160608f01614891565b6130449190614901565b61304e9190614901565b63ffffffff1640828263ffffffff168151811061306d5761306d614bab565b60209081029190910101528061308281614c1b565b915050612fec565b50600061309d60608c0160408d01614891565b6130a79087615235565b90506000805b63ffffffff8316156133ac578163ffffffff168d60400160208101906130d39190614891565b63ffffffff16901c600116905060005b60026130ef8386614901565b6130f99190615284565b63ffffffff168163ffffffff161015613281576000808363ffffffff166001036131b95763ffffffff831615613164578660016131378560026152a2565b6131419190615235565b63ffffffff168151811061315757613157614bab565b6020026020010151613186565b8f6101c0018563ffffffff16600a811061318057613180614bab565b60200201355b9150866131948460026152a2565b63ffffffff16815181106131aa576131aa614bab565b6020026020010151905061321f565b866131c58460026152a2565b63ffffffff16815181106131db576131db614bab565b60200260200101519150868360026131f391906152a2565b6131fe906001614901565b63ffffffff168151811061321457613214614bab565b602002602001015190505b8181604051602001613232929190615170565b60405160208183030381529060405280519060200120878463ffffffff168151811061326057613260614bab565b6020026020010181815250505050808061327990614c1b565b9150506130e3565b50600261328e8285614901565b61329891906152cc565b63ffffffff1660010361332b578c6080018263ffffffff16600a81106132c0576132c0614bab565b6020020135846132d1600186615235565b63ffffffff16815181106132e7576132e7614bab565b602002602001015114613326576040517f84cca32b00000000000000000000000000000000000000000000000000000000815260040160405180910390fd5b613382565b8c6080018263ffffffff16600a811061334657613346614bab565b602002013515613382576040517f84cca32b00000000000000000000000000000000000000000000000000000000815260040160405180910390fd5b61338d826001614901565b9150600261339b8285614901565b6133a59190615284565b92506130ad565b505050505050505b6101255460405160009173ffffffffffffffffffffffffffffffffffffffff16906133e290889088906148c5565b6000604051808303816000865af19150503d806000811461341f576040519150601f19603f3d011682016040523d82523d6000602084013e613424565b606091505b505090508061345f576040517fbd5dfcb400000000000000000000000000000000000000000000000000000000815260040160405180910390fd5b6000836020015184606001518560a0015160405160200161348293929190614b74565b604080517fffffffffffffffffffffffffffffffffffffffffffffffffffffffffffffffe081840301815282825280516020918201206000818152610126835283812080547fffffffffffffffffffffffffffffffffffffffffffffffffffffffffffffff001660019081179091558951948a015160808b01519397509095610127959294613512949101614b74565b60405160208183030381529060405280519060200120815260200190815260200160002060006101000a81548160ff0219169083151502179055507fd23fa9dc5084a846732fb5ea34d0a34d4457b4236dbc1bce24f2cf686b2650b2846020015185606001518660a0015160405161358c939291906152ea565b60405180910390a17f24e8e7d5b38feee115a633792a47326753618b13f2021b4b0fe2e58e28d80e808460000151856040015186608001516040516135d3939291906152ea565b60405180910390a198975050505050505050565b80471015613621576040517f08c379a0000000000000000000000000000000000000000000000000000000008152600401610a7690615349565b60008273ffffffffffffffffffffffffffffffffffffffff168260405161364790615359565b60006040518083038185875af1925050503d8060008114613684576040519150601f19603f3d011682016040523d82523d6000602084013e613689565b606091505b505090508061091b576040517f08c379a0000000000000000000000000000000000000000000000000000000008152600401610a76906153be565b600054610100900460ff166124d4576040517f08c379a0000000000000000000000000000000000000000000000000000000008152600401610a7690615428565b600054610100900460ff16613746576040517f08c379a0000000000000000000000000000000000000000000000000000000008152600401610a7690615428565b609780547fffffffffffffffffffffffffffffffffffffffffffffffffffffffffffffff00169055565b600082815260656020908152604080832073ffffffffffffffffffffffffffffffffffffffff8516845290915290205460ff16610a89576137b081613c53565b6137bb836020613c72565b6040516020016137cc92919061547e565b604080517fffffffffffffffffffffffffffffffffffffffffffffffffffffffffffffffe0818403018152908290527f08c379a0000000000000000000000000000000000000000000000000000000008252610a7691600401615532565b73ffffffffffffffffffffffffffffffffffffffff81163b613878576040517f08c379a0000000000000000000000000000000000000000000000000000000008152600401610a769061559d565b7f360894a13ba1a3210667c828492db98dca3e2076cc3735a920a3ca505d382bbc80547fffffffffffffffffffffffff00000000000000000000000000000000000000001673ffffffffffffffffffffffffffffffffffffffff92909216919091179055565b6138e783613e85565b6000825111806138f45750805b1561091b576139038383613ed2565b50505050565b604080516101008082018352600080835260208301819052828401819052606083018190526080830181905260a0830181905260c0830181905260e0830152825190810190925290806139626101a061018086886155ad565b61396b916155dd565b81526020016139806101e06101c086886155ad565b613989916155dd565b608061399b6101c06101a0888a6155ad565b6139a4916155dd565b901b1781526020016139bc6102006101e086886155ad565b6139c5916155dd565b81526020016139da61024061022086886155ad565b6139e3916155dd565b60806139f5610220610200888a6155ad565b6139fe916155dd565b901b178152602001613a1661026061024086886155ad565b613a1f916155dd565b8152602001613a346102a061028086886155ad565b613a3d916155dd565b6080613a4f610280610260888a6155ad565b613a58916155dd565b901b178152602001613a706102e06102c086886155ad565b613a79916155dd565b6080613a8b6102c06102a0888a6155ad565b613a94916155dd565b901b178152602001613aac61032061030086886155ad565b613ab5916155dd565b6080613ac76103006102e0888a6155ad565b613ad0916155dd565b901b1790529392505050565b60008080805b600a8163ffffffff161015613c4a5781158015613b1c575060008663ffffffff8316600a8110613b1457613b14614bab565b602002015114155b15613b4557848163ffffffff16600a8110613b3957613b39614bab565b60200201519350600191505b8115613c385760008663ffffffff8316600a8110613b6557613b65614bab565b602002015114613bf057858163ffffffff16600a8110613b8757613b87614bab565b602002015184604051602001613b9e929190615170565b604080517fffffffffffffffffffffffffffffffffffffffffffffffffffffffffffffffe081840301815291905280516020909101209350613be9600163ffffffff83161b84614901565b9250613c38565b83858263ffffffff16600a8110613c0957613c09614bab565b6020020151604051602001613c1f929190615170565b6040516020818303038152906040528051906020012093505b80613c4281614c1b565b915050613ae2565b50509250929050565b60606108f073ffffffffffffffffffffffffffffffffffffffff831660145b60606000613c81836002615626565b613c8c90600261563e565b67ffffffffffffffff811115613ca457613ca46142c8565b6040519080825280601f01601f191660200182016040528015613cce576020820181803683370190505b5090507f300000000000000000000000000000000000000000000000000000000000000081600081518110613d0557613d05614bab565b60200101907effffffffffffffffffffffffffffffffffffffffffffffffffffffffffffff1916908160001a9053507f780000000000000000000000000000000000000000000000000000000000000081600181518110613d6857613d68614bab565b60200101907effffffffffffffffffffffffffffffffffffffffffffffffffffffffffffff1916908160001a9053506000613da4846002615626565b613daf90600161563e565b90505b6001811115613e4c577f303132333435363738396162636465660000000000000000000000000000000085600f1660108110613df057613df0614bab565b1a60f81b828281518110613e0657613e06614bab565b60200101907effffffffffffffffffffffffffffffffffffffffffffffffffffffffffffff1916908160001a90535060049490941c93613e4581615651565b9050613db2565b508315610e28576040517f08c379a0000000000000000000000000000000000000000000000000000000008152600401610a76906156b8565b613e8e8161382a565b60405173ffffffffffffffffffffffffffffffffffffffff8216907fbc7cd75a20ee27fd9adebab32041f755214dbc6bffa90cc0225b39da2e5c2d3b90600090a250565b606073ffffffffffffffffffffffffffffffffffffffff83163b613f22576040517f08c379a0000000000000000000000000000000000000000000000000000000008152600401610a7690615722565b6000808473ffffffffffffffffffffffffffffffffffffffff1684604051613f4a9190615732565b600060405180830381855af49150503d8060008114613f85576040519150601f19603f3d011682016040523d82523d6000602084013e613f8a565b606091505b5091509150613fb2828260405180606001604052806027815260200161573f60279139613fbb565b95945050505050565b60608315613fca575081610e28565b610e288383815115613fdf5781518083602001fd5b806040517f08c379a0000000000000000000000000000000000000000000000000000000008152600401610a769190615532565b805b8114610be357600080fd5b80356108f081614013565b60006020828403121561404057614040600080fd5b60006129878484614020565b7fffffffff000000000000000000000000000000000000000000000000000000008116614015565b80356108f08161404c565b60006020828403121561409457614094600080fd5b60006129878484614074565b8015155b82525050565b602081016108f082846140a0565b806140a4565b7f4e487b7100000000000000000000000000000000000000000000000000000000600052602160045260246000fd5b60038110610be357610be36140be565b80614107816140ed565b919050565b60006108f0826140fd565b6140a48161410c565b63ffffffff81166140a4565b600073ffffffffffffffffffffffffffffffffffffffff82166108f0565b6140a48161412c565b6080810161416182876140b8565b61416e6020830186614117565b61417b6040830185614120565b613fb2606083018461414a565b602081016108f082846140b8565b6140158161412c565b80356108f081614196565b600080604083850312156141c0576141c0600080fd5b60006141cc8585614020565b92505060206141dd8582860161419f565b9150509250929050565b60008083601f8401126141fc576141fc600080fd5b50813567ffffffffffffffff81111561421757614217600080fd5b60208301915083600182028301111561423257614232600080fd5b9250929050565b6000806000806060858703121561425257614252600080fd5b600061425e8787614020565b945050602061426f8782880161419f565b935050604085013567ffffffffffffffff81111561428f5761428f600080fd5b61429b878288016141e7565b95989497509550505050565b6000602082840312156142bc576142bc600080fd5b6000612987848461419f565b7f4e487b7100000000000000000000000000000000000000000000000000000000600052604160045260246000fd5b7fffffffffffffffffffffffffffffffffffffffffffffffffffffffffffffffe0601f830116810181811067ffffffffffffffff8211171561433b5761433b6142c8565b6040525050565b600061434d60405190565b905061410782826142f7565b600067ffffffffffffffff821115614373576143736142c8565b7fffffffffffffffffffffffffffffffffffffffffffffffffffffffffffffffe0601f83011660200192915050565b82818337506000910152565b60006143c16143bc84614359565b614342565b9050828152602081018484840111156143dc576143dc600080fd5b6143e78482856143a2565b509392505050565b600082601f83011261440357614403600080fd5b81356129878482602086016143ae565b6000806040838503121561442957614429600080fd5b6000614435858561419f565b925050602083013567ffffffffffffffff81111561445557614455600080fd5b6141dd858286016143ef565b602081016108f0828461414a565b60008060006060848603121561448757614487600080fd5b60006144938686614020565b93505060206144a486828701614020565b92505060406144b586828701614020565b9150509250925092565b60008083601f8401126144d4576144d4600080fd5b50813567ffffffffffffffff8111156144ef576144ef600080fd5b6020830191508361012082028301111561423257614232600080fd5b60008083601f84011261452057614520600080fd5b50813567ffffffffffffffff81111561453b5761453b600080fd5b602083019150836101a082028301111561423257614232600080fd5b60008083601f84011261456c5761456c600080fd5b50813567ffffffffffffffff81111561458757614587600080fd5b6020830191508361016082028301111561423257614232600080fd5b600080600080600080600080600060c08a8c0312156145c4576145c4600080fd5b60006145d08c8c614020565b99505060206145e18c828d01614020565b98505060406145f28c828d01614020565b97505060608a013567ffffffffffffffff81111561461257614612600080fd5b61461e8c828d016144bf565b965096505060808a013567ffffffffffffffff81111561464057614640600080fd5b61464c8c828d0161450b565b945094505060a08a013567ffffffffffffffff81111561466e5761466e600080fd5b61467a8c828d01614557565b92509250509295985092959850929598565b63ffffffff8116614015565b80356108f08161468c565b600061030082840312156146b9576146b9600080fd5b50919050565b60008060008061034085870312156146d9576146d9600080fd5b60006146e58787614698565b94505060206146f6878288016146a3565b93505061032085013567ffffffffffffffff81111561428f5761428f600080fd5b602081016108f08284614120565b600080600080600080610380878903121561474257614742600080fd5b600061474e8989614020565b965050602061475f89828a0161419f565b955050604061477089828a01614698565b945050606061478189828a016146a3565b93505061036087013567ffffffffffffffff8111156147a2576147a2600080fd5b6147ae89828a016141e7565b92509250509295509295509295565b6000806000606084860312156147d5576147d5600080fd5b60006147e18686614020565b93505060206144a48682870161419f565b600080600080600080600060e0888a03121561481057614810600080fd5b600061481c8a8a61419f565b975050602061482d8a828b0161419f565b965050604061483e8a828b01614020565b955050606061484f8a828b01614020565b94505060806148608a828b01614698565b93505060a06148718a828b0161419f565b92505060c06148828a828b0161419f565b91505092959891949750929550565b6000602082840312156148a6576148a6600080fd5b60006129878484614698565b60006148bf8385846143a2565b50500190565b60006129878284866148b2565b7f4e487b7100000000000000000000000000000000000000000000000000000000600052601160045260246000fd5b63ffffffff9182169190811690828201908111156108f0576108f06148d2565b60006108f073ffffffffffffffffffffffffffffffffffffffff8316614945565b90565b73ffffffffffffffffffffffffffffffffffffffff1690565b60006108f082614921565b60006108f08261495e565b6140a481614969565b60a0810161498b82886140b8565b61499860208301876140b8565b6149a56040830186614120565b6149b26060830185614974565b6149bf60808301846140b8565b9695505050505050565b602f81526000602082017f416363657373436f6e74726f6c3a2063616e206f6e6c792072656e6f756e636581527f20726f6c657320666f722073656c660000000000000000000000000000000000602082015291505b5060400190565b602080825281016108f0816149c9565b602c81526000602082017f46756e6374696f6e206d7573742062652063616c6c6564207468726f7567682081527f64656c656761746563616c6c000000000000000000000000000000000000000060208201529150614a1f565b602080825281016108f081614a36565b602c81526000602082017f46756e6374696f6e206d7573742062652063616c6c6564207468726f7567682081527f6163746976652070726f7879000000000000000000000000000000000000000060208201529150614a1f565b602080825281016108f081614aa0565b603881526000602082017f555550535570677261646561626c653a206d757374206e6f742062652063616c81527f6c6564207468726f7567682064656c656761746563616c6c000000000000000060208201529150614a1f565b602080825281016108f081614b0a565b6000614b8082866140b8565b602082019150614b9082856140b8565b602082019150614ba082846140b8565b506020019392505050565b7f4e487b7100000000000000000000000000000000000000000000000000000000600052603260045260246000fd5b60006108f08260e01b90565b6140a463ffffffff8216614bda565b6000614c0182856140b8565b602082019150614c118284614be6565b5060040192915050565b63ffffffff1660007fffffffffffffffffffffffffffffffffffffffffffffffffffffffff000000018201614c5257614c526148d2565b5060010190565b67ffffffffffffffff8116614015565b80356108f081614c59565b600060208284031215614c8957614c89600080fd5b60006129878484614c69565b6bffffffffffffffffffffffff8116614015565b80356108f081614c95565b600060208284031215614cc957614cc9600080fd5b60006129878484614ca9565b60006108f08260c01b90565b6140a467ffffffffffffffff8216614cd5565b60006108f08260a01b90565b6140a46bffffffffffffffffffffffff8216614cf4565b6000614d238287614ce1565b600882019150614d338286614d00565b600c82019150614d4382856140b8565b602082019150614d5382846140b8565b50602001949350505050565b60006108f08260601b90565b60006108f082614d5f565b6140a4614d828261412c565b614d6b565b6000614d938286614be6565b600482019150614da38285614d76565b601482019150614ba082846140b8565b6000614dbf8287614be6565b600482019150614dcf8286614d76565b601482019150614d4382856140b8565b60608101614ded82866140b8565b614dfa60208301856140b8565b6129876040830184614974565b60808101614e1582876140b8565b614e2260208301866140b8565b614e2f6040830185614120565b613fb26060830184614974565b602e81526000602082017f496e697469616c697a61626c653a20636f6e747261637420697320616c72656181527f647920696e697469616c697a656400000000000000000000000000000000000060208201529150614a1f565b602080825281016108f081614e3c565b602381526000602082017f4178696f6d563151756572793a204178696f6d2061646472657373206973207a81527f65726f000000000000000000000000000000000000000000000000000000000060208201529150614a1f565b602080825281016108f081614ea6565b602a81526000602082017f4178696f6d563151756572793a204d4d5220766572696669657220616464726581527f7373206973207a65726f0000000000000000000000000000000000000000000060208201529150614a1f565b602080825281016108f081614f10565b602681526000602082017f4178696f6d563151756572793a2074696d656c6f636b2061646472657373206981527f73207a65726f000000000000000000000000000000000000000000000000000060208201529150614a1f565b602080825281016108f081614f7a565b602681526000602082017f4178696f6d563151756572793a20677561726469616e2061646472657373206981527f73207a65726f000000000000000000000000000000000000000000000000000060208201529150614a1f565b602080825281016108f081614fe4565b600060ff82166108f0565b6140a48161504e565b602081016108f08284615059565b80516108f081614013565b60006020828403121561509057615090600080fd5b60006129878484615070565b602e81526000602082017f45524331393637557067726164653a206e657720696d706c656d656e7461746981527f6f6e206973206e6f74205555505300000000000000000000000000000000000060208201529150614a1f565b602080825281016108f08161509c565b602981526000602082017f45524331393637557067726164653a20756e737570706f727465642070726f7881527f6961626c6555554944000000000000000000000000000000000000000000000060208201529150614a1f565b602080825281016108f081615106565b600061517c82856140b8565b60208201915061518c82846140b8565b5060200192915050565b60006108f061494263ffffffff841681565b6140a481615196565b602081016108f082846151a8565b60006151cb82866140b8565b6020820191506151db82856140b8565b6020820191506151eb8284614be6565b506004019392505050565b82818337505050565b610a8961014083836151f6565b600061521882846151ff565b5061014001919050565b818103818111156108f0576108f06148d2565b63ffffffff9182169190811690828203908111156108f0576108f06148d2565b7f4e487b7100000000000000000000000000000000000000000000000000000000600052601260045260246000fd5b63ffffffff918216911660008261529d5761529d615255565b500490565b63ffffffff9182169190811690828202908116908181146152c5576152c56148d2565b5092915050565b63ffffffff91821691166000826152e5576152e5615255565b500690565b606081016152f882866140b8565b61530560208301856140b8565b61298760408301846140b8565b601d81526000602082017f416464726573733a20696e73756666696369656e742062616c616e6365000000815291505b5060200190565b602080825281016108f081615312565b60006108f082614942565b603a81526000602082017f416464726573733a20756e61626c6520746f2073656e642076616c75652c207281527f6563697069656e74206d6179206861766520726576657274656400000000000060208201529150614a1f565b602080825281016108f081615364565b602b81526000602082017f496e697469616c697a61626c653a20636f6e7472616374206973206e6f74206981527f6e697469616c697a696e6700000000000000000000000000000000000000000060208201529150614a1f565b602080825281016108f0816153ce565b60005b8381101561545357818101518382015260200161543b565b50506000910152565b6000615466825190565b615474818560208601615438565b9290920192915050565b7f416363657373436f6e74726f6c3a206163636f756e7420000000000000000000815260170160006154b0828561545c565b7f206973206d697373696e6720726f6c652000000000000000000000000000000081526011019150612987828461545c565b60006154ec825190565b808452602084019350615503818560208601615438565b601f017fffffffffffffffffffffffffffffffffffffffffffffffffffffffffffffffe0169290920192915050565b60208082528101610e2881846154e2565b602d81526000602082017f455243313936373a206e657720696d706c656d656e746174696f6e206973206e81527f6f74206120636f6e74726163740000000000000000000000000000000000000060208201529150614a1f565b602080825281016108f081615543565b600080858511156155c0576155c0600080fd5b838611156155d0576155d0600080fd5b5050820193919092039150565b80358282602082101561561e576156197fffffffffffffffffffffffffffffffffffffffffffffffffffffffffffffffff836020036008021b90565b831692505b505092915050565b8181028082158382048514176152c5576152c56148d2565b808201808211156108f0576108f06148d2565b600081615660576156606148d2565b507fffffffffffffffffffffffffffffffffffffffffffffffffffffffffffffffff0190565b60208082527f537472696e67733a20686578206c656e67746820696e73756666696369656e7491019081526000615342565b602080825281016108f081615686565b602681526000602082017f416464726573733a2064656c65676174652063616c6c20746f206e6f6e2d636f81527f6e7472616374000000000000000000000000000000000000000000000000000060208201529150614a1f565b602080825281016108f0816156c8565b6000610e28828461545c56fe416464726573733a206c6f772d6c6576656c2064656c65676174652063616c6c206661696c6564a26469706673582212201cad082ae3b9e560d0ec72222352380b811307d5f0ba87451616539d7d7455f864736f6c63430008130033",
    "linkReferences": {}
  },
  "methodIdentifiers": {
    "DEFAULT_ADMIN_ROLE()": "a217fddf",
    "GUARDIAN_ROLE()": "24ea54f4",
    "PROVER_ROLE()": "dc9a4ef6",
    "TIMELOCK_ROLE()": "f288a2e2",
    "areResponsesValid(bytes32,bytes32,bytes32,(uint32,bytes32,uint32,bytes32[6])[],(uint32,address,uint64,uint96,bytes32,bytes32,uint32,bytes32[6])[],(uint32,address,uint256,uint256,uint32,bytes32[6])[])": "6439e9d4",
    "axiomAddress()": "528bad37",
    "collectRefund(bytes32)": "8b4acf28",
    "freezeAll()": "99464c89",
    "frozen()": "054f7d9c",
    "fulfillQueryVsMMR(bytes32,address,uint32,(bytes32,bytes32,uint32,uint32,bytes32[10],bytes32[10]),bytes)": "878bab8c",
    "getRoleAdmin(bytes32)": "248a9ca3",
    "grantRole(bytes32,address)": "2f2ff15d",
    "hasRole(bytes32,address)": "91d14854",
    "initialize(address,address,uint256,uint256,uint32,address,address)": "b691943f",
    "isKeccakResultValid(bytes32,bytes32,bytes32)": "560aa8cd",
    "isPoseidonResultValid(bytes32,bytes32,bytes32)": "898b8a1a",
    "maxQueryPrice()": "df7e2e2d",
    "minQueryPrice()": "b1d401cd",
    "mmrVerifierAddress()": "d35a5844",
    "proxiableUUID()": "52d1902d",
    "queries(bytes32)": "21dfb600",
    "queryDeadlineInterval()": "79ce0468",
    "renounceRole(bytes32,address)": "36568abe",
    "revokeRole(bytes32,address)": "d547741f",
    "sendOffchainQuery(bytes32,address,bytes32)": "9755b1fc",
    "sendQuery(bytes32,address,bytes)": "32c4cda2",
    "supportsInterface(bytes4)": "01ffc9a7",
    "unfreezeAll()": "66c5c4a0",
    "updateAxiomAddress(address)": "774a6234",
    "updateMMRVerifierAddress(address)": "6ec59b3f",
    "updateMaxQueryPrice(uint256)": "01f8fca4",
    "updateMinQueryPrice(uint256)": "798da01a",
    "updateQueryDeadlineInterval(uint32)": "d77de079",
    "upgradeTo(address)": "3659cfe6",
    "upgradeToAndCall(address,bytes)": "4f1ef286",
    "verifiedKeccakResults(bytes32)": "5eac0e23",
    "verifiedPoseidonResults(bytes32)": "e741ad80",
    "verifyResultVsMMR(uint32,(bytes32,bytes32,uint32,uint32,bytes32[10],bytes32[10]),bytes)": "75a09b09"
  },
  "id": 5
}