{
  "abi": [
    {
      "inputs": [],
      "stateMutability": "nonpayable",
      "type": "constructor"
    },
    {
      "inputs": [],
      "name": "AggregateVkeyHashDoesNotMatch",
      "type": "error"
    },
    {
      "inputs": [],
      "name": "CallbackExtraDataHashDoesNotMatch",
      "type": "error"
    },
    {
      "inputs": [],
      "name": "CannotFulfillIfNotActive",
      "type": "error"
    },
    {
      "inputs": [],
      "name": "CannotRefundBeforeDeadline",
      "type": "error"
    },
    {
      "inputs": [],
      "name": "CannotRefundIfNotActive",
      "type": "error"
    },
    {
      "inputs": [],
      "name": "ComputeResultsHashDoesNotMatch",
      "type": "error"
    },
    {
      "inputs": [],
      "name": "ContractIsFrozen",
      "type": "error"
    },
    {
      "inputs": [],
      "name": "NotAxiomRole",
      "type": "error"
    },
    {
      "inputs": [],
      "name": "NotProverRole",
      "type": "error"
    },
    {
      "inputs": [],
      "name": "ProofVerificationFailed",
      "type": "error"
    },
    {
      "inputs": [],
      "name": "QueryHashDoesNotMatchProof",
      "type": "error"
    },
    {
      "inputs": [],
      "name": "QueryNotInactive",
      "type": "error"
    },
    {
      "inputs": [],
      "name": "QuerySchemaDoesNotMatchProof",
      "type": "error"
    },
    {
      "inputs": [],
      "name": "SourceChainIdDoesNotMatch",
      "type": "error"
    },
    {
      "anonymous": false,
      "inputs": [
        {
          "indexed": false,
          "internalType": "address",
          "name": "previousAdmin",
          "type": "address"
        },
        {
          "indexed": false,
          "internalType": "address",
          "name": "newAdmin",
          "type": "address"
        }
      ],
      "name": "AdminChanged",
      "type": "event"
    },
    {
      "anonymous": false,
      "inputs": [
        {
          "indexed": true,
          "internalType": "address",
          "name": "beacon",
          "type": "address"
        }
      ],
      "name": "BeaconUpgraded",
      "type": "event"
    },
    {
      "anonymous": false,
      "inputs": [],
      "name": "FreezeAll",
      "type": "event"
    },
    {
      "anonymous": false,
      "inputs": [
        {
          "indexed": false,
          "internalType": "uint8",
          "name": "version",
          "type": "uint8"
        }
      ],
      "name": "Initialized",
      "type": "event"
    },
    {
      "anonymous": false,
      "inputs": [
        {
          "indexed": true,
          "internalType": "bytes32",
          "name": "queryHash",
          "type": "bytes32"
        }
      ],
      "name": "OffchainQueryFulfilled",
      "type": "event"
    },
    {
      "anonymous": false,
      "inputs": [
        {
          "indexed": true,
          "internalType": "bytes32",
          "name": "queryHash",
          "type": "bytes32"
        },
        {
          "indexed": false,
          "internalType": "address",
          "name": "payee",
          "type": "address"
        }
      ],
      "name": "QueryFulfilled",
      "type": "event"
    },
    {
      "anonymous": false,
      "inputs": [
        {
          "indexed": true,
          "internalType": "bytes32",
          "name": "queryHash",
          "type": "bytes32"
        },
        {
          "indexed": false,
          "internalType": "uint32",
          "name": "deadlineBlockNumber",
          "type": "uint32"
        },
        {
          "indexed": false,
          "internalType": "bytes32",
          "name": "ipfsHash",
          "type": "bytes32"
        },
        {
          "indexed": false,
          "internalType": "uint64",
          "name": "maxFeePerGas",
          "type": "uint64"
        },
        {
          "indexed": false,
          "internalType": "uint32",
          "name": "callbackGasLimit",
          "type": "uint32"
        }
      ],
      "name": "QueryInitiatedOffchain",
      "type": "event"
    },
    {
      "anonymous": false,
      "inputs": [
        {
          "indexed": true,
          "internalType": "bytes32",
          "name": "queryHash",
          "type": "bytes32"
        },
        {
          "indexed": false,
          "internalType": "uint32",
          "name": "deadlineBlockNumber",
          "type": "uint32"
        },
        {
          "indexed": false,
          "internalType": "uint64",
          "name": "maxFeePerGas",
          "type": "uint64"
        },
        {
          "indexed": false,
          "internalType": "uint32",
          "name": "callbackGasLimit",
          "type": "uint32"
        }
      ],
      "name": "QueryInitiatedOnchain",
      "type": "event"
    },
    {
      "anonymous": false,
      "inputs": [
        {
          "indexed": true,
          "internalType": "bytes32",
          "name": "queryHash",
          "type": "bytes32"
        }
      ],
      "name": "QueryRefunded",
      "type": "event"
    },
    {
      "anonymous": false,
      "inputs": [
        {
          "indexed": true,
          "internalType": "bytes32",
          "name": "role",
          "type": "bytes32"
        },
        {
          "indexed": true,
          "internalType": "bytes32",
          "name": "previousAdminRole",
          "type": "bytes32"
        },
        {
          "indexed": true,
          "internalType": "bytes32",
          "name": "newAdminRole",
          "type": "bytes32"
        }
      ],
      "name": "RoleAdminChanged",
      "type": "event"
    },
    {
      "anonymous": false,
      "inputs": [
        {
          "indexed": true,
          "internalType": "bytes32",
          "name": "role",
          "type": "bytes32"
        },
        {
          "indexed": true,
          "internalType": "address",
          "name": "account",
          "type": "address"
        },
        {
          "indexed": true,
          "internalType": "address",
          "name": "sender",
          "type": "address"
        }
      ],
      "name": "RoleGranted",
      "type": "event"
    },
    {
      "anonymous": false,
      "inputs": [
        {
          "indexed": true,
          "internalType": "bytes32",
          "name": "role",
          "type": "bytes32"
        },
        {
          "indexed": true,
          "internalType": "address",
          "name": "account",
          "type": "address"
        },
        {
          "indexed": true,
          "internalType": "address",
          "name": "sender",
          "type": "address"
        }
      ],
      "name": "RoleRevoked",
      "type": "event"
    },
    {
      "anonymous": false,
      "inputs": [],
      "name": "UnfreezeAll",
      "type": "event"
    },
    {
      "anonymous": false,
      "inputs": [
        {
          "indexed": false,
          "internalType": "bytes32",
          "name": "aggregateVkeyHash",
          "type": "bytes32"
        }
      ],
      "name": "UpdateAggregateVkeyHash",
      "type": "event"
    },
    {
      "anonymous": false,
      "inputs": [
        {
          "indexed": false,
          "internalType": "address",
          "name": "newAddress",
          "type": "address"
        }
      ],
      "name": "UpdateAxiomFeeStoreAddress",
      "type": "event"
    },
    {
      "anonymous": false,
      "inputs": [
        {
          "indexed": false,
          "internalType": "address",
          "name": "newAddress",
          "type": "address"
        }
      ],
      "name": "UpdateAxiomHeaderVerifierAddress",
      "type": "event"
    },
    {
      "anonymous": false,
      "inputs": [
        {
          "indexed": false,
          "internalType": "address",
          "name": "newAddress",
          "type": "address"
        }
      ],
      "name": "UpdateAxiomProverAddress",
      "type": "event"
    },
    {
      "anonymous": false,
      "inputs": [
        {
          "indexed": false,
          "internalType": "address",
          "name": "newAddress",
          "type": "address"
        }
      ],
      "name": "UpdateAxiomResultStoreAddress",
      "type": "event"
    },
    {
      "anonymous": false,
      "inputs": [
        {
          "indexed": false,
          "internalType": "uint32",
          "name": "newQueryDeadlineInterval",
          "type": "uint32"
        }
      ],
      "name": "UpdateQueryDeadlineInterval",
      "type": "event"
    },
    {
      "anonymous": false,
      "inputs": [
        {
          "indexed": false,
          "internalType": "address",
          "name": "newAddress",
          "type": "address"
        }
      ],
      "name": "UpdateVerifierAddress",
      "type": "event"
    },
    {
      "anonymous": false,
      "inputs": [
        {
          "indexed": true,
          "internalType": "address",
          "name": "implementation",
          "type": "address"
        }
      ],
      "name": "Upgraded",
      "type": "event"
    },
    {
      "inputs": [],
      "name": "AXIOM_ROLE",
      "outputs": [
        {
          "internalType": "bytes32",
          "name": "",
          "type": "bytes32"
        }
      ],
      "stateMutability": "view",
      "type": "function"
    },
    {
      "inputs": [],
      "name": "DEFAULT_ADMIN_ROLE",
      "outputs": [
        {
          "internalType": "bytes32",
          "name": "",
          "type": "bytes32"
        }
      ],
      "stateMutability": "view",
      "type": "function"
    },
    {
      "inputs": [],
      "name": "GUARDIAN_ROLE",
      "outputs": [
        {
          "internalType": "bytes32",
          "name": "",
          "type": "bytes32"
        }
      ],
      "stateMutability": "view",
      "type": "function"
    },
    {
      "inputs": [],
      "name": "PROVER_ROLE",
      "outputs": [
        {
          "internalType": "bytes32",
          "name": "",
          "type": "bytes32"
        }
      ],
      "stateMutability": "view",
      "type": "function"
    },
    {
      "inputs": [],
      "name": "TIMELOCK_ROLE",
      "outputs": [
        {
          "internalType": "bytes32",
          "name": "",
          "type": "bytes32"
        }
      ],
      "stateMutability": "view",
      "type": "function"
    },
    {
      "inputs": [],
      "name": "aggregateVkeyHash",
      "outputs": [
        {
          "internalType": "bytes32",
          "name": "",
          "type": "bytes32"
        }
      ],
      "stateMutability": "view",
      "type": "function"
    },
    {
      "inputs": [],
      "name": "axiomFeeStoreAddress",
      "outputs": [
        {
          "internalType": "address",
          "name": "",
          "type": "address"
        }
      ],
      "stateMutability": "view",
      "type": "function"
    },
    {
      "inputs": [],
      "name": "axiomHeaderVerifierAddress",
      "outputs": [
        {
          "internalType": "address",
          "name": "",
          "type": "address"
        }
      ],
      "stateMutability": "view",
      "type": "function"
    },
    {
      "inputs": [],
      "name": "axiomProverAddress",
      "outputs": [
        {
          "internalType": "address",
          "name": "",
          "type": "address"
        }
      ],
      "stateMutability": "view",
      "type": "function"
    },
    {
      "inputs": [],
      "name": "axiomResultStoreAddress",
      "outputs": [
        {
          "internalType": "address",
          "name": "",
          "type": "address"
        }
      ],
      "stateMutability": "view",
      "type": "function"
    },
    {
      "inputs": [],
      "name": "freezeAll",
      "outputs": [],
      "stateMutability": "nonpayable",
      "type": "function"
    },
    {
      "inputs": [],
      "name": "frozen",
      "outputs": [
        {
          "internalType": "bool",
          "name": "",
          "type": "bool"
        }
      ],
      "stateMutability": "view",
      "type": "function"
    },
    {
      "inputs": [
        {
          "components": [
            {
              "internalType": "bytes32",
              "name": "prevHash",
              "type": "bytes32"
            },
            {
              "internalType": "bytes32",
              "name": "root",
              "type": "bytes32"
            },
            {
              "internalType": "uint32",
              "name": "numFinal",
              "type": "uint32"
            },
            {
              "internalType": "uint32",
              "name": "startBlockNumber",
              "type": "uint32"
            },
            {
              "internalType": "bytes32[10]",
              "name": "recentMMRPeaks",
              "type": "bytes32[10]"
            },
            {
              "internalType": "bytes32[10]",
              "name": "mmrComplementOrPeaks",
              "type": "bytes32[10]"
            },
            {
              "internalType": "uint32",
              "name": "mmrIdx",
              "type": "uint32"
            }
          ],
          "internalType": "struct IAxiomV2HeaderVerifier.RecentMMRWitness",
          "name": "mmrWitness",
          "type": "tuple"
        },
        {
          "internalType": "bytes32[]",
          "name": "computeResults",
          "type": "bytes32[]"
        },
        {
          "internalType": "bytes",
          "name": "proof",
          "type": "bytes"
        },
        {
          "components": [
            {
              "internalType": "address",
              "name": "callbackAddr",
              "type": "address"
            },
            {
              "internalType": "bytes4",
              "name": "callbackFunctionSelector",
              "type": "bytes4"
            },
            {
              "internalType": "uint8",
              "name": "resultLen",
              "type": "uint8"
            },
            {
              "internalType": "bytes",
              "name": "callbackExtraData",
              "type": "bytes"
            }
          ],
          "internalType": "struct IAxiomV2Query.AxiomV2Callback",
          "name": "callback",
          "type": "tuple"
        }
      ],
      "name": "fulfillOffchainQuery",
      "outputs": [],
      "stateMutability": "nonpayable",
      "type": "function"
    },
    {
      "inputs": [
        {
          "components": [
            {
              "internalType": "bytes32",
              "name": "prevHash",
              "type": "bytes32"
            },
            {
              "internalType": "bytes32",
              "name": "root",
              "type": "bytes32"
            },
            {
              "internalType": "uint32",
              "name": "numFinal",
              "type": "uint32"
            },
            {
              "internalType": "uint32",
              "name": "startBlockNumber",
              "type": "uint32"
            },
            {
              "internalType": "bytes32[10]",
              "name": "recentMMRPeaks",
              "type": "bytes32[10]"
            },
            {
              "internalType": "bytes32[10]",
              "name": "mmrComplementOrPeaks",
              "type": "bytes32[10]"
            },
            {
              "internalType": "uint32",
              "name": "mmrIdx",
              "type": "uint32"
            }
          ],
          "internalType": "struct IAxiomV2HeaderVerifier.RecentMMRWitness",
          "name": "mmrWitness",
          "type": "tuple"
        },
        {
          "internalType": "bytes32[]",
          "name": "computeResults",
          "type": "bytes32[]"
        },
        {
          "internalType": "bytes",
          "name": "proof",
          "type": "bytes"
        },
        {
          "internalType": "bytes",
          "name": "callbackExtraData",
          "type": "bytes"
        }
      ],
      "name": "fulfillQuery",
      "outputs": [],
      "stateMutability": "nonpayable",
      "type": "function"
    },
    {
      "inputs": [
        {
          "internalType": "bytes32",
          "name": "role",
          "type": "bytes32"
        }
      ],
      "name": "getRoleAdmin",
      "outputs": [
        {
          "internalType": "bytes32",
          "name": "",
          "type": "bytes32"
        }
      ],
      "stateMutability": "view",
      "type": "function"
    },
    {
      "inputs": [
        {
          "internalType": "bytes32",
          "name": "role",
          "type": "bytes32"
        },
        {
          "internalType": "address",
          "name": "account",
          "type": "address"
        }
      ],
      "name": "grantRole",
      "outputs": [],
      "stateMutability": "nonpayable",
      "type": "function"
    },
    {
      "inputs": [
        {
          "internalType": "bytes32",
          "name": "role",
          "type": "bytes32"
        },
        {
          "internalType": "address",
          "name": "account",
          "type": "address"
        }
      ],
      "name": "hasRole",
      "outputs": [
        {
          "internalType": "bool",
          "name": "",
          "type": "bool"
        }
      ],
      "stateMutability": "view",
      "type": "function"
    },
    {
      "inputs": [
        {
          "internalType": "address",
          "name": "_axiomHeaderVerifierAddress",
          "type": "address"
        },
        {
          "internalType": "address",
          "name": "_verifierAddress",
          "type": "address"
        },
        {
          "internalType": "address",
          "name": "_axiomProverAddress",
          "type": "address"
        },
        {
          "internalType": "address",
          "name": "_axiomResultStoreAddress",
          "type": "address"
        },
        {
          "internalType": "address",
          "name": "_axiomFeeStoreAddress",
          "type": "address"
        },
        {
          "internalType": "bytes32",
          "name": "_aggregateVkeyHash",
          "type": "bytes32"
        },
        {
          "internalType": "uint32",
          "name": "_queryDeadlineInterval",
          "type": "uint32"
        },
        {
          "internalType": "address",
          "name": "timelock",
          "type": "address"
        },
        {
          "internalType": "address",
          "name": "guardian",
          "type": "address"
        }
      ],
      "name": "initialize",
      "outputs": [],
      "stateMutability": "nonpayable",
      "type": "function"
    },
    {
      "inputs": [],
      "name": "proxiableUUID",
      "outputs": [
        {
          "internalType": "bytes32",
          "name": "",
          "type": "bytes32"
        }
      ],
      "stateMutability": "view",
      "type": "function"
    },
    {
      "inputs": [
        {
          "internalType": "bytes32",
          "name": "",
          "type": "bytes32"
        }
      ],
      "name": "queries",
      "outputs": [
        {
          "internalType": "enum IAxiomV2Query.AxiomQueryState",
          "name": "state",
          "type": "uint8"
        },
        {
          "internalType": "uint32",
          "name": "deadlineBlockNumber",
          "type": "uint32"
        },
        {
          "internalType": "bytes32",
          "name": "querySchema",
          "type": "bytes32"
        },
        {
          "internalType": "uint8",
          "name": "resultLen",
          "type": "uint8"
        },
        {
          "internalType": "address",
          "name": "callerAddr",
          "type": "address"
        },
        {
          "internalType": "address",
          "name": "callbackAddr",
          "type": "address"
        },
        {
          "internalType": "bytes4",
          "name": "callbackFunctionSelector",
          "type": "bytes4"
        },
        {
          "internalType": "bytes32",
          "name": "callbackExtraDataHash",
          "type": "bytes32"
        }
      ],
      "stateMutability": "view",
      "type": "function"
    },
    {
      "inputs": [],
      "name": "queryDeadlineInterval",
      "outputs": [
        {
          "internalType": "uint32",
          "name": "",
          "type": "uint32"
        }
      ],
      "stateMutability": "view",
      "type": "function"
    },
    {
      "inputs": [
        {
          "internalType": "bytes32",
          "name": "queryHash",
          "type": "bytes32"
        }
      ],
      "name": "refundQuery",
      "outputs": [],
      "stateMutability": "nonpayable",
      "type": "function"
    },
    {
      "inputs": [
        {
          "internalType": "bytes32",
          "name": "role",
          "type": "bytes32"
        },
        {
          "internalType": "address",
          "name": "account",
          "type": "address"
        }
      ],
      "name": "renounceRole",
      "outputs": [],
      "stateMutability": "nonpayable",
      "type": "function"
    },
    {
      "inputs": [
        {
          "internalType": "bytes32",
          "name": "role",
          "type": "bytes32"
        },
        {
          "internalType": "address",
          "name": "account",
          "type": "address"
        }
      ],
      "name": "revokeRole",
      "outputs": [],
      "stateMutability": "nonpayable",
      "type": "function"
    },
    {
      "inputs": [
        {
          "internalType": "uint64",
          "name": "sourceChainId",
          "type": "uint64"
        },
        {
          "internalType": "bytes32",
          "name": "dataQueryHash",
          "type": "bytes32"
        },
        {
          "components": [
            {
              "internalType": "uint8",
              "name": "k",
              "type": "uint8"
            },
            {
              "internalType": "bytes32[]",
              "name": "vkey",
              "type": "bytes32[]"
            },
            {
              "internalType": "bytes",
              "name": "computeProof",
              "type": "bytes"
            }
          ],
          "internalType": "struct IAxiomV2Query.AxiomV2ComputeQuery",
          "name": "computeQuery",
          "type": "tuple"
        },
        {
          "components": [
            {
              "internalType": "address",
              "name": "callbackAddr",
              "type": "address"
            },
            {
              "internalType": "bytes4",
              "name": "callbackFunctionSelector",
              "type": "bytes4"
            },
            {
              "internalType": "uint8",
              "name": "resultLen",
              "type": "uint8"
            },
            {
              "internalType": "bytes",
              "name": "callbackExtraData",
              "type": "bytes"
            }
          ],
          "internalType": "struct IAxiomV2Query.AxiomV2Callback",
          "name": "callback",
          "type": "tuple"
        },
        {
          "internalType": "uint64",
          "name": "maxFeePerGas",
          "type": "uint64"
        },
        {
          "internalType": "uint32",
          "name": "callbackGasLimit",
          "type": "uint32"
        },
        {
          "internalType": "bytes",
          "name": "dataQuery",
          "type": "bytes"
        }
      ],
      "name": "sendQuery",
      "outputs": [
        {
          "internalType": "bytes32",
          "name": "",
          "type": "bytes32"
        }
      ],
      "stateMutability": "payable",
      "type": "function"
    },
    {
      "inputs": [
        {
          "internalType": "bytes32",
          "name": "queryHash",
          "type": "bytes32"
        },
        {
          "internalType": "bytes32",
          "name": "querySchema",
          "type": "bytes32"
        },
        {
          "internalType": "bytes32",
          "name": "ipfsHash",
          "type": "bytes32"
        },
        {
          "components": [
            {
              "internalType": "address",
              "name": "callbackAddr",
              "type": "address"
            },
            {
              "internalType": "bytes4",
              "name": "callbackFunctionSelector",
              "type": "bytes4"
            },
            {
              "internalType": "uint8",
              "name": "resultLen",
              "type": "uint8"
            },
            {
              "internalType": "bytes",
              "name": "callbackExtraData",
              "type": "bytes"
            }
          ],
          "internalType": "struct IAxiomV2Query.AxiomV2Callback",
          "name": "callback",
          "type": "tuple"
        },
        {
          "internalType": "uint64",
          "name": "maxFeePerGas",
          "type": "uint64"
        },
        {
          "internalType": "uint32",
          "name": "callbackGasLimit",
          "type": "uint32"
        }
      ],
      "name": "sendQueryWithIpfsData",
      "outputs": [],
      "stateMutability": "payable",
      "type": "function"
    },
    {
      "inputs": [
        {
          "internalType": "bytes4",
          "name": "interfaceId",
          "type": "bytes4"
        }
      ],
      "name": "supportsInterface",
      "outputs": [
        {
          "internalType": "bool",
          "name": "",
          "type": "bool"
        }
      ],
      "stateMutability": "view",
      "type": "function"
    },
    {
      "inputs": [],
      "name": "unfreezeAll",
      "outputs": [],
      "stateMutability": "nonpayable",
      "type": "function"
    },
    {
      "inputs": [
        {
          "internalType": "address",
          "name": "_axiomFeeStoreAddress",
          "type": "address"
        }
      ],
      "name": "updateAxiomFeeStore",
      "outputs": [],
      "stateMutability": "nonpayable",
      "type": "function"
    },
    {
      "inputs": [
        {
          "internalType": "address",
          "name": "_axiomHeaderVerifierAddress",
          "type": "address"
        }
      ],
      "name": "updateAxiomHeaderVerifierAddress",
      "outputs": [],
      "stateMutability": "nonpayable",
      "type": "function"
    },
    {
      "inputs": [
        {
          "internalType": "address",
          "name": "_axiomProverAddress",
          "type": "address"
        }
      ],
      "name": "updateAxiomProverAddress",
      "outputs": [],
      "stateMutability": "nonpayable",
      "type": "function"
    },
    {
      "inputs": [
        {
          "internalType": "address",
          "name": "_verifierAddress",
          "type": "address"
        }
      ],
      "name": "updateVerifierAddress",
      "outputs": [],
      "stateMutability": "nonpayable",
      "type": "function"
    },
    {
      "inputs": [
        {
          "internalType": "address",
          "name": "newImplementation",
          "type": "address"
        }
      ],
      "name": "upgradeTo",
      "outputs": [],
      "stateMutability": "nonpayable",
      "type": "function"
    },
    {
      "inputs": [
        {
          "internalType": "address",
          "name": "newImplementation",
          "type": "address"
        },
        {
          "internalType": "bytes",
          "name": "data",
          "type": "bytes"
        }
      ],
      "name": "upgradeToAndCall",
      "outputs": [],
      "stateMutability": "payable",
      "type": "function"
    },
    {
      "inputs": [],
      "name": "verifierAddress",
      "outputs": [
        {
          "internalType": "address",
          "name": "",
          "type": "address"
        }
      ],
      "stateMutability": "view",
      "type": "function"
    },
    {
      "inputs": [
        {
          "components": [
            {
              "internalType": "bytes32",
              "name": "prevHash",
              "type": "bytes32"
            },
            {
              "internalType": "bytes32",
              "name": "root",
              "type": "bytes32"
            },
            {
              "internalType": "uint32",
              "name": "numFinal",
              "type": "uint32"
            },
            {
              "internalType": "uint32",
              "name": "startBlockNumber",
              "type": "uint32"
            },
            {
              "internalType": "bytes32[10]",
              "name": "recentMMRPeaks",
              "type": "bytes32[10]"
            },
            {
              "internalType": "bytes32[10]",
              "name": "mmrComplementOrPeaks",
              "type": "bytes32[10]"
            },
            {
              "internalType": "uint32",
              "name": "mmrIdx",
              "type": "uint32"
            }
          ],
          "internalType": "struct IAxiomV2HeaderVerifier.RecentMMRWitness",
          "name": "mmrWitness",
          "type": "tuple"
        },
        {
          "internalType": "bytes",
          "name": "proof",
          "type": "bytes"
        }
      ],
      "name": "verifyAndWriteResult",
      "outputs": [],
      "stateMutability": "nonpayable",
      "type": "function"
    }
  ],
  "bytecode": {
    "object": "0x60a0604052306080523480156200001557600080fd5b506200002062000026565b62000164565b600054610100900460ff161562000074576040517f08c379a00000000000000000000000000000000000000000000000000000000081526004016200006b90620000ec565b60405180910390fd5b60005460ff9081161015620000ea57600080547fffffffffffffffffffffffffffffffffffffffffffffffffffffffffffffff001660ff9081179091556040517f7f26b83ff96e1f2b6a682f133852f6798a09c465da95921460cefb384740249891620000e19162000154565b60405180910390a15b565b602080825281016200014e81602781527f496e697469616c697a61626c653a20636f6e747261637420697320696e69746960208201527f616c697a696e6700000000000000000000000000000000000000000000000000604082015260600190565b92915050565b60ff82168152602081016200014e565b6080516152be6200019c60003960008181610a5901528181610ab301528181610cb701528181610d110152610e0001526152be6000f3fe60806040526004361061024f5760003560e01c8063673fed6211610138578063beaa0ebd116100b0578063dc9a4ef61161007f578063e2069efe11610064578063e2069efe146107ad578063ea53dce4146107cd578063f288a2e2146107e057600080fd5b8063dc9a4ef614610759578063e166cdbd1461078d57600080fd5b8063beaa0ebd146106bd578063c15dcf40146106eb578063d3046ea61461070b578063d547741f1461073957600080fd5b806391d14854116101075780639a104112116100ec5780639a1041121461065a578063a217fddf1461067a578063b6ed03881461068f57600080fd5b806391d14854146105f257806399464c891461064557600080fd5b8063673fed6214610567578063736f16181461058757806379ce0468146105a7578063898091e0146105d257600080fd5b80632f2ff15d116101cb578063469b23621161019a5780634f1ef2861161017f5780634f1ef2861461052a57806352d1902d1461053d57806366c5c4a01461055257600080fd5b8063469b2362146104e95780634d7d007d1461051757600080fd5b80632f2ff15d146104695780633237c2fd1461048957806336568abe146104a95780633659cfe6146104c957600080fd5b806318bdffbb11610222578063248a9ca311610207578063248a9ca3146103d157806324ea54f4146104015780632b7d2bad1461043557600080fd5b806318bdffbb146102ea57806321dfb6001461032557600080fd5b806301ffc9a714610254578063054f7d9c1461028a57806307c11e79146102a457806308b422db146102c6575b600080fd5b34801561026057600080fd5b5061027461026f36600461388c565b610814565b60405161028191906138bf565b60405180910390f35b34801561029657600080fd5b506097546102749060ff1681565b3480156102b057600080fd5b506102c46102bf3660046138ff565b610870565b005b3480156102d257600080fd5b506102dd6101295481565b6040516102819190613926565b3480156102f657600080fd5b50610125546103189073ffffffffffffffffffffffffffffffffffffffff1681565b604051610281919061393d565b34801561033157600080fd5b506103bd61034036600461395c565b61012b602052600090815260409020805460018201546002830154600384015460049094015460ff8085169563ffffffff6101009687900416959184169373ffffffffffffffffffffffffffffffffffffffff929004821692918116917401000000000000000000000000000000000000000090910460e01b9088565b604051610281989796959493929190613a1c565b3480156103dd57600080fd5b506102dd6103ec36600461395c565b60009081526065602052604090206001015490565b34801561040d57600080fd5b506102dd7f55435dd261a4b9b3364963f7738a7a662ad9c84396d64be3365284bb7f0a504181565b34801561044157600080fd5b506102dd7f542178611b653a605b79640db9b52a7afa591d6ace75cd36686e0ee264f4f57281565b34801561047557600080fd5b506102c4610484366004613a93565b610917565b34801561049557600080fd5b506102c46104a43660046138ff565b610941565b3480156104b557600080fd5b506102c46104c4366004613a93565b6109dc565b3480156104d557600080fd5b506102c46104e43660046138ff565b610a42565b3480156104f557600080fd5b50610124546103189073ffffffffffffffffffffffffffffffffffffffff1681565b6102c4610525366004613b1d565b610b9b565b6102c4610538366004613d0d565b610ca0565b34801561054957600080fd5b506102dd610de6565b34801561055e57600080fd5b506102c4610e7c565b34801561057357600080fd5b506102c4610582366004613e0e565b610efa565b34801561059357600080fd5b506102c46105a23660046138ff565b6113ee565b3480156105b357600080fd5b5061012a546105c59063ffffffff1681565b6040516102819190613ed5565b3480156105de57600080fd5b506102c46105ed366004613ee3565b611489565b3480156105fe57600080fd5b5061027461060d366004613a93565b600091825260656020908152604080842073ffffffffffffffffffffffffffffffffffffffff93909316845291905290205460ff1690565b34801561065157600080fd5b506102c46114cd565b34801561066657600080fd5b506102c4610675366004613f41565b61154e565b34801561068657600080fd5b506102dd600081565b34801561069b57600080fd5b50610126546103189073ffffffffffffffffffffffffffffffffffffffff1681565b3480156106c957600080fd5b50610128546103189073ffffffffffffffffffffffffffffffffffffffff1681565b3480156106f757600080fd5b506102c461070636600461395c565b611b98565b34801561071757600080fd5b50610127546103189073ffffffffffffffffffffffffffffffffffffffff1681565b34801561074557600080fd5b506102c4610754366004613a93565b611f52565b34801561076557600080fd5b506102dd7f60044782a422109ac08a415e44260ad5d3bad63d96ebe1fac0363399642ee3f281565b34801561079957600080fd5b506102c46107a83660046138ff565b611f77565b3480156107b957600080fd5b506102c46107c8366004614008565b612012565b6102dd6107db3660046140d1565b612284565b3480156107ec57600080fd5b506102dd7ff66846415d2bf9eabda9e84793ff9c0ea96d87f50fc41e66aa16469c6a442f0581565b60007fffffffff0000000000000000000000000000000000000000000000000000000082167f6acaf1a500000000000000000000000000000000000000000000000000000000148061086a575061086a826124a2565b92915050565b7ff66846415d2bf9eabda9e84793ff9c0ea96d87f50fc41e66aa16469c6a442f0561089a81612539565b61012880547fffffffffffffffffffffffff00000000000000000000000000000000000000001673ffffffffffffffffffffffffffffffffffffffff84161790556040517fd5916ec2c920845feddd056ebbee86209587bfb0d0d72341eb4a022fd98c218d9061090b90849061393d565b60405180910390a15050565b60008281526065602052604090206001015461093281612539565b61093c8383612543565b505050565b7ff66846415d2bf9eabda9e84793ff9c0ea96d87f50fc41e66aa16469c6a442f0561096b81612539565b61012480547fffffffffffffffffffffffff00000000000000000000000000000000000000001673ffffffffffffffffffffffffffffffffffffffff84161790556040517f75bcc4f3a8eeec60c22df746d7f53083c892df4b1e07b2be152f117df8f353f79061090b90849061393d565b73ffffffffffffffffffffffffffffffffffffffff81163314610a34576040517f08c379a0000000000000000000000000000000000000000000000000000000008152600401610a2b90614222565b60405180910390fd5b610a3e8282612637565b5050565b73ffffffffffffffffffffffffffffffffffffffff7f0000000000000000000000000000000000000000000000000000000000000000163003610ab1576040517f08c379a0000000000000000000000000000000000000000000000000000000008152600401610a2b9061428c565b7f000000000000000000000000000000000000000000000000000000000000000073ffffffffffffffffffffffffffffffffffffffff16610b267f360894a13ba1a3210667c828492db98dca3e2076cc3735a920a3ca505d382bbc5473ffffffffffffffffffffffffffffffffffffffff1690565b73ffffffffffffffffffffffffffffffffffffffff1614610b73576040517f08c379a0000000000000000000000000000000000000000000000000000000008152600401610a2b906142f6565b610b7c816126f2565b60408051600080825260208201909252610b989183919061271c565b50565b610ba361286f565b610128546040517ff340fa0100000000000000000000000000000000000000000000000000000000815273ffffffffffffffffffffffffffffffffffffffff9091169063f340fa01903490610bfc90339060040161393d565b6000604051808303818588803b158015610c1557600080fd5b505af1158015610c29573d6000803e3d6000fd5b5050505050610c45868685610c3d906143a7565b8585336128ae565b61012a5486907fb765869aef79ab0ae7505358156a36b5fd069b1d2c8064bc7459aca55cbdc12e90610c7d9063ffffffff16436143e2565b868585604051610c909493929190614412565b60405180910390a2505050505050565b73ffffffffffffffffffffffffffffffffffffffff7f0000000000000000000000000000000000000000000000000000000000000000163003610d0f576040517f08c379a0000000000000000000000000000000000000000000000000000000008152600401610a2b9061428c565b7f000000000000000000000000000000000000000000000000000000000000000073ffffffffffffffffffffffffffffffffffffffff16610d847f360894a13ba1a3210667c828492db98dca3e2076cc3735a920a3ca505d382bbc5473ffffffffffffffffffffffffffffffffffffffff1690565b73ffffffffffffffffffffffffffffffffffffffff1614610dd1576040517f08c379a0000000000000000000000000000000000000000000000000000000008152600401610a2b906142f6565b610dda826126f2565b610a3e8282600161271c565b60003073ffffffffffffffffffffffffffffffffffffffff7f00000000000000000000000000000000000000000000000000000000000000001614610e57576040517f08c379a0000000000000000000000000000000000000000000000000000000008152600401610a2b906144a1565b507f360894a13ba1a3210667c828492db98dca3e2076cc3735a920a3ca505d382bbc90565b7ff66846415d2bf9eabda9e84793ff9c0ea96d87f50fc41e66aa16469c6a442f05610ea681612539565b609780547fffffffffffffffffffffffffffffffffffffffffffffffffffffffffffffff001690556040517fe6fdbf73945dd61794a752b9181ea29f77170a7b1ffd37e0a7ff9d2c6f7258b990600090a150565b7f60044782a422109ac08a415e44260ad5d3bad63d96ebe1fac0363399642ee3f2610f2481612539565b610f2c61286f565b6000610f39898787612bc6565b60408101519091506001600082815261012b602052604090205460ff166002811115610f6757610f6761397d565b14610f9e576040517ff8c22cf100000000000000000000000000000000000000000000000000000000815260040160405180910390fd5b6060820151600082815261012b602052604090206001015414610fed576040517f6b8899b400000000000000000000000000000000000000000000000000000000815260040160405180910390fd5b60008989604051602001611002929190614507565b60405160208183030381529060405280519060200120905080836080015114611057576040517f921c328700000000000000000000000000000000000000000000000000000000815260040160405180910390fd5b508484604051611068929190614521565b604051809103902061012b600083815260200190815260200160002060040154146110bf576040517f292485e600000000000000000000000000000000000000000000000000000000815260040160405180910390fd5b600081815261012b602090815260409182902080547fffffffffffffffffffffffffffffffffffffffffffffffffffffffffffffff00166002179055610128549084015191517f1bbdcfd300000000000000000000000000000000000000000000000000000000815273ffffffffffffffffffffffffffffffffffffffff90911691631bbdcfd39161115591859160040161452e565b600060405180830381600087803b15801561116f57600080fd5b505af1158015611183573d6000803e3d6000fd5b50505050807f7d75c70e29cbe8fa8f30d34dc1e421fce569f086fa6e2985816ad3cfa03e86a983602001516040516111bb919061393d565b60405180910390a2600081815261012b602052604090206003015473ffffffffffffffffffffffffffffffffffffffff16156113e257600061012b600083815260200190815260200160002060020160009054906101000a900460ff16905061012b600083815260200190815260200160002060030160009054906101000a900473ffffffffffffffffffffffffffffffffffffffff1673ffffffffffffffffffffffffffffffffffffffff1661012b600084815260200190815260200160002060030160149054906101000a900460e01b846000015161012b600086815260200190815260200160002060020160019054906101000a900473ffffffffffffffffffffffffffffffffffffffff1661012b600087815260200190815260200160002060010154868f8f6000908960ff16926112f993929190614549565b8d8d6040516024016113129897969594939291906145d1565b604080517fffffffffffffffffffffffffffffffffffffffffffffffffffffffffffffffe08184030181529181526020820180517bffffffffffffffffffffffffffffffffffffffffffffffffffffffff167fffffffff0000000000000000000000000000000000000000000000000000000090941693909317909252905161139b9190614682565b6000604051808303816000865af19150503d80600081146113d8576040519150601f19603f3d011682016040523d82523d6000602084013e6113dd565b606091505b505050505b50505050505050505050565b7ff66846415d2bf9eabda9e84793ff9c0ea96d87f50fc41e66aa16469c6a442f0561141881612539565b61012580547fffffffffffffffffffffffff00000000000000000000000000000000000000001673ffffffffffffffffffffffffffffffffffffffff84161790556040517fe6e1c2bf73bb6cc1c20546306996ac2050af3e2cfc8d64d3173c7ef0ce5495199061090b90849061393d565b7f60044782a422109ac08a415e44260ad5d3bad63d96ebe1fac0363399642ee3f26114b381612539565b6114bb61286f565b6114c6848484612bc6565b5050505050565b7f55435dd261a4b9b3364963f7738a7a662ad9c84396d64be3365284bb7f0a50416114f781612539565b609780547fffffffffffffffffffffffffffffffffffffffffffffffffffffffffffffff001660011790556040517f61340a1b154d5d21d259a74bf95379201799b9d12cc6509bb46cb56dc281df5590600090a150565b600054610100900460ff161580801561156e5750600054600160ff909116105b806115885750303b158015611588575060005460ff166001145b6115be576040517f08c379a0000000000000000000000000000000000000000000000000000000008152600401610a2b906146e8565b600080547fffffffffffffffffffffffffffffffffffffffffffffffffffffffffffffff00166001179055801561161c57600080547fffffffffffffffffffffffffffffffffffffffffffffffffffffffffffff00ff166101001790555b611624612fb5565b61162c612ff6565b73ffffffffffffffffffffffffffffffffffffffff8a16611679576040517f08c379a0000000000000000000000000000000000000000000000000000000008152600401610a2b90614752565b73ffffffffffffffffffffffffffffffffffffffff89166116c6576040517f08c379a0000000000000000000000000000000000000000000000000000000008152600401610a2b906147bc565b73ffffffffffffffffffffffffffffffffffffffff8816611713576040517f08c379a0000000000000000000000000000000000000000000000000000000008152600401610a2b90614826565b73ffffffffffffffffffffffffffffffffffffffff8716611760576040517f08c379a0000000000000000000000000000000000000000000000000000000008152600401610a2b90614890565b73ffffffffffffffffffffffffffffffffffffffff86166117ad576040517f08c379a0000000000000000000000000000000000000000000000000000000008152600401610a2b906148fa565b73ffffffffffffffffffffffffffffffffffffffff83166117fa576040517f08c379a0000000000000000000000000000000000000000000000000000000008152600401610a2b90614964565b73ffffffffffffffffffffffffffffffffffffffff8216611847576040517f08c379a0000000000000000000000000000000000000000000000000000000008152600401610a2b906149ce565b61012480547fffffffffffffffffffffffff000000000000000000000000000000000000000090811673ffffffffffffffffffffffffffffffffffffffff8d811691909117909255610125805482168c8416179055610126805482168b8416179055610127805482168a841617905561012880549091169188169190911790556101298590556040517f75bcc4f3a8eeec60c22df746d7f53083c892df4b1e07b2be152f117df8f353f7906118fd908c9061393d565b60405180910390a17fe6e1c2bf73bb6cc1c20546306996ac2050af3e2cfc8d64d3173c7ef0ce54951989604051611934919061393d565b60405180910390a17f0b93934b7edc78aefca2346fce453b27091f670d5d0d27a235a500c5d4813d5d8860405161196b919061393d565b60405180910390a17fa38376a1d553c24d4e7d7ae03562d267dc74246db411d00789b674d260625d7f876040516119a2919061393d565b60405180910390a17fd5916ec2c920845feddd056ebbee86209587bfb0d0d72341eb4a022fd98c218d866040516119d9919061393d565b60405180910390a17ff77c574d5485467a3c18d07361ab639b525993f2bad19f0228cbf033bf764af285604051611a109190613926565b60405180910390a161012a80547fffffffffffffffffffffffffffffffffffffffffffffffffffffffff000000001663ffffffff86161790556040517f266d22101c27a330937ff06442e5289e92a84a449d22bb001c03789f7774b62890611a79908690613ed5565b60405180910390a161012654611ac6907f60044782a422109ac08a415e44260ad5d3bad63d96ebe1fac0363399642ee3f29073ffffffffffffffffffffffffffffffffffffffff16612543565b611ad1600084612543565b611afb7ff66846415d2bf9eabda9e84793ff9c0ea96d87f50fc41e66aa16469c6a442f0584612543565b611b257f55435dd261a4b9b3364963f7738a7a662ad9c84396d64be3365284bb7f0a504183612543565b80156113e257600080547fffffffffffffffffffffffffffffffffffffffffffffffffffffffffffff00ff1690556040517f7f26b83ff96e1f2b6a682f133852f6798a09c465da95921460cefb384740249890611b84906001906149f2565b60405180910390a150505050505050505050565b611ba061286f565b600081815261012b6020526040808220815161010081019092528054829060ff166002811115611bd257611bd261397d565b6002811115611be357611be361397d565b8152815463ffffffff610100918290041660208301526001808401546040840152600284015460ff8116606085015273ffffffffffffffffffffffffffffffffffffffff92900482166080840152600384015491821660a08401527fffffffff000000000000000000000000000000000000000000000000000000007401000000000000000000000000000000000000000090920460e090811b9290921660c084015260049093015491015290915081516002811115611ca557611ca561397d565b14611cdc576040517f5f158cf700000000000000000000000000000000000000000000000000000000815260040160405180910390fd5b806020015163ffffffff164311611d1f576040517f6d542c0d00000000000000000000000000000000000000000000000000000000815260040160405180910390fd5b604080516101008101825260008082526020808301829052828401829052606083018290526080830182905260a0830182905260c0830182905260e0830182905285825261012b905291909120815181548392919082907fffffffffffffffffffffffffffffffffffffffffffffffffffffffffffffff00166001836002811115611dac57611dac61397d565b0217905550602082015181547fffffffffffffffffffffffffffffffffffffffffffffffffffffff00000000ff1661010063ffffffff909216820217825560408084015160018401556060840151600284018054608087015160ff9093167fffffffffffffffffffffff0000000000000000000000000000000000000000009091161773ffffffffffffffffffffffffffffffffffffffff9283169094029390931790925560a084015160038401805460c08701519285167fffffffffffffffff000000000000000000000000000000000000000000000000909116177401000000000000000000000000000000000000000060e093841c02179055909301516004928301556101285492517f7249fbb6000000000000000000000000000000000000000000000000000000008152921691637249fbb691611ef091879101613926565b600060405180830381600087803b158015611f0a57600080fd5b505af1158015611f1e573d6000803e3d6000fd5b50506040518592507f1923b26db8236a215e02d277919450f65fa53365f004d2b955263220e91036799150600090a2505050565b600082815260656020526040902060010154611f6d81612539565b61093c8383612637565b7ff66846415d2bf9eabda9e84793ff9c0ea96d87f50fc41e66aa16469c6a442f05611fa181612539565b61012680547fffffffffffffffffffffffff00000000000000000000000000000000000000001673ffffffffffffffffffffffffffffffffffffffff84161790556040517f0b93934b7edc78aefca2346fce453b27091f670d5d0d27a235a500c5d4813d5d9061090b90849061393d565b7f60044782a422109ac08a415e44260ad5d3bad63d96ebe1fac0363399642ee3f261203c81612539565b61204461286f565b6000612051888686612bc6565b905060008160400151905060008888604051602001612071929190614507565b604051602081830303815290604052805190602001209050808360800151146120c6576040517f921c328700000000000000000000000000000000000000000000000000000000815260040160405180910390fd5b5060405181907f3dfddd8dc9e35222679030ce268e6c609a765196274087e9e7b52d8aa8efec0b90600090a2600061210160208601866138ff565b73ffffffffffffffffffffffffffffffffffffffff161461227957600061212e6060860160408701614a00565b905061213d60208601866138ff565b73ffffffffffffffffffffffffffffffffffffffff16612163604087016020880161388c565b8460000151338660600151868e8e6000908960ff169261218593929190614549565b61219260608e018e614a21565b6040516024016121a99897969594939291906145d1565b604080517fffffffffffffffffffffffffffffffffffffffffffffffffffffffffffffffe08184030181529181526020820180517bffffffffffffffffffffffffffffffffffffffffffffffffffffffff167fffffffff000000000000000000000000000000000000000000000000000000009094169390931790925290516122329190614682565b6000604051808303816000865af19150503d806000811461226f576040519150601f19603f3d011682016040523d82523d6000602084013e612274565b606091505b505050505b505050505050505050565b600061228e61286f565b610128546040517ff340fa0100000000000000000000000000000000000000000000000000000000815273ffffffffffffffffffffffffffffffffffffffff9091169063f340fa019034906122e790339060040161393d565b6000604051808303818588803b15801561230057600080fd5b505af1158015612314573d6000803e3d6000fd5b506000935083925061232c91505060208a018a614a00565b60ff1660000361237d5760028b8b61234760208d018d614a00565b60405160200161235a9493929190614ad5565b6040516020818303038152906040528051906020012091506000801b905061242d565b600061238c60208b018b614a00565b61239960208c018c614b1d565b90506123a860208d018d614b1d565b6040516020016123bb9493929190614b90565b604051602081830303815290604052905060028c8c838d80604001906123e19190614a21565b90508e80604001906123f39190614a21565b6040516020016124099796959493929190614be0565b60405160208183030381529060405280519060200120925080805190602001209150505b612443828261243b8b6143a7565b8a8a336128ae565b61012a5482907f8039ed5c4465b459f0e6ac4412fc8d1718ebd061c4ca051e40fb969dee08499a9061247b9063ffffffff16436143e2565b898960405161248c93929190614c39565b60405180910390a2509998505050505050505050565b60007fffffffff0000000000000000000000000000000000000000000000000000000082167f7965db0b00000000000000000000000000000000000000000000000000000000148061086a57507f01ffc9a7000000000000000000000000000000000000000000000000000000007fffffffff0000000000000000000000000000000000000000000000000000000083161461086a565b610b988133613061565b600082815260656020908152604080832073ffffffffffffffffffffffffffffffffffffffff8516845290915290205460ff16610a3e57600082815260656020908152604080832073ffffffffffffffffffffffffffffffffffffffff85168452909152902080547fffffffffffffffffffffffffffffffffffffffffffffffffffffffffffffff001660011790556125d93390565b73ffffffffffffffffffffffffffffffffffffffff168173ffffffffffffffffffffffffffffffffffffffff16837f2f8788117e7eff1d82e926ec794901d17c78024a50270940304540a733656f0d60405160405180910390a45050565b600082815260656020908152604080832073ffffffffffffffffffffffffffffffffffffffff8516845290915290205460ff1615610a3e57600082815260656020908152604080832073ffffffffffffffffffffffffffffffffffffffff8516808552925280832080547fffffffffffffffffffffffffffffffffffffffffffffffffffffffffffffff0016905551339285917ff6391f5c32d9c69d2a47ea670b442974b53935d1edc7fd64eb21e047a839171b9190a45050565b7ff66846415d2bf9eabda9e84793ff9c0ea96d87f50fc41e66aa16469c6a442f05610a3e81612539565b7f4910fdfa16fed3260ed0e7147f7cc6da11a60208b5b9406d12a635614ffd91435460ff161561274f5761093c8361311b565b8273ffffffffffffffffffffffffffffffffffffffff166352d1902d6040518163ffffffff1660e01b8152600401602060405180830381865afa9250505080156127d4575060408051601f3d9081017fffffffffffffffffffffffffffffffffffffffffffffffffffffffffffffffe01682019092526127d191810190614c6c565b60015b61280a576040517f08c379a0000000000000000000000000000000000000000000000000000000008152600401610a2b90614ce7565b7f360894a13ba1a3210667c828492db98dca3e2076cc3735a920a3ca505d382bbc8114612863576040517f08c379a0000000000000000000000000000000000000000000000000000000008152600401610a2b90614d51565b5061093c8383836131cf565b60975460ff16156128ac576040517f379dfc6300000000000000000000000000000000000000000000000000000000815260040160405180910390fd5b565b600086815261012b602052604081205460ff1660028111156128d2576128d261397d565b14612909576040517f96e41fe900000000000000000000000000000000000000000000000000000000815260040160405180910390fd5b600061291584846131fa565b610128546040517f1fa3e05500000000000000000000000000000000000000000000000000000000815291925073ffffffffffffffffffffffffffffffffffffffff1690631fa3e055906129719033908b908690600401614d61565b600060405180830381600087803b15801561298b57600080fd5b505af115801561299f573d6000803e3d6000fd5b505050506000604051806101000160405280600160028111156129c4576129c461397d565b815261012a546020909101906129e09063ffffffff16436143e2565b63ffffffff16815260208082018a905260408981015160ff168184015273ffffffffffffffffffffffffffffffffffffffff8088166060808601919091528b5190911660808501528a8301517fffffffff000000000000000000000000000000000000000000000000000000001660a08501528a015180519083012060c09093019290925260008b815261012b9091522081518154929350839282907fffffffffffffffffffffffffffffffffffffffffffffffffffffffffffffff00166001836002811115612ab257612ab261397d565b0217905550602082015181547fffffffffffffffffffffffffffffffffffffffffffffffffffffff00000000ff1661010063ffffffff9092168202178255604083015160018301556060830151600283018054608086015160ff9093167fffffffffffffffffffffff0000000000000000000000000000000000000000009091161773ffffffffffffffffffffffffffffffffffffffff9283169093029290921790915560a083015160038301805460c0860151929093167fffffffffffffffff000000000000000000000000000000000000000000000000909316929092177401000000000000000000000000000000000000000060e092831c0217909155909101516004909101555050505050505050565b6040805160a081018252600080825260208201819052918101829052606081018290526080810182905290612bfb8484613235565b6101245460c082015160e08301516040517ff1340da300000000000000000000000000000000000000000000000000000000815293945073ffffffffffffffffffffffffffffffffffffffff9092169263f1340da392612c6092918a90600401614e61565b600060405180830381600087803b158015612c7a57600080fd5b505af1158015612c8e573d6000803e3d6000fd5b5050505061012460009054906101000a900473ffffffffffffffffffffffffffffffffffffffff1673ffffffffffffffffffffffffffffffffffffffff1663fe428ed36040518163ffffffff1660e01b8152600401602060405180830381865afa158015612d00573d6000803e3d6000fd5b505050506040513d601f19601f82011682018060405250810190612d249190614e95565b67ffffffffffffffff16816000015167ffffffffffffffff1614612d74576040517f0db21db600000000000000000000000000000000000000000000000000000000815260040160405180910390fd5b6101295481610100015114612db5576040517f7d4ce51e00000000000000000000000000000000000000000000000000000000815260040160405180910390fd5b6101255460405160009173ffffffffffffffffffffffffffffffffffffffff1690612de39087908790614521565b6000604051808303816000865af19150503d8060008114612e20576040519150601f19603f3d011682016040523d82523d6000602084013e612e25565b606091505b5050905080612e60576040517fd611c31800000000000000000000000000000000000000000000000000000000815260040160405180910390fd5b60008260000151836020015184604001518560600151604051602001612e899493929190614eb6565b604080517fffffffffffffffffffffffffffffffffffffffffffffffffffffffffffffffe08184030181529082905280516020909101206101275460808601517fd18b7db500000000000000000000000000000000000000000000000000000000845291935073ffffffffffffffffffffffffffffffffffffffff169163d18b7db591612f1a918590600401614efe565b600060405180830381600087803b158015612f3457600080fd5b505af1158015612f48573d6000803e3d6000fd5b505050506040518060a00160405280846000015167ffffffffffffffff16815260200184610120015173ffffffffffffffffffffffffffffffffffffffff168152602001846080015181526020018460a001518152602001846060015181525093505050505b9392505050565b600054610100900460ff166128ac576040517f08c379a0000000000000000000000000000000000000000000000000000000008152600401610a2b90614f73565b600054610100900460ff16613037576040517f08c379a0000000000000000000000000000000000000000000000000000000008152600401610a2b90614f73565b609780547fffffffffffffffffffffffffffffffffffffffffffffffffffffffffffffff00169055565b600082815260656020908152604080832073ffffffffffffffffffffffffffffffffffffffff8516845290915290205460ff16610a3e576130a181613492565b6130ac8360206134b1565b6040516020016130bd929190614f83565b604080517fffffffffffffffffffffffffffffffffffffffffffffffffffffffffffffffe0818403018152908290527f08c379a0000000000000000000000000000000000000000000000000000000008252610a2b91600401615033565b73ffffffffffffffffffffffffffffffffffffffff81163b613169576040517f08c379a0000000000000000000000000000000000000000000000000000000008152600401610a2b9061509e565b7f360894a13ba1a3210667c828492db98dca3e2076cc3735a920a3ca505d382bbc80547fffffffffffffffffffffffff00000000000000000000000000000000000000001673ffffffffffffffffffffffffffffffffffffffff92909216919091179055565b6131d8836136c4565b6000825111806131e55750805b1561093c576131f48383613711565b50505050565b60006611c37937e080006132176207a12063ffffffff85166150ae565b61322b9067ffffffffffffffff86166150c1565b612fae91906150ae565b604080516101408082018352600080835260208301819052828401819052606083018190526080830181905260a0830181905260c0830181905260e0830181905261010083018190526101208301528251908101909252908061329e6101a061018086886150e0565b6132a791615110565b67ffffffffffffffff1681526020016132c66101e06101c086886150e0565b6132cf91615110565b60806132e16101c06101a0888a6150e0565b6132ea91615110565b901b1781526020016133026102006101e086886150e0565b61330b91615110565b815260200161332061024061022086886150e0565b61332991615110565b608061333b610220610200888a6150e0565b61334491615110565b901b17815260200161335c61028061026086886150e0565b61336591615110565b6080613377610260610240888a6150e0565b61338091615110565b901b1781526020016133986102c06102a086886150e0565b6133a191615110565b60806133b36102a0610280888a6150e0565b6133bc91615110565b901b1781526020016133d46103006102e086886150e0565b6133dd91615110565b60806133ef6102e06102c0888a6150e0565b6133f891615110565b901b17815260200161341061034061032086886150e0565b61341991615110565b608061342b610320610300888a6150e0565b61343491615110565b901b17815260200161344c61036061034086886150e0565b61345591615110565b815260200161346a61038061036086886150e0565b61347391615110565b73ffffffffffffffffffffffffffffffffffffffff1690529392505050565b606061086a73ffffffffffffffffffffffffffffffffffffffff831660145b606060006134c08360026150c1565b6134cb9060026150ae565b67ffffffffffffffff8111156134e3576134e3613bc2565b6040519080825280601f01601f19166020018201604052801561350d576020820181803683370190505b5090507f30000000000000000000000000000000000000000000000000000000000000008160008151811061354457613544615159565b60200101907effffffffffffffffffffffffffffffffffffffffffffffffffffffffffffff1916908160001a9053507f7800000000000000000000000000000000000000000000000000000000000000816001815181106135a7576135a7615159565b60200101907effffffffffffffffffffffffffffffffffffffffffffffffffffffffffffff1916908160001a90535060006135e38460026150c1565b6135ee9060016150ae565b90505b600181111561368b577f303132333435363738396162636465660000000000000000000000000000000085600f166010811061362f5761362f615159565b1a60f81b82828151811061364557613645615159565b60200101907effffffffffffffffffffffffffffffffffffffffffffffffffffffffffffff1916908160001a90535060049490941c9361368481615188565b90506135f1565b508315612fae576040517f08c379a0000000000000000000000000000000000000000000000000000000008152600401610a2b906151bd565b6136cd8161311b565b60405173ffffffffffffffffffffffffffffffffffffffff8216907fbc7cd75a20ee27fd9adebab32041f755214dbc6bffa90cc0225b39da2e5c2d3b90600090a250565b606073ffffffffffffffffffffffffffffffffffffffff83163b613761576040517f08c379a0000000000000000000000000000000000000000000000000000000008152600401610a2b90615251565b6000808473ffffffffffffffffffffffffffffffffffffffff16846040516137899190614682565b600060405180830381855af49150503d80600081146137c4576040519150601f19603f3d011682016040523d82523d6000602084013e6137c9565b606091505b50915091506137f18282604051806060016040528060278152602001615262602791396137fa565b95945050505050565b60608315613809575081612fae565b612fae838381511561381e5781518083602001fd5b806040517f08c379a0000000000000000000000000000000000000000000000000000000008152600401610a2b9190615033565b7fffffffff0000000000000000000000000000000000000000000000000000000081165b8114610b9857600080fd5b803561086a81613852565b6000602082840312156138a1576138a1600080fd5b60006138ad8484613881565b949350505050565b8015155b82525050565b6020810161086a82846138b5565b600073ffffffffffffffffffffffffffffffffffffffff821661086a565b613876816138cd565b803561086a816138eb565b60006020828403121561391457613914600080fd5b60006138ad84846138f4565b806138b9565b6020810161086a8284613920565b6138b9816138cd565b6020810161086a8284613934565b80613876565b803561086a8161394b565b60006020828403121561397157613971600080fd5b60006138ad8484613951565b7f4e487b7100000000000000000000000000000000000000000000000000000000600052602160045260246000fd5b60038110610b9857610b9861397d565b806139c6816139ac565b919050565b600061086a826139bc565b6138b9816139cb565b63ffffffff81166138b9565b60ff81166138b9565b7fffffffff0000000000000000000000000000000000000000000000000000000081166138b9565b6101008101613a2b828b6139d6565b613a38602083018a6139df565b613a456040830189613920565b613a5260608301886139eb565b613a5f6080830187613934565b613a6c60a0830186613934565b613a7960c08301856139f4565b613a8660e0830184613920565b9998505050505050505050565b60008060408385031215613aa957613aa9600080fd5b6000613ab58585613951565b9250506020613ac6858286016138f4565b9150509250929050565b600060808284031215613ae557613ae5600080fd5b50919050565b67ffffffffffffffff8116613876565b803561086a81613aeb565b63ffffffff8116613876565b803561086a81613b06565b60008060008060008060c08789031215613b3957613b39600080fd5b6000613b458989613951565b9650506020613b5689828a01613951565b9550506040613b6789828a01613951565b945050606087013567ffffffffffffffff811115613b8757613b87600080fd5b613b9389828a01613ad0565b9350506080613ba489828a01613afb565b92505060a0613bb589828a01613b12565b9150509295509295509295565b7f4e487b7100000000000000000000000000000000000000000000000000000000600052604160045260246000fd5b7fffffffffffffffffffffffffffffffffffffffffffffffffffffffffffffffe0601f830116810181811067ffffffffffffffff82111715613c3557613c35613bc2565b6040525050565b6000613c4760405190565b90506139c68282613bf1565b600067ffffffffffffffff821115613c6d57613c6d613bc2565b7fffffffffffffffffffffffffffffffffffffffffffffffffffffffffffffffe0601f83011660200192915050565b82818337506000910152565b6000613cbb613cb684613c53565b613c3c565b905082815260208101848484011115613cd657613cd6600080fd5b613ce1848285613c9c565b509392505050565b600082601f830112613cfd57613cfd600080fd5b81356138ad848260208601613ca8565b60008060408385031215613d2357613d23600080fd5b6000613d2f85856138f4565b925050602083013567ffffffffffffffff811115613d4f57613d4f600080fd5b613ac685828601613ce9565b60006103208284031215613ae557613ae5600080fd5b60008083601f840112613d8657613d86600080fd5b50813567ffffffffffffffff811115613da157613da1600080fd5b602083019150836020820283011115613dbc57613dbc600080fd5b9250929050565b60008083601f840112613dd857613dd8600080fd5b50813567ffffffffffffffff811115613df357613df3600080fd5b602083019150836001820283011115613dbc57613dbc600080fd5b6000806000806000806000610380888a031215613e2d57613e2d600080fd5b6000613e398a8a613d5b565b97505061032088013567ffffffffffffffff811115613e5a57613e5a600080fd5b613e668a828b01613d71565b965096505061034088013567ffffffffffffffff811115613e8957613e89600080fd5b613e958a828b01613dc3565b945094505061036088013567ffffffffffffffff811115613eb857613eb8600080fd5b613ec48a828b01613dc3565b925092505092959891949750929550565b6020810161086a82846139df565b60008060006103408486031215613efc57613efc600080fd5b6000613f088686613d5b565b93505061032084013567ffffffffffffffff811115613f2957613f29600080fd5b613f3586828701613dc3565b92509250509250925092565b60008060008060008060008060006101208a8c031215613f6357613f63600080fd5b6000613f6f8c8c6138f4565b9950506020613f808c828d016138f4565b9850506040613f918c828d016138f4565b9750506060613fa28c828d016138f4565b9650506080613fb38c828d016138f4565b95505060a0613fc48c828d01613951565b94505060c0613fd58c828d01613b12565b93505060e0613fe68c828d016138f4565b925050610100613ff88c828d016138f4565b9150509295985092959850929598565b600080600080600080610380878903121561402557614025600080fd5b60006140318989613d5b565b96505061032087013567ffffffffffffffff81111561405257614052600080fd5b61405e89828a01613d71565b955095505061034087013567ffffffffffffffff81111561408157614081600080fd5b61408d89828a01613dc3565b935093505061036087013567ffffffffffffffff8111156140b0576140b0600080fd5b613bb589828a01613ad0565b600060608284031215613ae557613ae5600080fd5b60008060008060008060008060e0898b0312156140f0576140f0600080fd5b60006140fc8b8b613afb565b985050602061410d8b828c01613951565b975050604089013567ffffffffffffffff81111561412d5761412d600080fd5b6141398b828c016140bc565b965050606089013567ffffffffffffffff81111561415957614159600080fd5b6141658b828c01613ad0565b95505060806141768b828c01613afb565b94505060a06141878b828c01613b12565b93505060c089013567ffffffffffffffff8111156141a7576141a7600080fd5b6141b38b828c01613dc3565b92509250509295985092959890939650565b602f81526000602082017f416363657373436f6e74726f6c3a2063616e206f6e6c792072656e6f756e636581527f20726f6c657320666f722073656c660000000000000000000000000000000000602082015291505b5060400190565b6020808252810161086a816141c5565b602c81526000602082017f46756e6374696f6e206d7573742062652063616c6c6564207468726f7567682081527f64656c656761746563616c6c00000000000000000000000000000000000000006020820152915061421b565b6020808252810161086a81614232565b602c81526000602082017f46756e6374696f6e206d7573742062652063616c6c6564207468726f7567682081527f6163746976652070726f787900000000000000000000000000000000000000006020820152915061421b565b6020808252810161086a8161429c565b60ff8116613876565b803561086a81614306565b60006080828403121561432f5761432f600080fd5b6143396080613c3c565b9050600061434784846138f4565b825250602061435884848301613881565b602083015250604061436c8482850161430f565b604083015250606082013567ffffffffffffffff81111561438f5761438f600080fd5b61439b84828501613ce9565b60608301525092915050565b600061086a368361431a565b7f4e487b7100000000000000000000000000000000000000000000000000000000600052601160045260246000fd5b63ffffffff91821691908116908282019081111561086a5761086a6143b3565b67ffffffffffffffff81166138b9565b6080810161442082876139df565b61442d6020830186613920565b61443a6040830185614402565b6137f160608301846139df565b603881526000602082017f555550535570677261646561626c653a206d757374206e6f742062652063616c81527f6c6564207468726f7567682064656c656761746563616c6c00000000000000006020820152915061421b565b6020808252810161086a81614447565b82818337505050565b6000835b93507f07ffffffffffffffffffffffffffffffffffffffffffffffffffffffffffffff8311156144f0576144f0600080fd5b6020830292506145018385846144b1565b50500190565b60006138ad8284866144ba565b6000614501838584613c9c565b60006138ad828486614514565b6040810161453c8285613920565b612fae6020830184613934565b6000808585111561455c5761455c600080fd5b8386111561456c5761456c600080fd5b5050602083020193919092039150565b8183526000602084016144be565b81835260006020840193506145a0838584613c9c565b7fffffffffffffffffffffffffffffffffffffffffffffffffffffffffffffffe0601f8401165b9093019392505050565b60c081016145df828b614402565b6145ec602083018a613934565b6145f96040830189613920565b6146066060830188613920565b818103608083015261461981868861457c565b905081810360a083015261462e81848661458a565b9a9950505050505050505050565b60005b8381101561465757818101518382015260200161463f565b50506000910152565b600061466a825190565b61467881856020860161463c565b9290920192915050565b6000612fae8284614660565b602e81526000602082017f496e697469616c697a61626c653a20636f6e747261637420697320616c72656181527f647920696e697469616c697a65640000000000000000000000000000000000006020820152915061421b565b6020808252810161086a8161468e565b603381526000602082017f4178696f6d563251756572793a204178696f6d2068656164657220766572696681527f6965722061646472657373206973207a65726f000000000000000000000000006020820152915061421b565b6020808252810161086a816146f8565b602681526000602082017f4178696f6d563251756572793a2076657269666965722061646472657373206981527f73207a65726f00000000000000000000000000000000000000000000000000006020820152915061421b565b6020808252810161086a81614762565b602981526000602082017f4178696f6d563251756572793a206178696f6d50726f7665722061646472657381527f73206973207a65726f00000000000000000000000000000000000000000000006020820152915061421b565b6020808252810161086a816147cc565b602e81526000602082017f4178696f6d563251756572793a206178696f6d526573756c7453746f7265206181527f646472657373206973207a65726f0000000000000000000000000000000000006020820152915061421b565b6020808252810161086a81614836565b603281526000602082017f4178696f6d563251756572793a206178696f6d46656553746f7265416464726581527f73732061646472657373206973207a65726f00000000000000000000000000006020820152915061421b565b6020808252810161086a816148a0565b602681526000602082017f4178696f6d563251756572793a2074696d656c6f636b2061646472657373206981527f73207a65726f00000000000000000000000000000000000000000000000000006020820152915061421b565b6020808252810161086a8161490a565b602681526000602082017f4178696f6d563251756572793a20677561726469616e2061646472657373206981527f73207a65726f00000000000000000000000000000000000000000000000000006020820152915061421b565b6020808252810161086a81614974565b600060ff821661086a565b6138b9816149de565b6020810161086a82846149e9565b600060208284031215614a1557614a15600080fd5b60006138ad848461430f565b60008083357fffffffffffffffffffffffffffffffffffffffffffffffffffffffffffffffe136859003018112614a5a57614a5a600080fd5b80840192508235915067ffffffffffffffff821115614a7b57614a7b600080fd5b602083019250600182023603831315614a9657614a96600080fd5b509250929050565b600061086a8260f81b90565b6138b960ff8216614a9e565b600061086a8260c01b90565b6138b967ffffffffffffffff8216614ab6565b6000614ae18287614aaa565b600182019150614af18286614ac2565b600882019150614b018285613920565b602082019150614b118284614aaa565b50600101949350505050565b60008083357fffffffffffffffffffffffffffffffffffffffffffffffffffffffffffffffe136859003018112614b5657614b56600080fd5b80840192508235915067ffffffffffffffff821115614b7757614b77600080fd5b60209283019282023603831315614a9657614a96600080fd5b6000614b9c8287614aaa565b600182019150614bac8286614aaa565b600182019150614bbd8284866144ba565b9695505050505050565b600061086a8260f01b90565b6138b961ffff8216614bc7565b6000614bec828a614aaa565b600182019150614bfc8289614ac2565b600882019150614c0c8288613920565b602082019150614c1c8287614660565b9150614c288286614bd3565b600282019150613a86828486614514565b60608101614c4782866139df565b614c546020830185614402565b6138ad60408301846139df565b805161086a8161394b565b600060208284031215614c8157614c81600080fd5b60006138ad8484614c61565b602e81526000602082017f45524331393637557067726164653a206e657720696d706c656d656e7461746981527f6f6e206973206e6f7420555550530000000000000000000000000000000000006020820152915061421b565b6020808252810161086a81614c8d565b602981526000602082017f45524331393637557067726164653a20756e737570706f727465642070726f7881527f6961626c655555494400000000000000000000000000000000000000000000006020820152915061421b565b6020808252810161086a81614cf7565b60608101614d6f8286613934565b614d7c6020830185613920565b6138ad6040830184613920565b6000612fae6020840184613951565b6000612fae6020840184613b12565b610a3e61014083836144b1565b6103208201614dc38280614d89565b614dcd8482613920565b50614ddb6020830183614d89565b614de86020850182613920565b50614df66040830183614d98565b614e0360408501826139df565b50614e116060830183614d98565b614e1e60608501826139df565b5060808201614e306080850182614da7565b506101c08201614e446101c0850182614da7565b50614e53610300830183614d98565b6131f46103008501826139df565b6103608101614e708286613920565b614e7d6020830185613920565b6138ad6040830184614db4565b805161086a81613aeb565b600060208284031215614eaa57614eaa600080fd5b60006138ad8484614e8a565b6000614ec28287614ac2565b600882019150614ed28286613920565b602082019150614ee28285613920565b602082019150614ef28284613920565b50602001949350505050565b60408101614f0c8285613920565b612fae6020830184613920565b602b81526000602082017f496e697469616c697a61626c653a20636f6e7472616374206973206e6f74206981527f6e697469616c697a696e670000000000000000000000000000000000000000006020820152915061421b565b6020808252810161086a81614f19565b7f416363657373436f6e74726f6c3a206163636f756e742000000000000000000081526017016000614fb58285614660565b7f206973206d697373696e6720726f6c6520000000000000000000000000000000815260110191506138ad8284614660565b6000614ff1825190565b80845260208401935061500881856020860161463c565b7fffffffffffffffffffffffffffffffffffffffffffffffffffffffffffffffe0601f8201166145c7565b60208082528101612fae8184614fe7565b602d81526000602082017f455243313936373a206e657720696d706c656d656e746174696f6e206973206e81527f6f74206120636f6e7472616374000000000000000000000000000000000000006020820152915061421b565b6020808252810161086a81615044565b8082018082111561086a5761086a6143b3565b8181028082158382048514176150d9576150d96143b3565b5092915050565b600080858511156150f3576150f3600080fd5b8386111561510357615103600080fd5b5050820193919092039150565b8035828260208210156151515761514c7fffffffffffffffffffffffffffffffffffffffffffffffffffffffffffffffff836020036008021b90565b831692505b505092915050565b7f4e487b7100000000000000000000000000000000000000000000000000000000600052603260045260246000fd5b600081615197576151976143b3565b507fffffffffffffffffffffffffffffffffffffffffffffffffffffffffffffffff0190565b60208082528181019081527f537472696e67733a20686578206c656e67746820696e73756666696369656e7460408301526060820161086a565b602681526000602082017f416464726573733a2064656c65676174652063616c6c20746f206e6f6e2d636f81527f6e747261637400000000000000000000000000000000000000000000000000006020820152915061421b565b6020808252810161086a816151f756fe416464726573733a206c6f772d6c6576656c2064656c65676174652063616c6c206661696c6564a26469706673582212201c64948b00b2caa126e320fe1c90d196f1ddf6bf9b4f7bc2e9a69141ad8131b164736f6c63430008130033",
    "linkReferences": {}
  },
  "methodIdentifiers": {
    "AXIOM_ROLE()": "2b7d2bad",
    "DEFAULT_ADMIN_ROLE()": "a217fddf",
    "GUARDIAN_ROLE()": "24ea54f4",
    "PROVER_ROLE()": "dc9a4ef6",
    "TIMELOCK_ROLE()": "f288a2e2",
    "aggregateVkeyHash()": "08b422db",
    "axiomFeeStoreAddress()": "beaa0ebd",
    "axiomHeaderVerifierAddress()": "469b2362",
    "axiomProverAddress()": "b6ed0388",
    "axiomResultStoreAddress()": "d3046ea6",
    "freezeAll()": "99464c89",
    "frozen()": "054f7d9c",
    "fulfillOffchainQuery((bytes32,bytes32,uint32,uint32,bytes32[10],bytes32[10],uint32),bytes32[],bytes,(address,bytes4,uint8,bytes))": "e2069efe",
    "fulfillQuery((bytes32,bytes32,uint32,uint32,bytes32[10],bytes32[10],uint32),bytes32[],bytes,bytes)": "673fed62",
    "getRoleAdmin(bytes32)": "248a9ca3",
    "grantRole(bytes32,address)": "2f2ff15d",
    "hasRole(bytes32,address)": "91d14854",
    "initialize(address,address,address,address,address,bytes32,uint32,address,address)": "9a104112",
    "proxiableUUID()": "52d1902d",
    "queries(bytes32)": "21dfb600",
    "queryDeadlineInterval()": "79ce0468",
    "refundQuery(bytes32)": "c15dcf40",
    "renounceRole(bytes32,address)": "36568abe",
    "revokeRole(bytes32,address)": "d547741f",
    "sendQuery(uint64,bytes32,(uint8,bytes32[],bytes),(address,bytes4,uint8,bytes),uint64,uint32,bytes)": "ea53dce4",
    "sendQueryWithIpfsData(bytes32,bytes32,bytes32,(address,bytes4,uint8,bytes),uint64,uint32)": "4d7d007d",
    "supportsInterface(bytes4)": "01ffc9a7",
    "unfreezeAll()": "66c5c4a0",
    "updateAxiomFeeStore(address)": "07c11e79",
    "updateAxiomHeaderVerifierAddress(address)": "3237c2fd",
    "updateAxiomProverAddress(address)": "e166cdbd",
    "updateVerifierAddress(address)": "736f1618",
    "upgradeTo(address)": "3659cfe6",
    "upgradeToAndCall(address,bytes)": "4f1ef286",
    "verifierAddress()": "18bdffbb",
    "verifyAndWriteResult((bytes32,bytes32,uint32,uint32,bytes32[10],bytes32[10],uint32),bytes)": "898091e0"
  },
  "id": 27
}