{
  "abi": [
    {
      "inputs": [],
      "stateMutability": "nonpayable",
      "type": "constructor"
    },
    {
      "inputs": [],
      "name": "AxiomBlockVerificationFailed",
      "type": "error"
    },
    {
      "inputs": [],
      "name": "BlockHashIncorrect",
      "type": "error"
    },
    {
      "inputs": [],
      "name": "ContractIsFrozen",
      "type": "error"
    },
    {
      "inputs": [],
      "name": "MerkleProofFailed",
      "type": "error"
    },
    {
      "inputs": [],
      "name": "NotProverRole",
      "type": "error"
    },
    {
      "inputs": [],
      "name": "NotRecentEndBlock",
      "type": "error"
    },
    {
      "inputs": [],
      "name": "SNARKVerificationFailed",
      "type": "error"
    },
    {
      "inputs": [],
      "name": "StartingBlockNotMultipleOfBatchSize",
      "type": "error"
    },
    {
      "inputs": [],
      "name": "UpdatingIncorrectNumberOfBlocks",
      "type": "error"
    },
    {
      "anonymous": false,
      "inputs": [
        {
          "indexed": false,
          "internalType": "address",
          "name": "previousAdmin",
          "type": "address"
        },
        {
          "indexed": false,
          "internalType": "address",
          "name": "newAdmin",
          "type": "address"
        }
      ],
      "name": "AdminChanged",
      "type": "event"
    },
    {
      "anonymous": false,
      "inputs": [
        {
          "indexed": true,
          "internalType": "address",
          "name": "beacon",
          "type": "address"
        }
      ],
      "name": "BeaconUpgraded",
      "type": "event"
    },
    {
      "anonymous": false,
      "inputs": [],
      "name": "FreezeAll",
      "type": "event"
    },
    {
      "anonymous": false,
      "inputs": [
        {
          "indexed": false,
          "internalType": "uint8",
          "name": "version",
          "type": "uint8"
        }
      ],
      "name": "Initialized",
      "type": "event"
    },
    {
      "anonymous": false,
      "inputs": [
        {
          "indexed": false,
          "internalType": "uint32",
          "name": "len",
          "type": "uint32"
        },
        {
          "indexed": false,
          "internalType": "uint32",
          "name": "index",
          "type": "uint32"
        }
      ],
      "name": "MerkleMountainRangeEvent",
      "type": "event"
    },
    {
      "anonymous": false,
      "inputs": [
        {
          "indexed": true,
          "internalType": "bytes32",
          "name": "role",
          "type": "bytes32"
        },
        {
          "indexed": true,
          "internalType": "bytes32",
          "name": "previousAdminRole",
          "type": "bytes32"
        },
        {
          "indexed": true,
          "internalType": "bytes32",
          "name": "newAdminRole",
          "type": "bytes32"
        }
      ],
      "name": "RoleAdminChanged",
      "type": "event"
    },
    {
      "anonymous": false,
      "inputs": [
        {
          "indexed": true,
          "internalType": "bytes32",
          "name": "role",
          "type": "bytes32"
        },
        {
          "indexed": true,
          "internalType": "address",
          "name": "account",
          "type": "address"
        },
        {
          "indexed": true,
          "internalType": "address",
          "name": "sender",
          "type": "address"
        }
      ],
      "name": "RoleGranted",
      "type": "event"
    },
    {
      "anonymous": false,
      "inputs": [
        {
          "indexed": true,
          "internalType": "bytes32",
          "name": "role",
          "type": "bytes32"
        },
        {
          "indexed": true,
          "internalType": "address",
          "name": "account",
          "type": "address"
        },
        {
          "indexed": true,
          "internalType": "address",
          "name": "sender",
          "type": "address"
        }
      ],
      "name": "RoleRevoked",
      "type": "event"
    },
    {
      "anonymous": false,
      "inputs": [],
      "name": "UnfreezeAll",
      "type": "event"
    },
    {
      "anonymous": false,
      "inputs": [
        {
          "indexed": false,
          "internalType": "uint32",
          "name": "startBlockNumber",
          "type": "uint32"
        },
        {
          "indexed": false,
          "internalType": "bytes32",
          "name": "prevHash",
          "type": "bytes32"
        },
        {
          "indexed": false,
          "internalType": "bytes32",
          "name": "root",
          "type": "bytes32"
        },
        {
          "indexed": false,
          "internalType": "uint32",
          "name": "numFinal",
          "type": "uint32"
        }
      ],
      "name": "UpdateEvent",
      "type": "event"
    },
    {
      "anonymous": false,
      "inputs": [
        {
          "indexed": false,
          "internalType": "address",
          "name": "newAddress",
          "type": "address"
        }
      ],
      "name": "UpgradeHistoricalSnarkVerifier",
      "type": "event"
    },
    {
      "anonymous": false,
      "inputs": [
        {
          "indexed": false,
          "internalType": "address",
          "name": "newAddress",
          "type": "address"
        }
      ],
      "name": "UpgradeSnarkVerifier",
      "type": "event"
    },
    {
      "anonymous": false,
      "inputs": [
        {
          "indexed": true,
          "internalType": "address",
          "name": "implementation",
          "type": "address"
        }
      ],
      "name": "Upgraded",
      "type": "event"
    },
    {
      "inputs": [],
      "name": "DEFAULT_ADMIN_ROLE",
      "outputs": [
        {
          "internalType": "bytes32",
          "name": "",
          "type": "bytes32"
        }
      ],
      "stateMutability": "view",
      "type": "function"
    },
    {
      "inputs": [],
      "name": "GUARDIAN_ROLE",
      "outputs": [
        {
          "internalType": "bytes32",
          "name": "",
          "type": "bytes32"
        }
      ],
      "stateMutability": "view",
      "type": "function"
    },
    {
      "inputs": [],
      "name": "PROVER_ROLE",
      "outputs": [
        {
          "internalType": "bytes32",
          "name": "",
          "type": "bytes32"
        }
      ],
      "stateMutability": "view",
      "type": "function"
    },
    {
      "inputs": [],
      "name": "TIMELOCK_ROLE",
      "outputs": [
        {
          "internalType": "bytes32",
          "name": "",
          "type": "bytes32"
        }
      ],
      "stateMutability": "view",
      "type": "function"
    },
    {
      "inputs": [
        {
          "internalType": "uint32",
          "name": "startBlockNumber",
          "type": "uint32"
        },
        {
          "internalType": "bytes32[]",
          "name": "roots",
          "type": "bytes32[]"
        },
        {
          "internalType": "bytes32[]",
          "name": "prevHashes",
          "type": "bytes32[]"
        }
      ],
      "name": "appendHistoricalMMR",
      "outputs": [],
      "stateMutability": "nonpayable",
      "type": "function"
    },
    {
      "inputs": [],
      "name": "freezeAll",
      "outputs": [],
      "stateMutability": "nonpayable",
      "type": "function"
    },
    {
      "inputs": [],
      "name": "frozen",
      "outputs": [
        {
          "internalType": "bool",
          "name": "",
          "type": "bool"
        }
      ],
      "stateMutability": "view",
      "type": "function"
    },
    {
      "inputs": [
        {
          "internalType": "bytes32",
          "name": "role",
          "type": "bytes32"
        }
      ],
      "name": "getRoleAdmin",
      "outputs": [
        {
          "internalType": "bytes32",
          "name": "",
          "type": "bytes32"
        }
      ],
      "stateMutability": "view",
      "type": "function"
    },
    {
      "inputs": [
        {
          "internalType": "bytes32",
          "name": "role",
          "type": "bytes32"
        },
        {
          "internalType": "address",
          "name": "account",
          "type": "address"
        }
      ],
      "name": "grantRole",
      "outputs": [],
      "stateMutability": "nonpayable",
      "type": "function"
    },
    {
      "inputs": [
        {
          "internalType": "bytes32",
          "name": "role",
          "type": "bytes32"
        },
        {
          "internalType": "address",
          "name": "account",
          "type": "address"
        }
      ],
      "name": "hasRole",
      "outputs": [
        {
          "internalType": "bool",
          "name": "",
          "type": "bool"
        }
      ],
      "stateMutability": "view",
      "type": "function"
    },
    {
      "inputs": [],
      "name": "historicalMMR",
      "outputs": [
        {
          "internalType": "uint32",
          "name": "numPeaks",
          "type": "uint32"
        },
        {
          "internalType": "uint32",
          "name": "len",
          "type": "uint32"
        },
        {
          "internalType": "uint32",
          "name": "index",
          "type": "uint32"
        }
      ],
      "stateMutability": "view",
      "type": "function"
    },
    {
      "inputs": [
        {
          "internalType": "uint32",
          "name": "i",
          "type": "uint32"
        }
      ],
      "name": "historicalMMRPeaks",
      "outputs": [
        {
          "internalType": "bytes32",
          "name": "",
          "type": "bytes32"
        }
      ],
      "stateMutability": "view",
      "type": "function"
    },
    {
      "inputs": [
        {
          "internalType": "uint32",
          "name": "",
          "type": "uint32"
        }
      ],
      "name": "historicalRoots",
      "outputs": [
        {
          "internalType": "bytes32",
          "name": "",
          "type": "bytes32"
        }
      ],
      "stateMutability": "view",
      "type": "function"
    },
    {
      "inputs": [],
      "name": "historicalVerifierAddress",
      "outputs": [
        {
          "internalType": "address",
          "name": "",
          "type": "address"
        }
      ],
      "stateMutability": "view",
      "type": "function"
    },
    {
      "inputs": [
        {
          "internalType": "address",
          "name": "_verifierAddress",
          "type": "address"
        },
        {
          "internalType": "address",
          "name": "_historicalVerifierAddress",
          "type": "address"
        },
        {
          "internalType": "address",
          "name": "timelock",
          "type": "address"
        },
        {
          "internalType": "address",
          "name": "guardian",
          "type": "address"
        }
      ],
      "name": "initialize",
      "outputs": [],
      "stateMutability": "nonpayable",
      "type": "function"
    },
    {
      "inputs": [
        {
          "components": [
            {
              "internalType": "uint32",
              "name": "blockNumber",
              "type": "uint32"
            },
            {
              "internalType": "bytes32",
              "name": "claimedBlockHash",
              "type": "bytes32"
            },
            {
              "internalType": "bytes32",
              "name": "prevHash",
              "type": "bytes32"
            },
            {
              "internalType": "uint32",
              "name": "numFinal",
              "type": "uint32"
            },
            {
              "internalType": "bytes32[10]",
              "name": "merkleProof",
              "type": "bytes32[10]"
            }
          ],
          "internalType": "struct IAxiomV1Verifier.BlockHashWitness",
          "name": "witness",
          "type": "tuple"
        }
      ],
      "name": "isBlockHashValid",
      "outputs": [
        {
          "internalType": "bool",
          "name": "",
          "type": "bool"
        }
      ],
      "stateMutability": "view",
      "type": "function"
    },
    {
      "inputs": [
        {
          "internalType": "uint32",
          "name": "blockNumber",
          "type": "uint32"
        },
        {
          "internalType": "bytes32",
          "name": "claimedBlockHash",
          "type": "bytes32"
        }
      ],
      "name": "isRecentBlockHashValid",
      "outputs": [
        {
          "internalType": "bool",
          "name": "",
          "type": "bool"
        }
      ],
      "stateMutability": "view",
      "type": "function"
    },
    {
      "inputs": [
        {
          "internalType": "uint256",
          "name": "",
          "type": "uint256"
        }
      ],
      "name": "mmrRingBuffer",
      "outputs": [
        {
          "internalType": "bytes32",
          "name": "",
          "type": "bytes32"
        }
      ],
      "stateMutability": "view",
      "type": "function"
    },
    {
      "inputs": [
        {
          "internalType": "bytes32[]",
          "name": "mmr",
          "type": "bytes32[]"
        },
        {
          "internalType": "uint8",
          "name": "bufferId",
          "type": "uint8"
        },
        {
          "internalType": "uint32",
          "name": "blockNumber",
          "type": "uint32"
        },
        {
          "internalType": "bytes32",
          "name": "claimedBlockHash",
          "type": "bytes32"
        },
        {
          "internalType": "bytes32[]",
          "name": "merkleProof",
          "type": "bytes32[]"
        }
      ],
      "name": "mmrVerifyBlockHash",
      "outputs": [],
      "stateMutability": "view",
      "type": "function"
    },
    {
      "inputs": [],
      "name": "proxiableUUID",
      "outputs": [
        {
          "internalType": "bytes32",
          "name": "",
          "type": "bytes32"
        }
      ],
      "stateMutability": "view",
      "type": "function"
    },
    {
      "inputs": [
        {
          "internalType": "bytes32",
          "name": "role",
          "type": "bytes32"
        },
        {
          "internalType": "address",
          "name": "account",
          "type": "address"
        }
      ],
      "name": "renounceRole",
      "outputs": [],
      "stateMutability": "nonpayable",
      "type": "function"
    },
    {
      "inputs": [
        {
          "internalType": "bytes32",
          "name": "role",
          "type": "bytes32"
        },
        {
          "internalType": "address",
          "name": "account",
          "type": "address"
        }
      ],
      "name": "revokeRole",
      "outputs": [],
      "stateMutability": "nonpayable",
      "type": "function"
    },
    {
      "inputs": [
        {
          "internalType": "bytes4",
          "name": "interfaceId",
          "type": "bytes4"
        }
      ],
      "name": "supportsInterface",
      "outputs": [
        {
          "internalType": "bool",
          "name": "",
          "type": "bool"
        }
      ],
      "stateMutability": "view",
      "type": "function"
    },
    {
      "inputs": [],
      "name": "unfreezeAll",
      "outputs": [],
      "stateMutability": "nonpayable",
      "type": "function"
    },
    {
      "inputs": [
        {
          "internalType": "bytes32",
          "name": "nextRoot",
          "type": "bytes32"
        },
        {
          "internalType": "uint32",
          "name": "nextNumFinal",
          "type": "uint32"
        },
        {
          "internalType": "bytes32[128]",
          "name": "roots",
          "type": "bytes32[128]"
        },
        {
          "internalType": "bytes32[11][127]",
          "name": "endHashProofs",
          "type": "bytes32[11][127]"
        },
        {
          "internalType": "bytes",
          "name": "proofData",
          "type": "bytes"
        }
      ],
      "name": "updateHistorical",
      "outputs": [],
      "stateMutability": "nonpayable",
      "type": "function"
    },
    {
      "inputs": [
        {
          "internalType": "bytes32",
          "name": "nextRoot",
          "type": "bytes32"
        },
        {
          "internalType": "uint32",
          "name": "nextNumFinal",
          "type": "uint32"
        },
        {
          "internalType": "bytes",
          "name": "proofData",
          "type": "bytes"
        }
      ],
      "name": "updateOld",
      "outputs": [],
      "stateMutability": "nonpayable",
      "type": "function"
    },
    {
      "inputs": [
        {
          "internalType": "bytes",
          "name": "proofData",
          "type": "bytes"
        }
      ],
      "name": "updateRecent",
      "outputs": [],
      "stateMutability": "nonpayable",
      "type": "function"
    },
    {
      "inputs": [
        {
          "internalType": "address",
          "name": "_historicalVerifierAddress",
          "type": "address"
        }
      ],
      "name": "upgradeHistoricalSnarkVerifier",
      "outputs": [],
      "stateMutability": "nonpayable",
      "type": "function"
    },
    {
      "inputs": [
        {
          "internalType": "address",
          "name": "_verifierAddress",
          "type": "address"
        }
      ],
      "name": "upgradeSnarkVerifier",
      "outputs": [],
      "stateMutability": "nonpayable",
      "type": "function"
    },
    {
      "inputs": [
        {
          "internalType": "address",
          "name": "newImplementation",
          "type": "address"
        }
      ],
      "name": "upgradeTo",
      "outputs": [],
      "stateMutability": "nonpayable",
      "type": "function"
    },
    {
      "inputs": [
        {
          "internalType": "address",
          "name": "newImplementation",
          "type": "address"
        },
        {
          "internalType": "bytes",
          "name": "data",
          "type": "bytes"
        }
      ],
      "name": "upgradeToAndCall",
      "outputs": [],
      "stateMutability": "payable",
      "type": "function"
    },
    {
      "inputs": [],
      "name": "verifierAddress",
      "outputs": [
        {
          "internalType": "address",
          "name": "",
          "type": "address"
        }
      ],
      "stateMutability": "view",
      "type": "function"
    }
  ],
  "bytecode": {
    "object": "0x60a0604052306080523480156200001557600080fd5b506200002062000026565b62000164565b600054610100900460ff161562000074576040517f08c379a00000000000000000000000000000000000000000000000000000000081526004016200006b90620000ec565b60405180910390fd5b60005460ff9081161015620000ea57600080547fffffffffffffffffffffffffffffffffffffffffffffffffffffffffffffff001660ff9081179091556040517f7f26b83ff96e1f2b6a682f133852f6798a09c465da95921460cefb384740249891620000e19162000154565b60405180910390a15b565b602080825281016200014e81602781527f496e697469616c697a61626c653a20636f6e747261637420697320696e69746960208201527f616c697a696e6700000000000000000000000000000000000000000000000000604082015260600190565b92915050565b60ff82168152602081016200014e565b608051614e366200019c600039600081816111c20152818161121c0152818161131b0152818161137501526114640152614e366000f3fe6080604052600436106101e35760003560e01c80636f193b8311610102578063c1f7cae211610095578063ef4fcb1711610064578063ef4fcb1714610608578063f288a2e214610628578063f8c8765e1461065c578063fe9ccb601461067c57600080fd5b8063c1f7cae214610567578063c6ca475314610587578063d547741f146105b4578063dc9a4ef6146105d457600080fd5b806391d14854116100d157806391d14854146104ca57806399464c891461051d578063a217fddf14610532578063ac59e61c1461054757600080fd5b80636f193b831461044a5780637225fb211461046a578063853ead4a1461048a57806389ea365d146104aa57600080fd5b8063282bf5c91161017a5780634f1ef286116101495780634f1ef286146103c5578063529ad9f3146103d857806352d1902d1461042057806366c5c4a01461043557600080fd5b8063282bf5c9146103455780632f2ff15d1461036557806336568abe146103855780633659cfe6146103a557600080fd5b806311b63d01116101b657806311b63d011461028757806318bdffbb146102a7578063248a9ca3146102e157806324ea54f41461031157600080fd5b806301ef3afa146101e857806301ffc9a71461020a578063054f7d9c14610240578063074144d61461025a575b600080fd5b3480156101f457600080fd5b50610208610203366004613bc9565b6106a9565b005b34801561021657600080fd5b5061022a610225366004613c4b565b610b7e565b6040516102379190613c7e565b60405180910390f35b34801561024c57600080fd5b5060975461022a9060ff1681565b34801561026657600080fd5b5061027a610275366004613c9d565b610bb9565b6040516102379190613cc4565b34801561029357600080fd5b506102086102a2366004613ce9565b610bd0565b3480156102b357600080fd5b5060c0546102d49073ffffffffffffffffffffffffffffffffffffffff1681565b6040516102379190613d7e565b3480156102ed57600080fd5b5061027a6102fc366004613c9d565b60009081526065602052604090206001015490565b34801561031d57600080fd5b5061027a7f55435dd261a4b9b3364963f7738a7a662ad9c84396d64be3365284bb7f0a504181565b34801561035157600080fd5b50610208610360366004613dd7565b610ed1565b34801561037157600080fd5b50610208610380366004613e7b565b61111b565b34801561039157600080fd5b506102086103a0366004613e7b565b611145565b3480156103b157600080fd5b506102086103c0366004613eb8565b6111ab565b6102086103d3366004614024565b611304565b3480156103e457600080fd5b5060e3546104119063ffffffff808216916401000000008104821691680100000000000000009091041683565b6040516102379392919061407e565b34801561042c57600080fd5b5061027a61144a565b34801561044157600080fd5b506102086114e0565b34801561045657600080fd5b5061022a6104653660046140bc565b61155e565b34801561047657600080fd5b50610208610485366004614108565b6116dd565b34801561049657600080fd5b506102086104a5366004613eb8565b611c11565b3480156104b657600080fd5b506102086104c53660046141b5565b611cb7565b3480156104d657600080fd5b5061022a6104e5366004613e7b565b600091825260656020908152604080842073ffffffffffffffffffffffffffffffffffffffff93909316845291905290205460ff1690565b34801561052957600080fd5b50610208611ed0565b34801561053e57600080fd5b5061027a600081565b34801561055357600080fd5b50610208610562366004613eb8565b611f51565b34801561057357600080fd5b5061022a61058236600461426b565b611feb565b34801561059357600080fd5b5061027a6105a236600461429e565b60c26020526000908152604090205481565b3480156105c057600080fd5b506102086105cf366004613e7b565b61200a565b3480156105e057600080fd5b5061027a7f60044782a422109ac08a415e44260ad5d3bad63d96ebe1fac0363399642ee3f281565b34801561061457600080fd5b5061027a61062336600461429e565b61202f565b34801561063457600080fd5b5061027a7ff66846415d2bf9eabda9e84793ff9c0ea96d87f50fc41e66aa16469c6a442f0581565b34801561066857600080fd5b506102086106773660046142bf565b612052565b34801561068857600080fd5b5060c1546102d49073ffffffffffffffffffffffffffffffffffffffff1681565b600080527f16d6d09ad43c2e13327e8e85b0f16a19ef2e63b72c391bfd77d21c5d499021856020527fdf4fae2a9d03ddefae2c9e431bd1ae49d400972b66abd41187abff73623b3c4b5460ff1615801561073257503360009081527f16d6d09ad43c2e13327e8e85b0f16a19ef2e63b72c391bfd77d21c5d49902185602052604090205460ff16155b15610769576040517f6692e47700000000000000000000000000000000000000000000000000000000815260040160405180910390fd5b6107716121f8565b60008060008060006107838787612237565b945094509450945094506000838361079b9190614352565b6107a6906001614372565b905061040063ffffffff821611156107ea576040517f0a004fe500000000000000000000000000000000000000000000000000000000815260040160405180910390fd5b6107f6610400856143c1565b63ffffffff1615610833576040517f7478cfa900000000000000000000000000000000000000000000000000000000815260040160405180910390fd5b438363ffffffff1610610872576040517faef3422900000000000000000000000000000000000000000000000000000000815260040160405180910390fd5b61010061088563ffffffff8516436143df565b11156108bd576040517faef3422900000000000000000000000000000000000000000000000000000000815260040160405180910390fd5b848363ffffffff1640146108fd576040517fa46ad57500000000000000000000000000000000000000000000000000000000815260040160405180910390fd5b6109078888612334565b61093d576040517f1355d9a600000000000000000000000000000000000000000000000000000000815260040160405180910390fd5b816109fc5760005b600a8110156109f65760006109778a8a846109626001600a614352565b63ffffffff1661097291906143df565b6123b2565b905080156109af5780846040516020016109929291906143f2565b6040516020818303038152906040528051906020012093506109e3565b836109b983612472565b6040516020016109ca9291906143f2565b6040516020818303038152906040528051906020012093505b50806109ee81614418565b915050610945565b50610ad9565b60e354623fffff600a86901c1664010000000090910463ffffffff1603610ad9576000610a2960c3612662565b90506000610a37828561270b565b9050600882606001516001610a4c9190614372565b610a5691906143c1565b63ffffffff166060830152610a6a8261282a565b60e4836060015163ffffffff1660088110610a8757610a87614450565b0155610a9560c3838361291a565b7f39145329d5ae3858c6f1192667af1d01792c69c7f88d143b0312872011e5cbcb82604001518360600151604051610ace92919061447f565b60405180910390a150505b858282604051602001610aee939291906144b5565b604080517fffffffffffffffffffffffffffffffffffffffffffffffffffffffffffffffe0818403018152828252805160209182012063ffffffff8816600090815260c2909252919020557f8b1606624b2f737eaf245dca9fba97deb930da8f4c71fb05a3f1b77d6bb8dfeb90610b6c9086908990869086906144ec565b60405180910390a15050505050505050565b60007fffffffff0000000000000000000000000000000000000000000000000000000082161580610bb35750610bb382612a0b565b92915050565b60e48160088110610bc957600080fd5b0154905081565b600080527f16d6d09ad43c2e13327e8e85b0f16a19ef2e63b72c391bfd77d21c5d499021856020527fdf4fae2a9d03ddefae2c9e431bd1ae49d400972b66abd41187abff73623b3c4b5460ff16158015610c5957503360009081527f16d6d09ad43c2e13327e8e85b0f16a19ef2e63b72c391bfd77d21c5d49902185602052604090205460ff16155b15610c90576040517f6692e47700000000000000000000000000000000000000000000000000000000815260040160405180910390fd5b610c986121f8565b6000806000806000610caa8787612237565b9450945094509450945061040083610cc291906143c1565b63ffffffff1615610cff576040517f7478cfa900000000000000000000000000000000000000000000000000000000815260040160405180910390fd5b610d0c6001610400614352565b63ffffffff16610d1c8484614352565b63ffffffff1614610d59576040517f0a004fe500000000000000000000000000000000000000000000000000000000815260040160405180910390fd5b838989604051602001610d6e939291906144b5565b6040516020818303038152906040528051906020012060c26000846001610d959190614372565b63ffffffff1663ffffffff1681526020019081526020016000205414610de7576040517fa46ad57500000000000000000000000000000000000000000000000000000000815260040160405180910390fd5b610df18787612334565b610e27576040517f1355d9a600000000000000000000000000000000000000000000000000000000815260040160405180910390fd5b8481610400604051602001610e3e939291906144b5565b604080517fffffffffffffffffffffffffffffffffffffffffffffffffffffffffffffffe0818403018152828252805160209182012063ffffffff8716600090815260c2909252919020557f8b1606624b2f737eaf245dca9fba97deb930da8f4c71fb05a3f1b77d6bb8dfeb90610ebe90859088908590610400906144ec565b60405180910390a1505050505050505050565b610ed96121f8565b6000839003610ee757600080fd5b828114610ef357600080fd5b60e354610f119061040090640100000000900463ffffffff16614521565b63ffffffff168563ffffffff1614610f2857600080fd5b6000610f3460c3612662565b905060005b84811015611031576000848483818110610f5557610f55614450565b90506020020135878784818110610f6e57610f6e614450565b90506020020135610400604051602001610f8a939291906144b5565b604080517fffffffffffffffffffffffffffffffffffffffffffffffffffffffffffffffe0818403018152918152815160209283012063ffffffff8b16600090815260c2909352912054909150811461100f576040517f612489a100000000000000000000000000000000000000000000000000000000815260040160405180910390fd5b61101b61040089614372565b975050808061102990614418565b915050610f39565b5060006110738686808060200260200160405190810160405280939291908181526020018383602002808284376000920191909152508693925050612aa29050565b90506008826060015160016110889190614372565b61109291906143c1565b63ffffffff1660608301526110a68261282a565b60e4836060015163ffffffff16600881106110c3576110c3614450565b01556110d160c3838361291a565b7f39145329d5ae3858c6f1192667af1d01792c69c7f88d143b0312872011e5cbcb8260400151836060015160405161110a92919061447f565b60405180910390a150505050505050565b60008281526065602052604090206001015461113681612d5a565b6111408383612d64565b505050565b73ffffffffffffffffffffffffffffffffffffffff8116331461119d576040517f08c379a0000000000000000000000000000000000000000000000000000000008152600401611194906145a8565b60405180910390fd5b6111a78282612e58565b5050565b73ffffffffffffffffffffffffffffffffffffffff7f000000000000000000000000000000000000000000000000000000000000000016300361121a576040517f08c379a000000000000000000000000000000000000000000000000000000000815260040161119490614612565b7f000000000000000000000000000000000000000000000000000000000000000073ffffffffffffffffffffffffffffffffffffffff1661128f7f360894a13ba1a3210667c828492db98dca3e2076cc3735a920a3ca505d382bbc5473ffffffffffffffffffffffffffffffffffffffff1690565b73ffffffffffffffffffffffffffffffffffffffff16146112dc576040517f08c379a00000000000000000000000000000000000000000000000000000000081526004016111949061467c565b6112e581612f13565b6040805160008082526020820190925261130191839190612f3d565b50565b73ffffffffffffffffffffffffffffffffffffffff7f0000000000000000000000000000000000000000000000000000000000000000163003611373576040517f08c379a000000000000000000000000000000000000000000000000000000000815260040161119490614612565b7f000000000000000000000000000000000000000000000000000000000000000073ffffffffffffffffffffffffffffffffffffffff166113e87f360894a13ba1a3210667c828492db98dca3e2076cc3735a920a3ca505d382bbc5473ffffffffffffffffffffffffffffffffffffffff1690565b73ffffffffffffffffffffffffffffffffffffffff1614611435576040517f08c379a00000000000000000000000000000000000000000000000000000000081526004016111949061467c565b61143e82612f13565b6111a782826001612f3d565b60003073ffffffffffffffffffffffffffffffffffffffff7f000000000000000000000000000000000000000000000000000000000000000016146114bb576040517f08c379a0000000000000000000000000000000000000000000000000000000008152600401611194906146e6565b507f360894a13ba1a3210667c828492db98dca3e2076cc3735a920a3ca505d382bbc90565b7f55435dd261a4b9b3364963f7738a7a662ad9c84396d64be3365284bb7f0a504161150a81612d5a565b609780547fffffffffffffffffffffffffffffffffffffffffffffffffffffffffffffff001690556040517fe6fdbf73945dd61794a752b9181ea29f77170a7b1ffd37e0a7ff9d2c6f7258b990600090a150565b60006020820135810361157057600080fd5b6000610400611582602085018561429e565b61158c91906143c1565b905060008161159e602086018661429e565b6115a89190614352565b63ffffffff8116600090815260c260205260408120549192508190036115cd57600080fd5b602085013560005b600a81101561169157600163ffffffff8616821c1660000361163a57818760800182600a811061160757611607614450565b602002013560405160200161161d9291906143f2565b60405160208183030381529060405280519060200120915061167f565b8660800181600a811061164f5761164f614450565b6020020135826040516020016116669291906143f2565b6040516020818303038152906040528051906020012091505b8061168981614418565b9150506115d5565b506040860135816116a86080890160608a0161429e565b6040516020016116ba939291906144b5565b604051602081830303815290604052805190602001208214945050505050919050565b600080527f16d6d09ad43c2e13327e8e85b0f16a19ef2e63b72c391bfd77d21c5d499021856020527fdf4fae2a9d03ddefae2c9e431bd1ae49d400972b66abd41187abff73623b3c4b5460ff1615801561176657503360009081527f16d6d09ad43c2e13327e8e85b0f16a19ef2e63b72c391bfd77d21c5d49902185602052604090205460ff16155b1561179d576040517f6692e47700000000000000000000000000000000000000000000000000000000815260040160405180910390fd5b6117a56121f8565b60008060008060006117b78787612237565b94509450945094509450610400836117cf91906143c1565b63ffffffff161561180c576040517f7478cfa900000000000000000000000000000000000000000000000000000000815260040160405180910390fd5b61181a600162020000614352565b63ffffffff1661182a8484614352565b63ffffffff1614611867576040517f0a004fe500000000000000000000000000000000000000000000000000000000815260040160405180910390fd5b838b8b60405160200161187c939291906144b5565b6040516020818303038152906040528051906020012060c260008460016118a39190614372565b63ffffffff1663ffffffff16815260200190815260200160002054146118f5576040517fa46ad57500000000000000000000000000000000000000000000000000000000815260040160405180910390fd5b806119288a6080806020026040519081016040528092919082608060200280828437600092019190915250613090915050565b1461195f576040517ff4c360f500000000000000000000000000000000000000000000000000000000815260040160405180910390fd5b611969878761327d565b61199f576040517f1355d9a600000000000000000000000000000000000000000000000000000000815260040160405180910390fd5b60005b6080811015611c03576119b760016080614352565b63ffffffff168114611ac95760008982607f81106119d7576119d7614450565b6101600201600a6020020135905060005b600a811015611a77578a83607f8110611a0357611a03614450565b610160020181611a156001600a614352565b63ffffffff16611a2591906143df565b600b8110611a3557611a35614450565b602002013582604051602001611a4c9291906143f2565b6040516020818303038152906040528051906020012091508080611a6f90614418565b9150506119e8565b508a8260808110611a8a57611a8a614450565b60200201358114611ac7576040517ff4c360f500000000000000000000000000000000000000000000000000000000815260040160405180910390fd5b505b60008115611afe5789611add6001846143df565b607f8110611aed57611aed614450565b6101600201600a6020020135611b00565b865b90506000611b10610400846146f6565b611b209063ffffffff881661470e565b9050818c8460808110611b3557611b35614450565b6020020135610400604051602001611b4f939291906144b5565b604080517fffffffffffffffffffffffffffffffffffffffffffffffffffffffffffffffe0818403018152918152815160209283012063ffffffff8416600090815260c29093529120557f8b1606624b2f737eaf245dca9fba97deb930da8f4c71fb05a3f1b77d6bb8dfeb81838e8660808110611bce57611bce614450565b6020020135610400604051611be694939291906144ec565b60405180910390a150508080611bfb90614418565b9150506119a2565b505050505050505050505050565b7ff66846415d2bf9eabda9e84793ff9c0ea96d87f50fc41e66aa16469c6a442f05611c3b81612d5a565b60c080547fffffffffffffffffffffffff00000000000000000000000000000000000000001673ffffffffffffffffffffffffffffffffffffffff84161790556040517f0f7ba11d4e9d02c6ec9175a0134522c2f112de7cfdb2cea3f888e7eeae24c9dd90611cab908490613d7e565b60405180910390a15050565b60e48560ff1660088110611ccd57611ccd614450565b01548787604051602001611ce2929190614773565b6040516020818303038152906040528051906020012014611d2f576040517f612489a100000000000000000000000000000000000000000000000000000000815260040160405180910390fd5b6000611d3c6001886143df565b9050845b63ffffffff8082166104008483161b90911611611d93578163ffffffff16600003611d6a57600080fd5b81611d7481614780565b9250611d8c905061040063ffffffff84161b82614352565b9050611d40565b611d9e82600a614372565b63ffffffff168314611daf57600080fd5b8460005b84811015611e6c57600163ffffffff8416821c16600003611e165781868683818110611de157611de1614450565b90506020020135604051602001611df99291906143f2565b604051602081830303815290604052805190602001209150611e5a565b858582818110611e2857611e28614450565b9050602002013582604051602001611e419291906143f2565b6040516020818303038152906040528051906020012091505b80611e6481614418565b915050611db3565b5089898463ffffffff16818110611e8557611e85614450565b905060200201358114611ec4576040517f612489a100000000000000000000000000000000000000000000000000000000815260040160405180910390fd5b50505050505050505050565b7f55435dd261a4b9b3364963f7738a7a662ad9c84396d64be3365284bb7f0a5041611efa81612d5a565b609780547fffffffffffffffffffffffffffffffffffffffffffffffffffffffffffffff001660011790556040517f61340a1b154d5d21d259a74bf95379201799b9d12cc6509bb46cb56dc281df5590600090a150565b7ff66846415d2bf9eabda9e84793ff9c0ea96d87f50fc41e66aa16469c6a442f05611f7b81612d5a565b60c180547fffffffffffffffffffffffff00000000000000000000000000000000000000001673ffffffffffffffffffffffffffffffffffffffff84161790556040517f1431075dc15e519b4b9b0b93ea4f7f3e2a34fde5e39f552bb899b7ea4bda134190611cab908490613d7e565b600063ffffffff83164080820361200157600080fd5b90911492915050565b60008281526065602052604090206001015461202581612d5a565b6111408383612e58565b600060c363ffffffff83166020811061204a5761204a614450565b015492915050565b600054610100900460ff16158080156120725750600054600160ff909116105b8061208c5750303b15801561208c575060005460ff166001145b6120c2576040517f08c379a000000000000000000000000000000000000000000000000000000000815260040161119490614819565b600080547fffffffffffffffffffffffffffffffffffffffffffffffffffffffffffffff00166001179055801561212057600080547fffffffffffffffffffffffffffffffffffffffffffffffffffffffffffff00ff166101001790555b73ffffffffffffffffffffffffffffffffffffffff831661214057600080fd5b6121486132ae565b612154858584336132ef565b61215f600084612d64565b6121897ff66846415d2bf9eabda9e84793ff9c0ea96d87f50fc41e66aa16469c6a442f0584612d64565b80156121f157600080547fffffffffffffffffffffffffffffffffffffffffffffffffffffffffffff00ff1690556040517f7f26b83ff96e1f2b6a682f133852f6798a09c465da95921460cefb3847402498906121e89060019061483d565b60405180910390a15b5050505050565b60975460ff1615612235576040517f379dfc6300000000000000000000000000000000000000000000000000000000815260040160405180910390fd5b565b60008080808061224d6101c06101a0888a61484b565b6122569161487b565b60806122686101a06101808a8c61484b565b6122719161487b565b901b1794506122866102006101e0888a61484b565b61228f9161487b565b60806122a16101e06101c08a8c61484b565b6122aa9161487b565b901b1793506122bf61021c610218888a61484b565b6122c8916148c4565b60e01c92506122dd61022061021c888a61484b565b6122e6916148c4565b60e01c91506122fb610260610240888a61484b565b6123049161487b565b60806123166102406102208a8c61484b565b61231f9161487b565b60001c901b1760001b90509295509295909350565b60c054604051600091829173ffffffffffffffffffffffffffffffffffffffff90911690612365908690869061492f565b6000604051808303816000865af19150503d80600081146123a2576040519150601f19603f3d011682016040523d82523d6000602084013e6123a7565b606091505b509095945050505050565b600083836123c18460406146f6565b6123cd9061026061470e565b6123d890602061470e565b906123e485600161470e565b6123ef9060406146f6565b6123fb9061026061470e565b926124089392919061484b565b6124119161487b565b608085856124208660406146f6565b61242c9061026061470e565b906124388760406146f6565b6124449061026061470e565b61244f90602061470e565b9261245c9392919061484b565b6124659161487b565b901b1790505b9392505050565b60008160000361248457506000919050565b816001036124b357507fad3228b676f7d3cd4284a5443f17f1962b36e491b30a40b2405849e597ba5fb5919050565b816002036124e257507fb4c11951957c6f8f642c4af61cd6b24640fec6dc7fc607ee8206a99e92410d30919050565b8160030361251157507f21ddb9a356815c3fac1026b6dec5df3124afbadb485c9ba5a3e3398a04b7ba85919050565b8160040361254057507fe58769b32a1beaf1ea27375a44095a0d1fb664ce2dd358e7fcbfb78c26a19344919050565b8160050361256f57507f0eb01ebfc9ed27500cd4dfc979272d1f0913cc9f66540d7e8005811109e1cf2d919050565b8160060361259e57507f887c22bd8750d34016ac3c66b5ff102dacdd73f6b014e710b51e8022af9a1968919050565b816007036125cd57507fffd70157e48063fc33c97a050f7f640233bf646cc98d9524c6b92bcf3ab56f83919050565b816008036125fc57507f9867cc5f7f196b93bae1e27e6320742445d290f2263827498b54fec539f756af919050565b8160090361262b57507fcefad4e508c098b9a7e1d8feb19955fb02ba9675585078710969d3440f5054e0919050565b6040517f08c379a000000000000000000000000000000000000000000000000000000000815260040161119490614973565b919050565b61266a613b2a565b60208083015463ffffffff8082169284019290925264010000000081048216604084015268010000000000000000900416606082015260005b816020015163ffffffff168163ffffffff161015612705578263ffffffff8216602081106126d3576126d3614450565b0154825163ffffffff8316602081106126ee576126ee614450565b6020020152806126fd81614983565b9150506126a3565b50919050565b6040820151600090819083905b600163ffffffff8281169085161c811690036127ad57855163ffffffff84166020811061274757612747614450565b60200201518260405160200161275e9291906143f2565b6040516020818303038152906040528051906020012091506000801b86600001518463ffffffff166020811061279657612796614450565b60200201526127a6600184614372565b9250612718565b8551829063ffffffff8516602081106127c8576127c8614450565b6020020152604086018051600191906127e2908390614372565b63ffffffff9081169091526020880151811690851610905061281557612809836001614372565b63ffffffff1660208701525b612820836001614372565b9695505050505050565b600080826020015163ffffffff1667ffffffffffffffff81111561285057612850613ed9565b604051908082528060200260200182016040528015612879578160200160208202803683370190505b50905060005b836020015163ffffffff168163ffffffff1610156128ea57835163ffffffff8216602081106128b0576128b0614450565b6020020151828263ffffffff16815181106128cd576128cd614450565b6020908102919091010152806128e281614983565b91505061287f565b50806040516020016128fc9190614a10565b60405160208183030381529060405280519060200120915050919050565b60208083015190840180546040850151606086015163ffffffff90811668010000000000000000027fffffffffffffffffffffffffffffffffffffffff00000000ffffffffffffffff928216640100000000027fffffffffffffffffffffffffffffffffffffffffffffffff00000000000000009094169190951617919091171691909117905560005b8163ffffffff168163ffffffff161015612a0557825163ffffffff8216602081106129d1576129d1614450565b6020020151846000018263ffffffff16602081106129f1576129f1614450565b0155806129fd81614983565b9150506129a4565b50505050565b60007fffffffff0000000000000000000000000000000000000000000000000000000082167f7965db0b000000000000000000000000000000000000000000000000000000001480610bb357507f01ffc9a7000000000000000000000000000000000000000000000000000000007fffffffff00000000000000000000000000000000000000000000000000000000831614610bb3565b60408201805182516000928190612ab98285614372565b63ffffffff169052506000805b63ffffffff831615612d2b5750600163ffffffff8481169083161c811690600090612af18386614372565b63ffffffff16901c905060005b8163ffffffff168163ffffffff161015612c84576000808463ffffffff16600103612bbc5763ffffffff831615612b6a57896001612b3d856002614521565b612b479190614352565b63ffffffff1681518110612b5d57612b5d614450565b6020026020010151612b89565b8a5163ffffffff871660208110612b8357612b83614450565b60200201515b915089612b97846002614521565b63ffffffff1681518110612bad57612bad614450565b60200260200101519050612c22565b89612bc8846002614521565b63ffffffff1681518110612bde57612bde614450565b6020026020010151915089836002612bf69190614521565b612c01906001614372565b63ffffffff1681518110612c1757612c17614450565b602002602001015190505b8181604051602001612c359291906143f2565b604051602081830303815290604052805190602001208a8463ffffffff1681518110612c6357612c63614450565b60200260200101818152505050508080612c7c90614983565b915050612afe565b506001841663ffffffff831614612ce55786612ca1600186614352565b63ffffffff1681518110612cb757612cb7614450565b602002602001015188600001518463ffffffff1660208110612cdb57612cdb614450565b6020020152612d15565b8163ffffffff16600103612d1557875160009063ffffffff851660208110612d0f57612d0f614450565b60200201525b925082612d23600184614372565b925050612ac6565b866020015163ffffffff168263ffffffff161115612d505763ffffffff821660208801525b5095945050505050565b6113018133613344565b600082815260656020908152604080832073ffffffffffffffffffffffffffffffffffffffff8516845290915290205460ff166111a757600082815260656020908152604080832073ffffffffffffffffffffffffffffffffffffffff85168452909152902080547fffffffffffffffffffffffffffffffffffffffffffffffffffffffffffffff00166001179055612dfa3390565b73ffffffffffffffffffffffffffffffffffffffff168173ffffffffffffffffffffffffffffffffffffffff16837f2f8788117e7eff1d82e926ec794901d17c78024a50270940304540a733656f0d60405160405180910390a45050565b600082815260656020908152604080832073ffffffffffffffffffffffffffffffffffffffff8516845290915290205460ff16156111a757600082815260656020908152604080832073ffffffffffffffffffffffffffffffffffffffff8516808552925280832080547fffffffffffffffffffffffffffffffffffffffffffffffffffffffffffffff0016905551339285917ff6391f5c32d9c69d2a47ea670b442974b53935d1edc7fd64eb21e047a839171b9190a45050565b7ff66846415d2bf9eabda9e84793ff9c0ea96d87f50fc41e66aa16469c6a442f056111a781612d5a565b7f4910fdfa16fed3260ed0e7147f7cc6da11a60208b5b9406d12a635614ffd91435460ff1615612f7057611140836133fe565b8273ffffffffffffffffffffffffffffffffffffffff166352d1902d6040518163ffffffff1660e01b8152600401602060405180830381865afa925050508015612ff5575060408051601f3d9081017fffffffffffffffffffffffffffffffffffffffffffffffffffffffffffffffe0168201909252612ff291810190614a27565b60015b61302b576040517f08c379a000000000000000000000000000000000000000000000000000000000815260040161119490614aa2565b7f360894a13ba1a3210667c828492db98dca3e2076cc3735a920a3ca505d382bbc8114613084576040517f08c379a000000000000000000000000000000000000000000000000000000000815260040161119490614b0c565b506111408383836134b2565b60008061309f60026080614b1c565b63ffffffff1667ffffffffffffffff8111156130bd576130bd613ed9565b6040519080825280602002602001820160405280156130e6578160200160208202803683370190505b50905060005b6130f860026080614b1c565b63ffffffff168110156131925783600182901b6080811061311b5761311b614450565b602002015184600183811b176080811061313757613137614450565b602002015160405160200161314d9291906143f2565b6040516020818303038152906040528051906020012082828151811061317557613175614450565b60209081029190910101528061318a81614418565b9150506130ec565b5060006131a160046080614b1c565b63ffffffff1690505b80156132595760005b818110156132505782600182901b815181106131d1576131d1614450565b602002602001015183600183901b600117815181106131f2576131f2614450565b602002602001015160405160200161320b9291906143f2565b6040516020818303038152906040528051906020012083828151811061323357613233614450565b60209081029190910101528061324881614418565b9150506131b3565b5060011c6131aa565b8160008151811061326c5761326c614450565b602002602001015192505050919050565b60c154604051600091829173ffffffffffffffffffffffffffffffffffffffff90911690612365908690869061492f565b600054610100900460ff16612235576040517f08c379a000000000000000000000000000000000000000000000000000000000815260040161119490614b94565b600054610100900460ff16613330576040517f08c379a000000000000000000000000000000000000000000000000000000000815260040161119490614b94565b6133386134d7565b612a0584848484613520565b600082815260656020908152604080832073ffffffffffffffffffffffffffffffffffffffff8516845290915290205460ff166111a757613384816136ff565b61338f83602061371e565b6040516020016133a0929190614bea565b604080517fffffffffffffffffffffffffffffffffffffffffffffffffffffffffffffffe0818403018152908290527f08c379a000000000000000000000000000000000000000000000000000000000825261119491600401614c9e565b73ffffffffffffffffffffffffffffffffffffffff81163b61344c576040517f08c379a000000000000000000000000000000000000000000000000000000000815260040161119490614d09565b7f360894a13ba1a3210667c828492db98dca3e2076cc3735a920a3ca505d382bbc80547fffffffffffffffffffffffff00000000000000000000000000000000000000001673ffffffffffffffffffffffffffffffffffffffff92909216919091179055565b6134bb83613931565b6000825111806134c85750805b1561114057612a05838361397e565b600054610100900460ff16613518576040517f08c379a000000000000000000000000000000000000000000000000000000000815260040161119490614b94565b612235613a67565b600054610100900460ff16613561576040517f08c379a000000000000000000000000000000000000000000000000000000000815260040161119490614b94565b73ffffffffffffffffffffffffffffffffffffffff841661358157600080fd5b73ffffffffffffffffffffffffffffffffffffffff83166135a157600080fd5b73ffffffffffffffffffffffffffffffffffffffff82166135c157600080fd5b73ffffffffffffffffffffffffffffffffffffffff81166135e157600080fd5b61360b7f60044782a422109ac08a415e44260ad5d3bad63d96ebe1fac0363399642ee3f282612d64565b6136357f55435dd261a4b9b3364963f7738a7a662ad9c84396d64be3365284bb7f0a504183612d64565b60c0805473ffffffffffffffffffffffffffffffffffffffff8087167fffffffffffffffffffffffff00000000000000000000000000000000000000009283161790925560c18054928616929091169190911790556040517f0f7ba11d4e9d02c6ec9175a0134522c2f112de7cfdb2cea3f888e7eeae24c9dd906136ba908690613d7e565b60405180910390a17f1431075dc15e519b4b9b0b93ea4f7f3e2a34fde5e39f552bb899b7ea4bda1341836040516136f19190613d7e565b60405180910390a150505050565b6060610bb373ffffffffffffffffffffffffffffffffffffffff831660145b6060600061372d8360026146f6565b61373890600261470e565b67ffffffffffffffff81111561375057613750613ed9565b6040519080825280601f01601f19166020018201604052801561377a576020820181803683370190505b5090507f3000000000000000000000000000000000000000000000000000000000000000816000815181106137b1576137b1614450565b60200101907effffffffffffffffffffffffffffffffffffffffffffffffffffffffffffff1916908160001a9053507f78000000000000000000000000000000000000000000000000000000000000008160018151811061381457613814614450565b60200101907effffffffffffffffffffffffffffffffffffffffffffffffffffffffffffff1916908160001a90535060006138508460026146f6565b61385b90600161470e565b90505b60018111156138f8577f303132333435363738396162636465660000000000000000000000000000000085600f166010811061389c5761389c614450565b1a60f81b8282815181106138b2576138b2614450565b60200101907effffffffffffffffffffffffffffffffffffffffffffffffffffffffffffff1916908160001a90535060049490941c936138f181614d19565b905061385e565b50831561246b576040517f08c379a000000000000000000000000000000000000000000000000000000000815260040161119490614d53565b61393a816133fe565b60405173ffffffffffffffffffffffffffffffffffffffff8216907fbc7cd75a20ee27fd9adebab32041f755214dbc6bffa90cc0225b39da2e5c2d3b90600090a250565b606073ffffffffffffffffffffffffffffffffffffffff83163b6139ce576040517f08c379a000000000000000000000000000000000000000000000000000000000815260040161119490614dbd565b6000808473ffffffffffffffffffffffffffffffffffffffff16846040516139f69190614dcd565b600060405180830381855af49150503d8060008114613a31576040519150601f19603f3d011682016040523d82523d6000602084013e613a36565b606091505b5091509150613a5e8282604051806060016040528060278152602001614dda60279139613ad2565b95945050505050565b600054610100900460ff16613aa8576040517f08c379a000000000000000000000000000000000000000000000000000000000815260040161119490614b94565b609780547fffffffffffffffffffffffffffffffffffffffffffffffffffffffffffffff00169055565b60608315613ae157508161246b565b61246b8383815115613af65781518083602001fd5b806040517f08c379a00000000000000000000000000000000000000000000000000000000081526004016111949190614c9e565b6040518060800160405280613b3d613b58565b81526000602082018190526040820181905260609091015290565b6040518061040001604052806020906020820280368337509192915050565b60008083601f840112613b8c57613b8c600080fd5b50813567ffffffffffffffff811115613ba757613ba7600080fd5b602083019150836001820283011115613bc257613bc2600080fd5b9250929050565b60008060208385031215613bdf57613bdf600080fd5b823567ffffffffffffffff811115613bf957613bf9600080fd5b613c0585828601613b77565b92509250509250929050565b7fffffffff0000000000000000000000000000000000000000000000000000000081165b811461130157600080fd5b8035610bb381613c11565b600060208284031215613c6057613c60600080fd5b6000613c6c8484613c40565b949350505050565b8015155b82525050565b60208101610bb38284613c74565b80613c35565b8035610bb381613c8c565b600060208284031215613cb257613cb2600080fd5b6000613c6c8484613c92565b80613c78565b60208101610bb38284613cbe565b63ffffffff8116613c35565b8035610bb381613cd2565b60008060008060608587031215613d0257613d02600080fd5b6000613d0e8787613c92565b9450506020613d1f87828801613cde565b935050604085013567ffffffffffffffff811115613d3f57613d3f600080fd5b613d4b87828801613b77565b95989497509550505050565b600073ffffffffffffffffffffffffffffffffffffffff8216610bb3565b613c7881613d57565b60208101610bb38284613d75565b60008083601f840112613da157613da1600080fd5b50813567ffffffffffffffff811115613dbc57613dbc600080fd5b602083019150836020820283011115613bc257613bc2600080fd5b600080600080600060608688031215613df257613df2600080fd5b6000613dfe8888613cde565b955050602086013567ffffffffffffffff811115613e1e57613e1e600080fd5b613e2a88828901613d8c565b9450945050604086013567ffffffffffffffff811115613e4c57613e4c600080fd5b613e5888828901613d8c565b92509250509295509295909350565b613c3581613d57565b8035610bb381613e67565b60008060408385031215613e9157613e91600080fd5b6000613e9d8585613c92565b9250506020613eae85828601613e70565b9150509250929050565b600060208284031215613ecd57613ecd600080fd5b6000613c6c8484613e70565b7f4e487b7100000000000000000000000000000000000000000000000000000000600052604160045260246000fd5b7fffffffffffffffffffffffffffffffffffffffffffffffffffffffffffffffe0601f830116810181811067ffffffffffffffff82111715613f4c57613f4c613ed9565b6040525050565b6000613f5e60405190565b905061265d8282613f08565b600067ffffffffffffffff821115613f8457613f84613ed9565b7fffffffffffffffffffffffffffffffffffffffffffffffffffffffffffffffe0601f83011660200192915050565b82818337506000910152565b6000613fd2613fcd84613f6a565b613f53565b905082815260208101848484011115613fed57613fed600080fd5b613ff8848285613fb3565b509392505050565b600082601f83011261401457614014600080fd5b8135613c6c848260208601613fbf565b6000806040838503121561403a5761403a600080fd5b60006140468585613e70565b925050602083013567ffffffffffffffff81111561406657614066600080fd5b613eae85828601614000565b63ffffffff8116613c78565b6060810161408c8286614072565b6140996020830185614072565b613c6c6040830184614072565b60006101c0828403121561270557612705600080fd5b60006101c082840312156140d2576140d2600080fd5b6000613c6c84846140a6565b806110008101831015610bb357610bb3600080fd5b8061aea08101831015610bb357610bb3600080fd5b60008060008060008061bf00878903121561412557614125600080fd5b60006141318989613c92565b965050602061414289828a01613cde565b955050604061415389828a016140de565b94505061104061416589828a016140f3565b93505061bee087013567ffffffffffffffff81111561418657614186600080fd5b61419289828a01613b77565b92509250509295509295509295565b60ff8116613c35565b8035610bb3816141a1565b600080600080600080600060a0888a0312156141d3576141d3600080fd5b873567ffffffffffffffff8111156141ed576141ed600080fd5b6141f98a828b01613d8c565b9750975050602061420c8a828b016141aa565b955050604061421d8a828b01613cde565b945050606061422e8a828b01613c92565b935050608088013567ffffffffffffffff81111561424e5761424e600080fd5b61425a8a828b01613d8c565b925092505092959891949750929550565b6000806040838503121561428157614281600080fd5b600061428d8585613cde565b9250506020613eae85828601613c92565b6000602082840312156142b3576142b3600080fd5b6000613c6c8484613cde565b600080600080608085870312156142d8576142d8600080fd5b60006142e48787613e70565b94505060206142f587828801613e70565b935050604061430687828801613e70565b925050606061431787828801613e70565b91505092959194509250565b7f4e487b7100000000000000000000000000000000000000000000000000000000600052601160045260246000fd5b63ffffffff918216919081169082820390811115610bb357610bb3614323565b63ffffffff918216919081169082820190811115610bb357610bb3614323565b7f4e487b7100000000000000000000000000000000000000000000000000000000600052601260045260246000fd5b63ffffffff91821691166000826143da576143da614392565b500690565b81810381811115610bb357610bb3614323565b60006143fe8285613cbe565b60208201915061440e8284613cbe565b5060200192915050565b60007fffffffffffffffffffffffffffffffffffffffffffffffffffffffffffffffff820361444957614449614323565b5060010190565b7f4e487b7100000000000000000000000000000000000000000000000000000000600052603260045260246000fd5b6040810161448d8285614072565b61246b6020830184614072565b6000610bb38260e01b90565b613c7863ffffffff821661449a565b60006144c18286613cbe565b6020820191506144d18285613cbe565b6020820191506144e182846144a6565b506004019392505050565b608081016144fa8287614072565b6145076020830186613cbe565b6145146040830185613cbe565b613a5e6060830184614072565b63ffffffff91821691908116908282029081169081811461454457614544614323565b5092915050565b602f81526000602082017f416363657373436f6e74726f6c3a2063616e206f6e6c792072656e6f756e636581527f20726f6c657320666f722073656c660000000000000000000000000000000000602082015291505b5060400190565b60208082528101610bb38161454b565b602c81526000602082017f46756e6374696f6e206d7573742062652063616c6c6564207468726f7567682081527f64656c656761746563616c6c0000000000000000000000000000000000000000602082015291506145a1565b60208082528101610bb3816145b8565b602c81526000602082017f46756e6374696f6e206d7573742062652063616c6c6564207468726f7567682081527f6163746976652070726f78790000000000000000000000000000000000000000602082015291506145a1565b60208082528101610bb381614622565b603881526000602082017f555550535570677261646561626c653a206d757374206e6f742062652063616c81527f6c6564207468726f7567682064656c656761746563616c6c0000000000000000602082015291506145a1565b60208082528101610bb38161468c565b81810280821583820485141761454457614544614323565b80820180821115610bb357610bb3614323565b82818337505050565b60007f07ffffffffffffffffffffffffffffffffffffffffffffffffffffffffffffff83111561475c5761475c600080fd5b60208302925061476d838584614721565b50500190565b6000613c6c82848661472a565b600063ffffffff82165b91508161479957614799614323565b507fffffffffffffffffffffffffffffffffffffffffffffffffffffffffffffffff0190565b602e81526000602082017f496e697469616c697a61626c653a20636f6e747261637420697320616c72656181527f647920696e697469616c697a6564000000000000000000000000000000000000602082015291506145a1565b60208082528101610bb3816147bf565b600060ff8216610bb3565b613c7881614829565b60208101610bb38284614834565b6000808585111561485e5761485e600080fd5b8386111561486e5761486e600080fd5b5050820193919092039150565b8035828260208210156148bc576148b77fffffffffffffffffffffffffffffffffffffffffffffffffffffffffffffffff836020036008021b90565b831692505b505092915050565b80357fffffffff0000000000000000000000000000000000000000000000000000000016828260048210156148bc576148b77fffffffff00000000000000000000000000000000000000000000000000000000836004036008021b90565b600061476d838584613fb3565b6000613c6c828486614922565b601e81526000602082017f6465707468206d75737420626520696e2072616e6765205b302c203130290000815291505b5060200190565b60208082528101610bb38161493c565b63ffffffff1660007fffffffffffffffffffffffffffffffffffffffffffffffffffffffff00000001820161444957614449614323565b60006149c68383613cbe565b505060200190565b60006149d8825190565b602083018060005b83811015614a055781516149f488826149ba565b9750602083019250506001016149e0565b509495945050505050565b600061246b82846149ce565b8051610bb381613c8c565b600060208284031215614a3c57614a3c600080fd5b6000613c6c8484614a1c565b602e81526000602082017f45524331393637557067726164653a206e657720696d706c656d656e7461746981527f6f6e206973206e6f742055555053000000000000000000000000000000000000602082015291506145a1565b60208082528101610bb381614a48565b602981526000602082017f45524331393637557067726164653a20756e737570706f727465642070726f7881527f6961626c65555549440000000000000000000000000000000000000000000000602082015291506145a1565b60208082528101610bb381614ab2565b63ffffffff9182169116600082614b3557614b35614392565b500490565b602b81526000602082017f496e697469616c697a61626c653a20636f6e7472616374206973206e6f74206981527f6e697469616c697a696e67000000000000000000000000000000000000000000602082015291506145a1565b60208082528101610bb381614b3a565b60005b83811015614bbf578181015183820152602001614ba7565b50506000910152565b6000614bd2825190565b614be0818560208601614ba4565b9290920192915050565b7f416363657373436f6e74726f6c3a206163636f756e742000000000000000000081526017016000614c1c8285614bc8565b7f206973206d697373696e6720726f6c652000000000000000000000000000000081526011019150613c6c8284614bc8565b6000614c58825190565b808452602084019350614c6f818560208601614ba4565b601f017fffffffffffffffffffffffffffffffffffffffffffffffffffffffffffffffe0169290920192915050565b6020808252810161246b8184614c4e565b602d81526000602082017f455243313936373a206e657720696d706c656d656e746174696f6e206973206e81527f6f74206120636f6e747261637400000000000000000000000000000000000000602082015291506145a1565b60208082528101610bb381614caf565b60008161478a565b60208082527f537472696e67733a20686578206c656e67746820696e73756666696369656e749101908152600061496c565b60208082528101610bb381614d21565b602681526000602082017f416464726573733a2064656c65676174652063616c6c20746f206e6f6e2d636f81527f6e74726163740000000000000000000000000000000000000000000000000000602082015291506145a1565b60208082528101610bb381614d63565b600061246b8284614bc856fe416464726573733a206c6f772d6c6576656c2064656c65676174652063616c6c206661696c6564a2646970667358221220c7fa17d80fdbd69b1e4fc8d40d93535cd86b15508104668e8809fbb985456e1c64736f6c63430008130033",
    "linkReferences": {}
  },
  "methodIdentifiers": {
    "DEFAULT_ADMIN_ROLE()": "a217fddf",
    "GUARDIAN_ROLE()": "24ea54f4",
    "PROVER_ROLE()": "dc9a4ef6",
    "TIMELOCK_ROLE()": "f288a2e2",
    "appendHistoricalMMR(uint32,bytes32[],bytes32[])": "282bf5c9",
    "freezeAll()": "99464c89",
    "frozen()": "054f7d9c",
    "getRoleAdmin(bytes32)": "248a9ca3",
    "grantRole(bytes32,address)": "2f2ff15d",
    "hasRole(bytes32,address)": "91d14854",
    "historicalMMR()": "529ad9f3",
    "historicalMMRPeaks(uint32)": "ef4fcb17",
    "historicalRoots(uint32)": "c6ca4753",
    "historicalVerifierAddress()": "fe9ccb60",
    "initialize(address,address,address,address)": "f8c8765e",
    "isBlockHashValid((uint32,bytes32,bytes32,uint32,bytes32[10]))": "6f193b83",
    "isRecentBlockHashValid(uint32,bytes32)": "c1f7cae2",
    "mmrRingBuffer(uint256)": "074144d6",
    "mmrVerifyBlockHash(bytes32[],uint8,uint32,bytes32,bytes32[])": "89ea365d",
    "proxiableUUID()": "52d1902d",
    "renounceRole(bytes32,address)": "36568abe",
    "revokeRole(bytes32,address)": "d547741f",
    "supportsInterface(bytes4)": "01ffc9a7",
    "unfreezeAll()": "66c5c4a0",
    "updateHistorical(bytes32,uint32,bytes32[128],bytes32[11][127],bytes)": "7225fb21",
    "updateOld(bytes32,uint32,bytes)": "11b63d01",
    "updateRecent(bytes)": "01ef3afa",
    "upgradeHistoricalSnarkVerifier(address)": "ac59e61c",
    "upgradeSnarkVerifier(address)": "853ead4a",
    "upgradeTo(address)": "3659cfe6",
    "upgradeToAndCall(address,bytes)": "4f1ef286",
    "verifierAddress()": "18bdffbb"
  },
  "id": 2
}