{
  "abi": [
    {
      "inputs": [],
      "stateMutability": "nonpayable",
      "type": "constructor"
    },
    {
      "inputs": [],
      "name": "BlockHashNotValidatedInCache",
      "type": "error"
    },
    {
      "inputs": [],
      "name": "BlockHashWitnessNotRecent",
      "type": "error"
    },
    {
      "inputs": [],
      "name": "BlockMerkleRootDoesNotMatchProof",
      "type": "error"
    },
    {
      "inputs": [],
      "name": "CannotFulfillIfNotActive",
      "type": "error"
    },
    {
      "inputs": [],
      "name": "CannotRefundBeforeDeadline",
      "type": "error"
    },
    {
      "inputs": [],
      "name": "CannotRefundIfNotActive",
      "type": "error"
    },
    {
      "inputs": [],
      "name": "ClaimedMMRDoesNotMatchRecent",
      "type": "error"
    },
    {
      "inputs": [],
      "name": "ContractIsFrozen",
      "type": "error"
    },
    {
      "inputs": [],
      "name": "HistoricalMMRKeccakDoesNotMatchProof",
      "type": "error"
    },
    {
      "inputs": [],
      "name": "KeccakQueryResponseDoesNotMatchProof",
      "type": "error"
    },
    {
      "inputs": [],
      "name": "MMREndBlockNotRecent",
      "type": "error"
    },
    {
      "inputs": [],
      "name": "MMRProofVerificationFailed",
      "type": "error"
    },
    {
      "inputs": [],
      "name": "NotProverRole",
      "type": "error"
    },
    {
      "inputs": [],
      "name": "PriceNotPaid",
      "type": "error"
    },
    {
      "inputs": [],
      "name": "PriceTooHigh",
      "type": "error"
    },
    {
      "inputs": [],
      "name": "ProofVerificationFailed",
      "type": "error"
    },
    {
      "inputs": [],
      "name": "QueryNotInactive",
      "type": "error"
    },
    {
      "anonymous": false,
      "inputs": [
        {
          "indexed": false,
          "internalType": "address",
          "name": "previousAdmin",
          "type": "address"
        },
        {
          "indexed": false,
          "internalType": "address",
          "name": "newAdmin",
          "type": "address"
        }
      ],
      "name": "AdminChanged",
      "type": "event"
    },
    {
      "anonymous": false,
      "inputs": [
        {
          "indexed": true,
          "internalType": "address",
          "name": "beacon",
          "type": "address"
        }
      ],
      "name": "BeaconUpgraded",
      "type": "event"
    },
    {
      "anonymous": false,
      "inputs": [],
      "name": "FreezeAll",
      "type": "event"
    },
    {
      "anonymous": false,
      "inputs": [
        {
          "indexed": false,
          "internalType": "uint8",
          "name": "version",
          "type": "uint8"
        }
      ],
      "name": "Initialized",
      "type": "event"
    },
    {
      "anonymous": false,
      "inputs": [
        {
          "indexed": false,
          "internalType": "bytes32",
          "name": "keccakBlockResponse",
          "type": "bytes32"
        },
        {
          "indexed": false,
          "internalType": "bytes32",
          "name": "keccakAccountResponse",
          "type": "bytes32"
        },
        {
          "indexed": false,
          "internalType": "bytes32",
          "name": "keccakStorageResponse",
          "type": "bytes32"
        }
      ],
      "name": "KeccakResultEvent",
      "type": "event"
    },
    {
      "anonymous": false,
      "inputs": [
        {
          "indexed": false,
          "internalType": "bytes32",
          "name": "poseidonBlockResponse",
          "type": "bytes32"
        },
        {
          "indexed": false,
          "internalType": "bytes32",
          "name": "poseidonAccountResponse",
          "type": "bytes32"
        },
        {
          "indexed": false,
          "internalType": "bytes32",
          "name": "poseidonStorageResponse",
          "type": "bytes32"
        }
      ],
      "name": "PoseidonResultEvent",
      "type": "event"
    },
    {
      "anonymous": false,
      "inputs": [
        {
          "indexed": false,
          "internalType": "bytes32",
          "name": "keccakQueryResponse",
          "type": "bytes32"
        },
        {
          "indexed": false,
          "internalType": "uint256",
          "name": "payment",
          "type": "uint256"
        },
        {
          "indexed": false,
          "internalType": "address",
          "name": "prover",
          "type": "address"
        }
      ],
      "name": "QueryFulfilled",
      "type": "event"
    },
    {
      "anonymous": false,
      "inputs": [
        {
          "indexed": false,
          "internalType": "bytes32",
          "name": "keccakQueryResponse",
          "type": "bytes32"
        },
        {
          "indexed": false,
          "internalType": "uint256",
          "name": "payment",
          "type": "uint256"
        },
        {
          "indexed": false,
          "internalType": "uint32",
          "name": "deadlineBlockNumber",
          "type": "uint32"
        },
        {
          "indexed": false,
          "internalType": "address",
          "name": "refundee",
          "type": "address"
        },
        {
          "indexed": false,
          "internalType": "bytes32",
          "name": "ipfsHash",
          "type": "bytes32"
        }
      ],
      "name": "QueryInitiatedOffchain",
      "type": "event"
    },
    {
      "anonymous": false,
      "inputs": [
        {
          "indexed": false,
          "internalType": "bytes32",
          "name": "keccakQueryResponse",
          "type": "bytes32"
        },
        {
          "indexed": false,
          "internalType": "uint256",
          "name": "payment",
          "type": "uint256"
        },
        {
          "indexed": false,
          "internalType": "uint32",
          "name": "deadlineBlockNumber",
          "type": "uint32"
        },
        {
          "indexed": false,
          "internalType": "address",
          "name": "refundee",
          "type": "address"
        },
        {
          "indexed": false,
          "internalType": "bytes32",
          "name": "queryHash",
          "type": "bytes32"
        }
      ],
      "name": "QueryInitiatedOnchain",
      "type": "event"
    },
    {
      "anonymous": false,
      "inputs": [
        {
          "indexed": false,
          "internalType": "bytes32",
          "name": "keccakQueryResponse",
          "type": "bytes32"
        },
        {
          "indexed": false,
          "internalType": "uint256",
          "name": "payment",
          "type": "uint256"
        },
        {
          "indexed": false,
          "internalType": "uint32",
          "name": "deadlineBlockNumber",
          "type": "uint32"
        },
        {
          "indexed": false,
          "internalType": "address",
          "name": "refundee",
          "type": "address"
        }
      ],
      "name": "QueryRefunded",
      "type": "event"
    },
    {
      "anonymous": false,
      "inputs": [
        {
          "indexed": true,
          "internalType": "bytes32",
          "name": "role",
          "type": "bytes32"
        },
        {
          "indexed": true,
          "internalType": "bytes32",
          "name": "previousAdminRole",
          "type": "bytes32"
        },
        {
          "indexed": true,
          "internalType": "bytes32",
          "name": "newAdminRole",
          "type": "bytes32"
        }
      ],
      "name": "RoleAdminChanged",
      "type": "event"
    },
    {
      "anonymous": false,
      "inputs": [
        {
          "indexed": true,
          "internalType": "bytes32",
          "name": "role",
          "type": "bytes32"
        },
        {
          "indexed": true,
          "internalType": "address",
          "name": "account",
          "type": "address"
        },
        {
          "indexed": true,
          "internalType": "address",
          "name": "sender",
          "type": "address"
        }
      ],
      "name": "RoleGranted",
      "type": "event"
    },
    {
      "anonymous": false,
      "inputs": [
        {
          "indexed": true,
          "internalType": "bytes32",
          "name": "role",
          "type": "bytes32"
        },
        {
          "indexed": true,
          "internalType": "address",
          "name": "account",
          "type": "address"
        },
        {
          "indexed": true,
          "internalType": "address",
          "name": "sender",
          "type": "address"
        }
      ],
      "name": "RoleRevoked",
      "type": "event"
    },
    {
      "anonymous": false,
      "inputs": [],
      "name": "UnfreezeAll",
      "type": "event"
    },
    {
      "anonymous": false,
      "inputs": [
        {
          "indexed": false,
          "internalType": "address",
          "name": "newAddress",
          "type": "address"
        }
      ],
      "name": "UpdateAxiomAddress",
      "type": "event"
    },
    {
      "anonymous": false,
      "inputs": [
        {
          "indexed": false,
          "internalType": "address",
          "name": "newAddress",
          "type": "address"
        }
      ],
      "name": "UpdateMMRVerifierAddress",
      "type": "event"
    },
    {
      "anonymous": false,
      "inputs": [
        {
          "indexed": false,
          "internalType": "uint256",
          "name": "maxQueryPrice",
          "type": "uint256"
        }
      ],
      "name": "UpdateMaxQueryPrice",
      "type": "event"
    },
    {
      "anonymous": false,
      "inputs": [
        {
          "indexed": false,
          "internalType": "uint256",
          "name": "minQueryPrice",
          "type": "uint256"
        }
      ],
      "name": "UpdateMinQueryPrice",
      "type": "event"
    },
    {
      "anonymous": false,
      "inputs": [
        {
          "indexed": false,
          "internalType": "uint32",
          "name": "queryDeadlineInterval",
          "type": "uint32"
        }
      ],
      "name": "UpdateQueryDeadlineInterval",
      "type": "event"
    },
    {
      "anonymous": false,
      "inputs": [
        {
          "indexed": true,
          "internalType": "address",
          "name": "implementation",
          "type": "address"
        }
      ],
      "name": "Upgraded",
      "type": "event"
    },
    {
      "inputs": [],
      "name": "DEFAULT_ADMIN_ROLE",
      "outputs": [
        {
          "internalType": "bytes32",
          "name": "",
          "type": "bytes32"
        }
      ],
      "stateMutability": "view",
      "type": "function"
    },
    {
      "inputs": [],
      "name": "GUARDIAN_ROLE",
      "outputs": [
        {
          "internalType": "bytes32",
          "name": "",
          "type": "bytes32"
        }
      ],
      "stateMutability": "view",
      "type": "function"
    },
    {
      "inputs": [],
      "name": "PROVER_ROLE",
      "outputs": [
        {
          "internalType": "bytes32",
          "name": "",
          "type": "bytes32"
        }
      ],
      "stateMutability": "view",
      "type": "function"
    },
    {
      "inputs": [],
      "name": "TIMELOCK_ROLE",
      "outputs": [
        {
          "internalType": "bytes32",
          "name": "",
          "type": "bytes32"
        }
      ],
      "stateMutability": "view",
      "type": "function"
    },
    {
      "inputs": [
        {
          "internalType": "bytes32",
          "name": "keccakBlockResponse",
          "type": "bytes32"
        },
        {
          "internalType": "bytes32",
          "name": "keccakAccountResponse",
          "type": "bytes32"
        },
        {
          "internalType": "bytes32",
          "name": "keccakStorageResponse",
          "type": "bytes32"
        },
        {
          "components": [
            {
              "internalType": "uint32",
              "name": "blockNumber",
              "type": "uint32"
            },
            {
              "internalType": "bytes32",
              "name": "blockHash",
              "type": "bytes32"
            },
            {
              "internalType": "uint32",
              "name": "leafIdx",
              "type": "uint32"
            },
            {
              "internalType": "bytes32[6]",
              "name": "proof",
              "type": "bytes32[6]"
            }
          ],
          "internalType": "struct IAxiomV1Query.BlockResponse[]",
          "name": "blockResponses",
          "type": "tuple[]"
        },
        {
          "components": [
            {
              "internalType": "uint32",
              "name": "blockNumber",
              "type": "uint32"
            },
            {
              "internalType": "address",
              "name": "addr",
              "type": "address"
            },
            {
              "internalType": "uint64",
              "name": "nonce",
              "type": "uint64"
            },
            {
              "internalType": "uint96",
              "name": "balance",
              "type": "uint96"
            },
            {
              "internalType": "bytes32",
              "name": "storageRoot",
              "type": "bytes32"
            },
            {
              "internalType": "bytes32",
              "name": "codeHash",
              "type": "bytes32"
            },
            {
              "internalType": "uint32",
              "name": "leafIdx",
              "type": "uint32"
            },
            {
              "internalType": "bytes32[6]",
              "name": "proof",
              "type": "bytes32[6]"
            }
          ],
          "internalType": "struct IAxiomV1Query.AccountResponse[]",
          "name": "accountResponses",
          "type": "tuple[]"
        },
        {
          "components": [
            {
              "internalType": "uint32",
              "name": "blockNumber",
              "type": "uint32"
            },
            {
              "internalType": "address",
              "name": "addr",
              "type": "address"
            },
            {
              "internalType": "uint256",
              "name": "slot",
              "type": "uint256"
            },
            {
              "internalType": "uint256",
              "name": "value",
              "type": "uint256"
            },
            {
              "internalType": "uint32",
              "name": "leafIdx",
              "type": "uint32"
            },
            {
              "internalType": "bytes32[6]",
              "name": "proof",
              "type": "bytes32[6]"
            }
          ],
          "internalType": "struct IAxiomV1Query.StorageResponse[]",
          "name": "storageResponses",
          "type": "tuple[]"
        }
      ],
      "name": "areResponsesValid",
      "outputs": [
        {
          "internalType": "bool",
          "name": "",
          "type": "bool"
        }
      ],
      "stateMutability": "view",
      "type": "function"
    },
    {
      "inputs": [],
      "name": "axiomAddress",
      "outputs": [
        {
          "internalType": "address",
          "name": "",
          "type": "address"
        }
      ],
      "stateMutability": "view",
      "type": "function"
    },
    {
      "inputs": [
        {
          "internalType": "bytes32",
          "name": "keccakQueryResponse",
          "type": "bytes32"
        }
      ],
      "name": "collectRefund",
      "outputs": [],
      "stateMutability": "nonpayable",
      "type": "function"
    },
    {
      "inputs": [],
      "name": "freezeAll",
      "outputs": [],
      "stateMutability": "nonpayable",
      "type": "function"
    },
    {
      "inputs": [],
      "name": "frozen",
      "outputs": [
        {
          "internalType": "bool",
          "name": "",
          "type": "bool"
        }
      ],
      "stateMutability": "view",
      "type": "function"
    },
    {
      "inputs": [
        {
          "internalType": "bytes32",
          "name": "keccakQueryResponse",
          "type": "bytes32"
        },
        {
          "internalType": "address payable",
          "name": "payee",
          "type": "address"
        },
        {
          "internalType": "uint32",
          "name": "mmrIdx",
          "type": "uint32"
        },
        {
          "components": [
            {
              "internalType": "bytes32",
              "name": "prevHash",
              "type": "bytes32"
            },
            {
              "internalType": "bytes32",
              "name": "root",
              "type": "bytes32"
            },
            {
              "internalType": "uint32",
              "name": "numFinal",
              "type": "uint32"
            },
            {
              "internalType": "uint32",
              "name": "startBlockNumber",
              "type": "uint32"
            },
            {
              "internalType": "bytes32[10]",
              "name": "recentMMRPeaks",
              "type": "bytes32[10]"
            },
            {
              "internalType": "bytes32[10]",
              "name": "mmrComplementOrPeaks",
              "type": "bytes32[10]"
            }
          ],
          "internalType": "struct IAxiomV1Query.RecentMMRWitness",
          "name": "mmrWitness",
          "type": "tuple"
        },
        {
          "internalType": "bytes",
          "name": "proof",
          "type": "bytes"
        }
      ],
      "name": "fufillQueryVsMMR",
      "outputs": [],
      "stateMutability": "nonpayable",
      "type": "function"
    },
    {
      "inputs": [
        {
          "internalType": "bytes32",
          "name": "role",
          "type": "bytes32"
        }
      ],
      "name": "getRoleAdmin",
      "outputs": [
        {
          "internalType": "bytes32",
          "name": "",
          "type": "bytes32"
        }
      ],
      "stateMutability": "view",
      "type": "function"
    },
    {
      "inputs": [
        {
          "internalType": "bytes32",
          "name": "role",
          "type": "bytes32"
        },
        {
          "internalType": "address",
          "name": "account",
          "type": "address"
        }
      ],
      "name": "grantRole",
      "outputs": [],
      "stateMutability": "nonpayable",
      "type": "function"
    },
    {
      "inputs": [
        {
          "internalType": "bytes32",
          "name": "role",
          "type": "bytes32"
        },
        {
          "internalType": "address",
          "name": "account",
          "type": "address"
        }
      ],
      "name": "hasRole",
      "outputs": [
        {
          "internalType": "bool",
          "name": "",
          "type": "bool"
        }
      ],
      "stateMutability": "view",
      "type": "function"
    },
    {
      "inputs": [
        {
          "internalType": "address",
          "name": "_axiomAddress",
          "type": "address"
        },
        {
          "internalType": "address",
          "name": "_mmrVerifierAddress",
          "type": "address"
        },
        {
          "internalType": "uint256",
          "name": "_minQueryPrice",
          "type": "uint256"
        },
        {
          "internalType": "uint256",
          "name": "_maxQueryPrice",
          "type": "uint256"
        },
        {
          "internalType": "uint32",
          "name": "_queryDeadlineInterval",
          "type": "uint32"
        },
        {
          "internalType": "address",
          "name": "timelock",
          "type": "address"
        },
        {
          "internalType": "address",
          "name": "guardian",
          "type": "address"
        }
      ],
      "name": "initialize",
      "outputs": [],
      "stateMutability": "nonpayable",
      "type": "function"
    },
    {
      "inputs": [
        {
          "internalType": "bytes32",
          "name": "keccakBlockResponse",
          "type": "bytes32"
        },
        {
          "internalType": "bytes32",
          "name": "keccakAccountResponse",
          "type": "bytes32"
        },
        {
          "internalType": "bytes32",
          "name": "keccakStorageResponse",
          "type": "bytes32"
        }
      ],
      "name": "isKeccakResultValid",
      "outputs": [
        {
          "internalType": "bool",
          "name": "",
          "type": "bool"
        }
      ],
      "stateMutability": "view",
      "type": "function"
    },
    {
      "inputs": [
        {
          "internalType": "bytes32",
          "name": "poseidonBlockResponse",
          "type": "bytes32"
        },
        {
          "internalType": "bytes32",
          "name": "poseidonAccountResponse",
          "type": "bytes32"
        },
        {
          "internalType": "bytes32",
          "name": "poseidonStorageResponse",
          "type": "bytes32"
        }
      ],
      "name": "isPoseidonResultValid",
      "outputs": [
        {
          "internalType": "bool",
          "name": "",
          "type": "bool"
        }
      ],
      "stateMutability": "view",
      "type": "function"
    },
    {
      "inputs": [],
      "name": "maxQueryPrice",
      "outputs": [
        {
          "internalType": "uint256",
          "name": "",
          "type": "uint256"
        }
      ],
      "stateMutability": "view",
      "type": "function"
    },
    {
      "inputs": [],
      "name": "minQueryPrice",
      "outputs": [
        {
          "internalType": "uint256",
          "name": "",
          "type": "uint256"
        }
      ],
      "stateMutability": "view",
      "type": "function"
    },
    {
      "inputs": [],
      "name": "mmrVerifierAddress",
      "outputs": [
        {
          "internalType": "address",
          "name": "",
          "type": "address"
        }
      ],
      "stateMutability": "view",
      "type": "function"
    },
    {
      "inputs": [],
      "name": "proxiableUUID",
      "outputs": [
        {
          "internalType": "bytes32",
          "name": "",
          "type": "bytes32"
        }
      ],
      "stateMutability": "view",
      "type": "function"
    },
    {
      "inputs": [
        {
          "internalType": "bytes32",
          "name": "",
          "type": "bytes32"
        }
      ],
      "name": "queries",
      "outputs": [
        {
          "internalType": "uint256",
          "name": "payment",
          "type": "uint256"
        },
        {
          "internalType": "enum IAxiomV1Query.AxiomQueryState",
          "name": "state",
          "type": "uint8"
        },
        {
          "internalType": "uint32",
          "name": "deadlineBlockNumber",
          "type": "uint32"
        },
        {
          "internalType": "address payable",
          "name": "refundee",
          "type": "address"
        }
      ],
      "stateMutability": "view",
      "type": "function"
    },
    {
      "inputs": [],
      "name": "queryDeadlineInterval",
      "outputs": [
        {
          "internalType": "uint32",
          "name": "",
          "type": "uint32"
        }
      ],
      "stateMutability": "view",
      "type": "function"
    },
    {
      "inputs": [
        {
          "internalType": "bytes32",
          "name": "role",
          "type": "bytes32"
        },
        {
          "internalType": "address",
          "name": "account",
          "type": "address"
        }
      ],
      "name": "renounceRole",
      "outputs": [],
      "stateMutability": "nonpayable",
      "type": "function"
    },
    {
      "inputs": [
        {
          "internalType": "bytes32",
          "name": "role",
          "type": "bytes32"
        },
        {
          "internalType": "address",
          "name": "account",
          "type": "address"
        }
      ],
      "name": "revokeRole",
      "outputs": [],
      "stateMutability": "nonpayable",
      "type": "function"
    },
    {
      "inputs": [
        {
          "internalType": "bytes32",
          "name": "keccakQueryResponse",
          "type": "bytes32"
        },
        {
          "internalType": "address payable",
          "name": "refundee",
          "type": "address"
        },
        {
          "internalType": "bytes32",
          "name": "ipfsHash",
          "type": "bytes32"
        }
      ],
      "name": "sendOffchainQuery",
      "outputs": [],
      "stateMutability": "payable",
      "type": "function"
    },
    {
      "inputs": [
        {
          "internalType": "bytes32",
          "name": "keccakQueryResponse",
          "type": "bytes32"
        },
        {
          "internalType": "address payable",
          "name": "refundee",
          "type": "address"
        },
        {
          "internalType": "bytes",
          "name": "query",
          "type": "bytes"
        }
      ],
      "name": "sendQuery",
      "outputs": [],
      "stateMutability": "payable",
      "type": "function"
    },
    {
      "inputs": [
        {
          "internalType": "bytes4",
          "name": "interfaceId",
          "type": "bytes4"
        }
      ],
      "name": "supportsInterface",
      "outputs": [
        {
          "internalType": "bool",
          "name": "",
          "type": "bool"
        }
      ],
      "stateMutability": "view",
      "type": "function"
    },
    {
      "inputs": [],
      "name": "unfreezeAll",
      "outputs": [],
      "stateMutability": "nonpayable",
      "type": "function"
    },
    {
      "inputs": [
        {
          "internalType": "address",
          "name": "_axiomAddress",
          "type": "address"
        }
      ],
      "name": "updateAxiomAddress",
      "outputs": [],
      "stateMutability": "nonpayable",
      "type": "function"
    },
    {
      "inputs": [
        {
          "internalType": "address",
          "name": "_mmrVerifierAddress",
          "type": "address"
        }
      ],
      "name": "updateMMRVerifierAddress",
      "outputs": [],
      "stateMutability": "nonpayable",
      "type": "function"
    },
    {
      "inputs": [
        {
          "internalType": "uint256",
          "name": "_maxQueryPrice",
          "type": "uint256"
        }
      ],
      "name": "updateMaxQueryPrice",
      "outputs": [],
      "stateMutability": "nonpayable",
      "type": "function"
    },
    {
      "inputs": [
        {
          "internalType": "uint256",
          "name": "_minQueryPrice",
          "type": "uint256"
        }
      ],
      "name": "updateMinQueryPrice",
      "outputs": [],
      "stateMutability": "nonpayable",
      "type": "function"
    },
    {
      "inputs": [
        {
          "internalType": "uint32",
          "name": "_queryDeadlineInterval",
          "type": "uint32"
        }
      ],
      "name": "updateQueryDeadlineInterval",
      "outputs": [],
      "stateMutability": "nonpayable",
      "type": "function"
    },
    {
      "inputs": [
        {
          "internalType": "address",
          "name": "newImplementation",
          "type": "address"
        }
      ],
      "name": "upgradeTo",
      "outputs": [],
      "stateMutability": "nonpayable",
      "type": "function"
    },
    {
      "inputs": [
        {
          "internalType": "address",
          "name": "newImplementation",
          "type": "address"
        },
        {
          "internalType": "bytes",
          "name": "data",
          "type": "bytes"
        }
      ],
      "name": "upgradeToAndCall",
      "outputs": [],
      "stateMutability": "payable",
      "type": "function"
    },
    {
      "inputs": [
        {
          "internalType": "bytes32",
          "name": "",
          "type": "bytes32"
        }
      ],
      "name": "verifiedKeccakResults",
      "outputs": [
        {
          "internalType": "bool",
          "name": "",
          "type": "bool"
        }
      ],
      "stateMutability": "view",
      "type": "function"
    },
    {
      "inputs": [
        {
          "internalType": "bytes32",
          "name": "",
          "type": "bytes32"
        }
      ],
      "name": "verifiedPoseidonResults",
      "outputs": [
        {
          "internalType": "bool",
          "name": "",
          "type": "bool"
        }
      ],
      "stateMutability": "view",
      "type": "function"
    },
    {
      "inputs": [
        {
          "internalType": "uint32",
          "name": "mmrIdx",
          "type": "uint32"
        },
        {
          "components": [
            {
              "internalType": "bytes32",
              "name": "prevHash",
              "type": "bytes32"
            },
            {
              "internalType": "bytes32",
              "name": "root",
              "type": "bytes32"
            },
            {
              "internalType": "uint32",
              "name": "numFinal",
              "type": "uint32"
            },
            {
              "internalType": "uint32",
              "name": "startBlockNumber",
              "type": "uint32"
            },
            {
              "internalType": "bytes32[10]",
              "name": "recentMMRPeaks",
              "type": "bytes32[10]"
            },
            {
              "internalType": "bytes32[10]",
              "name": "mmrComplementOrPeaks",
              "type": "bytes32[10]"
            }
          ],
          "internalType": "struct IAxiomV1Query.RecentMMRWitness",
          "name": "mmrWitness",
          "type": "tuple"
        },
        {
          "internalType": "bytes",
          "name": "proof",
          "type": "bytes"
        }
      ],
      "name": "verifyResultVsMMR",
      "outputs": [],
      "stateMutability": "nonpayable",
      "type": "function"
    }
  ],
  "bytecode": {
    "object": "0x60a0604052306080523480156200001557600080fd5b506200002062000026565b62000164565b600054610100900460ff161562000074576040517f08c379a00000000000000000000000000000000000000000000000000000000081526004016200006b90620000ec565b60405180910390fd5b60005460ff9081161015620000ea57600080547fffffffffffffffffffffffffffffffffffffffffffffffffffffffffffffff001660ff9081179091556040517f7f26b83ff96e1f2b6a682f133852f6798a09c465da95921460cefb384740249891620000e19162000154565b60405180910390a15b565b602080825281016200014e81602781527f496e697469616c697a61626c653a20636f6e747261637420697320696e69746960208201527f616c697a696e6700000000000000000000000000000000000000000000000000604082015260600190565b92915050565b60ff82168152602081016200014e565b60805161579b6200019c60003960008181610dd601528181610e3001528181610f2f01528181610f890152611078015261579b6000f3fe6080604052600436106102855760003560e01c806375a09b0911610153578063a217fddf116100cb578063d77de0791161007f578063df7e2e2d11610064578063df7e2e2d146107b2578063e741ad80146107c9578063f288a2e2146107fa57600080fd5b8063d77de0791461075e578063dc9a4ef61461077e57600080fd5b8063b691943f116100b0578063b691943f146106f0578063d35a584414610710578063d547741f1461073e57600080fd5b8063a217fddf146106c4578063b1d401cd146106d957600080fd5b8063898b8a1a1161012257806391d148541161010757806391d14854146106495780639755b1fc1461069c57806399464c89146106af57600080fd5b8063898b8a1a146106095780638b4acf281461062957600080fd5b806375a09b091461057e578063774a62341461059e578063798da01a146105be57806379ce0468146105de57600080fd5b806336568abe11610201578063560aa8cd116101b55780636439e9d41161019a5780636439e9d41461052957806366c5c4a0146105495780636ec59b3f1461055e57600080fd5b8063560aa8cd146104d85780635eac0e23146104f857600080fd5b80634f1ef286116101e65780634f1ef28614610475578063528bad371461048857806352d1902d146104c357600080fd5b806336568abe146104355780633659cfe61461045557600080fd5b806321dfb6001161025857806324ea54f41161023d57806324ea54f4146103ce5780632f2ff15d1461040257806332c4cda21461042257600080fd5b806321dfb6001461031c578063248a9ca31461039157600080fd5b806301f8fca41461028a57806301ffc9a7146102ac578063054f7d9c146102e25780630eb7bde2146102fc575b600080fd5b34801561029657600080fd5b506102aa6102a536600461402b565b61082e565b005b3480156102b857600080fd5b506102cc6102c736600461407f565b61089a565b6040516102d991906140aa565b60405180910390f35b3480156102ee57600080fd5b506097546102cc9060ff1681565b34801561030857600080fd5b506102aa61031736600461416f565b6108f6565b34801561032857600080fd5b5061038161033736600461402b565b61012b602052600090815260409020805460019091015460ff811690610100810463ffffffff169065010000000000900473ffffffffffffffffffffffffffffffffffffffff1684565b6040516102d99493929190614284565b34801561039d57600080fd5b506103c16103ac36600461402b565b60009081526065602052604090206001015490565b6040516102d991906142b9565b3480156103da57600080fd5b506103c17f55435dd261a4b9b3364963f7738a7a662ad9c84396d64be3365284bb7f0a504181565b34801561040e57600080fd5b506102aa61041d3660046142c7565b610c28565b6102aa610430366004614304565b610c52565b34801561044157600080fd5b506102aa6104503660046142c7565b610d59565b34801561046157600080fd5b506102aa610470366004614372565b610dbf565b6102aa6104833660046144de565b610f18565b34801561049457600080fd5b50610124546104b69073ffffffffffffffffffffffffffffffffffffffff1681565b6040516102d9919061452c565b3480156104cf57600080fd5b506103c161105e565b3480156104e457600080fd5b506102cc6104f336600461453a565b6110f4565b34801561050457600080fd5b506102cc61051336600461402b565b6101266020526000908152604090205460ff1681565b34801561053557600080fd5b506102cc61054436600461466e565b611161565b34801561055557600080fd5b506102aa6116b6565b34801561056a57600080fd5b506102aa610579366004614372565b611734565b34801561058a57600080fd5b506102aa610599366004614757565b6117cf565b3480156105aa57600080fd5b506102aa6105b9366004614372565b6118aa565b3480156105ca57600080fd5b506102aa6105d936600461402b565b611945565b3480156105ea57600080fd5b5061012a546105fc9063ffffffff1681565b6040516102d991906147af565b34801561061557600080fd5b506102cc61062436600461453a565b6119a5565b34801561063557600080fd5b506102aa61064436600461402b565b6119c1565b34801561065557600080fd5b506102cc6106643660046142c7565b600091825260656020908152604080842073ffffffffffffffffffffffffffffffffffffffff93909316845291905290205460ff1690565b6102aa6106aa3660046147bd565b611c4a565b3480156106bb57600080fd5b506102aa611d24565b3480156106d057600080fd5b506103c1600081565b3480156106e557600080fd5b506103c16101285481565b3480156106fc57600080fd5b506102aa61070b3660046147f2565b611da5565b34801561071c57600080fd5b50610125546104b69073ffffffffffffffffffffffffffffffffffffffff1681565b34801561074a57600080fd5b506102aa6107593660046142c7565b612252565b34801561076a57600080fd5b506102aa610779366004614891565b612277565b34801561078a57600080fd5b506103c17f60044782a422109ac08a415e44260ad5d3bad63d96ebe1fac0363399642ee3f281565b3480156107be57600080fd5b506103c16101295481565b3480156107d557600080fd5b506102cc6107e436600461402b565b6101276020526000908152604090205460ff1681565b34801561080657600080fd5b506103c17ff66846415d2bf9eabda9e84793ff9c0ea96d87f50fc41e66aa16469c6a442f0581565b7ff66846415d2bf9eabda9e84793ff9c0ea96d87f50fc41e66aa16469c6a442f0561085881612302565b6101298290556040517f45ceffba6cdfd80ac24dded71e7dc1a0e3620f2a2a1433f2c38e0e68acef2a009061088e9084906142b9565b60405180910390a15050565b60007fffffffff0000000000000000000000000000000000000000000000000000000082167f76464b3d0000000000000000000000000000000000000000000000000000000014806108f057506108f08261230c565b92915050565b600080527f16d6d09ad43c2e13327e8e85b0f16a19ef2e63b72c391bfd77d21c5d499021856020527fdf4fae2a9d03ddefae2c9e431bd1ae49d400972b66abd41187abff73623b3c4b5460ff1615801561097f57503360009081527f16d6d09ad43c2e13327e8e85b0f16a19ef2e63b72c391bfd77d21c5d49902185602052604090205460ff16155b156109b6576040517f6692e47700000000000000000000000000000000000000000000000000000000815260040160405180910390fd5b6109be6123a3565b6001600087815261012b602052604090206001015460ff1660028111156109e7576109e761420d565b14610a1e576040517ff8c22cf100000000000000000000000000000000000000000000000000000000815260040160405180910390fd5b6000610a2c858585856123e2565b9050868114610a67576040517fc496ba3d00000000000000000000000000000000000000000000000000000000815260040160405180910390fd5b60408051608081018252600089815261012b60209081529281205482529181016002815260008a815261012b602081815260408084206001808201805463ffffffff610100820416868a015273ffffffffffffffffffffffffffffffffffffffff650100000000008204169490980193909352948f9052928252855183559085015194955085949193919290917fffffffffffffffffffffffffffffffffffffffffffffffffffffffffffffff001690836002811115610b2957610b2961420d565b021790555060408281015160019290920180546060909401517fffffffffffffff000000000000000000000000000000000000000000000000ff90941661010063ffffffff948516027fffffffffffffff0000000000000000000000000000000000000000ffffffffff16176501000000000073ffffffffffffffffffffffffffffffffffffffff9586160217905560008b815261012b6020522054610bd2928a169161303c16565b600088815261012b6020526040908190205490517f662c835a3bf2a9618618ac34dfe8d5a12be89da82c8423c97b00ba7c658ba68c91610c16918b91908b9061490e565b60405180910390a15050505050505050565b600082815260656020526040902060010154610c4381612302565b610c4d8383613119565b505050565b610c5a6123a3565b61012854341015610c97576040517fde43553100000000000000000000000000000000000000000000000000000000815260040160405180910390fd5b61012954341115610cd4576040517f24fe119200000000000000000000000000000000000000000000000000000000815260040160405180910390fd5b610cdf84348561320d565b60008282604051610cf1929190614949565b60405190819003902061012a549091507f51bc40919d53d6a0750201d2087c589a09286b4e9f320919d04ad4545ced4abb9086903490610d379063ffffffff1643614985565b8785604051610d4a9594939291906149a5565b60405180910390a15050505050565b73ffffffffffffffffffffffffffffffffffffffff81163314610db1576040517f08c379a0000000000000000000000000000000000000000000000000000000008152600401610da890614a4e565b60405180910390fd5b610dbb82826133b0565b5050565b73ffffffffffffffffffffffffffffffffffffffff7f0000000000000000000000000000000000000000000000000000000000000000163003610e2e576040517f08c379a0000000000000000000000000000000000000000000000000000000008152600401610da890614ab8565b7f000000000000000000000000000000000000000000000000000000000000000073ffffffffffffffffffffffffffffffffffffffff16610ea37f360894a13ba1a3210667c828492db98dca3e2076cc3735a920a3ca505d382bbc5473ffffffffffffffffffffffffffffffffffffffff1690565b73ffffffffffffffffffffffffffffffffffffffff1614610ef0576040517f08c379a0000000000000000000000000000000000000000000000000000000008152600401610da890614b22565b610ef98161346b565b60408051600080825260208201909252610f1591839190613495565b50565b73ffffffffffffffffffffffffffffffffffffffff7f0000000000000000000000000000000000000000000000000000000000000000163003610f87576040517f08c379a0000000000000000000000000000000000000000000000000000000008152600401610da890614ab8565b7f000000000000000000000000000000000000000000000000000000000000000073ffffffffffffffffffffffffffffffffffffffff16610ffc7f360894a13ba1a3210667c828492db98dca3e2076cc3735a920a3ca505d382bbc5473ffffffffffffffffffffffffffffffffffffffff1690565b73ffffffffffffffffffffffffffffffffffffffff1614611049576040517f08c379a0000000000000000000000000000000000000000000000000000000008152600401610da890614b22565b6110528261346b565b610dbb82826001613495565b60003073ffffffffffffffffffffffffffffffffffffffff7f000000000000000000000000000000000000000000000000000000000000000016146110cf576040517f08c379a0000000000000000000000000000000000000000000000000000000008152600401610da890614b8c565b507f360894a13ba1a3210667c828492db98dca3e2076cc3735a920a3ca505d382bbc90565b6000610126600085858560405160200161111093929190614b9c565b604080517fffffffffffffffffffffffffffffffffffffffffffffffffffffffffffffffe08184030181529181528151602092830120835290820192909252016000205460ff1690505b9392505050565b600061012660008b8b8b60405160200161117d93929190614b9c565b604080517fffffffffffffffffffffffffffffffffffffffffffffffffffffffffffffffe08184030181529181528151602092830120835290820192909252016000205460ff166111d0575060006116a9565b60005b63ffffffff811687111561130757600088888363ffffffff168181106111fb576111fb614bd3565b905061012002016020013589898463ffffffff1681811061121e5761121e614bd3565b611235926020610120909202019081019150614891565b604051602001611246929190614c1d565b6040516020818303038152906040528051906020012090506112e58c828b8b8663ffffffff1681811061127b5761127b614bd3565b9050610120020160600160068060200260405190810160405280929190826006602002808284376000920191909152508e91508d905063ffffffff88168181106112c7576112c7614bd3565b9050610120020160400160208101906112e09190614891565b6135e8565b6112f4576000925050506116a9565b50806112ff81614c43565b9150506111d3565b5060005b63ffffffff811685111561151a57600086868363ffffffff1681811061133357611333614bd3565b61134a9260206101a0909202019081019150614891565b87878463ffffffff1681811061136257611362614bd3565b90506101a00201602001602081019061137b9190614372565b88888563ffffffff1681811061139357611393614bd3565b90506101a0020160400160208101906113ac9190614c9c565b89898663ffffffff168181106113c4576113c4614bd3565b90506101a0020160600160208101906113dd9190614cdc565b8a8a8763ffffffff168181106113f5576113f5614bd3565b90506101a00201608001358b8b8863ffffffff1681811061141857611418614bd3565b90506101a0020160a001356040516020016114369493929190614d3f565b6040516020818303038152906040528051906020012060405160200161145e93929190614daf565b6040516020818303038152906040528051906020012090506114f88b8289898663ffffffff1681811061149357611493614bd3565b90506101a0020160e00160068060200260405190810160405280929190826006602002808284376000920191909152508c91508b905063ffffffff88168181106114df576114df614bd3565b90506101a0020160c00160208101906112e09190614891565b611507576000925050506116a9565b508061151281614c43565b91505061130b565b5060005b63ffffffff81168311156116a357600084848363ffffffff1681811061154657611546614bd3565b61155d926020610160909202019081019150614891565b85858463ffffffff1681811061157557611575614bd3565b90506101600201602001602081019061158e9190614372565b86868563ffffffff168181106115a6576115a6614bd3565b905061016002016040013587878663ffffffff168181106115c9576115c9614bd3565b90506101600201606001356040516020016115e79493929190614ddb565b6040516020818303038152906040528051906020012090506116818a8287878663ffffffff1681811061161c5761161c614bd3565b9050610160020160a00160068060200260405190810160405280929190826006602002808284376000920191909152508a915089905063ffffffff881681811061166857611668614bd3565b9050610160020160800160208101906112e09190614891565b611690576000925050506116a9565b508061169b81614c43565b91505061151e565b50600190505b9998505050505050505050565b7f55435dd261a4b9b3364963f7738a7a662ad9c84396d64be3365284bb7f0a50416116e081612302565b609780547fffffffffffffffffffffffffffffffffffffffffffffffffffffffffffffff001690556040517fe6fdbf73945dd61794a752b9181ea29f77170a7b1ffd37e0a7ff9d2c6f7258b990600090a150565b7ff66846415d2bf9eabda9e84793ff9c0ea96d87f50fc41e66aa16469c6a442f0561175e81612302565b61012580547fffffffffffffffffffffffff00000000000000000000000000000000000000001673ffffffffffffffffffffffffffffffffffffffff84161790556040517f5dcffe9bbb6912962f7ffcea27f330f6aba5de77d262086624d5be74b849fd109061088e90849061452c565b600080527f16d6d09ad43c2e13327e8e85b0f16a19ef2e63b72c391bfd77d21c5d499021856020527fdf4fae2a9d03ddefae2c9e431bd1ae49d400972b66abd41187abff73623b3c4b5460ff1615801561185857503360009081527f16d6d09ad43c2e13327e8e85b0f16a19ef2e63b72c391bfd77d21c5d49902185602052604090205460ff16155b1561188f576040517f6692e47700000000000000000000000000000000000000000000000000000000815260040160405180910390fd5b6118976123a3565b6118a3848484846123e2565b5050505050565b7ff66846415d2bf9eabda9e84793ff9c0ea96d87f50fc41e66aa16469c6a442f056118d481612302565b61012480547fffffffffffffffffffffffff00000000000000000000000000000000000000001673ffffffffffffffffffffffffffffffffffffffff84161790556040517f4f58839d9075210378ad47340fc23fab81e060f9fb13f00151841b25bc23d4b79061088e90849061452c565b7ff66846415d2bf9eabda9e84793ff9c0ea96d87f50fc41e66aa16469c6a442f0561196f81612302565b6101288290556040517f65bd598c7e893131b1f10bd7e7db583b9af90196f90525922c85b1c2fcc298609061088e9084906142b9565b6000610127600085858560405160200161111093929190614b9c565b600081815261012b60209081526040808320815160808101909252805482526001810154919290919083019060ff166002811115611a0157611a0161420d565b6002811115611a1257611a1261420d565b8152600191820154610100810463ffffffff16602083015265010000000000900473ffffffffffffffffffffffffffffffffffffffff1660409091015290915081602001516002811115611a6857611a6861420d565b14611a9f576040517f5f158cf700000000000000000000000000000000000000000000000000000000815260040160405180910390fd5b806040015163ffffffff164311611ae2576040517f6d542c0d00000000000000000000000000000000000000000000000000000000815260040160405180910390fd5b60408051608081018252600080825260208083018281528385018390526060840183905286835261012b90915292902081518155915160018084018054939485949093927fffffffffffffffffffffffffffffffffffffffffffffffffffffffffffffff0090911690836002811115611b5d57611b5d61420d565b0217905550604082015160019190910180546060938401517fffffffffffffff000000000000000000000000000000000000000000000000ff90911661010063ffffffff948516027fffffffffffffff0000000000000000000000000000000000000000ffffffffff16176501000000000073ffffffffffffffffffffffffffffffffffffffff9283160217909155845192850151611bff9391169161303c16565b8151604080840151606085015191517f38c89cadb339d1bffb61715406f1b242b77f304ef7759730c0094c14c1017f7f93611c3d9388939192614e07565b60405180910390a1505050565b611c526123a3565b61012854341015611c8f576040517fde43553100000000000000000000000000000000000000000000000000000000815260040160405180910390fd5b61012954341115611ccc576040517f24fe119200000000000000000000000000000000000000000000000000000000815260040160405180910390fd5b611cd783348461320d565b61012a547fea3db7d163ac581226b9faa5f9e5e5efe400bfb1b8a365db5c3e7cbff6d2984d9084903490611d119063ffffffff1643614985565b8585604051611c3d9594939291906149a5565b7f55435dd261a4b9b3364963f7738a7a662ad9c84396d64be3365284bb7f0a5041611d4e81612302565b609780547fffffffffffffffffffffffffffffffffffffffffffffffffffffffffffffff001660011790556040517f61340a1b154d5d21d259a74bf95379201799b9d12cc6509bb46cb56dc281df5590600090a150565b600054610100900460ff1615808015611dc55750600054600160ff909116105b80611ddf5750303b158015611ddf575060005460ff166001145b611e15576040517f08c379a0000000000000000000000000000000000000000000000000000000008152600401610da890614e96565b600080547fffffffffffffffffffffffffffffffffffffffffffffffffffffffffffffff001660011790558015611e7357600080547fffffffffffffffffffffffffffffffffffffffffffffffffffffffffffff00ff166101001790555b611e7b6136c4565b611e83613705565b73ffffffffffffffffffffffffffffffffffffffff8816611ed0576040517f08c379a0000000000000000000000000000000000000000000000000000000008152600401610da890614f00565b73ffffffffffffffffffffffffffffffffffffffff8716611f1d576040517f08c379a0000000000000000000000000000000000000000000000000000000008152600401610da890614f6a565b73ffffffffffffffffffffffffffffffffffffffff8316611f6a576040517f08c379a0000000000000000000000000000000000000000000000000000000008152600401610da890614fd4565b73ffffffffffffffffffffffffffffffffffffffff8216611fb7576040517f08c379a0000000000000000000000000000000000000000000000000000000008152600401610da89061503e565b610124805473ffffffffffffffffffffffffffffffffffffffff808b167fffffffffffffffffffffffff0000000000000000000000000000000000000000928316179092556101258054928a16929091169190911790556040517f4f58839d9075210378ad47340fc23fab81e060f9fb13f00151841b25bc23d4b79061203e908a9061452c565b60405180910390a17f5dcffe9bbb6912962f7ffcea27f330f6aba5de77d262086624d5be74b849fd1087604051612075919061452c565b60405180910390a161012886905561012985905561012a80547fffffffffffffffffffffffffffffffffffffffffffffffffffffffff000000001663ffffffff86161790556040517f65bd598c7e893131b1f10bd7e7db583b9af90196f90525922c85b1c2fcc29860906120ea9088906142b9565b60405180910390a17f45ceffba6cdfd80ac24dded71e7dc1a0e3620f2a2a1433f2c38e0e68acef2a008560405161212191906142b9565b60405180910390a17f266d22101c27a330937ff06442e5289e92a84a449d22bb001c03789f7774b6288460405161215891906147af565b60405180910390a161218a7f60044782a422109ac08a415e44260ad5d3bad63d96ebe1fac0363399642ee3f233613119565b612195600084613119565b6121bf7ff66846415d2bf9eabda9e84793ff9c0ea96d87f50fc41e66aa16469c6a442f0584613119565b6121e97f55435dd261a4b9b3364963f7738a7a662ad9c84396d64be3365284bb7f0a504183613119565b801561224857600080547fffffffffffffffffffffffffffffffffffffffffffffffffffffffffffff00ff1690556040517f7f26b83ff96e1f2b6a682f133852f6798a09c465da95921460cefb384740249890610c1690600190615062565b5050505050505050565b60008281526065602052604090206001015461226d81612302565b610c4d83836133b0565b7ff66846415d2bf9eabda9e84793ff9c0ea96d87f50fc41e66aa16469c6a442f056122a181612302565b61012a80547fffffffffffffffffffffffffffffffffffffffffffffffffffffffff000000001663ffffffff84161790556040517f266d22101c27a330937ff06442e5289e92a84a449d22bb001c03789f7774b6289061088e9084906147af565b610f158133613770565b60007fffffffff0000000000000000000000000000000000000000000000000000000082167f7965db0b0000000000000000000000000000000000000000000000000000000014806108f057507f01ffc9a7000000000000000000000000000000000000000000000000000000007fffffffff000000000000000000000000000000000000000000000000000000008316146108f0565b60975460ff16156123e0576040517f379dfc6300000000000000000000000000000000000000000000000000000000815260040160405180910390fd5b565b60006123ec6123a3565b600863ffffffff8616106123ff57600080fd5b600061240b848461382a565b60c0810151610124546040517f074144d6000000000000000000000000000000000000000000000000000000008152929350909173ffffffffffffffffffffffffffffffffffffffff9091169063074144d69061246c908a9060040161508b565b602060405180830381865afa158015612489573d6000803e3d6000fd5b505050506040513d601f19601f820116820180604052508101906124ad91906150a4565b146124e4576040517fd9fcd6a100000000000000000000000000000000000000000000000000000000815260040160405180910390fd5b6101245460009073ffffffffffffffffffffffffffffffffffffffff1663c6ca47536125166080890160608a01614891565b6040518263ffffffff1660e01b815260040161253291906147af565b602060405180830381865afa15801561254f573d6000803e3d6000fd5b505050506040513d601f19601f8201168201806040525081019061257391906150a4565b90508535602087013561258c6060890160408a01614891565b60405160200161259e939291906150c5565b6040516020818303038152906040528051906020012081146125bf57600080fd5b50846080016040516020016125d49190615112565b604051602081830303815290604052805190602001208160e00151146125f957600080fd5b6000805b600a8163ffffffff16101561265b5760006080880163ffffffff8316600a811061262957612629614bd3565b60200201351461264957612646600163ffffffff83161b83614985565b91505b8061265381614c43565b9150506125fd565b5060008163ffffffff1611801561268d575061267d6060870160408801614891565b63ffffffff168163ffffffff1611155b1561270c5760006126f387608001600a806020026040519081016040528092919082600a60200280828437600092019190915250506040805161014081810190925291506101c08b0190600a9083908390808284376000920191909152506139fd915050565b5090508087602001351461270657600080fd5b50612e07565b61271c6060870160408801614891565b63ffffffff168163ffffffff161115612e075743816127416080890160608a01614891565b61274b9190614985565b63ffffffff161115612789576040517ff5b1753900000000000000000000000000000000000000000000000000000000815260040160405180910390fd5b61279561010043615128565b6127a56060880160408901614891565b6127b56080890160608a01614891565b6127bf9190614985565b63ffffffff1610156127fd576040517f7df2555400000000000000000000000000000000000000000000000000000000815260040160405180910390fd5b60408051610140808201835260008083527fad3228b676f7d3cd4284a5443f17f1962b36e491b30a40b2405849e597ba5fb560208401527fb4c11951957c6f8f642c4af61cd6b24640fec6dc7fc607ee8206a99e92410d30838501527f21ddb9a356815c3fac1026b6dec5df3124afbadb485c9ba5a3e3398a04b7ba8560608401527fe58769b32a1beaf1ea27375a44095a0d1fb664ce2dd358e7fcbfb78c26a1934460808401527f0eb01ebfc9ed27500cd4dfc979272d1f0913cc9f66540d7e8005811109e1cf2d60a08401527f887c22bd8750d34016ac3c66b5ff102dacdd73f6b014e710b51e8022af9a196860c08401527fffd70157e48063fc33c97a050f7f640233bf646cc98d9524c6b92bcf3ab56f8360e08401527f9867cc5f7f196b93bae1e27e6320742445d290f2263827498b54fec539f756af6101008401527fcefad4e508c098b9a7e1d8feb19955fb02ba9675585078710969d3440f5054e061012084015283518083019094529192829161299a91906101c08c0190600a9083908390808284376000920191909152508691506139fd9050565b909250905063ffffffff81166129b660608b0160408c01614891565b63ffffffff16146129c657600080fd5b818960200135146129d657600080fd5b60006129e860608b0160408c01614891565b6129f2908661513b565b63ffffffff1667ffffffffffffffff811115612a1057612a10614393565b604051908082528060200260200182016040528015612a39578160200160208202803683370190505b50905060005b612a4f60608c0160408d01614891565b612a59908761513b565b63ffffffff168163ffffffff161015612add5780612a7d60608d0160408e01614891565b612a8d60808e0160608f01614891565b612a979190614985565b612aa19190614985565b63ffffffff1640828263ffffffff1681518110612ac057612ac0614bd3565b602090810291909101015280612ad581614c43565b915050612a3f565b506000612af060608c0160408d01614891565b612afa908761513b565b90506000805b63ffffffff831615612dff578163ffffffff168d6040016020810190612b269190614891565b63ffffffff16901c600116905060005b6002612b428386614985565b612b4c919061518a565b63ffffffff168163ffffffff161015612cd4576000808363ffffffff16600103612c0c5763ffffffff831615612bb757866001612b8a8560026151a8565b612b94919061513b565b63ffffffff1681518110612baa57612baa614bd3565b6020026020010151612bd9565b8f6101c0018563ffffffff16600a8110612bd357612bd3614bd3565b60200201355b915086612be78460026151a8565b63ffffffff1681518110612bfd57612bfd614bd3565b60200260200101519050612c72565b86612c188460026151a8565b63ffffffff1681518110612c2e57612c2e614bd3565b6020026020010151915086836002612c4691906151a8565b612c51906001614985565b63ffffffff1681518110612c6757612c67614bd3565b602002602001015190505b8181604051602001612c859291906151d2565b60405160208183030381529060405280519060200120878463ffffffff1681518110612cb357612cb3614bd3565b60200260200101818152505050508080612ccc90614c43565b915050612b36565b506002612ce18285614985565b612ceb91906151f8565b63ffffffff16600103612d7e578c6080018263ffffffff16600a8110612d1357612d13614bd3565b602002013584612d2460018661513b565b63ffffffff1681518110612d3a57612d3a614bd3565b602002602001015114612d79576040517f84cca32b00000000000000000000000000000000000000000000000000000000815260040160405180910390fd5b612dd5565b8c6080018263ffffffff16600a8110612d9957612d99614bd3565b602002013515612dd5576040517f84cca32b00000000000000000000000000000000000000000000000000000000815260040160405180910390fd5b612de0826001614985565b91506002612dee8285614985565b612df8919061518a565b9250612b00565b505050505050505b6101255460405160009173ffffffffffffffffffffffffffffffffffffffff1690612e359088908890614949565b6000604051808303816000865af19150503d8060008114612e72576040519150601f19603f3d011682016040523d82523d6000602084013e612e77565b606091505b5050905080612eb2576040517fbd5dfcb400000000000000000000000000000000000000000000000000000000815260040160405180910390fd5b6000836020015184606001518560a00151604051602001612ed593929190614b9c565b604080517fffffffffffffffffffffffffffffffffffffffffffffffffffffffffffffffe081840301815282825280516020918201206000818152610126835283812080547fffffffffffffffffffffffffffffffffffffffffffffffffffffffffffffff001660019081179091558951948a015160808b01519397509095610127959294612f65949101614b9c565b60405160208183030381529060405280519060200120815260200190815260200160002060006101000a81548160ff0219169083151502179055507fd23fa9dc5084a846732fb5ea34d0a34d4457b4236dbc1bce24f2cf686b2650b2846020015185606001518660a00151604051612fdf93929190615216565b60405180910390a17f24e8e7d5b38feee115a633792a47326753618b13f2021b4b0fe2e58e28d80e8084600001518560400151866080015160405161302693929190615216565b60405180910390a193505050505b949350505050565b80471015613076576040517f08c379a0000000000000000000000000000000000000000000000000000000008152600401610da890615275565b60008273ffffffffffffffffffffffffffffffffffffffff168260405161309c90615285565b60006040518083038185875af1925050503d80600081146130d9576040519150601f19603f3d011682016040523d82523d6000602084013e6130de565b606091505b5050905080610c4d576040517f08c379a0000000000000000000000000000000000000000000000000000000008152600401610da8906152ea565b600082815260656020908152604080832073ffffffffffffffffffffffffffffffffffffffff8516845290915290205460ff16610dbb57600082815260656020908152604080832073ffffffffffffffffffffffffffffffffffffffff85168452909152902080547fffffffffffffffffffffffffffffffffffffffffffffffffffffffffffffff001660011790556131af3390565b73ffffffffffffffffffffffffffffffffffffffff168173ffffffffffffffffffffffffffffffffffffffff16837f2f8788117e7eff1d82e926ec794901d17c78024a50270940304540a733656f0d60405160405180910390a45050565b600083815261012b602052604081206001015460ff1660028111156132345761323461420d565b1461326b576040517f96e41fe900000000000000000000000000000000000000000000000000000000815260040160405180910390fd5b604080516080810182528381526001602082015261012a546000928201906132999063ffffffff1643614985565b63ffffffff16815273ffffffffffffffffffffffffffffffffffffffff8416602091820152600086815261012b825260409020825181559082015160018083018054949550859490917fffffffffffffffffffffffffffffffffffffffffffffffffffffffffffffff00909116908360028111156133195761331961420d565b021790555060408201516001909101805460609093015173ffffffffffffffffffffffffffffffffffffffff1665010000000000027fffffffffffffff0000000000000000000000000000000000000000ffffffffff63ffffffff90931661010002929092167fffffffffffffff000000000000000000000000000000000000000000000000ff9093169290921717905550505050565b600082815260656020908152604080832073ffffffffffffffffffffffffffffffffffffffff8516845290915290205460ff1615610dbb57600082815260656020908152604080832073ffffffffffffffffffffffffffffffffffffffff8516808552925280832080547fffffffffffffffffffffffffffffffffffffffffffffffffffffffffffffff0016905551339285917ff6391f5c32d9c69d2a47ea670b442974b53935d1edc7fd64eb21e047a839171b9190a45050565b7ff66846415d2bf9eabda9e84793ff9c0ea96d87f50fc41e66aa16469c6a442f05610dbb81612302565b7f4910fdfa16fed3260ed0e7147f7cc6da11a60208b5b9406d12a635614ffd91435460ff16156134c857610c4d83613b74565b8273ffffffffffffffffffffffffffffffffffffffff166352d1902d6040518163ffffffff1660e01b8152600401602060405180830381865afa92505050801561354d575060408051601f3d9081017fffffffffffffffffffffffffffffffffffffffffffffffffffffffffffffffe016820190925261354a918101906150a4565b60015b613583576040517f08c379a0000000000000000000000000000000000000000000000000000000008152600401610da890615354565b7f360894a13ba1a3210667c828492db98dca3e2076cc3735a920a3ca505d382bbc81146135dc576040517f08c379a0000000000000000000000000000000000000000000000000000000008152600401610da8906153be565b50610c4d838383613c28565b600083815b60068163ffffffff1610156136b857600163ffffffff8581169083161c1660000361365e5781858263ffffffff166006811061362b5761362b614bd3565b60200201516040516020016136419291906151d2565b6040516020818303038152906040528051906020012091506136a6565b848163ffffffff166006811061367657613676614bd3565b60200201518260405160200161368d9291906151d2565b6040516020818303038152906040528051906020012091505b806136b081614c43565b9150506135ed565b50909414949350505050565b600054610100900460ff166123e0576040517f08c379a0000000000000000000000000000000000000000000000000000000008152600401610da890615428565b600054610100900460ff16613746576040517f08c379a0000000000000000000000000000000000000000000000000000000008152600401610da890615428565b609780547fffffffffffffffffffffffffffffffffffffffffffffffffffffffffffffff00169055565b600082815260656020908152604080832073ffffffffffffffffffffffffffffffffffffffff8516845290915290205460ff16610dbb576137b081613c53565b6137bb836020613c72565b6040516020016137cc92919061547e565b604080517fffffffffffffffffffffffffffffffffffffffffffffffffffffffffffffffe0818403018152908290527f08c379a0000000000000000000000000000000000000000000000000000000008252610da891600401615532565b604080516101008082018352600080835260208301819052828401819052606083018190526080830181905260a0830181905260c0830181905260e0830152825190810190925290806138836101a06101808688615543565b61388c91615573565b81526020016138a16101e06101c08688615543565b6138aa91615573565b60806138bc6101c06101a0888a615543565b6138c591615573565b901b1781526020016138dd6102006101e08688615543565b6138e691615573565b81526020016138fb6102406102208688615543565b61390491615573565b6080613916610220610200888a615543565b61391f91615573565b901b1781526020016139376102606102408688615543565b61394091615573565b81526020016139556102a06102808688615543565b61395e91615573565b6080613970610280610260888a615543565b61397991615573565b901b1781526020016139916102e06102c08688615543565b61399a91615573565b60806139ac6102c06102a0888a615543565b6139b591615573565b901b1781526020016139cd6103206103008688615543565b6139d691615573565b60806139e86103006102e0888a615543565b6139f191615573565b901b1790529392505050565b60008080805b600a8163ffffffff161015613b6b5781158015613a3d575060008663ffffffff8316600a8110613a3557613a35614bd3565b602002015114155b15613a6657848163ffffffff16600a8110613a5a57613a5a614bd3565b60200201519350600191505b8115613b595760008663ffffffff8316600a8110613a8657613a86614bd3565b602002015114613b1157858163ffffffff16600a8110613aa857613aa8614bd3565b602002015184604051602001613abf9291906151d2565b604080517fffffffffffffffffffffffffffffffffffffffffffffffffffffffffffffffe081840301815291905280516020909101209350613b0a600163ffffffff83161b84614985565b9250613b59565b83858263ffffffff16600a8110613b2a57613b2a614bd3565b6020020151604051602001613b409291906151d2565b6040516020818303038152906040528051906020012093505b80613b6381614c43565b915050613a03565b50509250929050565b73ffffffffffffffffffffffffffffffffffffffff81163b613bc2576040517f08c379a0000000000000000000000000000000000000000000000000000000008152600401610da890615616565b7f360894a13ba1a3210667c828492db98dca3e2076cc3735a920a3ca505d382bbc80547fffffffffffffffffffffffff00000000000000000000000000000000000000001673ffffffffffffffffffffffffffffffffffffffff92909216919091179055565b613c3183613e85565b600082511180613c3e5750805b15610c4d57613c4d8383613ed2565b50505050565b60606108f073ffffffffffffffffffffffffffffffffffffffff831660145b60606000613c81836002615626565b613c8c90600261563e565b67ffffffffffffffff811115613ca457613ca4614393565b6040519080825280601f01601f191660200182016040528015613cce576020820181803683370190505b5090507f300000000000000000000000000000000000000000000000000000000000000081600081518110613d0557613d05614bd3565b60200101907effffffffffffffffffffffffffffffffffffffffffffffffffffffffffffff1916908160001a9053507f780000000000000000000000000000000000000000000000000000000000000081600181518110613d6857613d68614bd3565b60200101907effffffffffffffffffffffffffffffffffffffffffffffffffffffffffffff1916908160001a9053506000613da4846002615626565b613daf90600161563e565b90505b6001811115613e4c577f303132333435363738396162636465660000000000000000000000000000000085600f1660108110613df057613df0614bd3565b1a60f81b828281518110613e0657613e06614bd3565b60200101907effffffffffffffffffffffffffffffffffffffffffffffffffffffffffffff1916908160001a90535060049490941c93613e4581615651565b9050613db2565b50831561115a576040517f08c379a0000000000000000000000000000000000000000000000000000000008152600401610da8906156b8565b613e8e81613b74565b60405173ffffffffffffffffffffffffffffffffffffffff8216907fbc7cd75a20ee27fd9adebab32041f755214dbc6bffa90cc0225b39da2e5c2d3b90600090a250565b606073ffffffffffffffffffffffffffffffffffffffff83163b613f22576040517f08c379a0000000000000000000000000000000000000000000000000000000008152600401610da890615722565b6000808473ffffffffffffffffffffffffffffffffffffffff1684604051613f4a9190615732565b600060405180830381855af49150503d8060008114613f85576040519150601f19603f3d011682016040523d82523d6000602084013e613f8a565b606091505b5091509150613fb2828260405180606001604052806027815260200161573f60279139613fbb565b95945050505050565b60608315613fca57508161115a565b61115a8383815115613fdf5781518083602001fd5b806040517f08c379a0000000000000000000000000000000000000000000000000000000008152600401610da89190615532565b805b8114610f1557600080fd5b80356108f081614013565b60006020828403121561404057614040600080fd5b60006130348484614020565b7fffffffff000000000000000000000000000000000000000000000000000000008116614015565b80356108f08161404c565b60006020828403121561409457614094600080fd5b60006130348484614074565b8015155b82525050565b602081016108f082846140a0565b600073ffffffffffffffffffffffffffffffffffffffff82166108f0565b614015816140b8565b80356108f0816140d6565b63ffffffff8116614015565b80356108f0816140ea565b6000610300828403121561411757614117600080fd5b50919050565b60008083601f84011261413257614132600080fd5b50813567ffffffffffffffff81111561414d5761414d600080fd5b60208301915083600182028301111561416857614168600080fd5b9250929050565b600080600080600080610380878903121561418c5761418c600080fd5b60006141988989614020565b96505060206141a989828a016140df565b95505060406141ba89828a016140f6565b94505060606141cb89828a01614101565b93505061036087013567ffffffffffffffff8111156141ec576141ec600080fd5b6141f889828a0161411d565b92509250509295509295509295565b806140a4565b7f4e487b7100000000000000000000000000000000000000000000000000000000600052602160045260246000fd5b60038110610f1557610f1561420d565b806142568161423c565b919050565b60006108f08261424c565b6140a48161425b565b63ffffffff81166140a4565b6140a4816140b8565b608081016142928287614207565b61429f6020830186614266565b6142ac604083018561426f565b613fb2606083018461427b565b602081016108f08284614207565b600080604083850312156142dd576142dd600080fd5b60006142e98585614020565b92505060206142fa858286016140df565b9150509250929050565b6000806000806060858703121561431d5761431d600080fd5b60006143298787614020565b945050602061433a878288016140df565b935050604085013567ffffffffffffffff81111561435a5761435a600080fd5b6143668782880161411d565b95989497509550505050565b60006020828403121561438757614387600080fd5b600061303484846140df565b7f4e487b7100000000000000000000000000000000000000000000000000000000600052604160045260246000fd5b7fffffffffffffffffffffffffffffffffffffffffffffffffffffffffffffffe0601f830116810181811067ffffffffffffffff8211171561440657614406614393565b6040525050565b600061441860405190565b905061425682826143c2565b600067ffffffffffffffff82111561443e5761443e614393565b7fffffffffffffffffffffffffffffffffffffffffffffffffffffffffffffffe0601f83011660200192915050565b82818337506000910152565b600061448c61448784614424565b61440d565b9050828152602081018484840111156144a7576144a7600080fd5b6144b284828561446d565b509392505050565b600082601f8301126144ce576144ce600080fd5b8135613034848260208601614479565b600080604083850312156144f4576144f4600080fd5b600061450085856140df565b925050602083013567ffffffffffffffff81111561452057614520600080fd5b6142fa858286016144ba565b602081016108f0828461427b565b60008060006060848603121561455257614552600080fd5b600061455e8686614020565b935050602061456f86828701614020565b925050604061458086828701614020565b9150509250925092565b60008083601f84011261459f5761459f600080fd5b50813567ffffffffffffffff8111156145ba576145ba600080fd5b6020830191508361012082028301111561416857614168600080fd5b60008083601f8401126145eb576145eb600080fd5b50813567ffffffffffffffff81111561460657614606600080fd5b602083019150836101a082028301111561416857614168600080fd5b60008083601f84011261463757614637600080fd5b50813567ffffffffffffffff81111561465257614652600080fd5b6020830191508361016082028301111561416857614168600080fd5b600080600080600080600080600060c08a8c03121561468f5761468f600080fd5b600061469b8c8c614020565b99505060206146ac8c828d01614020565b98505060406146bd8c828d01614020565b97505060608a013567ffffffffffffffff8111156146dd576146dd600080fd5b6146e98c828d0161458a565b965096505060808a013567ffffffffffffffff81111561470b5761470b600080fd5b6147178c828d016145d6565b945094505060a08a013567ffffffffffffffff81111561473957614739600080fd5b6147458c828d01614622565b92509250509295985092959850929598565b600080600080610340858703121561477157614771600080fd5b600061477d87876140f6565b945050602061478e87828801614101565b93505061032085013567ffffffffffffffff81111561435a5761435a600080fd5b602081016108f0828461426f565b6000806000606084860312156147d5576147d5600080fd5b60006147e18686614020565b935050602061456f868287016140df565b600080600080600080600060e0888a03121561481057614810600080fd5b600061481c8a8a6140df565b975050602061482d8a828b016140df565b965050604061483e8a828b01614020565b955050606061484f8a828b01614020565b94505060806148608a828b016140f6565b93505060a06148718a828b016140df565b92505060c06148828a828b016140df565b91505092959891949750929550565b6000602082840312156148a6576148a6600080fd5b600061303484846140f6565b60006108f073ffffffffffffffffffffffffffffffffffffffff83166148d6565b90565b73ffffffffffffffffffffffffffffffffffffffff1690565b60006108f0826148b2565b60006108f0826148ef565b6140a4816148fa565b6060810161491c8286614207565b6149296020830185614207565b6130346040830184614905565b600061494383858461446d565b50500190565b6000613034828486614936565b7f4e487b7100000000000000000000000000000000000000000000000000000000600052601160045260246000fd5b63ffffffff9182169190811690828201908111156108f0576108f0614956565b60a081016149b38288614207565b6149c06020830187614207565b6149cd604083018661426f565b6149da6060830185614905565b6149e76080830184614207565b9695505050505050565b602f81526000602082017f416363657373436f6e74726f6c3a2063616e206f6e6c792072656e6f756e636581527f20726f6c657320666f722073656c660000000000000000000000000000000000602082015291505b5060400190565b602080825281016108f0816149f1565b602c81526000602082017f46756e6374696f6e206d7573742062652063616c6c6564207468726f7567682081527f64656c656761746563616c6c000000000000000000000000000000000000000060208201529150614a47565b602080825281016108f081614a5e565b602c81526000602082017f46756e6374696f6e206d7573742062652063616c6c6564207468726f7567682081527f6163746976652070726f7879000000000000000000000000000000000000000060208201529150614a47565b602080825281016108f081614ac8565b603881526000602082017f555550535570677261646561626c653a206d757374206e6f742062652063616c81527f6c6564207468726f7567682064656c656761746563616c6c000000000000000060208201529150614a47565b602080825281016108f081614b32565b6000614ba88286614207565b602082019150614bb88285614207565b602082019150614bc88284614207565b506020019392505050565b7f4e487b7100000000000000000000000000000000000000000000000000000000600052603260045260246000fd5b60006108f08260e01b90565b6140a463ffffffff8216614c02565b6000614c298285614207565b602082019150614c398284614c0e565b5060040192915050565b63ffffffff1660007fffffffffffffffffffffffffffffffffffffffffffffffffffffffff000000018201614c7a57614c7a614956565b5060010190565b67ffffffffffffffff8116614015565b80356108f081614c81565b600060208284031215614cb157614cb1600080fd5b60006130348484614c91565b6bffffffffffffffffffffffff8116614015565b80356108f081614cbd565b600060208284031215614cf157614cf1600080fd5b60006130348484614cd1565b60006108f08260c01b90565b6140a467ffffffffffffffff8216614cfd565b60006108f08260a01b90565b6140a46bffffffffffffffffffffffff8216614d1c565b6000614d4b8287614d09565b600882019150614d5b8286614d28565b600c82019150614d6b8285614207565b602082019150614d7b8284614207565b50602001949350505050565b60006108f08260601b90565b60006108f082614d87565b6140a4614daa826140b8565b614d93565b6000614dbb8286614c0e565b600482019150614dcb8285614d9e565b601482019150614bc88284614207565b6000614de78287614c0e565b600482019150614df78286614d9e565b601482019150614d6b8285614207565b60808101614e158287614207565b614e226020830186614207565b614e2f604083018561426f565b613fb26060830184614905565b602e81526000602082017f496e697469616c697a61626c653a20636f6e747261637420697320616c72656181527f647920696e697469616c697a656400000000000000000000000000000000000060208201529150614a47565b602080825281016108f081614e3c565b602381526000602082017f4178696f6d563151756572793a204178696f6d2061646472657373206973207a81527f65726f000000000000000000000000000000000000000000000000000000000060208201529150614a47565b602080825281016108f081614ea6565b602a81526000602082017f4178696f6d563151756572793a204d4d5220766572696669657220616464726581527f7373206973207a65726f0000000000000000000000000000000000000000000060208201529150614a47565b602080825281016108f081614f10565b602681526000602082017f4178696f6d563151756572793a2074696d656c6f636b2061646472657373206981527f73207a65726f000000000000000000000000000000000000000000000000000060208201529150614a47565b602080825281016108f081614f7a565b602681526000602082017f4178696f6d563151756572793a20677561726469616e2061646472657373206981527f73207a65726f000000000000000000000000000000000000000000000000000060208201529150614a47565b602080825281016108f081614fe4565b600060ff82166108f0565b6140a48161504e565b602081016108f08284615059565b60006108f06148d363ffffffff841681565b6140a481615070565b602081016108f08284615082565b80516108f081614013565b6000602082840312156150b9576150b9600080fd5b60006130348484615099565b60006150d18286614207565b6020820191506150e18285614207565b6020820191506150f18284614c0e565b506004019392505050565b82818337505050565b610dbb61014083836150fc565b600061511e8284615105565b5061014001919050565b818103818111156108f0576108f0614956565b63ffffffff9182169190811690828203908111156108f0576108f0614956565b7f4e487b7100000000000000000000000000000000000000000000000000000000600052601260045260246000fd5b63ffffffff91821691166000826151a3576151a361515b565b500490565b63ffffffff9182169190811690828202908116908181146151cb576151cb614956565b5092915050565b60006151de8285614207565b6020820191506151ee8284614207565b5060200192915050565b63ffffffff91821691166000826152115761521161515b565b500690565b606081016152248286614207565b6152316020830185614207565b6130346040830184614207565b601d81526000602082017f416464726573733a20696e73756666696369656e742062616c616e6365000000815291505b5060200190565b602080825281016108f08161523e565b60006108f0826148d3565b603a81526000602082017f416464726573733a20756e61626c6520746f2073656e642076616c75652c207281527f6563697069656e74206d6179206861766520726576657274656400000000000060208201529150614a47565b602080825281016108f081615290565b602e81526000602082017f45524331393637557067726164653a206e657720696d706c656d656e7461746981527f6f6e206973206e6f74205555505300000000000000000000000000000000000060208201529150614a47565b602080825281016108f0816152fa565b602981526000602082017f45524331393637557067726164653a20756e737570706f727465642070726f7881527f6961626c6555554944000000000000000000000000000000000000000000000060208201529150614a47565b602080825281016108f081615364565b602b81526000602082017f496e697469616c697a61626c653a20636f6e7472616374206973206e6f74206981527f6e697469616c697a696e6700000000000000000000000000000000000000000060208201529150614a47565b602080825281016108f0816153ce565b60005b8381101561545357818101518382015260200161543b565b50506000910152565b6000615466825190565b615474818560208601615438565b9290920192915050565b7f416363657373436f6e74726f6c3a206163636f756e7420000000000000000000815260170160006154b0828561545c565b7f206973206d697373696e6720726f6c652000000000000000000000000000000081526011019150613034828461545c565b60006154ec825190565b808452602084019350615503818560208601615438565b601f017fffffffffffffffffffffffffffffffffffffffffffffffffffffffffffffffe0169290920192915050565b6020808252810161115a81846154e2565b6000808585111561555657615556600080fd5b8386111561556657615566600080fd5b5050820193919092039150565b8035828260208210156155b4576155af7fffffffffffffffffffffffffffffffffffffffffffffffffffffffffffffffff836020036008021b90565b831692505b505092915050565b602d81526000602082017f455243313936373a206e657720696d706c656d656e746174696f6e206973206e81527f6f74206120636f6e74726163740000000000000000000000000000000000000060208201529150614a47565b602080825281016108f0816155bc565b8181028082158382048514176151cb576151cb614956565b808201808211156108f0576108f0614956565b60008161566057615660614956565b507fffffffffffffffffffffffffffffffffffffffffffffffffffffffffffffffff0190565b60208082527f537472696e67733a20686578206c656e67746820696e73756666696369656e749101908152600061526e565b602080825281016108f081615686565b602681526000602082017f416464726573733a2064656c65676174652063616c6c20746f206e6f6e2d636f81527f6e7472616374000000000000000000000000000000000000000000000000000060208201529150614a47565b602080825281016108f0816156c8565b600061115a828461545c56fe416464726573733a206c6f772d6c6576656c2064656c65676174652063616c6c206661696c6564a264697066735822122095752720ec1a92cc777f1809e0a325b940419e9e1238aed5e24a25f4a00fb78264736f6c63430008130033",
    "linkReferences": {}
  },
  "methodIdentifiers": {
    "DEFAULT_ADMIN_ROLE()": "a217fddf",
    "GUARDIAN_ROLE()": "24ea54f4",
    "PROVER_ROLE()": "dc9a4ef6",
    "TIMELOCK_ROLE()": "f288a2e2",
    "areResponsesValid(bytes32,bytes32,bytes32,(uint32,bytes32,uint32,bytes32[6])[],(uint32,address,uint64,uint96,bytes32,bytes32,uint32,bytes32[6])[],(uint32,address,uint256,uint256,uint32,bytes32[6])[])": "6439e9d4",
    "axiomAddress()": "528bad37",
    "collectRefund(bytes32)": "8b4acf28",
    "freezeAll()": "99464c89",
    "frozen()": "054f7d9c",
    "fufillQueryVsMMR(bytes32,address,uint32,(bytes32,bytes32,uint32,uint32,bytes32[10],bytes32[10]),bytes)": "0eb7bde2",
    "getRoleAdmin(bytes32)": "248a9ca3",
    "grantRole(bytes32,address)": "2f2ff15d",
    "hasRole(bytes32,address)": "91d14854",
    "initialize(address,address,uint256,uint256,uint32,address,address)": "b691943f",
    "isKeccakResultValid(bytes32,bytes32,bytes32)": "560aa8cd",
    "isPoseidonResultValid(bytes32,bytes32,bytes32)": "898b8a1a",
    "maxQueryPrice()": "df7e2e2d",
    "minQueryPrice()": "b1d401cd",
    "mmrVerifierAddress()": "d35a5844",
    "proxiableUUID()": "52d1902d",
    "queries(bytes32)": "21dfb600",
    "queryDeadlineInterval()": "79ce0468",
    "renounceRole(bytes32,address)": "36568abe",
    "revokeRole(bytes32,address)": "d547741f",
    "sendOffchainQuery(bytes32,address,bytes32)": "9755b1fc",
    "sendQuery(bytes32,address,bytes)": "32c4cda2",
    "supportsInterface(bytes4)": "01ffc9a7",
    "unfreezeAll()": "66c5c4a0",
    "updateAxiomAddress(address)": "774a6234",
    "updateMMRVerifierAddress(address)": "6ec59b3f",
    "updateMaxQueryPrice(uint256)": "01f8fca4",
    "updateMinQueryPrice(uint256)": "798da01a",
    "updateQueryDeadlineInterval(uint32)": "d77de079",
    "upgradeTo(address)": "3659cfe6",
    "upgradeToAndCall(address,bytes)": "4f1ef286",
    "verifiedKeccakResults(bytes32)": "5eac0e23",
    "verifiedPoseidonResults(bytes32)": "e741ad80",
    "verifyResultVsMMR(uint32,(bytes32,bytes32,uint32,uint32,bytes32[10],bytes32[10]),bytes)": "75a09b09"
  },
  "id": 5
}