{
  "abi": [
    {
      "inputs": [],
      "stateMutability": "nonpayable",
      "type": "constructor"
    },
    {
      "inputs": [],
      "name": "CallbackExtraDataHashDoesNotMatch",
      "type": "error"
    },
    {
      "inputs": [],
      "name": "CannotFulfillIfNotActive",
      "type": "error"
    },
    {
      "inputs": [],
      "name": "CannotRefundBeforeDeadline",
      "type": "error"
    },
    {
      "inputs": [],
      "name": "CannotRefundIfNotActive",
      "type": "error"
    },
    {
      "inputs": [],
      "name": "ComputeResultsHashDoesNotMatch",
      "type": "error"
    },
    {
      "inputs": [],
      "name": "ContractIsFrozen",
      "type": "error"
    },
    {
      "inputs": [],
      "name": "NotProverRole",
      "type": "error"
    },
    {
      "inputs": [],
      "name": "ProofPayeeDoesNotMatchPayee",
      "type": "error"
    },
    {
      "inputs": [],
      "name": "ProofVerificationFailed",
      "type": "error"
    },
    {
      "inputs": [],
      "name": "QueryHashDoesNotMatchProof",
      "type": "error"
    },
    {
      "inputs": [],
      "name": "QueryNotInactive",
      "type": "error"
    },
    {
      "inputs": [],
      "name": "QuerySchemaDoesNotMatchProof",
      "type": "error"
    },
    {
      "inputs": [],
      "name": "SourceChainIdDoesNotMatch",
      "type": "error"
    },
    {
      "anonymous": false,
      "inputs": [
        {
          "indexed": false,
          "internalType": "address",
          "name": "previousAdmin",
          "type": "address"
        },
        {
          "indexed": false,
          "internalType": "address",
          "name": "newAdmin",
          "type": "address"
        }
      ],
      "name": "AdminChanged",
      "type": "event"
    },
    {
      "anonymous": false,
      "inputs": [
        {
          "indexed": true,
          "internalType": "address",
          "name": "beacon",
          "type": "address"
        }
      ],
      "name": "BeaconUpgraded",
      "type": "event"
    },
    {
      "anonymous": false,
      "inputs": [],
      "name": "FreezeAll",
      "type": "event"
    },
    {
      "anonymous": false,
      "inputs": [
        {
          "indexed": false,
          "internalType": "uint8",
          "name": "version",
          "type": "uint8"
        }
      ],
      "name": "Initialized",
      "type": "event"
    },
    {
      "anonymous": false,
      "inputs": [
        {
          "indexed": true,
          "internalType": "bytes32",
          "name": "queryHash",
          "type": "bytes32"
        }
      ],
      "name": "OffchainQueryFulfilled",
      "type": "event"
    },
    {
      "anonymous": false,
      "inputs": [
        {
          "indexed": true,
          "internalType": "bytes32",
          "name": "queryHash",
          "type": "bytes32"
        },
        {
          "indexed": false,
          "internalType": "address",
          "name": "payee",
          "type": "address"
        }
      ],
      "name": "QueryFulfilled",
      "type": "event"
    },
    {
      "anonymous": false,
      "inputs": [
        {
          "indexed": true,
          "internalType": "bytes32",
          "name": "queryHash",
          "type": "bytes32"
        },
        {
          "indexed": false,
          "internalType": "uint32",
          "name": "deadlineBlockNumber",
          "type": "uint32"
        },
        {
          "indexed": false,
          "internalType": "bytes32",
          "name": "ipfsHash",
          "type": "bytes32"
        },
        {
          "indexed": false,
          "internalType": "uint64",
          "name": "maxFeePerGas",
          "type": "uint64"
        },
        {
          "indexed": false,
          "internalType": "uint32",
          "name": "callbackGasLimit",
          "type": "uint32"
        }
      ],
      "name": "QueryInitiatedOffchain",
      "type": "event"
    },
    {
      "anonymous": false,
      "inputs": [
        {
          "indexed": true,
          "internalType": "bytes32",
          "name": "queryHash",
          "type": "bytes32"
        },
        {
          "indexed": false,
          "internalType": "uint32",
          "name": "deadlineBlockNumber",
          "type": "uint32"
        },
        {
          "indexed": false,
          "internalType": "uint64",
          "name": "maxFeePerGas",
          "type": "uint64"
        },
        {
          "indexed": false,
          "internalType": "uint32",
          "name": "callbackGasLimit",
          "type": "uint32"
        }
      ],
      "name": "QueryInitiatedOnchain",
      "type": "event"
    },
    {
      "anonymous": false,
      "inputs": [
        {
          "indexed": true,
          "internalType": "bytes32",
          "name": "queryHash",
          "type": "bytes32"
        }
      ],
      "name": "QueryRefunded",
      "type": "event"
    },
    {
      "anonymous": false,
      "inputs": [
        {
          "indexed": true,
          "internalType": "bytes32",
          "name": "role",
          "type": "bytes32"
        },
        {
          "indexed": true,
          "internalType": "bytes32",
          "name": "previousAdminRole",
          "type": "bytes32"
        },
        {
          "indexed": true,
          "internalType": "bytes32",
          "name": "newAdminRole",
          "type": "bytes32"
        }
      ],
      "name": "RoleAdminChanged",
      "type": "event"
    },
    {
      "anonymous": false,
      "inputs": [
        {
          "indexed": true,
          "internalType": "bytes32",
          "name": "role",
          "type": "bytes32"
        },
        {
          "indexed": true,
          "internalType": "address",
          "name": "account",
          "type": "address"
        },
        {
          "indexed": true,
          "internalType": "address",
          "name": "sender",
          "type": "address"
        }
      ],
      "name": "RoleGranted",
      "type": "event"
    },
    {
      "anonymous": false,
      "inputs": [
        {
          "indexed": true,
          "internalType": "bytes32",
          "name": "role",
          "type": "bytes32"
        },
        {
          "indexed": true,
          "internalType": "address",
          "name": "account",
          "type": "address"
        },
        {
          "indexed": true,
          "internalType": "address",
          "name": "sender",
          "type": "address"
        }
      ],
      "name": "RoleRevoked",
      "type": "event"
    },
    {
      "anonymous": false,
      "inputs": [],
      "name": "UnfreezeAll",
      "type": "event"
    },
    {
      "anonymous": false,
      "inputs": [
        {
          "indexed": false,
          "internalType": "address",
          "name": "newAddress",
          "type": "address"
        }
      ],
      "name": "UpdateAxiomFeeStoreAddress",
      "type": "event"
    },
    {
      "anonymous": false,
      "inputs": [
        {
          "indexed": false,
          "internalType": "address",
          "name": "newAddress",
          "type": "address"
        }
      ],
      "name": "UpdateAxiomHeaderVerifierAddress",
      "type": "event"
    },
    {
      "anonymous": false,
      "inputs": [
        {
          "indexed": false,
          "internalType": "address",
          "name": "newAddress",
          "type": "address"
        }
      ],
      "name": "UpdateAxiomProverAddress",
      "type": "event"
    },
    {
      "anonymous": false,
      "inputs": [
        {
          "indexed": false,
          "internalType": "address",
          "name": "newAddress",
          "type": "address"
        }
      ],
      "name": "UpdateAxiomResultStoreAddress",
      "type": "event"
    },
    {
      "anonymous": false,
      "inputs": [
        {
          "indexed": false,
          "internalType": "uint32",
          "name": "newQueryDeadlineInterval",
          "type": "uint32"
        }
      ],
      "name": "UpdateQueryDeadlineInterval",
      "type": "event"
    },
    {
      "anonymous": false,
      "inputs": [
        {
          "indexed": false,
          "internalType": "address",
          "name": "newAddress",
          "type": "address"
        }
      ],
      "name": "UpdateVerifierAddress",
      "type": "event"
    },
    {
      "anonymous": false,
      "inputs": [
        {
          "indexed": true,
          "internalType": "address",
          "name": "implementation",
          "type": "address"
        }
      ],
      "name": "Upgraded",
      "type": "event"
    },
    {
      "inputs": [],
      "name": "DEFAULT_ADMIN_ROLE",
      "outputs": [
        {
          "internalType": "bytes32",
          "name": "",
          "type": "bytes32"
        }
      ],
      "stateMutability": "view",
      "type": "function"
    },
    {
      "inputs": [],
      "name": "GUARDIAN_ROLE",
      "outputs": [
        {
          "internalType": "bytes32",
          "name": "",
          "type": "bytes32"
        }
      ],
      "stateMutability": "view",
      "type": "function"
    },
    {
      "inputs": [],
      "name": "PROVER_ROLE",
      "outputs": [
        {
          "internalType": "bytes32",
          "name": "",
          "type": "bytes32"
        }
      ],
      "stateMutability": "view",
      "type": "function"
    },
    {
      "inputs": [],
      "name": "TIMELOCK_ROLE",
      "outputs": [
        {
          "internalType": "bytes32",
          "name": "",
          "type": "bytes32"
        }
      ],
      "stateMutability": "view",
      "type": "function"
    },
    {
      "inputs": [],
      "name": "axiomFeeStoreAddress",
      "outputs": [
        {
          "internalType": "address",
          "name": "",
          "type": "address"
        }
      ],
      "stateMutability": "view",
      "type": "function"
    },
    {
      "inputs": [],
      "name": "axiomHeaderVerifierAddress",
      "outputs": [
        {
          "internalType": "address",
          "name": "",
          "type": "address"
        }
      ],
      "stateMutability": "view",
      "type": "function"
    },
    {
      "inputs": [],
      "name": "axiomProverAddress",
      "outputs": [
        {
          "internalType": "address",
          "name": "",
          "type": "address"
        }
      ],
      "stateMutability": "view",
      "type": "function"
    },
    {
      "inputs": [],
      "name": "axiomResultStoreAddress",
      "outputs": [
        {
          "internalType": "address",
          "name": "",
          "type": "address"
        }
      ],
      "stateMutability": "view",
      "type": "function"
    },
    {
      "inputs": [],
      "name": "freezeAll",
      "outputs": [],
      "stateMutability": "nonpayable",
      "type": "function"
    },
    {
      "inputs": [],
      "name": "frozen",
      "outputs": [
        {
          "internalType": "bool",
          "name": "",
          "type": "bool"
        }
      ],
      "stateMutability": "view",
      "type": "function"
    },
    {
      "inputs": [
        {
          "components": [
            {
              "internalType": "bytes32",
              "name": "prevHash",
              "type": "bytes32"
            },
            {
              "internalType": "bytes32",
              "name": "root",
              "type": "bytes32"
            },
            {
              "internalType": "uint32",
              "name": "numFinal",
              "type": "uint32"
            },
            {
              "internalType": "uint32",
              "name": "startBlockNumber",
              "type": "uint32"
            },
            {
              "internalType": "bytes32[10]",
              "name": "recentMMRPeaks",
              "type": "bytes32[10]"
            },
            {
              "internalType": "bytes32[10]",
              "name": "mmrComplementOrPeaks",
              "type": "bytes32[10]"
            },
            {
              "internalType": "uint32",
              "name": "mmrIdx",
              "type": "uint32"
            }
          ],
          "internalType": "struct IAxiomV2HeaderVerifier.RecentMMRWitness",
          "name": "mmrWitness",
          "type": "tuple"
        },
        {
          "internalType": "bytes32[]",
          "name": "computeResults",
          "type": "bytes32[]"
        },
        {
          "internalType": "bytes",
          "name": "proof",
          "type": "bytes"
        },
        {
          "components": [
            {
              "internalType": "address",
              "name": "callbackAddr",
              "type": "address"
            },
            {
              "internalType": "bytes4",
              "name": "callbackFunctionSelector",
              "type": "bytes4"
            },
            {
              "internalType": "uint8",
              "name": "resultLen",
              "type": "uint8"
            },
            {
              "internalType": "bytes",
              "name": "callbackExtraData",
              "type": "bytes"
            }
          ],
          "internalType": "struct IAxiomV2Query.AxiomV2Callback",
          "name": "callback",
          "type": "tuple"
        }
      ],
      "name": "fulfillOffchainQuery",
      "outputs": [],
      "stateMutability": "nonpayable",
      "type": "function"
    },
    {
      "inputs": [
        {
          "internalType": "address",
          "name": "payee",
          "type": "address"
        },
        {
          "components": [
            {
              "internalType": "bytes32",
              "name": "prevHash",
              "type": "bytes32"
            },
            {
              "internalType": "bytes32",
              "name": "root",
              "type": "bytes32"
            },
            {
              "internalType": "uint32",
              "name": "numFinal",
              "type": "uint32"
            },
            {
              "internalType": "uint32",
              "name": "startBlockNumber",
              "type": "uint32"
            },
            {
              "internalType": "bytes32[10]",
              "name": "recentMMRPeaks",
              "type": "bytes32[10]"
            },
            {
              "internalType": "bytes32[10]",
              "name": "mmrComplementOrPeaks",
              "type": "bytes32[10]"
            },
            {
              "internalType": "uint32",
              "name": "mmrIdx",
              "type": "uint32"
            }
          ],
          "internalType": "struct IAxiomV2HeaderVerifier.RecentMMRWitness",
          "name": "mmrWitness",
          "type": "tuple"
        },
        {
          "internalType": "bytes32[]",
          "name": "computeResults",
          "type": "bytes32[]"
        },
        {
          "internalType": "bytes",
          "name": "proof",
          "type": "bytes"
        },
        {
          "internalType": "bytes",
          "name": "callbackExtraData",
          "type": "bytes"
        }
      ],
      "name": "fulfillQuery",
      "outputs": [],
      "stateMutability": "nonpayable",
      "type": "function"
    },
    {
      "inputs": [
        {
          "internalType": "bytes32",
          "name": "role",
          "type": "bytes32"
        }
      ],
      "name": "getRoleAdmin",
      "outputs": [
        {
          "internalType": "bytes32",
          "name": "",
          "type": "bytes32"
        }
      ],
      "stateMutability": "view",
      "type": "function"
    },
    {
      "inputs": [
        {
          "internalType": "bytes32",
          "name": "role",
          "type": "bytes32"
        },
        {
          "internalType": "address",
          "name": "account",
          "type": "address"
        }
      ],
      "name": "grantRole",
      "outputs": [],
      "stateMutability": "nonpayable",
      "type": "function"
    },
    {
      "inputs": [
        {
          "internalType": "bytes32",
          "name": "role",
          "type": "bytes32"
        },
        {
          "internalType": "address",
          "name": "account",
          "type": "address"
        }
      ],
      "name": "hasRole",
      "outputs": [
        {
          "internalType": "bool",
          "name": "",
          "type": "bool"
        }
      ],
      "stateMutability": "view",
      "type": "function"
    },
    {
      "inputs": [
        {
          "internalType": "address",
          "name": "_axiomHeaderVerifierAddress",
          "type": "address"
        },
        {
          "internalType": "address",
          "name": "_verifierAddress",
          "type": "address"
        },
        {
          "internalType": "address",
          "name": "_axiomProverAddress",
          "type": "address"
        },
        {
          "internalType": "address",
          "name": "_axiomResultStoreAddress",
          "type": "address"
        },
        {
          "internalType": "address",
          "name": "_axiomFeeStoreAddress",
          "type": "address"
        },
        {
          "internalType": "uint32",
          "name": "_queryDeadlineInterval",
          "type": "uint32"
        },
        {
          "internalType": "address",
          "name": "timelock",
          "type": "address"
        },
        {
          "internalType": "address",
          "name": "guardian",
          "type": "address"
        }
      ],
      "name": "initialize",
      "outputs": [],
      "stateMutability": "nonpayable",
      "type": "function"
    },
    {
      "inputs": [],
      "name": "proxiableUUID",
      "outputs": [
        {
          "internalType": "bytes32",
          "name": "",
          "type": "bytes32"
        }
      ],
      "stateMutability": "view",
      "type": "function"
    },
    {
      "inputs": [
        {
          "internalType": "bytes32",
          "name": "",
          "type": "bytes32"
        }
      ],
      "name": "queries",
      "outputs": [
        {
          "internalType": "enum IAxiomV2Query.AxiomQueryState",
          "name": "state",
          "type": "uint8"
        },
        {
          "internalType": "uint32",
          "name": "deadlineBlockNumber",
          "type": "uint32"
        },
        {
          "internalType": "bytes32",
          "name": "querySchema",
          "type": "bytes32"
        },
        {
          "internalType": "uint8",
          "name": "resultLen",
          "type": "uint8"
        },
        {
          "internalType": "address",
          "name": "callbackAddr",
          "type": "address"
        },
        {
          "internalType": "bytes4",
          "name": "callbackFunctionSelector",
          "type": "bytes4"
        },
        {
          "internalType": "bytes32",
          "name": "callbackExtraDataHash",
          "type": "bytes32"
        }
      ],
      "stateMutability": "view",
      "type": "function"
    },
    {
      "inputs": [],
      "name": "queryDeadlineInterval",
      "outputs": [
        {
          "internalType": "uint32",
          "name": "",
          "type": "uint32"
        }
      ],
      "stateMutability": "view",
      "type": "function"
    },
    {
      "inputs": [
        {
          "internalType": "bytes32",
          "name": "queryHash",
          "type": "bytes32"
        }
      ],
      "name": "refundQuery",
      "outputs": [],
      "stateMutability": "nonpayable",
      "type": "function"
    },
    {
      "inputs": [
        {
          "internalType": "bytes32",
          "name": "role",
          "type": "bytes32"
        },
        {
          "internalType": "address",
          "name": "account",
          "type": "address"
        }
      ],
      "name": "renounceRole",
      "outputs": [],
      "stateMutability": "nonpayable",
      "type": "function"
    },
    {
      "inputs": [
        {
          "internalType": "bytes32",
          "name": "role",
          "type": "bytes32"
        },
        {
          "internalType": "address",
          "name": "account",
          "type": "address"
        }
      ],
      "name": "revokeRole",
      "outputs": [],
      "stateMutability": "nonpayable",
      "type": "function"
    },
    {
      "inputs": [
        {
          "internalType": "bytes32",
          "name": "queryHash",
          "type": "bytes32"
        },
        {
          "internalType": "bytes32",
          "name": "querySchema",
          "type": "bytes32"
        },
        {
          "internalType": "bytes32",
          "name": "ipfsHash",
          "type": "bytes32"
        },
        {
          "components": [
            {
              "internalType": "address",
              "name": "callbackAddr",
              "type": "address"
            },
            {
              "internalType": "bytes4",
              "name": "callbackFunctionSelector",
              "type": "bytes4"
            },
            {
              "internalType": "uint8",
              "name": "resultLen",
              "type": "uint8"
            },
            {
              "internalType": "bytes",
              "name": "callbackExtraData",
              "type": "bytes"
            }
          ],
          "internalType": "struct IAxiomV2Query.AxiomV2Callback",
          "name": "callback",
          "type": "tuple"
        },
        {
          "internalType": "uint64",
          "name": "maxFeePerGas",
          "type": "uint64"
        },
        {
          "internalType": "uint32",
          "name": "callbackGasLimit",
          "type": "uint32"
        }
      ],
      "name": "sendOffchainQuery",
      "outputs": [],
      "stateMutability": "payable",
      "type": "function"
    },
    {
      "inputs": [
        {
          "internalType": "uint32",
          "name": "sourceChainId",
          "type": "uint32"
        },
        {
          "internalType": "bytes32",
          "name": "dataQueryHash",
          "type": "bytes32"
        },
        {
          "components": [
            {
              "internalType": "uint8",
              "name": "k",
              "type": "uint8"
            },
            {
              "internalType": "bytes32[]",
              "name": "vkey",
              "type": "bytes32[]"
            },
            {
              "internalType": "bytes",
              "name": "computeProof",
              "type": "bytes"
            }
          ],
          "internalType": "struct IAxiomV2Query.AxiomV2ComputeQuery",
          "name": "computeQuery",
          "type": "tuple"
        },
        {
          "components": [
            {
              "internalType": "address",
              "name": "callbackAddr",
              "type": "address"
            },
            {
              "internalType": "bytes4",
              "name": "callbackFunctionSelector",
              "type": "bytes4"
            },
            {
              "internalType": "uint8",
              "name": "resultLen",
              "type": "uint8"
            },
            {
              "internalType": "bytes",
              "name": "callbackExtraData",
              "type": "bytes"
            }
          ],
          "internalType": "struct IAxiomV2Query.AxiomV2Callback",
          "name": "callback",
          "type": "tuple"
        },
        {
          "internalType": "uint64",
          "name": "maxFeePerGas",
          "type": "uint64"
        },
        {
          "internalType": "uint32",
          "name": "callbackGasLimit",
          "type": "uint32"
        },
        {
          "internalType": "bytes",
          "name": "dataQuery",
          "type": "bytes"
        }
      ],
      "name": "sendQuery",
      "outputs": [],
      "stateMutability": "payable",
      "type": "function"
    },
    {
      "inputs": [
        {
          "internalType": "bytes4",
          "name": "interfaceId",
          "type": "bytes4"
        }
      ],
      "name": "supportsInterface",
      "outputs": [
        {
          "internalType": "bool",
          "name": "",
          "type": "bool"
        }
      ],
      "stateMutability": "view",
      "type": "function"
    },
    {
      "inputs": [],
      "name": "unfreezeAll",
      "outputs": [],
      "stateMutability": "nonpayable",
      "type": "function"
    },
    {
      "inputs": [
        {
          "internalType": "address",
          "name": "_axiomFeeStoreAddress",
          "type": "address"
        }
      ],
      "name": "updateAxiomFeeStore",
      "outputs": [],
      "stateMutability": "nonpayable",
      "type": "function"
    },
    {
      "inputs": [
        {
          "internalType": "address",
          "name": "_axiomHeaderVerifierAddress",
          "type": "address"
        }
      ],
      "name": "updateAxiomHeaderVerifierAddress",
      "outputs": [],
      "stateMutability": "nonpayable",
      "type": "function"
    },
    {
      "inputs": [
        {
          "internalType": "address",
          "name": "_axiomProverAddress",
          "type": "address"
        }
      ],
      "name": "updateAxiomProverAddress",
      "outputs": [],
      "stateMutability": "nonpayable",
      "type": "function"
    },
    {
      "inputs": [
        {
          "internalType": "address",
          "name": "_verifierAddress",
          "type": "address"
        }
      ],
      "name": "updateVerifierAddress",
      "outputs": [],
      "stateMutability": "nonpayable",
      "type": "function"
    },
    {
      "inputs": [
        {
          "internalType": "address",
          "name": "newImplementation",
          "type": "address"
        }
      ],
      "name": "upgradeTo",
      "outputs": [],
      "stateMutability": "nonpayable",
      "type": "function"
    },
    {
      "inputs": [
        {
          "internalType": "address",
          "name": "newImplementation",
          "type": "address"
        },
        {
          "internalType": "bytes",
          "name": "data",
          "type": "bytes"
        }
      ],
      "name": "upgradeToAndCall",
      "outputs": [],
      "stateMutability": "payable",
      "type": "function"
    },
    {
      "inputs": [],
      "name": "verifierAddress",
      "outputs": [
        {
          "internalType": "address",
          "name": "",
          "type": "address"
        }
      ],
      "stateMutability": "view",
      "type": "function"
    },
    {
      "inputs": [
        {
          "components": [
            {
              "internalType": "bytes32",
              "name": "prevHash",
              "type": "bytes32"
            },
            {
              "internalType": "bytes32",
              "name": "root",
              "type": "bytes32"
            },
            {
              "internalType": "uint32",
              "name": "numFinal",
              "type": "uint32"
            },
            {
              "internalType": "uint32",
              "name": "startBlockNumber",
              "type": "uint32"
            },
            {
              "internalType": "bytes32[10]",
              "name": "recentMMRPeaks",
              "type": "bytes32[10]"
            },
            {
              "internalType": "bytes32[10]",
              "name": "mmrComplementOrPeaks",
              "type": "bytes32[10]"
            },
            {
              "internalType": "uint32",
              "name": "mmrIdx",
              "type": "uint32"
            }
          ],
          "internalType": "struct IAxiomV2HeaderVerifier.RecentMMRWitness",
          "name": "mmrWitness",
          "type": "tuple"
        },
        {
          "internalType": "bytes",
          "name": "proof",
          "type": "bytes"
        }
      ],
      "name": "verifyAndWriteResult",
      "outputs": [],
      "stateMutability": "nonpayable",
      "type": "function"
    }
  ],
  "bytecode": {
    "object": "0x60a0604052306080523480156200001557600080fd5b506200002062000026565b62000164565b600054610100900460ff161562000074576040517f08c379a00000000000000000000000000000000000000000000000000000000081526004016200006b90620000ec565b60405180910390fd5b60005460ff9081161015620000ea57600080547fffffffffffffffffffffffffffffffffffffffffffffffffffffffffffffff001660ff9081179091556040517f7f26b83ff96e1f2b6a682f133852f6798a09c465da95921460cefb384740249891620000e19162000154565b60405180910390a15b565b602080825281016200014e81602781527f496e697469616c697a61626c653a20636f6e747261637420697320696e69746960208201527f616c697a696e6700000000000000000000000000000000000000000000000000604082015260600190565b92915050565b60ff82168152602081016200014e565b6080516151136200019c60003960008181610b0201528181610b5c01528181610c5b01528181610cb50152610da401526151136000f3fe6080604052600436106102195760003560e01c806379ce04681161011d578063beaa0ebd116100b0578063d547741f1161007f578063e166cdbd11610064578063e166cdbd1461072d578063e2069efe1461074d578063f288a2e21461076d57600080fd5b8063d547741f146106d9578063dc9a4ef6146106f957600080fd5b8063beaa0ebd1461064a578063c15dcf4014610678578063cf92c53714610698578063d3046ea6146106ab57600080fd5b806399464c89116100ec57806399464c89146105d2578063a217fddf146105e7578063a660c031146105fc578063b6ed03881461061c57600080fd5b806379ce0468146104fc578063898091e01461053f5780638a8cc0ec1461055f57806391d148541461057f57600080fd5b80632f2ff15d116101b0578063469b23621161017f57806352d1902d1161016457806352d1902d146104b257806366c5c4a0146104c7578063736f1618146104dc57600080fd5b8063469b2362146104715780634f1ef2861461049f57600080fd5b80632f2ff15d146103f15780633237c2fd1461041157806336568abe146104315780633659cfe61461045157600080fd5b806321608139116101ec57806321608139146102cb57806321dfb600146102de578063248a9ca31461038057806324ea54f4146103bd57600080fd5b806301ffc9a71461021e578063054f7d9c1461025457806307c11e791461026e57806318bdffbb14610290575b600080fd5b34801561022a57600080fd5b5061023e610239366004613741565b6107a1565b60405161024b9190613774565b60405180910390f35b34801561026057600080fd5b5060975461023e9060ff1681565b34801561027a57600080fd5b5061028e6102893660046137b4565b6107fd565b005b34801561029c57600080fd5b50610125546102be9073ffffffffffffffffffffffffffffffffffffffff1681565b60405161024b91906137de565b61028e6102d936600461384a565b6108a4565b3480156102ea57600080fd5b5061036d6102f93660046138ef565b61012960205260009081526040902080546001820154600283015460039093015460ff808416946101009485900463ffffffff16949181169291810473ffffffffffffffffffffffffffffffffffffffff1691750100000000000000000000000000000000000000000090910460e01b9087565b60405161024b97969594939291906139b5565b34801561038c57600080fd5b506103b061039b3660046138ef565b60009081526065602052604090206001015490565b60405161024b9190613a1d565b3480156103c957600080fd5b506103b07f55435dd261a4b9b3364963f7738a7a662ad9c84396d64be3365284bb7f0a504181565b3480156103fd57600080fd5b5061028e61040c366004613a2b565b6109c0565b34801561041d57600080fd5b5061028e61042c3660046137b4565b6109ea565b34801561043d57600080fd5b5061028e61044c366004613a2b565b610a85565b34801561045d57600080fd5b5061028e61046c3660046137b4565b610aeb565b34801561047d57600080fd5b50610124546102be9073ffffffffffffffffffffffffffffffffffffffff1681565b61028e6104ad366004613bb3565b610c44565b3480156104be57600080fd5b506103b0610d8a565b3480156104d357600080fd5b5061028e610e20565b3480156104e857600080fd5b5061028e6104f73660046137b4565b610e9e565b34801561050857600080fd5b50610128546105329074010000000000000000000000000000000000000000900463ffffffff1681565b60405161024b9190613c01565b34801561054b57600080fd5b5061028e61055a366004613c77565b610f39565b34801561056b57600080fd5b5061028e61057a366004613cd5565b610f80565b34801561058b57600080fd5b5061023e61059a366004613a2b565b600091825260656020908152604080842073ffffffffffffffffffffffffffffffffffffffff93909316845291905290205460ff1690565b3480156105de57600080fd5b5061028e6115a4565b3480156105f357600080fd5b506103b0600081565b34801561060857600080fd5b5061028e610617366004613dd3565b611625565b34801561062857600080fd5b50610126546102be9073ffffffffffffffffffffffffffffffffffffffff1681565b34801561065657600080fd5b50610128546102be9073ffffffffffffffffffffffffffffffffffffffff1681565b34801561068457600080fd5b5061028e6106933660046138ef565b611b46565b61028e6106a6366004613ec2565b611ee6565b3480156106b757600080fd5b50610127546102be9073ffffffffffffffffffffffffffffffffffffffff1681565b3480156106e557600080fd5b5061028e6106f4366004613a2b565b612106565b34801561070557600080fd5b506103b07f60044782a422109ac08a415e44260ad5d3bad63d96ebe1fac0363399642ee3f281565b34801561073957600080fd5b5061028e6107483660046137b4565b61212b565b34801561075957600080fd5b5061028e610768366004613f98565b6121c6565b34801561077957600080fd5b506103b07ff66846415d2bf9eabda9e84793ff9c0ea96d87f50fc41e66aa16469c6a442f0581565b60007fffffffff0000000000000000000000000000000000000000000000000000000082167fe24944610000000000000000000000000000000000000000000000000000000014806107f757506107f782612429565b92915050565b7ff66846415d2bf9eabda9e84793ff9c0ea96d87f50fc41e66aa16469c6a442f05610827816124c0565b61012880547fffffffffffffffffffffffff00000000000000000000000000000000000000001673ffffffffffffffffffffffffffffffffffffffff84161790556040517fd5916ec2c920845feddd056ebbee86209587bfb0d0d72341eb4a022fd98c218d906108989084906137de565b60405180910390a15050565b6108ac6124ca565b610128546040517ff340fa0100000000000000000000000000000000000000000000000000000000815273ffffffffffffffffffffffffffffffffffffffff9091169063f340fa019034906109059033906004016137de565b6000604051808303818588803b15801561091e57600080fd5b505af1158015610932573d6000803e3d6000fd5b505050505061094d868685610946906140ed565b8585612509565b6101285486907fb765869aef79ab0ae7505358156a36b5fd069b1d2c8064bc7459aca55cbdc12e9061099d9074010000000000000000000000000000000000000000900463ffffffff1643614128565b8685856040516109b09493929190614158565b60405180910390a2505050505050565b6000828152606560205260409020600101546109db816124c0565b6109e5838361281e565b505050565b7ff66846415d2bf9eabda9e84793ff9c0ea96d87f50fc41e66aa16469c6a442f05610a14816124c0565b61012480547fffffffffffffffffffffffff00000000000000000000000000000000000000001673ffffffffffffffffffffffffffffffffffffffff84161790556040517f75bcc4f3a8eeec60c22df746d7f53083c892df4b1e07b2be152f117df8f353f7906108989084906137de565b73ffffffffffffffffffffffffffffffffffffffff81163314610add576040517f08c379a0000000000000000000000000000000000000000000000000000000008152600401610ad4906141ea565b60405180910390fd5b610ae78282612912565b5050565b73ffffffffffffffffffffffffffffffffffffffff7f0000000000000000000000000000000000000000000000000000000000000000163003610b5a576040517f08c379a0000000000000000000000000000000000000000000000000000000008152600401610ad490614254565b7f000000000000000000000000000000000000000000000000000000000000000073ffffffffffffffffffffffffffffffffffffffff16610bcf7f360894a13ba1a3210667c828492db98dca3e2076cc3735a920a3ca505d382bbc5473ffffffffffffffffffffffffffffffffffffffff1690565b73ffffffffffffffffffffffffffffffffffffffff1614610c1c576040517f08c379a0000000000000000000000000000000000000000000000000000000008152600401610ad4906142be565b610c25816129cd565b60408051600080825260208201909252610c41918391906129f7565b50565b73ffffffffffffffffffffffffffffffffffffffff7f0000000000000000000000000000000000000000000000000000000000000000163003610cb3576040517f08c379a0000000000000000000000000000000000000000000000000000000008152600401610ad490614254565b7f000000000000000000000000000000000000000000000000000000000000000073ffffffffffffffffffffffffffffffffffffffff16610d287f360894a13ba1a3210667c828492db98dca3e2076cc3735a920a3ca505d382bbc5473ffffffffffffffffffffffffffffffffffffffff1690565b73ffffffffffffffffffffffffffffffffffffffff1614610d75576040517f08c379a0000000000000000000000000000000000000000000000000000000008152600401610ad4906142be565b610d7e826129cd565b610ae7828260016129f7565b60003073ffffffffffffffffffffffffffffffffffffffff7f00000000000000000000000000000000000000000000000000000000000000001614610dfb576040517f08c379a0000000000000000000000000000000000000000000000000000000008152600401610ad490614328565b507f360894a13ba1a3210667c828492db98dca3e2076cc3735a920a3ca505d382bbc90565b7f55435dd261a4b9b3364963f7738a7a662ad9c84396d64be3365284bb7f0a5041610e4a816124c0565b609780547fffffffffffffffffffffffffffffffffffffffffffffffffffffffffffffff001690556040517fe6fdbf73945dd61794a752b9181ea29f77170a7b1ffd37e0a7ff9d2c6f7258b990600090a150565b7ff66846415d2bf9eabda9e84793ff9c0ea96d87f50fc41e66aa16469c6a442f05610ec8816124c0565b61012580547fffffffffffffffffffffffff00000000000000000000000000000000000000001673ffffffffffffffffffffffffffffffffffffffff84161790556040517fe6e1c2bf73bb6cc1c20546306996ac2050af3e2cfc8d64d3173c7ef0ce549519906108989084906137de565b7f60044782a422109ac08a415e44260ad5d3bad63d96ebe1fac0363399642ee3f2610f63816124c0565b610f6b6124ca565b610f76848484612b4a565b5050505050505050565b600054610100900460ff1615808015610fa05750600054600160ff909116105b80610fba5750303b158015610fba575060005460ff166001145b610ff0576040517f08c379a0000000000000000000000000000000000000000000000000000000008152600401610ad490614392565b600080547fffffffffffffffffffffffffffffffffffffffffffffffffffffffffffffff00166001179055801561104e57600080547fffffffffffffffffffffffffffffffffffffffffffffffffffffffffffff00ff166101001790555b611056612e8d565b61105e612ece565b73ffffffffffffffffffffffffffffffffffffffff89166110ab576040517f08c379a0000000000000000000000000000000000000000000000000000000008152600401610ad4906143fc565b73ffffffffffffffffffffffffffffffffffffffff88166110f8576040517f08c379a0000000000000000000000000000000000000000000000000000000008152600401610ad490614466565b73ffffffffffffffffffffffffffffffffffffffff8716611145576040517f08c379a0000000000000000000000000000000000000000000000000000000008152600401610ad4906144d0565b73ffffffffffffffffffffffffffffffffffffffff8616611192576040517f08c379a0000000000000000000000000000000000000000000000000000000008152600401610ad49061453a565b73ffffffffffffffffffffffffffffffffffffffff85166111df576040517f08c379a0000000000000000000000000000000000000000000000000000000008152600401610ad4906145a4565b73ffffffffffffffffffffffffffffffffffffffff831661122c576040517f08c379a0000000000000000000000000000000000000000000000000000000008152600401610ad49061460e565b73ffffffffffffffffffffffffffffffffffffffff8216611279576040517f08c379a0000000000000000000000000000000000000000000000000000000008152600401610ad490614678565b61012480547fffffffffffffffffffffffff000000000000000000000000000000000000000090811673ffffffffffffffffffffffffffffffffffffffff8c811691909117909255610125805482168b8416179055610126805482168a84161790556101278054821689841617905561012880549091169187169190911790556040517f75bcc4f3a8eeec60c22df746d7f53083c892df4b1e07b2be152f117df8f353f790611329908b906137de565b60405180910390a17fe6e1c2bf73bb6cc1c20546306996ac2050af3e2cfc8d64d3173c7ef0ce5495198860405161136091906137de565b60405180910390a17f0b93934b7edc78aefca2346fce453b27091f670d5d0d27a235a500c5d4813d5d8760405161139791906137de565b60405180910390a17fa38376a1d553c24d4e7d7ae03562d267dc74246db411d00789b674d260625d7f866040516113ce91906137de565b60405180910390a17fd5916ec2c920845feddd056ebbee86209587bfb0d0d72341eb4a022fd98c218d8560405161140591906137de565b60405180910390a161012880547fffffffffffffffff00000000ffffffffffffffffffffffffffffffffffffffff167401000000000000000000000000000000000000000063ffffffff8716021790556040517f266d22101c27a330937ff06442e5289e92a84a449d22bb001c03789f7774b62890611485908690613c01565b60405180910390a1610126546114d2907f60044782a422109ac08a415e44260ad5d3bad63d96ebe1fac0363399642ee3f29073ffffffffffffffffffffffffffffffffffffffff1661281e565b6114dd60008461281e565b6115077ff66846415d2bf9eabda9e84793ff9c0ea96d87f50fc41e66aa16469c6a442f058461281e565b6115317f55435dd261a4b9b3364963f7738a7a662ad9c84396d64be3365284bb7f0a50418361281e565b801561159957600080547fffffffffffffffffffffffffffffffffffffffffffffffffffffffffffff00ff1690556040517f7f26b83ff96e1f2b6a682f133852f6798a09c465da95921460cefb3847402498906115909060019061469c565b60405180910390a15b505050505050505050565b7f55435dd261a4b9b3364963f7738a7a662ad9c84396d64be3365284bb7f0a50416115ce816124c0565b609780547fffffffffffffffffffffffffffffffffffffffffffffffffffffffffffffff001660011790556040517f61340a1b154d5d21d259a74bf95379201799b9d12cc6509bb46cb56dc281df5590600090a150565b7f60044782a422109ac08a415e44260ad5d3bad63d96ebe1fac0363399642ee3f261164f816124c0565b6116576124ca565b6000806000806116688c8a8a612b4a565b9296509094509250905060016000848152610129602052604090205460ff16600281111561169857611698613910565b146116cf576040517ff8c22cf100000000000000000000000000000000000000000000000000000000815260040160405180910390fd5b60008381526101296020526040902060010154821461171a576040517f6b8899b400000000000000000000000000000000000000000000000000000000815260040160405180910390fd5b60008b8b60405160200161172f929190614700565b604051602081830303815290604052805190602001209050808214611780576040517f921c328700000000000000000000000000000000000000000000000000000000815260040160405180910390fd5b50868660405161179192919061471a565b6040518091039020610129600085815260200190815260200160002060030154146117e8576040517f292485e600000000000000000000000000000000000000000000000000000000815260040160405180910390fd5b8c73ffffffffffffffffffffffffffffffffffffffff168473ffffffffffffffffffffffffffffffffffffffff161461184d576040517f8f75496200000000000000000000000000000000000000000000000000000000815260040160405180910390fd5b6000838152610129602052604090208054600291907fffffffffffffffffffffffffffffffffffffffffffffffffffffffffffffff0016600183021790555061012860009054906101000a900473ffffffffffffffffffffffffffffffffffffffff1673ffffffffffffffffffffffffffffffffffffffff16631bbdcfd3848f6040518363ffffffff1660e01b81526004016118ea929190614727565b600060405180830381600087803b15801561190457600080fd5b505af1158015611918573d6000803e3d6000fd5b50505050827f7d75c70e29cbe8fa8f30d34dc1e421fce569f086fa6e2985816ad3cfa03e86a98e60405161194c91906137de565b60405180910390a260008381526101296020526040902060020154610100900473ffffffffffffffffffffffffffffffffffffffff1615611b37576000610129600085815260200190815260200160002060020160009054906101000a900460ff169050610129600085815260200190815260200160002060020160019054906101000a900473ffffffffffffffffffffffffffffffffffffffff1673ffffffffffffffffffffffffffffffffffffffff16610129600086815260200190815260200160002060020160159054906101000a900460e01b6101296000878152602001908152602001600020600101548e8e6000908660ff1692611a5193929190614742565b8c8c604051602401611a679594939291906147ca565b604080517fffffffffffffffffffffffffffffffffffffffffffffffffffffffffffffffe08184030181529181526020820180517bffffffffffffffffffffffffffffffffffffffffffffffffffffffff167fffffffff00000000000000000000000000000000000000000000000000000000909416939093179092529051611af09190614851565b6000604051808303816000865af19150503d8060008114611b2d576040519150601f19603f3d011682016040523d82523d6000602084013e611b32565b606091505b505050505b50505050505050505050505050565b611b4e6124ca565b60008181526101296020526040808220815160e081019092528054829060ff166002811115611b7f57611b7f613910565b6002811115611b9057611b90613910565b815281546101009081900463ffffffff1660208301526001808401546040840152600284015460ff8116606085015291820473ffffffffffffffffffffffffffffffffffffffff166080840152750100000000000000000000000000000000000000000090910460e01b7fffffffff000000000000000000000000000000000000000000000000000000001660a083015260039092015460c09091015290915081516002811115611c4357611c43613910565b14611c7a576040517f5f158cf700000000000000000000000000000000000000000000000000000000815260040160405180910390fd5b806020015163ffffffff164311611cbd576040517f6d542c0d00000000000000000000000000000000000000000000000000000000815260040160405180910390fd5b6040805160e08101825260008082526020808301829052828401829052606083018290526080830182905260a0830182905260c08301829052858252610129905291909120815181548392919082907fffffffffffffffffffffffffffffffffffffffffffffffffffffffffffffff00166001836002811115611d4257611d42613910565b0217905550602082015181547fffffffffffffffffffffffffffffffffffffffffffffffffffffff00000000ff1661010063ffffffff909216820217825560408084015160018401556060840151600284018054608087015160a088015160ff9094167fffffffffffffffffffffff0000000000000000000000000000000000000000009092169190911773ffffffffffffffffffffffffffffffffffffffff918216909502949094177fffffffffffffff00000000ffffffffffffffffffffffffffffffffffffffffff16750100000000000000000000000000000000000000000060e09390931c9290920291909117905560c0909301516003909201919091556101285491517f7249fbb6000000000000000000000000000000000000000000000000000000008152911690637249fbb690611e84908690600401613a1d565b600060405180830381600087803b158015611e9e57600080fd5b505af1158015611eb2573d6000803e3d6000fd5b50506040518592507f1923b26db8236a215e02d277919450f65fa53365f004d2b955263220e91036799150600090a2505050565b611eee6124ca565b610128546040517ff340fa0100000000000000000000000000000000000000000000000000000000815273ffffffffffffffffffffffffffffffffffffffff9091169063f340fa01903490611f479033906004016137de565b6000604051808303818588803b158015611f6057600080fd5b505af1158015611f74573d6000803e3d6000fd5b5060009350839250611f8c915050602089018961485d565b60ff16600003611fcf5760028a8a604051602001611fac939291906148b1565b6040516020818303038152906040528051906020012091506000801b905061207c565b6000611fde60208a018a61485d565b611feb60208b018b6148e8565b9050611ffa60208c018c6148e8565b60405160200161200d9493929190614963565b604051602081830303815290604052905060028b8b838c8060400190612033919061499a565b905061204260408f018f61499a565b6040516020016120589796959493929190614a28565b60405160208183030381529060405280519060200120925080805190602001209150505b612091828261208a8a6140ed565b8989612509565b6101285482907f8039ed5c4465b459f0e6ac4412fc8d1718ebd061c4ca051e40fb969dee08499a906120e19074010000000000000000000000000000000000000000900463ffffffff1643614128565b88886040516120f293929190614a8e565b60405180910390a250505050505050505050565b600082815260656020526040902060010154612121816124c0565b6109e58383612912565b7ff66846415d2bf9eabda9e84793ff9c0ea96d87f50fc41e66aa16469c6a442f05612155816124c0565b61012680547fffffffffffffffffffffffff00000000000000000000000000000000000000001673ffffffffffffffffffffffffffffffffffffffff84161790556040517f0b93934b7edc78aefca2346fce453b27091f670d5d0d27a235a500c5d4813d5d906108989084906137de565b7f60044782a422109ac08a415e44260ad5d3bad63d96ebe1fac0363399642ee3f26121f0816124c0565b6121f86124ca565b6000806000806122098b8989612b4a565b935093509350935060008a8a604051602001612226929190614700565b604051602081830303815290604052805190602001209050808214612277576040517f921c328700000000000000000000000000000000000000000000000000000000815260040160405180910390fd5b5060405183907f3dfddd8dc9e35222679030ce268e6c609a765196274087e9e7b52d8aa8efec0b90600090a260006122b260208801886137b4565b73ffffffffffffffffffffffffffffffffffffffff161461241c5760006122df606088016040890161485d565b90506122ee60208801886137b4565b73ffffffffffffffffffffffffffffffffffffffff166123146040890160208a01613741565b848d8d6000908660ff169261232b93929190614742565b61233860608d018d61499a565b60405160240161234c9594939291906147ca565b604080517fffffffffffffffffffffffffffffffffffffffffffffffffffffffffffffffe08184030181529181526020820180517bffffffffffffffffffffffffffffffffffffffffffffffffffffffff167fffffffff000000000000000000000000000000000000000000000000000000009094169390931790925290516123d59190614851565b6000604051808303816000865af19150503d8060008114612412576040519150601f19603f3d011682016040523d82523d6000602084013e612417565b606091505b505050505b5050505050505050505050565b60007fffffffff0000000000000000000000000000000000000000000000000000000082167f7965db0b0000000000000000000000000000000000000000000000000000000014806107f757507f01ffc9a7000000000000000000000000000000000000000000000000000000007fffffffff000000000000000000000000000000000000000000000000000000008316146107f7565b610c418133612f39565b60975460ff1615612507576040517f379dfc6300000000000000000000000000000000000000000000000000000000815260040160405180910390fd5b565b6000858152610129602052604081205460ff16600281111561252d5761252d613910565b14612564576040517f96e41fe900000000000000000000000000000000000000000000000000000000815260040160405180910390fd5b60006125708383612ff3565b610128546040517f1fa3e05500000000000000000000000000000000000000000000000000000000815291925073ffffffffffffffffffffffffffffffffffffffff1690631fa3e055906125cc9033908a908690600401614ab6565b600060405180830381600087803b1580156125e657600080fd5b505af11580156125fa573d6000803e3d6000fd5b5050505060006040518060e001604052806001600281111561261e5761261e613910565b8152610128546020909101906126529074010000000000000000000000000000000000000000900463ffffffff1643614128565b63ffffffff168152602080820189905260408881015160ff1681840152885173ffffffffffffffffffffffffffffffffffffffff16606080850191909152898301517fffffffff0000000000000000000000000000000000000000000000000000000016608085015289015180519083012060a09093019290925260008a81526101299091522081518154929350839282907fffffffffffffffffffffffffffffffffffffffffffffffffffffffffffffff0016600183600281111561271a5761271a613910565b0217905550602082015181547fffffffffffffffffffffffffffffffffffffffffffffffffffffff00000000ff1661010063ffffffff9092168202178255604083015160018301556060830151600283018054608086015160a087015160ff9094167fffffffffffffffffffffff0000000000000000000000000000000000000000009092169190911773ffffffffffffffffffffffffffffffffffffffff909116909302929092177fffffffffffffff00000000ffffffffffffffffffffffffffffffffffffffffff16750100000000000000000000000000000000000000000060e09290921c9190910217905560c09091015160039091015550505050505050565b600082815260656020908152604080832073ffffffffffffffffffffffffffffffffffffffff8516845290915290205460ff16610ae757600082815260656020908152604080832073ffffffffffffffffffffffffffffffffffffffff85168452909152902080547fffffffffffffffffffffffffffffffffffffffffffffffffffffffffffffff001660011790556128b43390565b73ffffffffffffffffffffffffffffffffffffffff168173ffffffffffffffffffffffffffffffffffffffff16837f2f8788117e7eff1d82e926ec794901d17c78024a50270940304540a733656f0d60405160405180910390a45050565b600082815260656020908152604080832073ffffffffffffffffffffffffffffffffffffffff8516845290915290205460ff1615610ae757600082815260656020908152604080832073ffffffffffffffffffffffffffffffffffffffff8516808552925280832080547fffffffffffffffffffffffffffffffffffffffffffffffffffffffffffffff0016905551339285917ff6391f5c32d9c69d2a47ea670b442974b53935d1edc7fd64eb21e047a839171b9190a45050565b7ff66846415d2bf9eabda9e84793ff9c0ea96d87f50fc41e66aa16469c6a442f05610ae7816124c0565b7f4910fdfa16fed3260ed0e7147f7cc6da11a60208b5b9406d12a635614ffd91435460ff1615612a2a576109e583613035565b8273ffffffffffffffffffffffffffffffffffffffff166352d1902d6040518163ffffffff1660e01b8152600401602060405180830381865afa925050508015612aaf575060408051601f3d9081017fffffffffffffffffffffffffffffffffffffffffffffffffffffffffffffffe0168201909252612aac91810190614ae9565b60015b612ae5576040517f08c379a0000000000000000000000000000000000000000000000000000000008152600401610ad490614b64565b7f360894a13ba1a3210667c828492db98dca3e2076cc3735a920a3ca505d382bbc8114612b3e576040517f08c379a0000000000000000000000000000000000000000000000000000000008152600401610ad490614bce565b506109e58383836130e9565b6000806000806000612b5c8787613114565b6101245460e08201516101008301516040517ff1340da300000000000000000000000000000000000000000000000000000000815293945073ffffffffffffffffffffffffffffffffffffffff9092169263f1340da392612bc292918d90600401614cb6565b600060405180830381600087803b158015612bdc57600080fd5b505af1158015612bf0573d6000803e3d6000fd5b5050505061012460009054906101000a900473ffffffffffffffffffffffffffffffffffffffff1673ffffffffffffffffffffffffffffffffffffffff1663fe428ed36040518163ffffffff1660e01b8152600401602060405180830381865afa158015612c62573d6000803e3d6000fd5b505050506040513d601f19601f82011682018060405250810190612c869190614cea565b63ffffffff16816000015163ffffffff1614612cce576040517f0db21db600000000000000000000000000000000000000000000000000000000815260040160405180910390fd5b6101255460405160009173ffffffffffffffffffffffffffffffffffffffff1690612cfc908a908a9061471a565b6000604051808303816000865af19150503d8060008114612d39576040519150601f19603f3d011682016040523d82523d6000602084013e612d3e565b606091505b5050905080612d79576040517fd611c31800000000000000000000000000000000000000000000000000000000815260040160405180910390fd5b60008260000151836020015184604001518560600151604051602001612da29493929190614d0b565b604080517fffffffffffffffffffffffffffffffffffffffffffffffffffffffffffffffe08184030181529082905280516020909101206101275460808601517fd18b7db500000000000000000000000000000000000000000000000000000000845291935073ffffffffffffffffffffffffffffffffffffffff169163d18b7db591612e33918590600401614d53565b600060405180830381600087803b158015612e4d57600080fd5b505af1158015612e61573d6000803e3d6000fd5b505050508260c0015183608001518460a001518560600151965096509650965050505093509350935093565b600054610100900460ff16612507576040517f08c379a0000000000000000000000000000000000000000000000000000000008152600401610ad490614dc8565b600054610100900460ff16612f0f576040517f08c379a0000000000000000000000000000000000000000000000000000000008152600401610ad490614dc8565b609780547fffffffffffffffffffffffffffffffffffffffffffffffffffffffffffffff00169055565b600082815260656020908152604080832073ffffffffffffffffffffffffffffffffffffffff8516845290915290205460ff16610ae757612f7981613347565b612f84836020613366565b604051602001612f95929190614dd8565b604080517fffffffffffffffffffffffffffffffffffffffffffffffffffffffffffffffe0818403018152908290527f08c379a0000000000000000000000000000000000000000000000000000000008252610ad491600401614e88565b60006611c37937e080006130106207a12063ffffffff8516614e99565b6130249067ffffffffffffffff8616614eac565b61302e9190614e99565b9392505050565b73ffffffffffffffffffffffffffffffffffffffff81163b613083576040517f08c379a0000000000000000000000000000000000000000000000000000000008152600401610ad490614f25565b7f360894a13ba1a3210667c828492db98dca3e2076cc3735a920a3ca505d382bbc80547fffffffffffffffffffffffff00000000000000000000000000000000000000001673ffffffffffffffffffffffffffffffffffffffff92909216919091179055565b6130f283613579565b6000825111806130ff5750805b156109e55761310e83836135c6565b50505050565b604080516101208082018352600080835260208301819052828401819052606083018190526080830181905260a0830181905260c0830181905260e08301819052610100830152825190810190925290806131756101a06101808688614f35565b61317e91614f65565b63ffffffff1681526020016131996101e06101c08688614f35565b6131a291614f65565b60806131b46101c06101a0888a614f35565b6131bd91614f65565b901b1781526020016131d56102006101e08688614f35565b6131de91614f65565b81526020016131f36102406102208688614f35565b6131fc91614f65565b608061320e610220610200888a614f35565b61321791614f65565b901b17815260200161322f6102806102608688614f35565b61323891614f65565b608061324a610260610240888a614f35565b61325391614f65565b901b17815260200161326b6102c06102a08688614f35565b61327491614f65565b60806132866102a0610280888a614f35565b61328f91614f65565b901b1781526020016132a76102e06102c08688614f35565b6132b091614f65565b73ffffffffffffffffffffffffffffffffffffffff1681526020016132db6103206103008688614f35565b6132e491614f65565b60806132f66103006102e0888a614f35565b6132ff91614f65565b901b1781526020016133176103606103408688614f35565b61332091614f65565b6080613332610340610320888a614f35565b61333b91614f65565b901b1790529392505050565b60606107f773ffffffffffffffffffffffffffffffffffffffff831660145b60606000613375836002614eac565b613380906002614e99565b67ffffffffffffffff81111561339857613398613a68565b6040519080825280601f01601f1916602001820160405280156133c2576020820181803683370190505b5090507f3000000000000000000000000000000000000000000000000000000000000000816000815181106133f9576133f9614fae565b60200101907effffffffffffffffffffffffffffffffffffffffffffffffffffffffffffff1916908160001a9053507f78000000000000000000000000000000000000000000000000000000000000008160018151811061345c5761345c614fae565b60200101907effffffffffffffffffffffffffffffffffffffffffffffffffffffffffffff1916908160001a9053506000613498846002614eac565b6134a3906001614e99565b90505b6001811115613540577f303132333435363738396162636465660000000000000000000000000000000085600f16601081106134e4576134e4614fae565b1a60f81b8282815181106134fa576134fa614fae565b60200101907effffffffffffffffffffffffffffffffffffffffffffffffffffffffffffff1916908160001a90535060049490941c9361353981614fdd565b90506134a6565b50831561302e576040517f08c379a0000000000000000000000000000000000000000000000000000000008152600401610ad490615012565b61358281613035565b60405173ffffffffffffffffffffffffffffffffffffffff8216907fbc7cd75a20ee27fd9adebab32041f755214dbc6bffa90cc0225b39da2e5c2d3b90600090a250565b606073ffffffffffffffffffffffffffffffffffffffff83163b613616576040517f08c379a0000000000000000000000000000000000000000000000000000000008152600401610ad4906150a6565b6000808473ffffffffffffffffffffffffffffffffffffffff168460405161363e9190614851565b600060405180830381855af49150503d8060008114613679576040519150601f19603f3d011682016040523d82523d6000602084013e61367e565b606091505b50915091506136a682826040518060600160405280602781526020016150b7602791396136af565b95945050505050565b606083156136be57508161302e565b61302e83838151156136d35781518083602001fd5b806040517f08c379a0000000000000000000000000000000000000000000000000000000008152600401610ad49190614e88565b7fffffffff0000000000000000000000000000000000000000000000000000000081165b8114610c4157600080fd5b80356107f781613707565b60006020828403121561375657613756600080fd5b60006137628484613736565b949350505050565b8015155b82525050565b602081016107f7828461376a565b600073ffffffffffffffffffffffffffffffffffffffff82166107f7565b61372b81613782565b80356107f7816137a0565b6000602082840312156137c9576137c9600080fd5b600061376284846137a9565b61376e81613782565b602081016107f782846137d5565b8061372b565b80356107f7816137ec565b60006080828403121561381257613812600080fd5b50919050565b67ffffffffffffffff811661372b565b80356107f781613818565b63ffffffff811661372b565b80356107f781613833565b60008060008060008060c0878903121561386657613866600080fd5b600061387289896137f2565b965050602061388389828a016137f2565b955050604061389489828a016137f2565b945050606087013567ffffffffffffffff8111156138b4576138b4600080fd5b6138c089828a016137fd565b93505060806138d189828a01613828565b92505060a06138e289828a0161383f565b9150509295509295509295565b60006020828403121561390457613904600080fd5b600061376284846137f2565b7f4e487b7100000000000000000000000000000000000000000000000000000000600052602160045260246000fd5b60038110610c4157610c41613910565b806139598161393f565b919050565b60006107f78261394f565b61376e8161395e565b63ffffffff811661376e565b8061376e565b60ff811661376e565b7fffffffff00000000000000000000000000000000000000000000000000000000811661376e565b60e081016139c3828a613969565b6139d06020830189613972565b6139dd604083018861397e565b6139ea6060830187613984565b6139f760808301866137d5565b613a0460a083018561398d565b613a1160c083018461397e565b98975050505050505050565b602081016107f7828461397e565b60008060408385031215613a4157613a41600080fd5b6000613a4d85856137f2565b9250506020613a5e858286016137a9565b9150509250929050565b7f4e487b7100000000000000000000000000000000000000000000000000000000600052604160045260246000fd5b7fffffffffffffffffffffffffffffffffffffffffffffffffffffffffffffffe0601f830116810181811067ffffffffffffffff82111715613adb57613adb613a68565b6040525050565b6000613aed60405190565b90506139598282613a97565b600067ffffffffffffffff821115613b1357613b13613a68565b7fffffffffffffffffffffffffffffffffffffffffffffffffffffffffffffffe0601f83011660200192915050565b82818337506000910152565b6000613b61613b5c84613af9565b613ae2565b905082815260208101848484011115613b7c57613b7c600080fd5b613b87848285613b42565b509392505050565b600082601f830112613ba357613ba3600080fd5b8135613762848260208601613b4e565b60008060408385031215613bc957613bc9600080fd5b6000613bd585856137a9565b925050602083013567ffffffffffffffff811115613bf557613bf5600080fd5b613a5e85828601613b8f565b602081016107f78284613972565b6000610320828403121561381257613812600080fd5b60008083601f840112613c3a57613c3a600080fd5b50813567ffffffffffffffff811115613c5557613c55600080fd5b602083019150836001820283011115613c7057613c70600080fd5b9250929050565b60008060006103408486031215613c9057613c90600080fd5b6000613c9c8686613c0f565b93505061032084013567ffffffffffffffff811115613cbd57613cbd600080fd5b613cc986828701613c25565b92509250509250925092565b600080600080600080600080610100898b031215613cf557613cf5600080fd5b6000613d018b8b6137a9565b9850506020613d128b828c016137a9565b9750506040613d238b828c016137a9565b9650506060613d348b828c016137a9565b9550506080613d458b828c016137a9565b94505060a0613d568b828c0161383f565b93505060c0613d678b828c016137a9565b92505060e0613d788b828c016137a9565b9150509295985092959890939650565b60008083601f840112613d9d57613d9d600080fd5b50813567ffffffffffffffff811115613db857613db8600080fd5b602083019150836020820283011115613c7057613c70600080fd5b6000806000806000806000806103a0898b031215613df357613df3600080fd5b6000613dff8b8b6137a9565b9850506020613e108b828c01613c0f565b97505061034089013567ffffffffffffffff811115613e3157613e31600080fd5b613e3d8b828c01613d88565b965096505061036089013567ffffffffffffffff811115613e6057613e60600080fd5b613e6c8b828c01613c25565b945094505061038089013567ffffffffffffffff811115613e8f57613e8f600080fd5b613e9b8b828c01613c25565b92509250509295985092959890939650565b60006060828403121561381257613812600080fd5b60008060008060008060008060e0898b031215613ee157613ee1600080fd5b6000613eed8b8b61383f565b9850506020613efe8b828c016137f2565b975050604089013567ffffffffffffffff811115613f1e57613f1e600080fd5b613f2a8b828c01613ead565b965050606089013567ffffffffffffffff811115613f4a57613f4a600080fd5b613f568b828c016137fd565b9550506080613f678b828c01613828565b94505060a0613f788b828c0161383f565b93505060c089013567ffffffffffffffff811115613e8f57613e8f600080fd5b6000806000806000806103808789031215613fb557613fb5600080fd5b6000613fc18989613c0f565b96505061032087013567ffffffffffffffff811115613fe257613fe2600080fd5b613fee89828a01613d88565b955095505061034087013567ffffffffffffffff81111561401157614011600080fd5b61401d89828a01613c25565b935093505061036087013567ffffffffffffffff81111561404057614040600080fd5b6138e289828a016137fd565b60ff811661372b565b80356107f78161404c565b60006080828403121561407557614075600080fd5b61407f6080613ae2565b9050600061408d84846137a9565b825250602061409e84848301613736565b60208301525060406140b284828501614055565b604083015250606082013567ffffffffffffffff8111156140d5576140d5600080fd5b6140e184828501613b8f565b60608301525092915050565b60006107f73683614060565b7f4e487b7100000000000000000000000000000000000000000000000000000000600052601160045260246000fd5b63ffffffff9182169190811690828201908111156107f7576107f76140f9565b67ffffffffffffffff811661376e565b608081016141668287613972565b614173602083018661397e565b6141806040830185614148565b6136a66060830184613972565b602f81526000602082017f416363657373436f6e74726f6c3a2063616e206f6e6c792072656e6f756e636581527f20726f6c657320666f722073656c660000000000000000000000000000000000602082015291505b5060400190565b602080825281016107f78161418d565b602c81526000602082017f46756e6374696f6e206d7573742062652063616c6c6564207468726f7567682081527f64656c656761746563616c6c0000000000000000000000000000000000000000602082015291506141e3565b602080825281016107f7816141fa565b602c81526000602082017f46756e6374696f6e206d7573742062652063616c6c6564207468726f7567682081527f6163746976652070726f78790000000000000000000000000000000000000000602082015291506141e3565b602080825281016107f781614264565b603881526000602082017f555550535570677261646561626c653a206d757374206e6f742062652063616c81527f6c6564207468726f7567682064656c656761746563616c6c0000000000000000602082015291506141e3565b602080825281016107f7816142ce565b602e81526000602082017f496e697469616c697a61626c653a20636f6e747261637420697320616c72656181527f647920696e697469616c697a6564000000000000000000000000000000000000602082015291506141e3565b602080825281016107f781614338565b603381526000602082017f4178696f6d563251756572793a204178696f6d2068656164657220766572696681527f6965722061646472657373206973207a65726f00000000000000000000000000602082015291506141e3565b602080825281016107f7816143a2565b602681526000602082017f4178696f6d563251756572793a2076657269666965722061646472657373206981527f73207a65726f0000000000000000000000000000000000000000000000000000602082015291506141e3565b602080825281016107f78161440c565b602981526000602082017f4178696f6d563251756572793a206178696f6d50726f7665722061646472657381527f73206973207a65726f0000000000000000000000000000000000000000000000602082015291506141e3565b602080825281016107f781614476565b602e81526000602082017f4178696f6d563251756572793a206178696f6d526573756c7453746f7265206181527f646472657373206973207a65726f000000000000000000000000000000000000602082015291506141e3565b602080825281016107f7816144e0565b603281526000602082017f4178696f6d563251756572793a206178696f6d46656553746f7265416464726581527f73732061646472657373206973207a65726f0000000000000000000000000000602082015291506141e3565b602080825281016107f78161454a565b602681526000602082017f4178696f6d563251756572793a2074696d656c6f636b2061646472657373206981527f73207a65726f0000000000000000000000000000000000000000000000000000602082015291506141e3565b602080825281016107f7816145b4565b602681526000602082017f4178696f6d563251756572793a20677561726469616e2061646472657373206981527f73207a65726f0000000000000000000000000000000000000000000000000000602082015291506141e3565b602080825281016107f78161461e565b600060ff82166107f7565b61376e81614688565b602081016107f78284614693565b82818337505050565b6000835b93507f07ffffffffffffffffffffffffffffffffffffffffffffffffffffffffffffff8311156146e9576146e9600080fd5b6020830292506146fa8385846146aa565b50500190565b60006137628284866146b3565b60006146fa838584613b42565b600061376282848661470d565b60408101614735828561397e565b61302e60208301846137d5565b6000808585111561475557614755600080fd5b8386111561476557614765600080fd5b5050602083020193919092039150565b8183526000602084016146b7565b8183526000602084019350614799838584613b42565b7fffffffffffffffffffffffffffffffffffffffffffffffffffffffffffffffe0601f8401165b9093019392505050565b606081016147d8828861397e565b81810360208301526147eb818688614775565b90508181036040830152614800818486614783565b979650505050505050565b60005b8381101561482657818101518382015260200161480e565b50506000910152565b6000614839825190565b61484781856020860161480b565b9290920192915050565b600061302e828461482f565b60006020828403121561487257614872600080fd5b60006137628484614055565b60006107f78260f81b90565b61376e60ff821661487e565b60006107f78260e01b90565b61376e63ffffffff8216614896565b60006148bd828661488a565b6001820191506148cd82856148a2565b6004820191506148dd828461397e565b506020019392505050565b60008083357fffffffffffffffffffffffffffffffffffffffffffffffffffffffffffffffe13685900301811261492157614921600080fd5b80840192508235915067ffffffffffffffff82111561494257614942600080fd5b6020928301928202360383131561495b5761495b600080fd5b509250929050565b600061496f828761488a565b60018201915061497f828661488a565b6001820191506149908284866146b3565b9695505050505050565b60008083357fffffffffffffffffffffffffffffffffffffffffffffffffffffffffffffffe1368590030181126149d3576149d3600080fd5b80840192508235915067ffffffffffffffff8211156149f4576149f4600080fd5b60208301925060018202360383131561495b5761495b600080fd5b60006107f78260f01b90565b61376e61ffff8216614a0f565b6000614a34828a61488a565b600182019150614a4482896148a2565b600482019150614a54828861397e565b602082019150614a64828761482f565b9150614a708286614a1b565b600282019150614a8182848661470d565b9998505050505050505050565b60608101614a9c8286613972565b614aa96020830185614148565b6137626040830184613972565b60608101614ac482866137d5565b614ad1602083018561397e565b613762604083018461397e565b80516107f7816137ec565b600060208284031215614afe57614afe600080fd5b60006137628484614ade565b602e81526000602082017f45524331393637557067726164653a206e657720696d706c656d656e7461746981527f6f6e206973206e6f742055555053000000000000000000000000000000000000602082015291506141e3565b602080825281016107f781614b0a565b602981526000602082017f45524331393637557067726164653a20756e737570706f727465642070726f7881527f6961626c65555549440000000000000000000000000000000000000000000000602082015291506141e3565b602080825281016107f781614b74565b600061302e60208401846137f2565b600061302e602084018461383f565b610ae761014083836146aa565b6103208201614c188280614bde565b614c22848261397e565b50614c306020830183614bde565b614c3d602085018261397e565b50614c4b6040830183614bed565b614c586040850182613972565b50614c666060830183614bed565b614c736060850182613972565b5060808201614c856080850182614bfc565b506101c08201614c996101c0850182614bfc565b50614ca8610300830183614bed565b61310e610300850182613972565b6103608101614cc5828661397e565b614cd2602083018561397e565b6137626040830184614c09565b80516107f781613833565b600060208284031215614cff57614cff600080fd5b60006137628484614cdf565b6000614d1782876148a2565b600482019150614d27828661397e565b602082019150614d37828561397e565b602082019150614d47828461397e565b50602001949350505050565b60408101614d61828561397e565b61302e602083018461397e565b602b81526000602082017f496e697469616c697a61626c653a20636f6e7472616374206973206e6f74206981527f6e697469616c697a696e67000000000000000000000000000000000000000000602082015291506141e3565b602080825281016107f781614d6e565b7f416363657373436f6e74726f6c3a206163636f756e742000000000000000000081526017016000614e0a828561482f565b7f206973206d697373696e6720726f6c652000000000000000000000000000000081526011019150613762828461482f565b6000614e46825190565b808452602084019350614e5d81856020860161480b565b7fffffffffffffffffffffffffffffffffffffffffffffffffffffffffffffffe0601f8201166147c0565b6020808252810161302e8184614e3c565b808201808211156107f7576107f76140f9565b818102808215838204851417614ec457614ec46140f9565b5092915050565b602d81526000602082017f455243313936373a206e657720696d706c656d656e746174696f6e206973206e81527f6f74206120636f6e747261637400000000000000000000000000000000000000602082015291506141e3565b602080825281016107f781614ecb565b60008085851115614f4857614f48600080fd5b83861115614f5857614f58600080fd5b5050820193919092039150565b803582826020821015614fa657614fa17fffffffffffffffffffffffffffffffffffffffffffffffffffffffffffffffff836020036008021b90565b831692505b505092915050565b7f4e487b7100000000000000000000000000000000000000000000000000000000600052603260045260246000fd5b600081614fec57614fec6140f9565b507fffffffffffffffffffffffffffffffffffffffffffffffffffffffffffffffff0190565b60208082528181019081527f537472696e67733a20686578206c656e67746820696e73756666696369656e746040830152606082016107f7565b602681526000602082017f416464726573733a2064656c65676174652063616c6c20746f206e6f6e2d636f81527f6e74726163740000000000000000000000000000000000000000000000000000602082015291506141e3565b602080825281016107f78161504c56fe416464726573733a206c6f772d6c6576656c2064656c65676174652063616c6c206661696c6564a2646970667358221220923f4a695c6a264078020d9d7e02f8cb0cd3eb4d4fc503ff8ba2839d6dc5e84664736f6c63430008130033",
    "linkReferences": {}
  },
  "methodIdentifiers": {
    "DEFAULT_ADMIN_ROLE()": "a217fddf",
    "GUARDIAN_ROLE()": "24ea54f4",
    "PROVER_ROLE()": "dc9a4ef6",
    "TIMELOCK_ROLE()": "f288a2e2",
    "axiomFeeStoreAddress()": "beaa0ebd",
    "axiomHeaderVerifierAddress()": "469b2362",
    "axiomProverAddress()": "b6ed0388",
    "axiomResultStoreAddress()": "d3046ea6",
    "freezeAll()": "99464c89",
    "frozen()": "054f7d9c",
    "fulfillOffchainQuery((bytes32,bytes32,uint32,uint32,bytes32[10],bytes32[10],uint32),bytes32[],bytes,(address,bytes4,uint8,bytes))": "e2069efe",
    "fulfillQuery(address,(bytes32,bytes32,uint32,uint32,bytes32[10],bytes32[10],uint32),bytes32[],bytes,bytes)": "a660c031",
    "getRoleAdmin(bytes32)": "248a9ca3",
    "grantRole(bytes32,address)": "2f2ff15d",
    "hasRole(bytes32,address)": "91d14854",
    "initialize(address,address,address,address,address,uint32,address,address)": "8a8cc0ec",
    "proxiableUUID()": "52d1902d",
    "queries(bytes32)": "21dfb600",
    "queryDeadlineInterval()": "79ce0468",
    "refundQuery(bytes32)": "c15dcf40",
    "renounceRole(bytes32,address)": "36568abe",
    "revokeRole(bytes32,address)": "d547741f",
    "sendOffchainQuery(bytes32,bytes32,bytes32,(address,bytes4,uint8,bytes),uint64,uint32)": "21608139",
    "sendQuery(uint32,bytes32,(uint8,bytes32[],bytes),(address,bytes4,uint8,bytes),uint64,uint32,bytes)": "cf92c537",
    "supportsInterface(bytes4)": "01ffc9a7",
    "unfreezeAll()": "66c5c4a0",
    "updateAxiomFeeStore(address)": "07c11e79",
    "updateAxiomHeaderVerifierAddress(address)": "3237c2fd",
    "updateAxiomProverAddress(address)": "e166cdbd",
    "updateVerifierAddress(address)": "736f1618",
    "upgradeTo(address)": "3659cfe6",
    "upgradeToAndCall(address,bytes)": "4f1ef286",
    "verifierAddress()": "18bdffbb",
    "verifyAndWriteResult((bytes32,bytes32,uint32,uint32,bytes32[10],bytes32[10],uint32),bytes)": "898091e0"
  },
  "id": 11
}