{
  "abi": [
    {
      "inputs": [],
      "stateMutability": "nonpayable",
      "type": "constructor"
    },
    {
      "inputs": [],
      "name": "CallbackExtraDataHashDoesNotMatch",
      "type": "error"
    },
    {
      "inputs": [],
      "name": "CannotFulfillIfNotActive",
      "type": "error"
    },
    {
      "inputs": [],
      "name": "CannotRefundBeforeDeadline",
      "type": "error"
    },
    {
      "inputs": [],
      "name": "CannotRefundIfNotActive",
      "type": "error"
    },
    {
      "inputs": [],
      "name": "ComputeResultsHashDoesNotMatch",
      "type": "error"
    },
    {
      "inputs": [],
      "name": "ContractIsFrozen",
      "type": "error"
    },
    {
      "inputs": [],
      "name": "NotAxiomRole",
      "type": "error"
    },
    {
      "inputs": [],
      "name": "NotProverRole",
      "type": "error"
    },
    {
      "inputs": [],
      "name": "ProofVerificationFailed",
      "type": "error"
    },
    {
      "inputs": [],
      "name": "QueryHashDoesNotMatchProof",
      "type": "error"
    },
    {
      "inputs": [],
      "name": "QueryNotInactive",
      "type": "error"
    },
    {
      "inputs": [],
      "name": "QuerySchemaDoesNotMatchProof",
      "type": "error"
    },
    {
      "inputs": [],
      "name": "SourceChainIdDoesNotMatch",
      "type": "error"
    },
    {
      "anonymous": false,
      "inputs": [
        {
          "indexed": false,
          "internalType": "address",
          "name": "previousAdmin",
          "type": "address"
        },
        {
          "indexed": false,
          "internalType": "address",
          "name": "newAdmin",
          "type": "address"
        }
      ],
      "name": "AdminChanged",
      "type": "event"
    },
    {
      "anonymous": false,
      "inputs": [
        {
          "indexed": true,
          "internalType": "address",
          "name": "beacon",
          "type": "address"
        }
      ],
      "name": "BeaconUpgraded",
      "type": "event"
    },
    {
      "anonymous": false,
      "inputs": [],
      "name": "FreezeAll",
      "type": "event"
    },
    {
      "anonymous": false,
      "inputs": [
        {
          "indexed": false,
          "internalType": "uint8",
          "name": "version",
          "type": "uint8"
        }
      ],
      "name": "Initialized",
      "type": "event"
    },
    {
      "anonymous": false,
      "inputs": [
        {
          "indexed": true,
          "internalType": "bytes32",
          "name": "queryHash",
          "type": "bytes32"
        }
      ],
      "name": "OffchainQueryFulfilled",
      "type": "event"
    },
    {
      "anonymous": false,
      "inputs": [
        {
          "indexed": true,
          "internalType": "bytes32",
          "name": "queryHash",
          "type": "bytes32"
        },
        {
          "indexed": false,
          "internalType": "address",
          "name": "payee",
          "type": "address"
        }
      ],
      "name": "QueryFulfilled",
      "type": "event"
    },
    {
      "anonymous": false,
      "inputs": [
        {
          "indexed": true,
          "internalType": "bytes32",
          "name": "queryHash",
          "type": "bytes32"
        },
        {
          "indexed": false,
          "internalType": "uint32",
          "name": "deadlineBlockNumber",
          "type": "uint32"
        },
        {
          "indexed": false,
          "internalType": "bytes32",
          "name": "ipfsHash",
          "type": "bytes32"
        },
        {
          "indexed": false,
          "internalType": "uint64",
          "name": "maxFeePerGas",
          "type": "uint64"
        },
        {
          "indexed": false,
          "internalType": "uint32",
          "name": "callbackGasLimit",
          "type": "uint32"
        }
      ],
      "name": "QueryInitiatedOffchain",
      "type": "event"
    },
    {
      "anonymous": false,
      "inputs": [
        {
          "indexed": true,
          "internalType": "bytes32",
          "name": "queryHash",
          "type": "bytes32"
        },
        {
          "indexed": false,
          "internalType": "uint32",
          "name": "deadlineBlockNumber",
          "type": "uint32"
        },
        {
          "indexed": false,
          "internalType": "uint64",
          "name": "maxFeePerGas",
          "type": "uint64"
        },
        {
          "indexed": false,
          "internalType": "uint32",
          "name": "callbackGasLimit",
          "type": "uint32"
        }
      ],
      "name": "QueryInitiatedOnchain",
      "type": "event"
    },
    {
      "anonymous": false,
      "inputs": [
        {
          "indexed": true,
          "internalType": "bytes32",
          "name": "queryHash",
          "type": "bytes32"
        }
      ],
      "name": "QueryRefunded",
      "type": "event"
    },
    {
      "anonymous": false,
      "inputs": [
        {
          "indexed": true,
          "internalType": "bytes32",
          "name": "role",
          "type": "bytes32"
        },
        {
          "indexed": true,
          "internalType": "bytes32",
          "name": "previousAdminRole",
          "type": "bytes32"
        },
        {
          "indexed": true,
          "internalType": "bytes32",
          "name": "newAdminRole",
          "type": "bytes32"
        }
      ],
      "name": "RoleAdminChanged",
      "type": "event"
    },
    {
      "anonymous": false,
      "inputs": [
        {
          "indexed": true,
          "internalType": "bytes32",
          "name": "role",
          "type": "bytes32"
        },
        {
          "indexed": true,
          "internalType": "address",
          "name": "account",
          "type": "address"
        },
        {
          "indexed": true,
          "internalType": "address",
          "name": "sender",
          "type": "address"
        }
      ],
      "name": "RoleGranted",
      "type": "event"
    },
    {
      "anonymous": false,
      "inputs": [
        {
          "indexed": true,
          "internalType": "bytes32",
          "name": "role",
          "type": "bytes32"
        },
        {
          "indexed": true,
          "internalType": "address",
          "name": "account",
          "type": "address"
        },
        {
          "indexed": true,
          "internalType": "address",
          "name": "sender",
          "type": "address"
        }
      ],
      "name": "RoleRevoked",
      "type": "event"
    },
    {
      "anonymous": false,
      "inputs": [],
      "name": "UnfreezeAll",
      "type": "event"
    },
    {
      "anonymous": false,
      "inputs": [
        {
          "indexed": false,
          "internalType": "address",
          "name": "newAddress",
          "type": "address"
        }
      ],
      "name": "UpdateAxiomFeeStoreAddress",
      "type": "event"
    },
    {
      "anonymous": false,
      "inputs": [
        {
          "indexed": false,
          "internalType": "address",
          "name": "newAddress",
          "type": "address"
        }
      ],
      "name": "UpdateAxiomHeaderVerifierAddress",
      "type": "event"
    },
    {
      "anonymous": false,
      "inputs": [
        {
          "indexed": false,
          "internalType": "address",
          "name": "newAddress",
          "type": "address"
        }
      ],
      "name": "UpdateAxiomProverAddress",
      "type": "event"
    },
    {
      "anonymous": false,
      "inputs": [
        {
          "indexed": false,
          "internalType": "address",
          "name": "newAddress",
          "type": "address"
        }
      ],
      "name": "UpdateAxiomResultStoreAddress",
      "type": "event"
    },
    {
      "anonymous": false,
      "inputs": [
        {
          "indexed": false,
          "internalType": "uint32",
          "name": "newQueryDeadlineInterval",
          "type": "uint32"
        }
      ],
      "name": "UpdateQueryDeadlineInterval",
      "type": "event"
    },
    {
      "anonymous": false,
      "inputs": [
        {
          "indexed": false,
          "internalType": "address",
          "name": "newAddress",
          "type": "address"
        }
      ],
      "name": "UpdateVerifierAddress",
      "type": "event"
    },
    {
      "anonymous": false,
      "inputs": [
        {
          "indexed": true,
          "internalType": "address",
          "name": "implementation",
          "type": "address"
        }
      ],
      "name": "Upgraded",
      "type": "event"
    },
    {
      "inputs": [],
      "name": "AXIOM_ROLE",
      "outputs": [
        {
          "internalType": "bytes32",
          "name": "",
          "type": "bytes32"
        }
      ],
      "stateMutability": "view",
      "type": "function"
    },
    {
      "inputs": [],
      "name": "DEFAULT_ADMIN_ROLE",
      "outputs": [
        {
          "internalType": "bytes32",
          "name": "",
          "type": "bytes32"
        }
      ],
      "stateMutability": "view",
      "type": "function"
    },
    {
      "inputs": [],
      "name": "GUARDIAN_ROLE",
      "outputs": [
        {
          "internalType": "bytes32",
          "name": "",
          "type": "bytes32"
        }
      ],
      "stateMutability": "view",
      "type": "function"
    },
    {
      "inputs": [],
      "name": "PROVER_ROLE",
      "outputs": [
        {
          "internalType": "bytes32",
          "name": "",
          "type": "bytes32"
        }
      ],
      "stateMutability": "view",
      "type": "function"
    },
    {
      "inputs": [],
      "name": "TIMELOCK_ROLE",
      "outputs": [
        {
          "internalType": "bytes32",
          "name": "",
          "type": "bytes32"
        }
      ],
      "stateMutability": "view",
      "type": "function"
    },
    {
      "inputs": [],
      "name": "axiomFeeStoreAddress",
      "outputs": [
        {
          "internalType": "address",
          "name": "",
          "type": "address"
        }
      ],
      "stateMutability": "view",
      "type": "function"
    },
    {
      "inputs": [],
      "name": "axiomHeaderVerifierAddress",
      "outputs": [
        {
          "internalType": "address",
          "name": "",
          "type": "address"
        }
      ],
      "stateMutability": "view",
      "type": "function"
    },
    {
      "inputs": [],
      "name": "axiomProverAddress",
      "outputs": [
        {
          "internalType": "address",
          "name": "",
          "type": "address"
        }
      ],
      "stateMutability": "view",
      "type": "function"
    },
    {
      "inputs": [],
      "name": "axiomResultStoreAddress",
      "outputs": [
        {
          "internalType": "address",
          "name": "",
          "type": "address"
        }
      ],
      "stateMutability": "view",
      "type": "function"
    },
    {
      "inputs": [],
      "name": "freezeAll",
      "outputs": [],
      "stateMutability": "nonpayable",
      "type": "function"
    },
    {
      "inputs": [],
      "name": "frozen",
      "outputs": [
        {
          "internalType": "bool",
          "name": "",
          "type": "bool"
        }
      ],
      "stateMutability": "view",
      "type": "function"
    },
    {
      "inputs": [
        {
          "components": [
            {
              "internalType": "bytes32",
              "name": "prevHash",
              "type": "bytes32"
            },
            {
              "internalType": "bytes32",
              "name": "root",
              "type": "bytes32"
            },
            {
              "internalType": "uint32",
              "name": "numFinal",
              "type": "uint32"
            },
            {
              "internalType": "uint32",
              "name": "startBlockNumber",
              "type": "uint32"
            },
            {
              "internalType": "bytes32[10]",
              "name": "recentMMRPeaks",
              "type": "bytes32[10]"
            },
            {
              "internalType": "bytes32[10]",
              "name": "mmrComplementOrPeaks",
              "type": "bytes32[10]"
            },
            {
              "internalType": "uint32",
              "name": "mmrIdx",
              "type": "uint32"
            }
          ],
          "internalType": "struct IAxiomV2HeaderVerifier.RecentMMRWitness",
          "name": "mmrWitness",
          "type": "tuple"
        },
        {
          "internalType": "bytes32[]",
          "name": "computeResults",
          "type": "bytes32[]"
        },
        {
          "internalType": "bytes",
          "name": "proof",
          "type": "bytes"
        },
        {
          "components": [
            {
              "internalType": "address",
              "name": "callbackAddr",
              "type": "address"
            },
            {
              "internalType": "bytes4",
              "name": "callbackFunctionSelector",
              "type": "bytes4"
            },
            {
              "internalType": "uint8",
              "name": "resultLen",
              "type": "uint8"
            },
            {
              "internalType": "bytes",
              "name": "callbackExtraData",
              "type": "bytes"
            }
          ],
          "internalType": "struct IAxiomV2Query.AxiomV2Callback",
          "name": "callback",
          "type": "tuple"
        }
      ],
      "name": "fulfillOffchainQuery",
      "outputs": [],
      "stateMutability": "nonpayable",
      "type": "function"
    },
    {
      "inputs": [
        {
          "components": [
            {
              "internalType": "bytes32",
              "name": "prevHash",
              "type": "bytes32"
            },
            {
              "internalType": "bytes32",
              "name": "root",
              "type": "bytes32"
            },
            {
              "internalType": "uint32",
              "name": "numFinal",
              "type": "uint32"
            },
            {
              "internalType": "uint32",
              "name": "startBlockNumber",
              "type": "uint32"
            },
            {
              "internalType": "bytes32[10]",
              "name": "recentMMRPeaks",
              "type": "bytes32[10]"
            },
            {
              "internalType": "bytes32[10]",
              "name": "mmrComplementOrPeaks",
              "type": "bytes32[10]"
            },
            {
              "internalType": "uint32",
              "name": "mmrIdx",
              "type": "uint32"
            }
          ],
          "internalType": "struct IAxiomV2HeaderVerifier.RecentMMRWitness",
          "name": "mmrWitness",
          "type": "tuple"
        },
        {
          "internalType": "bytes32[]",
          "name": "computeResults",
          "type": "bytes32[]"
        },
        {
          "internalType": "bytes",
          "name": "proof",
          "type": "bytes"
        },
        {
          "internalType": "bytes",
          "name": "callbackExtraData",
          "type": "bytes"
        }
      ],
      "name": "fulfillQuery",
      "outputs": [],
      "stateMutability": "nonpayable",
      "type": "function"
    },
    {
      "inputs": [
        {
          "internalType": "bytes32",
          "name": "role",
          "type": "bytes32"
        }
      ],
      "name": "getRoleAdmin",
      "outputs": [
        {
          "internalType": "bytes32",
          "name": "",
          "type": "bytes32"
        }
      ],
      "stateMutability": "view",
      "type": "function"
    },
    {
      "inputs": [
        {
          "internalType": "bytes32",
          "name": "role",
          "type": "bytes32"
        },
        {
          "internalType": "address",
          "name": "account",
          "type": "address"
        }
      ],
      "name": "grantRole",
      "outputs": [],
      "stateMutability": "nonpayable",
      "type": "function"
    },
    {
      "inputs": [
        {
          "internalType": "bytes32",
          "name": "role",
          "type": "bytes32"
        },
        {
          "internalType": "address",
          "name": "account",
          "type": "address"
        }
      ],
      "name": "hasRole",
      "outputs": [
        {
          "internalType": "bool",
          "name": "",
          "type": "bool"
        }
      ],
      "stateMutability": "view",
      "type": "function"
    },
    {
      "inputs": [
        {
          "internalType": "address",
          "name": "_axiomHeaderVerifierAddress",
          "type": "address"
        },
        {
          "internalType": "address",
          "name": "_verifierAddress",
          "type": "address"
        },
        {
          "internalType": "address",
          "name": "_axiomProverAddress",
          "type": "address"
        },
        {
          "internalType": "address",
          "name": "_axiomResultStoreAddress",
          "type": "address"
        },
        {
          "internalType": "address",
          "name": "_axiomFeeStoreAddress",
          "type": "address"
        },
        {
          "internalType": "uint32",
          "name": "_queryDeadlineInterval",
          "type": "uint32"
        },
        {
          "internalType": "address",
          "name": "timelock",
          "type": "address"
        },
        {
          "internalType": "address",
          "name": "guardian",
          "type": "address"
        }
      ],
      "name": "initialize",
      "outputs": [],
      "stateMutability": "nonpayable",
      "type": "function"
    },
    {
      "inputs": [],
      "name": "proxiableUUID",
      "outputs": [
        {
          "internalType": "bytes32",
          "name": "",
          "type": "bytes32"
        }
      ],
      "stateMutability": "view",
      "type": "function"
    },
    {
      "inputs": [
        {
          "internalType": "bytes32",
          "name": "",
          "type": "bytes32"
        }
      ],
      "name": "queries",
      "outputs": [
        {
          "internalType": "enum IAxiomV2Query.AxiomQueryState",
          "name": "state",
          "type": "uint8"
        },
        {
          "internalType": "uint32",
          "name": "deadlineBlockNumber",
          "type": "uint32"
        },
        {
          "internalType": "bytes32",
          "name": "querySchema",
          "type": "bytes32"
        },
        {
          "internalType": "uint8",
          "name": "resultLen",
          "type": "uint8"
        },
        {
          "internalType": "address",
          "name": "callerAddr",
          "type": "address"
        },
        {
          "internalType": "address",
          "name": "callbackAddr",
          "type": "address"
        },
        {
          "internalType": "bytes4",
          "name": "callbackFunctionSelector",
          "type": "bytes4"
        },
        {
          "internalType": "bytes32",
          "name": "callbackExtraDataHash",
          "type": "bytes32"
        }
      ],
      "stateMutability": "view",
      "type": "function"
    },
    {
      "inputs": [],
      "name": "queryDeadlineInterval",
      "outputs": [
        {
          "internalType": "uint32",
          "name": "",
          "type": "uint32"
        }
      ],
      "stateMutability": "view",
      "type": "function"
    },
    {
      "inputs": [
        {
          "internalType": "bytes32",
          "name": "queryHash",
          "type": "bytes32"
        }
      ],
      "name": "refundQuery",
      "outputs": [],
      "stateMutability": "nonpayable",
      "type": "function"
    },
    {
      "inputs": [
        {
          "internalType": "bytes32",
          "name": "role",
          "type": "bytes32"
        },
        {
          "internalType": "address",
          "name": "account",
          "type": "address"
        }
      ],
      "name": "renounceRole",
      "outputs": [],
      "stateMutability": "nonpayable",
      "type": "function"
    },
    {
      "inputs": [
        {
          "internalType": "bytes32",
          "name": "role",
          "type": "bytes32"
        },
        {
          "internalType": "address",
          "name": "account",
          "type": "address"
        }
      ],
      "name": "revokeRole",
      "outputs": [],
      "stateMutability": "nonpayable",
      "type": "function"
    },
    {
      "inputs": [
        {
          "internalType": "uint64",
          "name": "sourceChainId",
          "type": "uint64"
        },
        {
          "internalType": "bytes32",
          "name": "dataQueryHash",
          "type": "bytes32"
        },
        {
          "components": [
            {
              "internalType": "uint8",
              "name": "k",
              "type": "uint8"
            },
            {
              "internalType": "bytes32[]",
              "name": "vkey",
              "type": "bytes32[]"
            },
            {
              "internalType": "bytes",
              "name": "computeProof",
              "type": "bytes"
            }
          ],
          "internalType": "struct IAxiomV2Query.AxiomV2ComputeQuery",
          "name": "computeQuery",
          "type": "tuple"
        },
        {
          "components": [
            {
              "internalType": "address",
              "name": "callbackAddr",
              "type": "address"
            },
            {
              "internalType": "bytes4",
              "name": "callbackFunctionSelector",
              "type": "bytes4"
            },
            {
              "internalType": "uint8",
              "name": "resultLen",
              "type": "uint8"
            },
            {
              "internalType": "bytes",
              "name": "callbackExtraData",
              "type": "bytes"
            }
          ],
          "internalType": "struct IAxiomV2Query.AxiomV2Callback",
          "name": "callback",
          "type": "tuple"
        },
        {
          "internalType": "uint64",
          "name": "maxFeePerGas",
          "type": "uint64"
        },
        {
          "internalType": "uint32",
          "name": "callbackGasLimit",
          "type": "uint32"
        },
        {
          "internalType": "bytes",
          "name": "dataQuery",
          "type": "bytes"
        }
      ],
      "name": "sendQuery",
      "outputs": [
        {
          "internalType": "bytes32",
          "name": "",
          "type": "bytes32"
        }
      ],
      "stateMutability": "payable",
      "type": "function"
    },
    {
      "inputs": [
        {
          "internalType": "bytes32",
          "name": "queryHash",
          "type": "bytes32"
        },
        {
          "internalType": "bytes32",
          "name": "querySchema",
          "type": "bytes32"
        },
        {
          "internalType": "bytes32",
          "name": "ipfsHash",
          "type": "bytes32"
        },
        {
          "components": [
            {
              "internalType": "address",
              "name": "callbackAddr",
              "type": "address"
            },
            {
              "internalType": "bytes4",
              "name": "callbackFunctionSelector",
              "type": "bytes4"
            },
            {
              "internalType": "uint8",
              "name": "resultLen",
              "type": "uint8"
            },
            {
              "internalType": "bytes",
              "name": "callbackExtraData",
              "type": "bytes"
            }
          ],
          "internalType": "struct IAxiomV2Query.AxiomV2Callback",
          "name": "callback",
          "type": "tuple"
        },
        {
          "internalType": "uint64",
          "name": "maxFeePerGas",
          "type": "uint64"
        },
        {
          "internalType": "uint32",
          "name": "callbackGasLimit",
          "type": "uint32"
        }
      ],
      "name": "sendQueryWithIpfsData",
      "outputs": [],
      "stateMutability": "payable",
      "type": "function"
    },
    {
      "inputs": [
        {
          "internalType": "bytes4",
          "name": "interfaceId",
          "type": "bytes4"
        }
      ],
      "name": "supportsInterface",
      "outputs": [
        {
          "internalType": "bool",
          "name": "",
          "type": "bool"
        }
      ],
      "stateMutability": "view",
      "type": "function"
    },
    {
      "inputs": [],
      "name": "unfreezeAll",
      "outputs": [],
      "stateMutability": "nonpayable",
      "type": "function"
    },
    {
      "inputs": [
        {
          "internalType": "address",
          "name": "_axiomFeeStoreAddress",
          "type": "address"
        }
      ],
      "name": "updateAxiomFeeStore",
      "outputs": [],
      "stateMutability": "nonpayable",
      "type": "function"
    },
    {
      "inputs": [
        {
          "internalType": "address",
          "name": "_axiomHeaderVerifierAddress",
          "type": "address"
        }
      ],
      "name": "updateAxiomHeaderVerifierAddress",
      "outputs": [],
      "stateMutability": "nonpayable",
      "type": "function"
    },
    {
      "inputs": [
        {
          "internalType": "address",
          "name": "_axiomProverAddress",
          "type": "address"
        }
      ],
      "name": "updateAxiomProverAddress",
      "outputs": [],
      "stateMutability": "nonpayable",
      "type": "function"
    },
    {
      "inputs": [
        {
          "internalType": "address",
          "name": "_verifierAddress",
          "type": "address"
        }
      ],
      "name": "updateVerifierAddress",
      "outputs": [],
      "stateMutability": "nonpayable",
      "type": "function"
    },
    {
      "inputs": [
        {
          "internalType": "address",
          "name": "newImplementation",
          "type": "address"
        }
      ],
      "name": "upgradeTo",
      "outputs": [],
      "stateMutability": "nonpayable",
      "type": "function"
    },
    {
      "inputs": [
        {
          "internalType": "address",
          "name": "newImplementation",
          "type": "address"
        },
        {
          "internalType": "bytes",
          "name": "data",
          "type": "bytes"
        }
      ],
      "name": "upgradeToAndCall",
      "outputs": [],
      "stateMutability": "payable",
      "type": "function"
    },
    {
      "inputs": [],
      "name": "verifierAddress",
      "outputs": [
        {
          "internalType": "address",
          "name": "",
          "type": "address"
        }
      ],
      "stateMutability": "view",
      "type": "function"
    },
    {
      "inputs": [
        {
          "components": [
            {
              "internalType": "bytes32",
              "name": "prevHash",
              "type": "bytes32"
            },
            {
              "internalType": "bytes32",
              "name": "root",
              "type": "bytes32"
            },
            {
              "internalType": "uint32",
              "name": "numFinal",
              "type": "uint32"
            },
            {
              "internalType": "uint32",
              "name": "startBlockNumber",
              "type": "uint32"
            },
            {
              "internalType": "bytes32[10]",
              "name": "recentMMRPeaks",
              "type": "bytes32[10]"
            },
            {
              "internalType": "bytes32[10]",
              "name": "mmrComplementOrPeaks",
              "type": "bytes32[10]"
            },
            {
              "internalType": "uint32",
              "name": "mmrIdx",
              "type": "uint32"
            }
          ],
          "internalType": "struct IAxiomV2HeaderVerifier.RecentMMRWitness",
          "name": "mmrWitness",
          "type": "tuple"
        },
        {
          "internalType": "bytes",
          "name": "proof",
          "type": "bytes"
        }
      ],
      "name": "verifyAndWriteResult",
      "outputs": [],
      "stateMutability": "nonpayable",
      "type": "function"
    }
  ],
  "bytecode": {
    "object": "0x60a0604052306080523480156200001557600080fd5b506200002062000026565b62000164565b600054610100900460ff161562000074576040517f08c379a00000000000000000000000000000000000000000000000000000000081526004016200006b90620000ec565b60405180910390fd5b60005460ff9081161015620000ea57600080547fffffffffffffffffffffffffffffffffffffffffffffffffffffffffffffff001660ff9081179091556040517f7f26b83ff96e1f2b6a682f133852f6798a09c465da95921460cefb384740249891620000e19162000154565b60405180910390a15b565b602080825281016200014e81602781527f496e697469616c697a61626c653a20636f6e747261637420697320696e69746960208201527f616c697a696e6700000000000000000000000000000000000000000000000000604082015260600190565b92915050565b60ff82168152602081016200014e565b60805161524a6200019c60003960008181610a3f01528181610a9901528181610cb501528181610d0f0152610dfe015261524a6000f3fe6080604052600436106102345760003560e01c8063673fed6211610138578063beaa0ebd116100b0578063dc9a4ef61161007f578063e2069efe11610064578063e2069efe14610793578063ea53dce4146107b3578063f288a2e2146107c657600080fd5b8063dc9a4ef61461073f578063e166cdbd1461077357600080fd5b8063beaa0ebd146106a3578063c15dcf40146106d1578063d3046ea6146106f1578063d547741f1461071f57600080fd5b80638a8cc0ec1161010757806399464c89116100ec57806399464c891461064b578063a217fddf14610660578063b6ed03881461067557600080fd5b80638a8cc0ec146105d857806391d14854146105f857600080fd5b8063673fed6214610535578063736f16181461055557806379ce046814610575578063898091e0146105b857600080fd5b80632f2ff15d116101cb578063469b23621161019a5780634f1ef2861161017f5780634f1ef286146104f857806352d1902d1461050b57806366c5c4a01461052057600080fd5b8063469b2362146104b75780634d7d007d146104e557600080fd5b80632f2ff15d146104375780633237c2fd1461045757806336568abe146104775780633659cfe61461049757600080fd5b806321dfb6001161020757806321dfb600146102e6578063248a9ca31461039257806324ea54f4146103cf5780632b7d2bad1461040357600080fd5b806301ffc9a714610239578063054f7d9c1461026f57806307c11e791461028957806318bdffbb146102ab575b600080fd5b34801561024557600080fd5b5061025961025436600461382c565b6107fa565b604051610266919061385f565b60405180910390f35b34801561027b57600080fd5b506097546102599060ff1681565b34801561029557600080fd5b506102a96102a436600461389f565b610856565b005b3480156102b757600080fd5b50610125546102d99073ffffffffffffffffffffffffffffffffffffffff1681565b60405161026691906138c9565b3480156102f257600080fd5b5061037e6103013660046138e8565b610129602052600090815260409020805460018201546002830154600384015460049094015460ff8085169563ffffffff6101009687900416959184169373ffffffffffffffffffffffffffffffffffffffff929004821692918116917401000000000000000000000000000000000000000090910460e01b9088565b6040516102669897969594939291906139ae565b34801561039e57600080fd5b506103c26103ad3660046138e8565b60009081526065602052604090206001015490565b6040516102669190613a25565b3480156103db57600080fd5b506103c27f55435dd261a4b9b3364963f7738a7a662ad9c84396d64be3365284bb7f0a504181565b34801561040f57600080fd5b506103c27f542178611b653a605b79640db9b52a7afa591d6ace75cd36686e0ee264f4f57281565b34801561044357600080fd5b506102a9610452366004613a33565b6108fd565b34801561046357600080fd5b506102a961047236600461389f565b610927565b34801561048357600080fd5b506102a9610492366004613a33565b6109c2565b3480156104a357600080fd5b506102a96104b236600461389f565b610a28565b3480156104c357600080fd5b50610124546102d99073ffffffffffffffffffffffffffffffffffffffff1681565b6102a96104f3366004613abd565b610b81565b6102a9610506366004613cad565b610c9e565b34801561051757600080fd5b506103c2610de4565b34801561052c57600080fd5b506102a9610e7a565b34801561054157600080fd5b506102a9610550366004613dae565b610ef8565b34801561056157600080fd5b506102a961057036600461389f565b6113ec565b34801561058157600080fd5b50610128546105ab9074010000000000000000000000000000000000000000900463ffffffff1681565b6040516102669190613e75565b3480156105c457600080fd5b506102a96105d3366004613e83565b611487565b3480156105e457600080fd5b506102a96105f3366004613ee1565b6114cb565b34801561060457600080fd5b50610259610613366004613a33565b600091825260656020908152604080842073ffffffffffffffffffffffffffffffffffffffff93909316845291905290205460ff1690565b34801561065757600080fd5b506102a9611aef565b34801561066c57600080fd5b506103c2600081565b34801561068157600080fd5b50610126546102d99073ffffffffffffffffffffffffffffffffffffffff1681565b3480156106af57600080fd5b50610128546102d99073ffffffffffffffffffffffffffffffffffffffff1681565b3480156106dd57600080fd5b506102a96106ec3660046138e8565b611b70565b3480156106fd57600080fd5b50610127546102d99073ffffffffffffffffffffffffffffffffffffffff1681565b34801561072b57600080fd5b506102a961073a366004613a33565b611f2a565b34801561074b57600080fd5b506103c27f60044782a422109ac08a415e44260ad5d3bad63d96ebe1fac0363399642ee3f281565b34801561077f57600080fd5b506102a961078e36600461389f565b611f4f565b34801561079f57600080fd5b506102a96107ae366004613f94565b611fea565b6103c26107c136600461405d565b61225b565b3480156107d257600080fd5b506103c27ff66846415d2bf9eabda9e84793ff9c0ea96d87f50fc41e66aa16469c6a442f0581565b60007fffffffff0000000000000000000000000000000000000000000000000000000082167f6acaf1a5000000000000000000000000000000000000000000000000000000001480610850575061085082612491565b92915050565b7ff66846415d2bf9eabda9e84793ff9c0ea96d87f50fc41e66aa16469c6a442f0561088081612528565b61012880547fffffffffffffffffffffffff00000000000000000000000000000000000000001673ffffffffffffffffffffffffffffffffffffffff84161790556040517fd5916ec2c920845feddd056ebbee86209587bfb0d0d72341eb4a022fd98c218d906108f19084906138c9565b60405180910390a15050565b60008281526065602052604090206001015461091881612528565b6109228383612532565b505050565b7ff66846415d2bf9eabda9e84793ff9c0ea96d87f50fc41e66aa16469c6a442f0561095181612528565b61012480547fffffffffffffffffffffffff00000000000000000000000000000000000000001673ffffffffffffffffffffffffffffffffffffffff84161790556040517f75bcc4f3a8eeec60c22df746d7f53083c892df4b1e07b2be152f117df8f353f7906108f19084906138c9565b73ffffffffffffffffffffffffffffffffffffffff81163314610a1a576040517f08c379a0000000000000000000000000000000000000000000000000000000008152600401610a11906141ae565b60405180910390fd5b610a248282612626565b5050565b73ffffffffffffffffffffffffffffffffffffffff7f0000000000000000000000000000000000000000000000000000000000000000163003610a97576040517f08c379a0000000000000000000000000000000000000000000000000000000008152600401610a1190614218565b7f000000000000000000000000000000000000000000000000000000000000000073ffffffffffffffffffffffffffffffffffffffff16610b0c7f360894a13ba1a3210667c828492db98dca3e2076cc3735a920a3ca505d382bbc5473ffffffffffffffffffffffffffffffffffffffff1690565b73ffffffffffffffffffffffffffffffffffffffff1614610b59576040517f08c379a0000000000000000000000000000000000000000000000000000000008152600401610a1190614282565b610b62816126e1565b60408051600080825260208201909252610b7e9183919061270b565b50565b610b8961285e565b610128546040517ff340fa0100000000000000000000000000000000000000000000000000000000815273ffffffffffffffffffffffffffffffffffffffff9091169063f340fa01903490610be29033906004016138c9565b6000604051808303818588803b158015610bfb57600080fd5b505af1158015610c0f573d6000803e3d6000fd5b5050505050610c2b868685610c2390614333565b85853361289d565b6101285486907fb765869aef79ab0ae7505358156a36b5fd069b1d2c8064bc7459aca55cbdc12e90610c7b9074010000000000000000000000000000000000000000900463ffffffff164361436e565b868585604051610c8e949392919061439e565b60405180910390a2505050505050565b73ffffffffffffffffffffffffffffffffffffffff7f0000000000000000000000000000000000000000000000000000000000000000163003610d0d576040517f08c379a0000000000000000000000000000000000000000000000000000000008152600401610a1190614218565b7f000000000000000000000000000000000000000000000000000000000000000073ffffffffffffffffffffffffffffffffffffffff16610d827f360894a13ba1a3210667c828492db98dca3e2076cc3735a920a3ca505d382bbc5473ffffffffffffffffffffffffffffffffffffffff1690565b73ffffffffffffffffffffffffffffffffffffffff1614610dcf576040517f08c379a0000000000000000000000000000000000000000000000000000000008152600401610a1190614282565b610dd8826126e1565b610a248282600161270b565b60003073ffffffffffffffffffffffffffffffffffffffff7f00000000000000000000000000000000000000000000000000000000000000001614610e55576040517f08c379a0000000000000000000000000000000000000000000000000000000008152600401610a119061442d565b507f360894a13ba1a3210667c828492db98dca3e2076cc3735a920a3ca505d382bbc90565b7ff66846415d2bf9eabda9e84793ff9c0ea96d87f50fc41e66aa16469c6a442f05610ea481612528565b609780547fffffffffffffffffffffffffffffffffffffffffffffffffffffffffffffff001690556040517fe6fdbf73945dd61794a752b9181ea29f77170a7b1ffd37e0a7ff9d2c6f7258b990600090a150565b7f60044782a422109ac08a415e44260ad5d3bad63d96ebe1fac0363399642ee3f2610f2281612528565b610f2a61285e565b6000610f37898787612bcd565b604081015190915060016000828152610129602052604090205460ff166002811115610f6557610f65613909565b14610f9c576040517ff8c22cf100000000000000000000000000000000000000000000000000000000815260040160405180910390fd5b60608201516000828152610129602052604090206001015414610feb576040517f6b8899b400000000000000000000000000000000000000000000000000000000815260040160405180910390fd5b60008989604051602001611000929190614493565b60405160208183030381529060405280519060200120905080836080015114611055576040517f921c328700000000000000000000000000000000000000000000000000000000815260040160405180910390fd5b5084846040516110669291906144ad565b6040518091039020610129600083815260200190815260200160002060040154146110bd576040517f292485e600000000000000000000000000000000000000000000000000000000815260040160405180910390fd5b6000818152610129602090815260409182902080547fffffffffffffffffffffffffffffffffffffffffffffffffffffffffffffff00166002179055610128549084015191517f1bbdcfd300000000000000000000000000000000000000000000000000000000815273ffffffffffffffffffffffffffffffffffffffff90911691631bbdcfd3916111539185916004016144ba565b600060405180830381600087803b15801561116d57600080fd5b505af1158015611181573d6000803e3d6000fd5b50505050807f7d75c70e29cbe8fa8f30d34dc1e421fce569f086fa6e2985816ad3cfa03e86a983602001516040516111b991906138c9565b60405180910390a26000818152610129602052604090206003015473ffffffffffffffffffffffffffffffffffffffff16156113e0576000610129600083815260200190815260200160002060020160009054906101000a900460ff169050610129600083815260200190815260200160002060030160009054906101000a900473ffffffffffffffffffffffffffffffffffffffff1673ffffffffffffffffffffffffffffffffffffffff16610129600084815260200190815260200160002060030160149054906101000a900460e01b8460000151610129600086815260200190815260200160002060020160019054906101000a900473ffffffffffffffffffffffffffffffffffffffff16610129600087815260200190815260200160002060010154868f8f6000908960ff16926112f7939291906144d5565b8d8d60405160240161131098979695949392919061455d565b604080517fffffffffffffffffffffffffffffffffffffffffffffffffffffffffffffffe08184030181529181526020820180517bffffffffffffffffffffffffffffffffffffffffffffffffffffffff167fffffffff00000000000000000000000000000000000000000000000000000000909416939093179092529051611399919061460e565b6000604051808303816000865af19150503d80600081146113d6576040519150601f19603f3d011682016040523d82523d6000602084013e6113db565b606091505b505050505b50505050505050505050565b7ff66846415d2bf9eabda9e84793ff9c0ea96d87f50fc41e66aa16469c6a442f0561141681612528565b61012580547fffffffffffffffffffffffff00000000000000000000000000000000000000001673ffffffffffffffffffffffffffffffffffffffff84161790556040517fe6e1c2bf73bb6cc1c20546306996ac2050af3e2cfc8d64d3173c7ef0ce549519906108f19084906138c9565b7f60044782a422109ac08a415e44260ad5d3bad63d96ebe1fac0363399642ee3f26114b181612528565b6114b961285e565b6114c4848484612bcd565b5050505050565b600054610100900460ff16158080156114eb5750600054600160ff909116105b806115055750303b158015611505575060005460ff166001145b61153b576040517f08c379a0000000000000000000000000000000000000000000000000000000008152600401610a1190614674565b600080547fffffffffffffffffffffffffffffffffffffffffffffffffffffffffffffff00166001179055801561159957600080547fffffffffffffffffffffffffffffffffffffffffffffffffffffffffffff00ff166101001790555b6115a1612f7b565b6115a9612fbc565b73ffffffffffffffffffffffffffffffffffffffff89166115f6576040517f08c379a0000000000000000000000000000000000000000000000000000000008152600401610a11906146de565b73ffffffffffffffffffffffffffffffffffffffff8816611643576040517f08c379a0000000000000000000000000000000000000000000000000000000008152600401610a1190614748565b73ffffffffffffffffffffffffffffffffffffffff8716611690576040517f08c379a0000000000000000000000000000000000000000000000000000000008152600401610a11906147b2565b73ffffffffffffffffffffffffffffffffffffffff86166116dd576040517f08c379a0000000000000000000000000000000000000000000000000000000008152600401610a119061481c565b73ffffffffffffffffffffffffffffffffffffffff851661172a576040517f08c379a0000000000000000000000000000000000000000000000000000000008152600401610a1190614886565b73ffffffffffffffffffffffffffffffffffffffff8316611777576040517f08c379a0000000000000000000000000000000000000000000000000000000008152600401610a11906148f0565b73ffffffffffffffffffffffffffffffffffffffff82166117c4576040517f08c379a0000000000000000000000000000000000000000000000000000000008152600401610a119061495a565b61012480547fffffffffffffffffffffffff000000000000000000000000000000000000000090811673ffffffffffffffffffffffffffffffffffffffff8c811691909117909255610125805482168b8416179055610126805482168a84161790556101278054821689841617905561012880549091169187169190911790556040517f75bcc4f3a8eeec60c22df746d7f53083c892df4b1e07b2be152f117df8f353f790611874908b906138c9565b60405180910390a17fe6e1c2bf73bb6cc1c20546306996ac2050af3e2cfc8d64d3173c7ef0ce549519886040516118ab91906138c9565b60405180910390a17f0b93934b7edc78aefca2346fce453b27091f670d5d0d27a235a500c5d4813d5d876040516118e291906138c9565b60405180910390a17fa38376a1d553c24d4e7d7ae03562d267dc74246db411d00789b674d260625d7f8660405161191991906138c9565b60405180910390a17fd5916ec2c920845feddd056ebbee86209587bfb0d0d72341eb4a022fd98c218d8560405161195091906138c9565b60405180910390a161012880547fffffffffffffffff00000000ffffffffffffffffffffffffffffffffffffffff167401000000000000000000000000000000000000000063ffffffff8716021790556040517f266d22101c27a330937ff06442e5289e92a84a449d22bb001c03789f7774b628906119d0908690613e75565b60405180910390a161012654611a1d907f60044782a422109ac08a415e44260ad5d3bad63d96ebe1fac0363399642ee3f29073ffffffffffffffffffffffffffffffffffffffff16612532565b611a28600084612532565b611a527ff66846415d2bf9eabda9e84793ff9c0ea96d87f50fc41e66aa16469c6a442f0584612532565b611a7c7f55435dd261a4b9b3364963f7738a7a662ad9c84396d64be3365284bb7f0a504183612532565b8015611ae457600080547fffffffffffffffffffffffffffffffffffffffffffffffffffffffffffff00ff1690556040517f7f26b83ff96e1f2b6a682f133852f6798a09c465da95921460cefb384740249890611adb9060019061497e565b60405180910390a15b505050505050505050565b7f55435dd261a4b9b3364963f7738a7a662ad9c84396d64be3365284bb7f0a5041611b1981612528565b609780547fffffffffffffffffffffffffffffffffffffffffffffffffffffffffffffff001660011790556040517f61340a1b154d5d21d259a74bf95379201799b9d12cc6509bb46cb56dc281df5590600090a150565b611b7861285e565b60008181526101296020526040808220815161010081019092528054829060ff166002811115611baa57611baa613909565b6002811115611bbb57611bbb613909565b8152815463ffffffff610100918290041660208301526001808401546040840152600284015460ff8116606085015273ffffffffffffffffffffffffffffffffffffffff92900482166080840152600384015491821660a08401527fffffffff000000000000000000000000000000000000000000000000000000007401000000000000000000000000000000000000000090920460e090811b9290921660c084015260049093015491015290915081516002811115611c7d57611c7d613909565b14611cb4576040517f5f158cf700000000000000000000000000000000000000000000000000000000815260040160405180910390fd5b806020015163ffffffff164311611cf7576040517f6d542c0d00000000000000000000000000000000000000000000000000000000815260040160405180910390fd5b604080516101008101825260008082526020808301829052828401829052606083018290526080830182905260a0830182905260c0830182905260e08301829052858252610129905291909120815181548392919082907fffffffffffffffffffffffffffffffffffffffffffffffffffffffffffffff00166001836002811115611d8457611d84613909565b0217905550602082015181547fffffffffffffffffffffffffffffffffffffffffffffffffffffff00000000ff1661010063ffffffff909216820217825560408084015160018401556060840151600284018054608087015160ff9093167fffffffffffffffffffffff0000000000000000000000000000000000000000009091161773ffffffffffffffffffffffffffffffffffffffff9283169094029390931790925560a084015160038401805460c08701519285167fffffffffffffffff000000000000000000000000000000000000000000000000909116177401000000000000000000000000000000000000000060e093841c02179055909301516004928301556101285492517f7249fbb6000000000000000000000000000000000000000000000000000000008152921691637249fbb691611ec891879101613a25565b600060405180830381600087803b158015611ee257600080fd5b505af1158015611ef6573d6000803e3d6000fd5b50506040518592507f1923b26db8236a215e02d277919450f65fa53365f004d2b955263220e91036799150600090a2505050565b600082815260656020526040902060010154611f4581612528565b6109228383612626565b7ff66846415d2bf9eabda9e84793ff9c0ea96d87f50fc41e66aa16469c6a442f05611f7981612528565b61012680547fffffffffffffffffffffffff00000000000000000000000000000000000000001673ffffffffffffffffffffffffffffffffffffffff84161790556040517f0b93934b7edc78aefca2346fce453b27091f670d5d0d27a235a500c5d4813d5d906108f19084906138c9565b7f60044782a422109ac08a415e44260ad5d3bad63d96ebe1fac0363399642ee3f261201481612528565b61201c61285e565b6000612029888686612bcd565b905060008160400151905060008888604051602001612049929190614493565b6040516020818303038152906040528051906020012090508083608001511461209e576040517f921c328700000000000000000000000000000000000000000000000000000000815260040160405180910390fd5b5060405181907f3dfddd8dc9e35222679030ce268e6c609a765196274087e9e7b52d8aa8efec0b90600090a260006120d9602086018661389f565b73ffffffffffffffffffffffffffffffffffffffff1614611ae4576000612106606086016040870161498c565b9050612115602086018661389f565b73ffffffffffffffffffffffffffffffffffffffff1661213b604087016020880161382c565b8460000151338660600151868e8e6000908960ff169261215d939291906144d5565b61216a60608e018e6149ad565b60405160240161218198979695949392919061455d565b604080517fffffffffffffffffffffffffffffffffffffffffffffffffffffffffffffffe08184030181529181526020820180517bffffffffffffffffffffffffffffffffffffffffffffffffffffffff167fffffffff0000000000000000000000000000000000000000000000000000000090941693909317909252905161220a919061460e565b6000604051808303816000865af19150503d8060008114612247576040519150601f19603f3d011682016040523d82523d6000602084013e61224c565b606091505b50505050505050505050505050565b600061226561285e565b610128546040517ff340fa0100000000000000000000000000000000000000000000000000000000815273ffffffffffffffffffffffffffffffffffffffff9091169063f340fa019034906122be9033906004016138c9565b6000604051808303818588803b1580156122d757600080fd5b505af11580156122eb573d6000803e3d6000fd5b506000935083925061230391505060208a018a61498c565b60ff166000036123545760028b8b61231e60208d018d61498c565b6040516020016123319493929190614a61565b6040516020818303038152906040528051906020012091506000801b9050612404565b600061236360208b018b61498c565b61237060208c018c614aa9565b905061237f60208d018d614aa9565b6040516020016123929493929190614b1c565b604051602081830303815290604052905060028c8c838d80604001906123b891906149ad565b90508e80604001906123ca91906149ad565b6040516020016123e09796959493929190614b6c565b60405160208183030381529060405280519060200120925080805190602001209150505b61241a82826124128b614333565b8a8a3361289d565b6101285482907f8039ed5c4465b459f0e6ac4412fc8d1718ebd061c4ca051e40fb969dee08499a9061246a9074010000000000000000000000000000000000000000900463ffffffff164361436e565b898960405161247b93929190614bc5565b60405180910390a2509998505050505050505050565b60007fffffffff0000000000000000000000000000000000000000000000000000000082167f7965db0b00000000000000000000000000000000000000000000000000000000148061085057507f01ffc9a7000000000000000000000000000000000000000000000000000000007fffffffff00000000000000000000000000000000000000000000000000000000831614610850565b610b7e8133613027565b600082815260656020908152604080832073ffffffffffffffffffffffffffffffffffffffff8516845290915290205460ff16610a2457600082815260656020908152604080832073ffffffffffffffffffffffffffffffffffffffff85168452909152902080547fffffffffffffffffffffffffffffffffffffffffffffffffffffffffffffff001660011790556125c83390565b73ffffffffffffffffffffffffffffffffffffffff168173ffffffffffffffffffffffffffffffffffffffff16837f2f8788117e7eff1d82e926ec794901d17c78024a50270940304540a733656f0d60405160405180910390a45050565b600082815260656020908152604080832073ffffffffffffffffffffffffffffffffffffffff8516845290915290205460ff1615610a2457600082815260656020908152604080832073ffffffffffffffffffffffffffffffffffffffff8516808552925280832080547fffffffffffffffffffffffffffffffffffffffffffffffffffffffffffffff0016905551339285917ff6391f5c32d9c69d2a47ea670b442974b53935d1edc7fd64eb21e047a839171b9190a45050565b7ff66846415d2bf9eabda9e84793ff9c0ea96d87f50fc41e66aa16469c6a442f05610a2481612528565b7f4910fdfa16fed3260ed0e7147f7cc6da11a60208b5b9406d12a635614ffd91435460ff161561273e57610922836130e1565b8273ffffffffffffffffffffffffffffffffffffffff166352d1902d6040518163ffffffff1660e01b8152600401602060405180830381865afa9250505080156127c3575060408051601f3d9081017fffffffffffffffffffffffffffffffffffffffffffffffffffffffffffffffe01682019092526127c091810190614bf8565b60015b6127f9576040517f08c379a0000000000000000000000000000000000000000000000000000000008152600401610a1190614c73565b7f360894a13ba1a3210667c828492db98dca3e2076cc3735a920a3ca505d382bbc8114612852576040517f08c379a0000000000000000000000000000000000000000000000000000000008152600401610a1190614cdd565b50610922838383613195565b60975460ff161561289b576040517f379dfc6300000000000000000000000000000000000000000000000000000000815260040160405180910390fd5b565b6000868152610129602052604081205460ff1660028111156128c1576128c1613909565b146128f8576040517f96e41fe900000000000000000000000000000000000000000000000000000000815260040160405180910390fd5b600061290484846131c0565b610128546040517f1fa3e05500000000000000000000000000000000000000000000000000000000815291925073ffffffffffffffffffffffffffffffffffffffff1690631fa3e055906129609033908b908690600401614ced565b600060405180830381600087803b15801561297a57600080fd5b505af115801561298e573d6000803e3d6000fd5b505050506000604051806101000160405280600160028111156129b3576129b3613909565b8152610128546020909101906129e79074010000000000000000000000000000000000000000900463ffffffff164361436e565b63ffffffff16815260208082018a905260408981015160ff168184015273ffffffffffffffffffffffffffffffffffffffff8088166060808601919091528b5190911660808501528a8301517fffffffff000000000000000000000000000000000000000000000000000000001660a08501528a015180519083012060c09093019290925260008b81526101299091522081518154929350839282907fffffffffffffffffffffffffffffffffffffffffffffffffffffffffffffff00166001836002811115612ab957612ab9613909565b0217905550602082015181547fffffffffffffffffffffffffffffffffffffffffffffffffffffff00000000ff1661010063ffffffff9092168202178255604083015160018301556060830151600283018054608086015160ff9093167fffffffffffffffffffffff0000000000000000000000000000000000000000009091161773ffffffffffffffffffffffffffffffffffffffff9283169093029290921790915560a083015160038301805460c0860151929093167fffffffffffffffff000000000000000000000000000000000000000000000000909316929092177401000000000000000000000000000000000000000060e092831c0217909155909101516004909101555050505050505050565b6040805160a081018252600080825260208201819052918101829052606081018290526080810182905290612c0284846131fb565b6101245460e08201516101008301516040517ff1340da300000000000000000000000000000000000000000000000000000000815293945073ffffffffffffffffffffffffffffffffffffffff9092169263f1340da392612c6892918a90600401614ded565b600060405180830381600087803b158015612c8257600080fd5b505af1158015612c96573d6000803e3d6000fd5b5050505061012460009054906101000a900473ffffffffffffffffffffffffffffffffffffffff1673ffffffffffffffffffffffffffffffffffffffff1663fe428ed36040518163ffffffff1660e01b8152600401602060405180830381865afa158015612d08573d6000803e3d6000fd5b505050506040513d601f19601f82011682018060405250810190612d2c9190614e21565b67ffffffffffffffff16816000015167ffffffffffffffff1614612d7c576040517f0db21db600000000000000000000000000000000000000000000000000000000815260040160405180910390fd5b6101255460405160009173ffffffffffffffffffffffffffffffffffffffff1690612daa90879087906144ad565b6000604051808303816000865af19150503d8060008114612de7576040519150601f19603f3d011682016040523d82523d6000602084013e612dec565b606091505b5050905080612e27576040517fd611c31800000000000000000000000000000000000000000000000000000000815260040160405180910390fd5b60008260000151836020015184604001518560600151604051602001612e509493929190614e42565b604080517fffffffffffffffffffffffffffffffffffffffffffffffffffffffffffffffe08184030181529082905280516020909101206101275460808601517fd18b7db500000000000000000000000000000000000000000000000000000000845291935073ffffffffffffffffffffffffffffffffffffffff169163d18b7db591612ee1918590600401614e8a565b600060405180830381600087803b158015612efb57600080fd5b505af1158015612f0f573d6000803e3d6000fd5b505050506040518060a00160405280846000015167ffffffffffffffff1681526020018460c0015173ffffffffffffffffffffffffffffffffffffffff168152602001846080015181526020018460a001518152602001846060015181525093505050505b9392505050565b600054610100900460ff1661289b576040517f08c379a0000000000000000000000000000000000000000000000000000000008152600401610a1190614eff565b600054610100900460ff16612ffd576040517f08c379a0000000000000000000000000000000000000000000000000000000008152600401610a1190614eff565b609780547fffffffffffffffffffffffffffffffffffffffffffffffffffffffffffffff00169055565b600082815260656020908152604080832073ffffffffffffffffffffffffffffffffffffffff8516845290915290205460ff16610a245761306781613432565b613072836020613451565b604051602001613083929190614f0f565b604080517fffffffffffffffffffffffffffffffffffffffffffffffffffffffffffffffe0818403018152908290527f08c379a0000000000000000000000000000000000000000000000000000000008252610a1191600401614fbf565b73ffffffffffffffffffffffffffffffffffffffff81163b61312f576040517f08c379a0000000000000000000000000000000000000000000000000000000008152600401610a119061502a565b7f360894a13ba1a3210667c828492db98dca3e2076cc3735a920a3ca505d382bbc80547fffffffffffffffffffffffff00000000000000000000000000000000000000001673ffffffffffffffffffffffffffffffffffffffff92909216919091179055565b61319e83613664565b6000825111806131ab5750805b15610922576131ba83836136b1565b50505050565b60006611c37937e080006131dd6207a12063ffffffff851661503a565b6131f19067ffffffffffffffff861661504d565b612f74919061503a565b604080516101208082018352600080835260208301819052828401819052606083018190526080830181905260a0830181905260c0830181905260e083018190526101008301528251908101909252908061325c6101a0610180868861506c565b6132659161509c565b67ffffffffffffffff1681526020016132846101e06101c0868861506c565b61328d9161509c565b608061329f6101c06101a0888a61506c565b6132a89161509c565b901b1781526020016132c06102006101e0868861506c565b6132c99161509c565b81526020016132de610240610220868861506c565b6132e79161509c565b60806132f9610220610200888a61506c565b6133029161509c565b901b17815260200161331a610280610260868861506c565b6133239161509c565b6080613335610260610240888a61506c565b61333e9161509c565b901b1781526020016133566102c06102a0868861506c565b61335f9161509c565b60806133716102a0610280888a61506c565b61337a9161509c565b901b1781526020016133926102e06102c0868861506c565b61339b9161509c565b73ffffffffffffffffffffffffffffffffffffffff1681526020016133c6610320610300868861506c565b6133cf9161509c565b60806133e16103006102e0888a61506c565b6133ea9161509c565b901b178152602001613402610360610340868861506c565b61340b9161509c565b608061341d610340610320888a61506c565b6134269161509c565b901b1790529392505050565b606061085073ffffffffffffffffffffffffffffffffffffffff831660145b6060600061346083600261504d565b61346b90600261503a565b67ffffffffffffffff81111561348357613483613b62565b6040519080825280601f01601f1916602001820160405280156134ad576020820181803683370190505b5090507f3000000000000000000000000000000000000000000000000000000000000000816000815181106134e4576134e46150e5565b60200101907effffffffffffffffffffffffffffffffffffffffffffffffffffffffffffff1916908160001a9053507f780000000000000000000000000000000000000000000000000000000000000081600181518110613547576135476150e5565b60200101907effffffffffffffffffffffffffffffffffffffffffffffffffffffffffffff1916908160001a905350600061358384600261504d565b61358e90600161503a565b90505b600181111561362b577f303132333435363738396162636465660000000000000000000000000000000085600f16601081106135cf576135cf6150e5565b1a60f81b8282815181106135e5576135e56150e5565b60200101907effffffffffffffffffffffffffffffffffffffffffffffffffffffffffffff1916908160001a90535060049490941c9361362481615114565b9050613591565b508315612f74576040517f08c379a0000000000000000000000000000000000000000000000000000000008152600401610a1190615149565b61366d816130e1565b60405173ffffffffffffffffffffffffffffffffffffffff8216907fbc7cd75a20ee27fd9adebab32041f755214dbc6bffa90cc0225b39da2e5c2d3b90600090a250565b606073ffffffffffffffffffffffffffffffffffffffff83163b613701576040517f08c379a0000000000000000000000000000000000000000000000000000000008152600401610a11906151dd565b6000808473ffffffffffffffffffffffffffffffffffffffff1684604051613729919061460e565b600060405180830381855af49150503d8060008114613764576040519150601f19603f3d011682016040523d82523d6000602084013e613769565b606091505b509150915061379182826040518060600160405280602781526020016151ee6027913961379a565b95945050505050565b606083156137a9575081612f74565b612f7483838151156137be5781518083602001fd5b806040517f08c379a0000000000000000000000000000000000000000000000000000000008152600401610a119190614fbf565b7fffffffff0000000000000000000000000000000000000000000000000000000081165b8114610b7e57600080fd5b8035610850816137f2565b60006020828403121561384157613841600080fd5b600061384d8484613821565b949350505050565b8015155b82525050565b602081016108508284613855565b600073ffffffffffffffffffffffffffffffffffffffff8216610850565b6138168161386d565b80356108508161388b565b6000602082840312156138b4576138b4600080fd5b600061384d8484613894565b6138598161386d565b6020810161085082846138c0565b80613816565b8035610850816138d7565b6000602082840312156138fd576138fd600080fd5b600061384d84846138dd565b7f4e487b7100000000000000000000000000000000000000000000000000000000600052602160045260246000fd5b60038110610b7e57610b7e613909565b8061395281613938565b919050565b600061085082613948565b61385981613957565b63ffffffff8116613859565b80613859565b60ff8116613859565b7fffffffff000000000000000000000000000000000000000000000000000000008116613859565b61010081016139bd828b613962565b6139ca602083018a61396b565b6139d76040830189613977565b6139e4606083018861397d565b6139f160808301876138c0565b6139fe60a08301866138c0565b613a0b60c0830185613986565b613a1860e0830184613977565b9998505050505050505050565b602081016108508284613977565b60008060408385031215613a4957613a49600080fd5b6000613a5585856138dd565b9250506020613a6685828601613894565b9150509250929050565b600060808284031215613a8557613a85600080fd5b50919050565b67ffffffffffffffff8116613816565b803561085081613a8b565b63ffffffff8116613816565b803561085081613aa6565b60008060008060008060c08789031215613ad957613ad9600080fd5b6000613ae589896138dd565b9650506020613af689828a016138dd565b9550506040613b0789828a016138dd565b945050606087013567ffffffffffffffff811115613b2757613b27600080fd5b613b3389828a01613a70565b9350506080613b4489828a01613a9b565b92505060a0613b5589828a01613ab2565b9150509295509295509295565b7f4e487b7100000000000000000000000000000000000000000000000000000000600052604160045260246000fd5b7fffffffffffffffffffffffffffffffffffffffffffffffffffffffffffffffe0601f830116810181811067ffffffffffffffff82111715613bd557613bd5613b62565b6040525050565b6000613be760405190565b90506139528282613b91565b600067ffffffffffffffff821115613c0d57613c0d613b62565b7fffffffffffffffffffffffffffffffffffffffffffffffffffffffffffffffe0601f83011660200192915050565b82818337506000910152565b6000613c5b613c5684613bf3565b613bdc565b905082815260208101848484011115613c7657613c76600080fd5b613c81848285613c3c565b509392505050565b600082601f830112613c9d57613c9d600080fd5b813561384d848260208601613c48565b60008060408385031215613cc357613cc3600080fd5b6000613ccf8585613894565b925050602083013567ffffffffffffffff811115613cef57613cef600080fd5b613a6685828601613c89565b60006103208284031215613a8557613a85600080fd5b60008083601f840112613d2657613d26600080fd5b50813567ffffffffffffffff811115613d4157613d41600080fd5b602083019150836020820283011115613d5c57613d5c600080fd5b9250929050565b60008083601f840112613d7857613d78600080fd5b50813567ffffffffffffffff811115613d9357613d93600080fd5b602083019150836001820283011115613d5c57613d5c600080fd5b6000806000806000806000610380888a031215613dcd57613dcd600080fd5b6000613dd98a8a613cfb565b97505061032088013567ffffffffffffffff811115613dfa57613dfa600080fd5b613e068a828b01613d11565b965096505061034088013567ffffffffffffffff811115613e2957613e29600080fd5b613e358a828b01613d63565b945094505061036088013567ffffffffffffffff811115613e5857613e58600080fd5b613e648a828b01613d63565b925092505092959891949750929550565b60208101610850828461396b565b60008060006103408486031215613e9c57613e9c600080fd5b6000613ea88686613cfb565b93505061032084013567ffffffffffffffff811115613ec957613ec9600080fd5b613ed586828701613d63565b92509250509250925092565b600080600080600080600080610100898b031215613f0157613f01600080fd5b6000613f0d8b8b613894565b9850506020613f1e8b828c01613894565b9750506040613f2f8b828c01613894565b9650506060613f408b828c01613894565b9550506080613f518b828c01613894565b94505060a0613f628b828c01613ab2565b93505060c0613f738b828c01613894565b92505060e0613f848b828c01613894565b9150509295985092959890939650565b6000806000806000806103808789031215613fb157613fb1600080fd5b6000613fbd8989613cfb565b96505061032087013567ffffffffffffffff811115613fde57613fde600080fd5b613fea89828a01613d11565b955095505061034087013567ffffffffffffffff81111561400d5761400d600080fd5b61401989828a01613d63565b935093505061036087013567ffffffffffffffff81111561403c5761403c600080fd5b613b5589828a01613a70565b600060608284031215613a8557613a85600080fd5b60008060008060008060008060e0898b03121561407c5761407c600080fd5b60006140888b8b613a9b565b98505060206140998b828c016138dd565b975050604089013567ffffffffffffffff8111156140b9576140b9600080fd5b6140c58b828c01614048565b965050606089013567ffffffffffffffff8111156140e5576140e5600080fd5b6140f18b828c01613a70565b95505060806141028b828c01613a9b565b94505060a06141138b828c01613ab2565b93505060c089013567ffffffffffffffff81111561413357614133600080fd5b61413f8b828c01613d63565b92509250509295985092959890939650565b602f81526000602082017f416363657373436f6e74726f6c3a2063616e206f6e6c792072656e6f756e636581527f20726f6c657320666f722073656c660000000000000000000000000000000000602082015291505b5060400190565b6020808252810161085081614151565b602c81526000602082017f46756e6374696f6e206d7573742062652063616c6c6564207468726f7567682081527f64656c656761746563616c6c0000000000000000000000000000000000000000602082015291506141a7565b60208082528101610850816141be565b602c81526000602082017f46756e6374696f6e206d7573742062652063616c6c6564207468726f7567682081527f6163746976652070726f78790000000000000000000000000000000000000000602082015291506141a7565b6020808252810161085081614228565b60ff8116613816565b803561085081614292565b6000608082840312156142bb576142bb600080fd5b6142c56080613bdc565b905060006142d38484613894565b82525060206142e484848301613821565b60208301525060406142f88482850161429b565b604083015250606082013567ffffffffffffffff81111561431b5761431b600080fd5b61432784828501613c89565b60608301525092915050565b600061085036836142a6565b7f4e487b7100000000000000000000000000000000000000000000000000000000600052601160045260246000fd5b63ffffffff9182169190811690828201908111156108505761085061433f565b67ffffffffffffffff8116613859565b608081016143ac828761396b565b6143b96020830186613977565b6143c6604083018561438e565b613791606083018461396b565b603881526000602082017f555550535570677261646561626c653a206d757374206e6f742062652063616c81527f6c6564207468726f7567682064656c656761746563616c6c0000000000000000602082015291506141a7565b60208082528101610850816143d3565b82818337505050565b6000835b93507f07ffffffffffffffffffffffffffffffffffffffffffffffffffffffffffffff83111561447c5761447c600080fd5b60208302925061448d83858461443d565b50500190565b600061384d828486614446565b600061448d838584613c3c565b600061384d8284866144a0565b604081016144c88285613977565b612f7460208301846138c0565b600080858511156144e8576144e8600080fd5b838611156144f8576144f8600080fd5b5050602083020193919092039150565b81835260006020840161444a565b818352600060208401935061452c838584613c3c565b7fffffffffffffffffffffffffffffffffffffffffffffffffffffffffffffffe0601f8401165b9093019392505050565b60c0810161456b828b61438e565b614578602083018a6138c0565b6145856040830189613977565b6145926060830188613977565b81810360808301526145a5818688614508565b905081810360a08301526145ba818486614516565b9a9950505050505050505050565b60005b838110156145e35781810151838201526020016145cb565b50506000910152565b60006145f6825190565b6146048185602086016145c8565b9290920192915050565b6000612f7482846145ec565b602e81526000602082017f496e697469616c697a61626c653a20636f6e747261637420697320616c72656181527f647920696e697469616c697a6564000000000000000000000000000000000000602082015291506141a7565b602080825281016108508161461a565b603381526000602082017f4178696f6d563251756572793a204178696f6d2068656164657220766572696681527f6965722061646472657373206973207a65726f00000000000000000000000000602082015291506141a7565b6020808252810161085081614684565b602681526000602082017f4178696f6d563251756572793a2076657269666965722061646472657373206981527f73207a65726f0000000000000000000000000000000000000000000000000000602082015291506141a7565b60208082528101610850816146ee565b602981526000602082017f4178696f6d563251756572793a206178696f6d50726f7665722061646472657381527f73206973207a65726f0000000000000000000000000000000000000000000000602082015291506141a7565b6020808252810161085081614758565b602e81526000602082017f4178696f6d563251756572793a206178696f6d526573756c7453746f7265206181527f646472657373206973207a65726f000000000000000000000000000000000000602082015291506141a7565b60208082528101610850816147c2565b603281526000602082017f4178696f6d563251756572793a206178696f6d46656553746f7265416464726581527f73732061646472657373206973207a65726f0000000000000000000000000000602082015291506141a7565b602080825281016108508161482c565b602681526000602082017f4178696f6d563251756572793a2074696d656c6f636b2061646472657373206981527f73207a65726f0000000000000000000000000000000000000000000000000000602082015291506141a7565b6020808252810161085081614896565b602681526000602082017f4178696f6d563251756572793a20677561726469616e2061646472657373206981527f73207a65726f0000000000000000000000000000000000000000000000000000602082015291506141a7565b6020808252810161085081614900565b600060ff8216610850565b6138598161496a565b602081016108508284614975565b6000602082840312156149a1576149a1600080fd5b600061384d848461429b565b60008083357fffffffffffffffffffffffffffffffffffffffffffffffffffffffffffffffe1368590030181126149e6576149e6600080fd5b80840192508235915067ffffffffffffffff821115614a0757614a07600080fd5b602083019250600182023603831315614a2257614a22600080fd5b509250929050565b60006108508260f81b90565b61385960ff8216614a2a565b60006108508260c01b90565b61385967ffffffffffffffff8216614a42565b6000614a6d8287614a36565b600182019150614a7d8286614a4e565b600882019150614a8d8285613977565b602082019150614a9d8284614a36565b50600101949350505050565b60008083357fffffffffffffffffffffffffffffffffffffffffffffffffffffffffffffffe136859003018112614ae257614ae2600080fd5b80840192508235915067ffffffffffffffff821115614b0357614b03600080fd5b60209283019282023603831315614a2257614a22600080fd5b6000614b288287614a36565b600182019150614b388286614a36565b600182019150614b49828486614446565b9695505050505050565b60006108508260f01b90565b61385961ffff8216614b53565b6000614b78828a614a36565b600182019150614b888289614a4e565b600882019150614b988288613977565b602082019150614ba882876145ec565b9150614bb48286614b5f565b600282019150613a188284866144a0565b60608101614bd3828661396b565b614be0602083018561438e565b61384d604083018461396b565b8051610850816138d7565b600060208284031215614c0d57614c0d600080fd5b600061384d8484614bed565b602e81526000602082017f45524331393637557067726164653a206e657720696d706c656d656e7461746981527f6f6e206973206e6f742055555053000000000000000000000000000000000000602082015291506141a7565b6020808252810161085081614c19565b602981526000602082017f45524331393637557067726164653a20756e737570706f727465642070726f7881527f6961626c65555549440000000000000000000000000000000000000000000000602082015291506141a7565b6020808252810161085081614c83565b60608101614cfb82866138c0565b614d086020830185613977565b61384d6040830184613977565b6000612f7460208401846138dd565b6000612f746020840184613ab2565b610a24610140838361443d565b6103208201614d4f8280614d15565b614d598482613977565b50614d676020830183614d15565b614d746020850182613977565b50614d826040830183614d24565b614d8f604085018261396b565b50614d9d6060830183614d24565b614daa606085018261396b565b5060808201614dbc6080850182614d33565b506101c08201614dd06101c0850182614d33565b50614ddf610300830183614d24565b6131ba61030085018261396b565b6103608101614dfc8286613977565b614e096020830185613977565b61384d6040830184614d40565b805161085081613a8b565b600060208284031215614e3657614e36600080fd5b600061384d8484614e16565b6000614e4e8287614a4e565b600882019150614e5e8286613977565b602082019150614e6e8285613977565b602082019150614e7e8284613977565b50602001949350505050565b60408101614e988285613977565b612f746020830184613977565b602b81526000602082017f496e697469616c697a61626c653a20636f6e7472616374206973206e6f74206981527f6e697469616c697a696e67000000000000000000000000000000000000000000602082015291506141a7565b6020808252810161085081614ea5565b7f416363657373436f6e74726f6c3a206163636f756e742000000000000000000081526017016000614f4182856145ec565b7f206973206d697373696e6720726f6c65200000000000000000000000000000008152601101915061384d82846145ec565b6000614f7d825190565b808452602084019350614f948185602086016145c8565b7fffffffffffffffffffffffffffffffffffffffffffffffffffffffffffffffe0601f820116614553565b60208082528101612f748184614f73565b602d81526000602082017f455243313936373a206e657720696d706c656d656e746174696f6e206973206e81527f6f74206120636f6e747261637400000000000000000000000000000000000000602082015291506141a7565b6020808252810161085081614fd0565b808201808211156108505761085061433f565b8181028082158382048514176150655761506561433f565b5092915050565b6000808585111561507f5761507f600080fd5b8386111561508f5761508f600080fd5b5050820193919092039150565b8035828260208210156150dd576150d87fffffffffffffffffffffffffffffffffffffffffffffffffffffffffffffffff836020036008021b90565b831692505b505092915050565b7f4e487b7100000000000000000000000000000000000000000000000000000000600052603260045260246000fd5b6000816151235761512361433f565b507fffffffffffffffffffffffffffffffffffffffffffffffffffffffffffffffff0190565b60208082528181019081527f537472696e67733a20686578206c656e67746820696e73756666696369656e74604083015260608201610850565b602681526000602082017f416464726573733a2064656c65676174652063616c6c20746f206e6f6e2d636f81527f6e74726163740000000000000000000000000000000000000000000000000000602082015291506141a7565b602080825281016108508161518356fe416464726573733a206c6f772d6c6576656c2064656c65676174652063616c6c206661696c6564a26469706673582212208649ba26cf09ac329ba7396b5ffd2aca79688d9df77820bf1b44f7cb48618c3f64736f6c63430008130033",
    "linkReferences": {}
  },
  "methodIdentifiers": {
    "AXIOM_ROLE()": "2b7d2bad",
    "DEFAULT_ADMIN_ROLE()": "a217fddf",
    "GUARDIAN_ROLE()": "24ea54f4",
    "PROVER_ROLE()": "dc9a4ef6",
    "TIMELOCK_ROLE()": "f288a2e2",
    "axiomFeeStoreAddress()": "beaa0ebd",
    "axiomHeaderVerifierAddress()": "469b2362",
    "axiomProverAddress()": "b6ed0388",
    "axiomResultStoreAddress()": "d3046ea6",
    "freezeAll()": "99464c89",
    "frozen()": "054f7d9c",
    "fulfillOffchainQuery((bytes32,bytes32,uint32,uint32,bytes32[10],bytes32[10],uint32),bytes32[],bytes,(address,bytes4,uint8,bytes))": "e2069efe",
    "fulfillQuery((bytes32,bytes32,uint32,uint32,bytes32[10],bytes32[10],uint32),bytes32[],bytes,bytes)": "673fed62",
    "getRoleAdmin(bytes32)": "248a9ca3",
    "grantRole(bytes32,address)": "2f2ff15d",
    "hasRole(bytes32,address)": "91d14854",
    "initialize(address,address,address,address,address,uint32,address,address)": "8a8cc0ec",
    "proxiableUUID()": "52d1902d",
    "queries(bytes32)": "21dfb600",
    "queryDeadlineInterval()": "79ce0468",
    "refundQuery(bytes32)": "c15dcf40",
    "renounceRole(bytes32,address)": "36568abe",
    "revokeRole(bytes32,address)": "d547741f",
    "sendQuery(uint64,bytes32,(uint8,bytes32[],bytes),(address,bytes4,uint8,bytes),uint64,uint32,bytes)": "ea53dce4",
    "sendQueryWithIpfsData(bytes32,bytes32,bytes32,(address,bytes4,uint8,bytes),uint64,uint32)": "4d7d007d",
    "supportsInterface(bytes4)": "01ffc9a7",
    "unfreezeAll()": "66c5c4a0",
    "updateAxiomFeeStore(address)": "07c11e79",
    "updateAxiomHeaderVerifierAddress(address)": "3237c2fd",
    "updateAxiomProverAddress(address)": "e166cdbd",
    "updateVerifierAddress(address)": "736f1618",
    "upgradeTo(address)": "3659cfe6",
    "upgradeToAndCall(address,bytes)": "4f1ef286",
    "verifierAddress()": "18bdffbb",
    "verifyAndWriteResult((bytes32,bytes32,uint32,uint32,bytes32[10],bytes32[10],uint32),bytes)": "898091e0"
  },
  "id": 25
}