{
  "abi": [
    {
      "inputs": [
        {
          "internalType": "address",
          "name": "_oldAddress",
          "type": "address"
        },
        {
          "internalType": "address",
          "name": "_verifierAddress",
          "type": "address"
        }
      ],
      "stateMutability": "nonpayable",
      "type": "constructor"
    },
    {
      "anonymous": false,
      "inputs": [
        {
          "indexed": true,
          "internalType": "address",
          "name": "previousOwner",
          "type": "address"
        },
        {
          "indexed": true,
          "internalType": "address",
          "name": "newOwner",
          "type": "address"
        }
      ],
      "name": "OwnershipTransferred",
      "type": "event"
    },
    {
      "anonymous": false,
      "inputs": [
        {
          "indexed": false,
          "internalType": "uint32",
          "name": "startBlockNumber",
          "type": "uint32"
        },
        {
          "indexed": false,
          "internalType": "bytes32",
          "name": "prevHash",
          "type": "bytes32"
        },
        {
          "indexed": false,
          "internalType": "bytes32",
          "name": "root",
          "type": "bytes32"
        },
        {
          "indexed": false,
          "internalType": "uint32",
          "name": "numFinal",
          "type": "uint32"
        }
      ],
      "name": "UpdateEvent",
      "type": "event"
    },
    {
      "anonymous": false,
      "inputs": [
        {
          "indexed": false,
          "internalType": "address",
          "name": "newAddress",
          "type": "address"
        }
      ],
      "name": "UpdateSnarkVerifierAddress",
      "type": "event"
    },
    {
      "inputs": [],
      "name": "VERSION",
      "outputs": [
        {
          "internalType": "string",
          "name": "",
          "type": "string"
        }
      ],
      "stateMutability": "view",
      "type": "function"
    },
    {
      "inputs": [],
      "name": "creationBlockNumber",
      "outputs": [
        {
          "internalType": "uint256",
          "name": "",
          "type": "uint256"
        }
      ],
      "stateMutability": "view",
      "type": "function"
    },
    {
      "inputs": [
        {
          "internalType": "uint256",
          "name": "depth",
          "type": "uint256"
        }
      ],
      "name": "getEmptyHash",
      "outputs": [
        {
          "internalType": "bytes32",
          "name": "",
          "type": "bytes32"
        }
      ],
      "stateMutability": "pure",
      "type": "function"
    },
    {
      "inputs": [
        {
          "internalType": "uint32",
          "name": "startBlockNumber",
          "type": "uint32"
        }
      ],
      "name": "historicalRoots",
      "outputs": [
        {
          "internalType": "bytes32",
          "name": "",
          "type": "bytes32"
        }
      ],
      "stateMutability": "view",
      "type": "function"
    },
    {
      "inputs": [
        {
          "components": [
            {
              "internalType": "uint32",
              "name": "blockNumber",
              "type": "uint32"
            },
            {
              "internalType": "bytes32",
              "name": "claimedBlockHash",
              "type": "bytes32"
            },
            {
              "internalType": "bytes32",
              "name": "prevHash",
              "type": "bytes32"
            },
            {
              "internalType": "uint32",
              "name": "numFinal",
              "type": "uint32"
            },
            {
              "internalType": "bytes32[10]",
              "name": "merkleProof",
              "type": "bytes32[10]"
            }
          ],
          "internalType": "struct IAxiomV0.BlockHashWitness",
          "name": "witness",
          "type": "tuple"
        }
      ],
      "name": "isBlockHashValid",
      "outputs": [
        {
          "internalType": "bool",
          "name": "",
          "type": "bool"
        }
      ],
      "stateMutability": "view",
      "type": "function"
    },
    {
      "inputs": [
        {
          "internalType": "uint32",
          "name": "blockNumber",
          "type": "uint32"
        },
        {
          "internalType": "bytes32",
          "name": "claimedBlockHash",
          "type": "bytes32"
        }
      ],
      "name": "isRecentBlockHashValid",
      "outputs": [
        {
          "internalType": "bool",
          "name": "",
          "type": "bool"
        }
      ],
      "stateMutability": "view",
      "type": "function"
    },
    {
      "inputs": [],
      "name": "oldAxiomAddress",
      "outputs": [
        {
          "internalType": "address",
          "name": "",
          "type": "address"
        }
      ],
      "stateMutability": "view",
      "type": "function"
    },
    {
      "inputs": [],
      "name": "owner",
      "outputs": [
        {
          "internalType": "address",
          "name": "",
          "type": "address"
        }
      ],
      "stateMutability": "view",
      "type": "function"
    },
    {
      "inputs": [],
      "name": "renounceOwnership",
      "outputs": [],
      "stateMutability": "nonpayable",
      "type": "function"
    },
    {
      "inputs": [
        {
          "internalType": "address",
          "name": "newOwner",
          "type": "address"
        }
      ],
      "name": "transferOwnership",
      "outputs": [],
      "stateMutability": "nonpayable",
      "type": "function"
    },
    {
      "inputs": [
        {
          "internalType": "bytes32",
          "name": "nextRoot",
          "type": "bytes32"
        },
        {
          "internalType": "uint32",
          "name": "nextNumFinal",
          "type": "uint32"
        },
        {
          "internalType": "bytes",
          "name": "proofData",
          "type": "bytes"
        }
      ],
      "name": "updateOld",
      "outputs": [],
      "stateMutability": "nonpayable",
      "type": "function"
    },
    {
      "inputs": [
        {
          "internalType": "bytes",
          "name": "proofData",
          "type": "bytes"
        }
      ],
      "name": "updateRecent",
      "outputs": [],
      "stateMutability": "nonpayable",
      "type": "function"
    },
    {
      "inputs": [
        {
          "internalType": "address",
          "name": "_verifierAddress",
          "type": "address"
        }
      ],
      "name": "updateSnarkVerifierAddress",
      "outputs": [],
      "stateMutability": "nonpayable",
      "type": "function"
    },
    {
      "inputs": [],
      "name": "verifierAddress",
      "outputs": [
        {
          "internalType": "address",
          "name": "",
          "type": "address"
        }
      ],
      "stateMutability": "view",
      "type": "function"
    }
  ],
  "bytecode": {
    "object": "0x60806040523480156200001157600080fd5b5060405162001556380380620015568339810160408190526200003491620000e2565b6200003f3362000075565b43600355600280546001600160a01b039384166001600160a01b031991821617909155600180549290931691161790556200011a565b600080546001600160a01b038381166001600160a01b0319831681178455604051919092169283917f8be0079c531659141344cd1fd0a4f28419497f9722a3daafe3b4186f6b6457e09190a35050565b80516001600160a01b0381168114620000dd57600080fd5b919050565b60008060408385031215620000f657600080fd5b6200010183620000c5565b91506200011160208401620000c5565b90509250929050565b61142c806200012a6000396000f3fe608060405234801561001057600080fd5b50600436106100ea5760003560e01c80638da5cb5b1161008c578063c1f7cae211610066578063c1f7cae2146101d3578063c6ca4753146101e6578063f2fde38b146101f9578063ffa1ad741461020c57600080fd5b80638da5cb5b1461019c578063a56fa9a2146101ad578063b737127e146101c057600080fd5b80631bf30929116100c85780631bf30929146101475780636f193b831461015e578063715018a61461018157806377cadc4e1461018957600080fd5b806301ef3afa146100ef57806311b63d011461010457806318bdffbb14610117575b600080fd5b6101026100fd366004611043565b61023b565b005b610102610112366004611099565b6105b6565b60015461012a906001600160a01b031681565b6040516001600160a01b0390911681526020015b60405180910390f35b61015060035481565b60405190815260200161013e565b61017161016c3660046110f3565b610776565b604051901515815260200161013e565b61010261090b565b60025461012a906001600160a01b031681565b6000546001600160a01b031661012a565b6101026101bb36600461110c565b61091f565b6101506101ce36600461113c565b61097b565b6101716101e1366004611155565b610b03565b6101506101f436600461117f565b610b24565b61010261020736600461110c565b610bc6565b61022e6040518060400160405280600381526020016218171960e91b81525081565b60405161013e919061119a565b600080600080600061024d8787610c3f565b9450945094509450945061025f610fdb565b60015b600a81116103a45788886102778360406111fe565b61028461018060a0611215565b63ffffffff166102949190611239565b61029f906010611239565b6102aa906020611239565b906102b68460406111fe565b6102c361018060a0611215565b63ffffffff166102d39190611239565b6102de906040611239565b926102eb9392919061124c565b6102f491611276565b608090811c908a8a6103078560406111fe565b61031461018060a0611215565b63ffffffff166103249190611239565b906103308660406111fe565b61033d61018060a0611215565b63ffffffff1661034d9190611239565b610358906020611239565b926103659392919061124c565b61036e916112af565b901b178261037d6001846112cd565b600a811061038d5761038d6112e0565b60200201528061039c816112f6565b915050610262565b5060006103b1858561130f565b6103bc906001611215565b905061040063ffffffff821611156103d357600080fd5b6103df6104008661132c565b63ffffffff16156103ef57600080fd5b61010061040263ffffffff8616436112cd565b111561040d57600080fd5b438463ffffffff161061041f57600080fd5b858463ffffffff16401461043257600080fd5b61043c8989610ec0565b61044557600080fd5b826105225760015b600a8111610520578261046182600a6112cd565b600a8110610471576104716112e0565b6020020151156104d4578261048782600a6112cd565b600a8110610497576104976112e0565b6020020151846040516020016104b7929190918252602082015260400190565b60405160208183030381529060405280519060200120935061050e565b836104e36101ce6001846112cd565b6040805160208101939093528201526060016040516020818303038152906040528051906020012093505b80610518816112f6565b91505061044d565b505b8683826040516020016105379392919061135d565b60408051808303601f19018152828252805160209182012063ffffffff898116600081815260048552859020929092559084529083018a9052908201859052821660608201527f8b1606624b2f737eaf245dca9fba97deb930da8f4c71fb05a3f1b77d6bb8dfeb906080015b60405180910390a1505050505050505050565b60008060008060006105c88787610c3f565b94509450945094509450610400836105e0919061132c565b63ffffffff161561061d5760405162461bcd60e51b8152602060048201526002602482015261616160f01b60448201526064015b60405180910390fd5b61062a600161040061130f565b63ffffffff1661063a848461130f565b63ffffffff16146106725760405162461bcd60e51b8152602060048201526002602482015261313160f11b6044820152606401610614565b8389896040516020016106879392919061135d565b604051602081830303815290604052805190602001206106ad8360016101f49190611215565b146106df5760405162461bcd60e51b8152602060048201526002602482015261636360f01b6044820152606401610614565b6106e98787610ec0565b6106f257600080fd5b84816104006040516020016107099392919061135d565b60408051808303601f19018152828252805160209182012063ffffffff87166000818152600484528490209190915583528201879052810182905261040060608201527f8b1606624b2f737eaf245dca9fba97deb930da8f4c71fb05a3f1b77d6bb8dfeb906080016105a3565b60006020820135810361078857600080fd5b600061040061079a602085018561117f565b6107a4919061132c565b90506000816107b6602086018661117f565b6107c0919061130f565b905060006107cd82610b24565b905060008190036107dd57600080fd5b602085013560005b600a60ff821610156108bf57600163ffffffff861660ff83161c1660000361085c5781876080018260ff16600a8110610820576108206112e0565b602002013560405160200161083f929190918252602082015260400190565b6040516020818303038152906040528051906020012091506108ad565b866080018160ff16600a8110610874576108746112e0565b602002013582604051602001610894929190918252602082015260400190565b6040516020818303038152906040528051906020012091505b806108b781611380565b9150506107e5565b506040860135816108d66080890160608a0161117f565b6040516020016108e89392919061135d565b604051602081830303815290604052805190602001208214945050505050919050565b610913610f31565b61091d6000610f8b565b565b610927610f31565b600180546001600160a01b0319166001600160a01b0383169081179091556040519081527fdcc09f615b7ca32bcaf36101ecd4616ec6bf6a357280cf777bff0fc63f5c8f4f9060200160405180910390a150565b604080516101408101825260008082527fad3228b676f7d3cd4284a5443f17f1962b36e491b30a40b2405849e597ba5fb560208301527fb4c11951957c6f8f642c4af61cd6b24640fec6dc7fc607ee8206a99e92410d30928201929092527f21ddb9a356815c3fac1026b6dec5df3124afbadb485c9ba5a3e3398a04b7ba8560608201527fe58769b32a1beaf1ea27375a44095a0d1fb664ce2dd358e7fcbfb78c26a1934460808201527f0eb01ebfc9ed27500cd4dfc979272d1f0913cc9f66540d7e8005811109e1cf2d60a08201527f887c22bd8750d34016ac3c66b5ff102dacdd73f6b014e710b51e8022af9a196860c08201527fffd70157e48063fc33c97a050f7f640233bf646cc98d9524c6b92bcf3ab56f8360e08201527f9867cc5f7f196b93bae1e27e6320742445d290f2263827498b54fec539f756af6101008201527fcefad4e508c098b9a7e1d8feb19955fb02ba9675585078710969d3440f5054e06101208201528083600a8110610af757610af76112e0565b60200201519392505050565b600063ffffffff831640808203610b1957600080fd5b821490505b92915050565b60006003548263ffffffff161015610ba85760025460405163c6ca475360e01b815263ffffffff841660048201526001600160a01b039091169063c6ca475390602401602060405180830381865afa158015610b84573d6000803e3d6000fd5b505050506040513d601f19601f82011682018060405250810190610b1e919061139f565b5063ffffffff1660009081526004602052604090205490565b919050565b610bce610f31565b6001600160a01b038116610c335760405162461bcd60e51b815260206004820152602660248201527f4f776e61626c653a206e6577206f776e657220697320746865207a65726f206160448201526564647265737360d01b6064820152608401610614565b610c3c81610f8b565b50565b6000808080808686610c546101806020611215565b610c5f906010611215565b63ffffffff1690610c736101806040611215565b63ffffffff1692610c869392919061124c565b610c8f91611276565b608090811c908861018089610ca5826020611215565b63ffffffff1692610cb89392919061124c565b610cc1916112af565b901b1794508686610cd56101806060611215565b610ce0906010611215565b63ffffffff1690610cf46101806080611215565b63ffffffff1692610d079392919061124c565b610d1091611276565b608090811c908888610d256101806040611215565b63ffffffff1690610d396101806060611215565b63ffffffff1692610d4c9392919061124c565b610d55916112af565b901b17935086866008610d6b61018060a0611215565b610d75919061130f565b63ffffffff16906004610d8b61018060a0611215565b610d95919061130f565b63ffffffff1692610da89392919061124c565b610db1916113b8565b60e01c925086866004610dc761018060a0611215565b610dd1919061130f565b63ffffffff1690610de561018060a0611215565b63ffffffff1692610df89392919061124c565b610e01916113b8565b60e01c91508686610e1561018060a0611215565b610e20906030611215565b63ffffffff1690610e3461018060a0611215565b610e3f906040611215565b63ffffffff1692610e529392919061124c565b610e5b91611276565b608090811c908888610e7061018060a0611215565b63ffffffff1690610e8461018060a0611215565b610e8f906020611215565b63ffffffff1692610ea29392919061124c565b610eab916112af565b60001c901b1760001b90509295509295909350565b60015460405160009182916001600160a01b0390911690610ee490869086906113e6565b6000604051808303816000865af19150503d8060008114610f21576040519150601f19603f3d011682016040523d82523d6000602084013e610f26565b606091505b509095945050505050565b6000546001600160a01b0316331461091d5760405162461bcd60e51b815260206004820181905260248201527f4f776e61626c653a2063616c6c6572206973206e6f7420746865206f776e65726044820152606401610614565b600080546001600160a01b038381166001600160a01b0319831681178455604051919092169283917f8be0079c531659141344cd1fd0a4f28419497f9722a3daafe3b4186f6b6457e09190a35050565b604051806101400160405280600a906020820280368337509192915050565b60008083601f84011261100c57600080fd5b50813567ffffffffffffffff81111561102457600080fd5b60208301915083602082850101111561103c57600080fd5b9250929050565b6000806020838503121561105657600080fd5b823567ffffffffffffffff81111561106d57600080fd5b61107985828601610ffa565b90969095509350505050565b803563ffffffff81168114610bc157600080fd5b600080600080606085870312156110af57600080fd5b843593506110bf60208601611085565b9250604085013567ffffffffffffffff8111156110db57600080fd5b6110e787828801610ffa565b95989497509550505050565b60006101c0828403121561110657600080fd5b50919050565b60006020828403121561111e57600080fd5b81356001600160a01b038116811461113557600080fd5b9392505050565b60006020828403121561114e57600080fd5b5035919050565b6000806040838503121561116857600080fd5b61117183611085565b946020939093013593505050565b60006020828403121561119157600080fd5b61113582611085565b600060208083528351808285015260005b818110156111c7578581018301518582016040015282016111ab565b506000604082860101526040601f19601f8301168501019250505092915050565b634e487b7160e01b600052601160045260246000fd5b8082028115828204841417610b1e57610b1e6111e8565b63ffffffff818116838216019080821115611232576112326111e8565b5092915050565b80820180821115610b1e57610b1e6111e8565b6000808585111561125c57600080fd5b8386111561126957600080fd5b5050820193919092039150565b6fffffffffffffffffffffffffffffffff1981358181169160108510156112a75780818660100360031b1b83161692505b505092915050565b80356020831015610b1e57600019602084900360031b1b1692915050565b81810381811115610b1e57610b1e6111e8565b634e487b7160e01b600052603260045260246000fd5b600060018201611308576113086111e8565b5060010190565b63ffffffff828116828216039080821115611232576112326111e8565b600063ffffffff8084168061135157634e487b7160e01b600052601260045260246000fd5b92169190910692915050565b928352602083019190915260e01b6001600160e01b031916604082015260440190565b600060ff821660ff8103611396576113966111e8565b60010192915050565b6000602082840312156113b157600080fd5b5051919050565b6001600160e01b031981358181169160048510156112a75760049490940360031b84901b1690921692915050565b818382376000910190815291905056fea26469706673582212202733095270fb9d5c2ee96aa16f0a48cdbae162ef90b2e2356254e8c1c1504f7764736f6c63430008130033",
    "linkReferences": {}
  },
  "methodIdentifiers": {
    "VERSION()": "ffa1ad74",
    "creationBlockNumber()": "1bf30929",
    "getEmptyHash(uint256)": "b737127e",
    "historicalRoots(uint32)": "c6ca4753",
    "isBlockHashValid((uint32,bytes32,bytes32,uint32,bytes32[10]))": "6f193b83",
    "isRecentBlockHashValid(uint32,bytes32)": "c1f7cae2",
    "oldAxiomAddress()": "77cadc4e",
    "owner()": "8da5cb5b",
    "renounceOwnership()": "715018a6",
    "transferOwnership(address)": "f2fde38b",
    "updateOld(bytes32,uint32,bytes)": "11b63d01",
    "updateRecent(bytes)": "01ef3afa",
    "updateSnarkVerifierAddress(address)": "a56fa9a2",
    "verifierAddress()": "18bdffbb"
  },
  "id": 21
}